
AWY DCT   SA11995210215490+52379723+014585556+52333332+018945833FL245     1 4SUI      6AMUTO   
AWY DCT   SA10219740219750+51308056+017114444+51333057+017555833FL095FL6601 6VAGON    6VAGSA   
AWY DCT   SA10224840215890+54194443+023406944+52921665+022944444FL095FL6601 6VABER    6BESOT   
AWY DCT   SA11995210216700+52379723+014585556+51078609+016491945FL095FL6601 4SUI      6GIGAL   
AWY DCT   SA10219110219260+49940277+019899999+50653332+018411666FL095FL6601 6SKAVI    6SUDOL   
AWY DCT   SA10219002066490+52922501+016225278+53475277+015333056FL245FL6601 6RONEX    5CHO     
AWY DCT   SA10218840215530+51145557+016259166+51495556+017123889FL095FL2851 6RASUT    6ARMEX   
AWY DCT   SA10218140458930+49939720+018923055+49847496+018572835FL095FL6601 6NOMIX    6TUSIN   
AWY DCT   SA10217860217890+52592220+018000000+55209442+017505556FL315FL6601 6MOLIL    6MOTAD   
AWY DCT   SA10217672066490+54244167+016881389+53475277+015333056FL315FL6601 6MALOX    5CHO     
AWY DCT   SA10177340216700+51406944+014961667+51078609+016491945FL095FL2851 6LASIS    6GIGAL   
AWY DCT   SA11994980219260+49482777+019678611+50653332+018411666FL095FL6601 4JAB      6SUDOL   
AWY DCT   SA10216960219110+50027779+018941667+49940277+019899999FL095FL6601 6IBEKA    6SKAVI   
AWY DCT   SA10216700217810+51078609+016491945+51185833+016934444FL095FL6601 6GIGAL    6MISKA   
AWY DCT   SA10216320216940+53698334+020500000+53521111+018781389FL295FL6601 6ELKAR    6GRUDA   
AWY DCT   SA10477170219000+49336388+021010278+52922501+016225278FL315FL6601 6LENOV    6RONEX   
AWY DCT   SA10219770217860+54795277+017826667+52592220+018000000FL285FL6601 6VAPOS    6MOLIL   
AWY DCT   SA10457940215410+50795277+015367089+51581417+019960750FL165FL6601 6LAGAR    6AGAVA   
AWY DCT   SA30477170217460+49336388+021010278+51284447+020693889FL095FL6601 6LENOV    6LOGDA   
AWY DCT   SA10219320216440+53282501+016898889+53592777+023629722FL285FL6601 6TADAK    6ENOBI   
AWY DCT   SA10215430217080+51919998+016472778+54637779+019355556FL285FL6601 6AKAPI    6IPLIT   
AWY DCT   SA10217312066490+55258610+018448055+53475277+015333056FL295FL6601 6KUNER    5CHO     
AWY DCT   SA30218830216020+54912777+018958334+53116112+017035278FL235FL2451 6RANOK    6DEKUT   
AWY DCT   SA10215950219620+53759445+014275555+54260277+016497499FL095     1 6BINKA    6URORA   
AWY DCT   SA10224300224350+56369068+024630466+55344444+024636945FL245     1 6ERIVA    6IKAMU   
AWY DCT   SA10223610224590+56382778+022612777+55451221+023610305FL245     1 6ASKOR    6PELUT   
AWY DCT   SA10224490224590+56422501+022161943+55451221+023610305FL245     1 6MIRMA    6PELUT   
AWY DCT   SA10224780224490+55464138+023812360+56422501+022161943FL245     1 6UGNIS    6MIRMA   
AWY DCT   SA10224780223610+55464138+023812360+56382778+022612777FL245     1 6UGNIS    6ASKOR   
AWY DCT   SA10224780224190+55464138+023812360+56363056+023426389FL245     1 6UGNIS    6BERIL   
AWY DCT   SA10224780224340+55464138+023812360+56371387+023755556FL245     1 6UGNIS    6GUNTA   
AWY DCT   SA10224120224161+55193832+022752944+55810280+019091110FL245     1 6AKUMA    6BALIT   
AWY DCT   SA10224120224721+55193832+022752944+55603611+019838333FL245     1 6AKUMA    6TIGNU   
AWY DCT   SA10224120224741+55193832+022752944+56067223+020747777FL245     1 6AKUMA    6TIRIN   
AWY DCT   SA10224530224651+54952888+024247528+56073891+021093610FL245     1 6NEDAM    6RUCAV   
AWY DCT   SA10224120224761+55193832+022752944+53948334+023898889FL245     1 6AKUMA    6TUMKI   
AWY DCT   SA10224120224651+55193832+022752944+56073891+021093610FL245     1 6AKUMA    6RUCAV   
AWY DCT   SA20224530224421+54952888+024247528+54941387+022734722FL095FL2451 6NEDAM    6KRAKI   
AWY DCT   SA10224530224720+54952888+024247528+55603611+019838333FL245     1 6NEDAM    6TIGNU   
AWY DCT   SA10224530224160+54952888+024247528+55810280+019091110FL245     1 6NEDAM    6BALIT   
AWY DCT   SA20224880224161+55692223+020133056+55810280+019091110FL095FL2451 6VALUV    6BALIT   
AWY DCT   SA20224880222071+55692223+020133056+56228779+018285638     FL0951 6VALUV    6NINTA   
AWY DCT   SA20224430224370+54651669+022754999+54483891+024219999FL095FL2451 6LAKOD    6IRKAL   
AWY DCT   SA20224681996551+54213055+025195833+54636055+025293638FL095FL2451 6SOGBI    4VNO     
