
AWY DCT   YY10455480451470+45262779+012995555+44828609+010651945FL315     1 6ROTAR    6GIXUL   
AWY DCT   YY10451660449001+38593056+017518333+37971111+017917221FL315     1 6IBMAK    6AMREX   
AWY DCT   YY10449350449480+43188057+009887499+42160000+010564999FL315     1 6BAKRO    6BATBO   
AWY DCT   YY10449480454690+42160000+010564999+40839722+011399722FL315     1 6BATBO    6POKAV   
AWY DCT   YY10449080453410+43142502+013458333+41306667+014806944FL315     1 6ARBIP    6MOLUX   
AWY DCT   YY10453410452230+41306667+014806944+40420277+015211667FL315     1 6MOLUX    6KUTID   
AWY DCT   YY10456020456001+41763611+016429721+40056667+019000000FL315     1 6TIMPU    6TIGRA   
AWY DCT   YY10451080456021+42814999+014729445+41763611+016429721FL315     1 6ETRAM    6TIMPU   
AWY DCT   YY10456472025281+43250832+013682222+41912777+016049167FL315     1 6UTENO    4VIE     
AWY DCT   YY10451080453921+42814999+014729445+43160000+014149167FL315     1 6ETRAM    6NUTRO   
AWY DCT   YY10451470456580+44828609+010651945+44145557+007625278FL315     1 6GIXUL    6VAMTU   
AWY DCT   YY10449040451470+44201111+008725556+44828609+010651945FL315     1 6ANAKI    6GIXUL   
AWY DCT   YY10451470453440+44828609+010651945+45487221+013279167FL315     1 6GIXUL    6MONFA   
AWY DCT   YY10456370456580+45060833+010645278+44145557+007625278FL315     1 6UPKAS    6VAMTU   
AWY DCT   YY10454330448610+45500000+010632222+46306946+009551388FL315     1 6OTKOB    6ABREG   
AWY DCT   YY10452530454330+43571388+014132222+45500000+010632222FL365     1 6LISKO    6OTKOB   
AWY DCT   YY12025150450890+40582558+014335139+43835278+010283332FL315     1 4SOR      6EMBOS   
AWY DCT   YY10450890449050+43835278+010283332+45796391+007345832FL315     1 6EMBOS    6AOSTA   
AWY DCT   YY10449550451460+42280277+013656389+40927502+010158056FL315     1 6BEKUK    6GITRI   
AWY DCT   YY10422240449550+42907501+015437500+42280277+013656389FL315     1 6VELUG    6BEKUK   
AWY DCT   YY10451020449731+43887222+010333333+42502777+013457778FL365     1 6EROVI    6BIVTA   
AWY DCT   YY10450740449731+42168056+014133610+42502777+013457778FL365     1 6EKMIL    6BIVTA   
AWY DCT   YY10454380449731+40891666+018951667+42502777+013457778FL365     1 6PAPIZ    6BIVTA   
AWY DCT   YY10449730453880+42502777+013457778+39816666+019000000FL365     1 6BIVTA    6NOSTO   
AWY DCT   YY10451490449731+40598331+019000000+42502777+013457778FL365     1 6GOKEL    6BIVTA   
AWY DCT   YY10449730450890+42502777+013457778+43835278+010283332FL365     1 6BIVTA    6EMBOS   
AWY DCT   YY10449730422220+42502777+013457778+43055832+015205555FL315     1 6BIVTA    6VAPUP   
AWY DCT   YY12080400449730+40639973+008291639+42502777+013457778FL315     1 5ALG      6BIVTA   
AWY DCT   YY10456070460570+46645279+011064999+46980000+011376667FL315     1 6TISAX    6BRENO   
AWY DCT   SA30421350445900+35178055+030864721+35833336+030000000          1 6PEDER    6EVENO   
AWY DCT   SA30421170447160+34678890+031901111+34966667+030000000          1 6GENOS    6TOSKA   
AWY DCT   SA30421170421350+34678890+031901111+35178055+030864721          1 6GENOS    6PEDER   
AWY DCT   YY10455980453390+46218334+013472778+46424446+011811667FL245     1 6TIBRO    6MOBDO   
