
AWY DCT   SA10459790459800+35047501+011500000+34333332+019036943FL195     1 6BIRSA    6BONAR   
AWY DCT   SA10459960459790+34333332+016948055+35047501+011500000FL135     1 6INDOT    6BIRSA   
AWY DCT   SA30460100257030+35656666+011500000+34333332+016369445FL195FL4601 6NIGAT    6ELIMO   
AWY DCT   SA10450530459751+36500000+014310000+36263889+013211111FL195FL4601 6DIRKA    6ASDAX   
AWY DCT   SA30460140459921+35683887+019443611+35032780+021772777FL195FL4601 6OMARA    6EVLIB   
AWY DCT   SA10459730459891+34625278+023000000+35871666+019694166FL195FL4601 6ARLOS    6ELKAN   
AWY DCT   SA10460160459730+36500000+018333332+34625278+023000000FL195FL4601 6ORTAP    6ARLOS   
AWY DCT   SA10459730257310+34625278+023000000+34333332+015166389FL195FL4601 6ARLOS    6LOTIN   
AWY DCT   SA10459730460310+34625278+023000000+34333332+013730555FL195FL4601 6ARLOS    6VARIG   
AWY DCT   SA10459790460001+35047501+011500000+35107224+018593889FL195FL4601 6BIRSA    6KUTOS   
AWY DCT   SA10459810450601+35518055+021153333+36500000+012126943FL195FL4601 6DEMAG    6DOBIX   
AWY DCT   SA10459810450531+35518055+021153333+36500000+014310000FL195FL4601 6DEMAG    6DIRKA   
AWY DCT   SA10459810456391+35518055+021153333+36500000+013539722FL195FL4601 6DEMAG    6UPLIT   
AWY DCT   SA10459850459800+36500000+011822221+34333332+019036943FL195FL4601 6DINUX    6BONAR   
AWY DCT   YY10450530460261+36500000+014310000+35408054+014508055FL195FL4601 6DIRKA    6SUDIK   
AWY DCT   YY10450530459911+36500000+014310000+35881390+016941667FL195FL4601 6DIRKA    6EVIRA   
AWY DCT   SA10459960460150+34333332+016948055+36040558+011500000FL195FL4601 6INDOT    6OMENI   
AWY DCT   SA10460000460151+35107224+018593889+36040558+011500000FL195FL4601 6KUTOS    6OMENI   
AWY DCT   YY10452600460191+36500000+015616666+34523609+011500000FL195FL4601 6LORED    6RALAK   
AWY DCT   SA10460042025760+34333332+014700833+36037342+014205264FL255FL4601 6LUMED    4GZO     
AWY DCT   SA10460040460300+34333332+014700833+34827499+021390832FL195FL4601 6LUMED    6VANIX   
AWY DCT   SA10460070459800+35133331+021961111+34333332+019036943FL195FL4601 6NEVIK    6BONAR   
AWY DCT   SA10460070257310+35133331+021961111+34333332+015166389FL195FL4601 6NEVIK    6LOTIN   
AWY DCT   SA10460070460310+35133331+021961111+34333332+013730555FL195FL4601 6NEVIK    6VARIG   
AWY DCT   SA10460130459830+34333332+018130556+35966946+013216667FL195FL4601 6OLMAX    6DEXOL   
AWY DCT   SA10460130460150+34333332+018130556+36040558+011500000FL195FL4601 6OLMAX    6OMENI   
AWY DCT   SA10460130459850+34333332+018130556+36500000+011822221FL195FL4601 6OLMAX    6DINUX   
AWY DCT   SA10460130460290+34333332+018130556+36500000+017773056FL285FL4601 6OLMAX    6TISAL   
AWY DCT   SA10460130455780+34333332+018130556+36500000+016857221FL315FL4601 6OLMAX    6SUBOK   
AWY DCT   SA10460150450531+36040558+011500000+36500000+014310000FL195FL4601 6OMENI    6DIRKA   
AWY DCT   SA10460150257030+36040558+011500000+34333332+016369445FL195FL4601 6OMENI    6ELIMO   
AWY DCT   YY12024880460191+36814445+011965749+34523609+011500000FL195FL4601 4PAN      6RALAK   
AWY DCT   SA10460240455390+34333332+013246389+36500000+011623056FL195FL4601 6SARKI    6ROLEV   
AWY DCT   SA10460240448690+34333332+013246389+37345554+013025278FL195FL4601 6SARKI    6ADEXI   
AWY DCT   SA10460240453660+34333332+013246389+36862778+014392778FL195FL4601 6SARKI    6NELDA   
AWY DCT   SA10460240460000+34333332+013246389+35107224+018593889FL195FL4601 6SARKI    6KUTOS   
AWY DCT   YY10455780459800+36500000+016857221+34333332+019036943FL195FL4601 6SUBOK    6BONAR   
AWY DCT   YY10455780460200+36500000+016857221+34333332+021466110FL195FL4601 6SUBOK    6RASNO   
AWY DCT   SA10460290460200+36500000+017773056+34333332+021466110FL195FL4601 6TISAL    6RASNO   
AWY DCT   YY10456390460150+36500000+013539722+36040558+011500000FL195FL4601 6UPLIT    6OMENI   
AWY DCT   YY10456690459730+36500000+017425832+34625278+023000000FL195FL4601 6VENIM    6ARLOS   
AWY DCT   YY10456690460200+36500000+017425832+34333332+021466110FL195FL4601 6VENIM    6RASNO   
AWY DCT   SA30460070459901+35133331+021961111+35631668+018288333FL195FL4601 6NEVIK    6EMLAR   
AWY DCT   SA30459900459831+35631668+018288333+35966946+013216667FL195FL4601 6EMLAR    6DEXOL   
AWY DCT   SA30459830460151+35966946+013216667+36040558+011500000FL195FL4601 6DEXOL    6OMENI   
