
AWY DCT   SA10221020215191+57165001+019924722+59717842+011936705FL285     1 6EVONA    6XIDMI   
AWY DCT   SA10222400220830+59981388+019392499+59799999+014660555FL285     1 6POKAS    6EBURI   
AWY DCT   SA10220470221721+61362499+019415832+54916668+015296111FL285     1 6BAKLA    6LUSID   
AWY DCT   SA10221840221541+66174721+023819444+63538612+021036666FL285     1 6MISMO    6LAMPI   
AWY DCT   SA10221840223470+66174721+023819444+63418610+020574167FL285     1 6MISMO    6VALAK   
AWY DCT   SA10222000175660+58627724+020771778+54560001+011313611FL285     1 6NEREN    6GIMRU   
AWY DCT   SA10222420175660+58027943+020414667+54560001+011313611FL285     1 6RASEL    6GIMRU   
AWY DCT   SA10220690175660+57672779+020210832+54560001+011313611FL285     1 6DEREX    6GIMRU   
AWY DCT   SA10223490175660+56531666+018876667+54560001+011313611FL285     1 6VEDEN    6GIMRU   
AWY DCT   SA10220271995710+66658195+023000000+57760387+014065417FL285     1 6ABALA    4JON     
AWY DCT   SA10220270222170+66658195+023000000+58770557+013127778FL285     1 6ABALA    6OGIRO   
AWY DCT   SA10220270171830+66658195+023000000+54808613+009961667FL285     1 6ABALA    6ALASA   
AWY DCT   SA10220270212810+66658195+023000000+60733784+012395507FL285     1 6ABALA    6ROVPA   
AWY DCT   SA10220270215140+66658195+023000000+61499748+012667910FL285     1 6ABALA    6XELVI   
AWY DCT   SA10220270207860+66658195+023000000+61675873+012216725FL285     1 6ABALA    6EGAGO   
AWY DCT   SA10220270211770+66658195+023000000+62319653+012262203FL285     1 6ABALA    6OSKOK   
AWY DCT   SA10220270211640+66658195+023000000+62434246+012181469FL285     1 6ABALA    6OLGUV   
AWY DCT   SA10220270223190+66658195+023000000+62937222+012125278FL285     1 6ABALA    6TIGBA   
AWY DCT   SA10220270211130+66658195+023000000+64462585+014113888FL285     1 6ABALA    6NOGBO   
AWY DCT   SA10220270210790+66658195+023000000+65557770+014508472FL285     1 6ABALA    6NEBUR   
AWY DCT   SA10220270214370+66658195+023000000+66257499+015395000FL285     1 6ABALA    6USIKI   
AWY DCT   SA10220270211930+66658195+023000000+66636107+015676111FL285     1 6ABALA    6PENAX   
AWY DCT   SA10220270210500+66658195+023000000+66935867+016090494FL285     1 6ABALA    6MIMKI   
AWY DCT   SA10220270223020+66658195+023000000+54916668+013386195FL285     1 6ABALA    6SALLO   
AWY DCT   SA10220270204560+66658195+023000000+54592220+011202777FL285     1 6ABALA    6LOMPU   
AWY DCT   SA10204230221041+56053333+005000000+56871387+019566667FL285     1 6GOREV    6GELDA   
AWY DCT   SA10221020221230+57165001+019924722+58611168+017465389FL285     1 6EVONA    6INGIS   
AWY DCT   SA10221040221230+56871387+019566667+58611168+017465389FL285     1 6GELDA    6INGIS   
AWY DCT   SA10221160221230+54916668+015654999+58611168+017465389FL285     1 6GORPI    6INGIS   
AWY DCT   SA10223530222360+57578140+016390638+55638611+017161388FL285     1 6VIBAR    6PENOR   
AWY DCT   SA10221300220340+58243584+012054166+54889999+015097222FL285     1 6KELIN    6AMROR   
AWY DCT   SA10221300221170+58243584+012054166+54805637+014857806FL285     1 6KELIN    6GOSOT   
AWY DCT   SA10223510223020+65125525+021987083+54916668+013386195FL285     1 6VERAG    6SALLO   
AWY DCT   SA10223510220600+65125525+021987083+54916668+014166667FL285     1 6VERAG    6BIKRU   
AWY DCT   SA10223510223470+65125525+021987083+63418610+020574167FL285     1 6VERAG    6VALAK   
AWY DCT   SA10223510222170+65125525+021987083+58770557+013127778FL285     1 6VERAG    6OGIRO   
AWY DCT   SA10223510171830+65125525+021987083+54808613+009961667FL285     1 6VERAG    6ALASA   
AWY DCT   SA10223510205310+65125525+021987083+55000000+007876111FL285     1 6VERAG    6TUSKA   
AWY DCT   SA10223510204500+65125525+021987083+55000000+007697222FL285     1 6VERAG    6LANUL   
AWY DCT   SA10223510212700+65125525+021987083+60512726+012606663FL285     1 6VERAG    6ROGED   
AWY DCT   SA10223510212810+65125525+021987083+60733784+012395507FL285     1 6VERAG    6ROVPA   
AWY DCT   SA10223510215140+65125525+021987083+61499748+012667910FL285     1 6VERAG    6XELVI   
AWY DCT   SA10223510207860+65125525+021987083+61675873+012216725FL285     1 6VERAG    6EGAGO   
AWY DCT   SA10223510211770+65125525+021987083+62319653+012262203FL285     1 6VERAG    6OSKOK   
AWY DCT   SA10223510211640+65125525+021987083+62434246+012181469FL285     1 6VERAG    6OLGUV   
AWY DCT   SA10223510223190+65125525+021987083+62937222+012125278FL285     1 6VERAG    6TIGBA   
AWY DCT   SA10223510213030+65125525+021987083+63330833+012052499FL285     1 6VERAG    6SOLKA   
AWY DCT   SA10223510204560+65125525+021987083+54592220+011202777FL285     1 6VERAG    6LOMPU   
AWY DCT   SA10223511995710+65125525+021987083+57760387+014065417FL285     1 6VERAG    4JON     
AWY DCT   SA10222570221840+56564529+014033389+66174721+023819444FL285     1 6ROXEN    6MISMO   
AWY DCT   SA10204390223480+54461388+011689999+56531666+012123611FL285     1 6KOKOR    6VEDAR   
AWY DCT   SA10220470204560+61362499+019415832+54592220+011202777FL285     1 6BAKLA    6LOMPU   
AWY DCT   SA10204820204170+54810833+011625278+54622780+011086111FL285     1 6NEXEN    6GOBOT   
AWY DCT   SA10204980198590+55938889+005000000+54598331+004398889FL285     1 6PETIL    6TIPAN   
AWY DCT   SA10195080205250+54863888+004153333+56250832+005000000FL285     1 6LARGA    6TINAC   
AWY DCT   SA10209550204980+57000000+005507432+55938889+005000000FL285     1 6KARLI    6PETIL   
AWY DCT   SA10205250209550+56250832+005000000+57000000+005507432FL285     1 6TINAC    6KARLI   
AWY DCT   SA10212410200540+57289593+008049481+55000000+005858795FL285     1 6RASVI    6GREFI   
AWY DCT   SA10210100200540+57000000+007227316+55000000+005858795FL285     1 6LINVI    6GREFI   
AWY DCT   SA10205310209550+55000000+007876111+57000000+005507432FL285     1 6TUSKA    6KARLI   
AWY DCT   SA10205310210520+55000000+007876111+57000000+006455695FL285     1 6TUSKA    6MITSI   
AWY DCT   SA10205310207420+55000000+007876111+57000000+006697827FL285     1 6TUSKA    6DANKO   
AWY DCT   SA10207420201840+57000000+006697827+55000000+005418817FL285     1 6DANKO    6SUTEB   
AWY DCT   SA10210520201840+57000000+006455695+55000000+005418817FL285     1 6MITSI    6SUTEB   
AWY DCT   SA10209550201840+57000000+005507432+55000000+005418817FL285     1 6KARLI    6SUTEB   
AWY DCT   SA10221570223410+55274445+016501667+54916668+013994722FL285     1 6LARMA    6UNGAV   
AWY DCT   SA10222070223410+56228779+018285638+54916668+013994722FL285     1 6NINTA    6UNGAV   
AWY DCT   SA10221020223410+57165001+019924722+54916668+013994722FL285     1 6EVONA    6UNGAV   
AWY DCT   SA10220690223410+57672779+020210832+54916668+013994722FL285     1 6DEREX    6UNGAV   
AWY DCT   SA10222000223410+58627724+020771778+54916668+013994722FL285     1 6NEREN    6UNGAV   
AWY DCT   SA10221570220600+55274445+016501667+54916668+014166667FL285     1 6LARMA    6BIKRU   
AWY DCT   SA10222070220600+56228779+018285638+54916668+014166667FL285     1 6NINTA    6BIKRU   
AWY DCT   SA10222210222580+54916668+013763610+55033527+016070888FL285     1 6OKAGA    6RUMAR   
AWY DCT   SA10221460204390+59182777+020676111+54461388+011689999FL285     1 6KOSKA    6KOKOR   
AWY DCT   SA10171830223010+54808613+009961667+58176556+011642722FL285     1 6ALASA    6SABAK   
AWY DCT   SA10206400205220+58334419+010148983+55898335+010531110FL285     1 6ARTOR    6TESPI   
AWY DCT   SA10207030205220+58160618+009786191+55898335+010531110FL285     1 6BINRO    6TESPI   
AWY DCT   SA10212530205220+57991524+009438616+55898335+010531110FL285     1 6RETKA    6TESPI   
AWY DCT   SA10210900205220+57887943+009228278+55898335+010531110FL285     1 6NERDO    6TESPI   
AWY DCT   SA10206230205220+57675175+008802146+55898335+010531110FL285     1 6AMSEV    6TESPI   
AWY DCT   SA10205400205220+56537498+005000000+55898335+010531110FL285     1 6VAXIT    6TESPI   
AWY DCT   SA10204980205220+55938889+005000000+55898335+010531110FL285     1 6PETIL    6TESPI   
AWY DCT   SA10204540205300+55385555+005000000+55275833+010647777FL285     1 6LESRA    6TUDLO   
AWY DCT   SA10174120205300+54858612+009194167+55275833+010647777FL285     1 6DOSUR    6TUDLO   
AWY DCT   SA10221310221100+56126446+013453832+55931667+017701667FL285     1 6KEMAX    6GISON   
AWY DCT   SA10221310223490+56126446+013453832+56531666+018876667FL285     1 6KEMAX    6VEDEN   
AWY DCT   SA10221310221020+56126446+013453832+57165001+019924722FL285     1 6KEMAX    6EVONA   
AWY DCT   SA10221310220690+56126446+013453832+57672779+020210832FL285     1 6KEMAX    6DEREX   
AWY DCT   SA10221310222000+56126446+013453832+58627724+020771778FL285     1 6KEMAX    6NEREN   
AWY DCT   SA10221310220310+56126446+013453832+59047779+020915834FL285     1 6KEMAX    6ALAMI   
AWY DCT   SA10221310222500+56126446+013453832+59970833+019408056FL285     1 6KEMAX    6RIKUM   
AWY DCT   SA10204680206400+56202778+011590832+58334419+010148983FL285     1 6MIKSI    6ARTOR   
AWY DCT   SA10204680212530+56202778+011590832+57991524+009438616FL285     1 6MIKSI    6RETKA   
AWY DCT   SA10204680210900+56202778+011590832+57887943+009228278FL285     1 6MIKSI    6NERDO   
AWY DCT   SA10204680206230+56202778+011590832+57675175+008802146FL285     1 6MIKSI    6AMSEV   
AWY DCT   SA10204680209710+56202778+011590832+57559700+008574142FL285     1 6MIKSI    6KOVIK   
AWY DCT   SA11993300212410+55581112+010653056+57289593+008049481FL285     1 4ODN      6RASVI   
AWY DCT   SA11993300212360+55581112+010653056+57057110+007607319FL285     1 4ODN      6RAMUD   
AWY DCT   SA11993300210100+55581112+010653056+57000000+007227316FL285     1 4ODN      6LINVI   
AWY DCT   SA11993300205400+55581112+010653056+56537498+005000000FL285     1 4ODN      6VAXIT   
AWY DCT   SA11993300204540+55581112+010653056+55385555+005000000FL285     1 4ODN      6LESRA   
AWY DCT   SA11993300205350+55581112+010653056+55244720+005000000FL285     1 4ODN      6UPGAS   
AWY DCT   SA11993050905410+57103718+009995577+55751389+009513333FL285     1 2AAL      6LOKSA   
AWY DCT   SA11993440905380+55603058+008300000+55729446+008816666FL285     1 4VES      6GELBA   
AWY DCT   SA10207030905410+58160618+009786191+55751389+009513333FL285     1 6BINRO    6LOKSA   
AWY DCT   SA10211080905410+58078518+009616783+55751389+009513333FL285     1 6NIROD    6LOKSA   
AWY DCT   SA10211080905380+58078518+009616783+55729446+008816666FL285     1 6NIROD    6GELBA   
AWY DCT   SA10206230905410+57675175+008802146+55751389+009513333FL285     1 6AMSEV    6LOKSA   
AWY DCT   SA10206230905380+57675175+008802146+55729446+008816666FL285     1 6AMSEV    6GELBA   
AWY DCT   SA10212410905410+57289593+008049481+55751389+009513333FL285     1 6RASVI    6LOKSA   
AWY DCT   SA10212410905380+57289593+008049481+55729446+008816666FL285     1 6RASVI    6GELBA   
AWY DCT   SA10212360905380+57057110+007607319+55729446+008816666FL285     1 6RAMUD    6GELBA   
AWY DCT   SA10212360905410+57057110+007607319+55751389+009513333FL285     1 6RAMUD    6LOKSA   
AWY DCT   SA10210100905410+57000000+007227316+55751389+009513333FL285     1 6LINVI    6LOKSA   
AWY DCT   SA10210100905380+57000000+007227316+55729446+008816666FL285     1 6LINVI    6GELBA   
AWY DCT   SA10207420905380+57000000+006697827+55729446+008816666FL285     1 6DANKO    6GELBA   
AWY DCT   SA10210520905380+57000000+006455695+55729446+008816666FL285     1 6MITSI    6GELBA   
AWY DCT   SA10209550905380+57000000+005507432+55729446+008816666FL285     1 6KARLI    6GELBA   
AWY DCT   SA10205400905380+56537498+005000000+55729446+008816666FL285     1 6VAXIT    6GELBA   
AWY DCT   SA10204980905380+55938889+005000000+55729446+008816666FL285     1 6PETIL    6GELBA   
AWY DCT   SA10204540905380+55385555+005000000+55729446+008816666FL285     1 6LESRA    6GELBA   
AWY DCT   SA10205130905380+55305557+005000000+55729446+008816666FL285     1 6SOPTO    6GELBA   
AWY DCT   SA10205310905380+55000000+007876111+55729446+008816666FL285     1 6TUSKA    6GELBA   
AWY DCT   SA10171830905410+54808613+009961667+55751389+009513333FL285     1 6ALASA    6LOKSA   
AWY DCT   SA10179000905410+54608612+012285555+55751389+009513333FL285     1 6NIKDA    6LOKSA   
AWY DCT   SA10204410905410+54779999+012597778+55751389+009513333FL285     1 6KOSEB    6LOKSA   
AWY DCT   SA10181810905410+54878887+012780278+55751389+009513333FL285     1 6SONAL    6LOKSA   
AWY DCT   SA11993300905410+55581112+010653056+55751389+009513333FL285     1 4ODN      6LOKSA   
AWY DCT   SA10205020178850+55591667+009994167+54486389+012064999FL285     1 6RIDSI    6NEDIK   
AWY DCT   SA10205020179000+55591667+009994167+54608612+012285555FL285     1 6RIDSI    6NIKDA   
AWY DCT   SA10205020204410+55591667+009994167+54779999+012597778FL285     1 6RIDSI    6KOSEB   
AWY DCT   SA10205020221160+55591667+009994167+54916668+015654999FL285     1 6RIDSI    6GORPI   
AWY DCT   SA10203530221100+55968334+009994444+55931667+017701667FL285     1 6ABINO    6GISON   
AWY DCT   SA10203530223490+55968334+009994444+56531666+018876667FL285     1 6ABINO    6VEDEN   
AWY DCT   SA10203530221020+55968334+009994444+57165001+019924722FL285     1 6ABINO    6EVONA   
AWY DCT   SA10205010221940+56541668+009994999+58904972+020941249FL285     1 6RADIS    6NEBSI   
AWY DCT   SA10205010220310+56541668+009994999+59047779+020915834FL285     1 6RADIS    6ALAMI   
AWY DCT   SA10205010222500+56541668+009994999+59970833+019408056FL285     1 6RADIS    6RIKUM   
AWY DCT   SA10205010221010+56541668+009994999+60252220+019111944FL285     1 6RADIS    6EVLAN   
AWY DCT   SA11993340206400+56478333+008187500+58334419+010148983FL285     1 4RAM      6ARTOR   
AWY DCT   SA11993340211080+56478333+008187500+58078518+009616783FL285     1 4RAM      6NIROD   
AWY DCT   SA11993340206230+56478333+008187500+57675175+008802146FL285     1 4RAM      6AMSEV   
AWY DCT   SA10203740210100+55842777+008269722+57000000+007227316FL285     1 6BAMPI    6LINVI   
AWY DCT   SA10203740207420+55842777+008269722+57000000+006697827FL285     1 6BAMPI    6DANKO   
AWY DCT   SA10203740210520+55842777+008269722+57000000+006455695FL285     1 6BAMPI    6MITSI   
AWY DCT   SA10203740205400+55842777+008269722+56537498+005000000FL285     1 6BAMPI    6VAXIT   
AWY DCT   SA10203740204980+55842777+008269722+55938889+005000000FL285     1 6BAMPI    6PETIL   
AWY DCT   SA10203740204540+55842777+008269722+55385555+005000000FL285     1 6BAMPI    6LESRA   
AWY DCT   SA10203740205350+55842777+008269722+55244720+005000000FL285     1 6BAMPI    6UPGAS   
AWY DCT   SA10221010205311+60252220+019111944+55000000+007876111FL285     1 6EVLAN    6TUSKA   
AWY DCT   SA10204230222001+56053333+005000000+58627724+020771778FL285     1 6GOREV    6NEREN   
AWY DCT   SA10204230220691+56053333+005000000+57672779+020210832FL285     1 6GOREV    6DEREX   
AWY DCT   SA10204230221021+56053333+005000000+57165001+019924722FL285     1 6GOREV    6EVONA   
AWY DCT   SA10204230221101+56053333+005000000+55931667+017701667FL285     1 6GOREV    6GISON   
AWY DCT   SA10204230223491+56053333+005000000+56531666+018876667FL285     1 6GOREV    6VEDEN   
AWY DCT   SA10213770204560+59891144+012020006+54592220+011202777FL285     1 6TUMGU    6LOMPU   
AWY DCT   SA10213770178850+59891144+012020006+54486389+012064999FL285     1 6TUMGU    6NEDIK   
AWY DCT   SA10213770179000+59891144+012020006+54608612+012285555FL285     1 6TUMGU    6NIKDA   
AWY DCT   SA10213770223020+59891144+012020006+54916668+013386195FL285     1 6TUMGU    6SALLO   
AWY DCT   SA10213770222410+59891144+012020006+54819584+014564250FL285     1 6TUMGU    6POKEN   
AWY DCT   SA10210420222360+60177776+012534722+55638611+017161388FL285     1 6MASEV    6PENOR   
AWY DCT   SA10210420221020+60177776+012534722+57165001+019924722FL285     1 6MASEV    6EVONA   
AWY DCT   SA10210420222420+60177776+012534722+58027943+020414667FL285     1 6MASEV    6RASEL   
AWY DCT   SA10210420221940+60177776+012534722+58904972+020941249FL285     1 6MASEV    6NEBSI   
AWY DCT   SA10210420222080+60177776+012534722+59318611+020431667FL285     1 6MASEV    6NISIX   
AWY DCT   SA10210420220820+60177776+012534722+60044445+019301666FL285     1 6MASEV    6DODAM   
AWY DCT   SA10210420221010+60177776+012534722+60252220+019111944FL285     1 6MASEV    6EVLAN   
AWY DCT   SA10210420220470+60177776+012534722+61362499+019415832FL285     1 6MASEV    6BAKLA   
AWY DCT   SA10208700204560+68027496+017101110+54592220+011202777FL285     1 6GILEN    6LOMPU   
AWY DCT   SA10208700223020+68027496+017101110+54916668+013386195FL285     1 6GILEN    6SALLO   
AWY DCT   SA10208700220600+68027496+017101110+54916668+014166667FL285     1 6GILEN    6BIKRU   
AWY DCT   SA10212280207861+68497780+019098611+61675873+012216725FL285     1 6POBEL    6EGAGO   
AWY DCT   SA10212280171831+68497780+019098611+54808613+009961667FL285     1 6POBEL    6ALASA   
AWY DCT   SA10212280204560+68497780+019098611+54592220+011202777FL285     1 6POBEL    6LOMPU   
AWY DCT   SA10212280223021+68497780+019098611+54916668+013386195FL285     1 6POBEL    6SALLO   
AWY DCT   SA10212280220601+68497780+019098611+54916668+014166667FL285     1 6POBEL    6BIKRU   
AWY DCT   SA10212280221720+68497780+019098611+54916668+015296111FL285     1 6POBEL    6LUSID   
AWY DCT   SA10212280222361+68497780+019098611+55638611+017161388FL285     1 6POBEL    6PENOR   
AWY DCT   SA10212670223470+68791115+020324722+63418610+020574167FL285     1 6RIXEM    6VALAK   
AWY DCT   SA10222180210791+68833054+021172777+65557770+014508472FL285     1 6OGLAV    6NEBUR   
AWY DCT   SA10222180211771+68833054+021172777+62319653+012262203FL285     1 6OGLAV    6OSKOK   
AWY DCT   SA10222180207861+68833054+021172777+61675873+012216725FL285     1 6OGLAV    6EGAGO   
AWY DCT   SA10222180171831+68833054+021172777+54808613+009961667FL285     1 6OGLAV    6ALASA   
AWY DCT   SA10184940210501+68141388+023321666+66935867+016090494FL285     1 6DOPUD    6MIMKI   
AWY DCT   SA10184940211931+68141388+023321666+66636107+015676111FL285     1 6DOPUD    6PENAX   
AWY DCT   SA10184940210791+68141388+023321666+65557770+014508472FL285     1 6DOPUD    6NEBUR   
AWY DCT   SA10184940211131+68141388+023321666+64462585+014113888FL285     1 6DOPUD    6NOGBO   
AWY DCT   SA10184940211641+68141388+023321666+62434246+012181469FL285     1 6DOPUD    6OLGUV   
AWY DCT   SA10184940211771+68141388+023321666+62319653+012262203FL285     1 6DOPUD    6OSKOK   
AWY DCT   SA10184940207861+68141388+023321666+61675873+012216725FL285     1 6DOPUD    6EGAGO   
AWY DCT   SA10223340210501+67690559+023495277+66935867+016090494FL285     1 6TUVLU    6MIMKI   
AWY DCT   SA10223340211931+67690559+023495277+66636107+015676111FL285     1 6TUVLU    6PENAX   
AWY DCT   SA10223340210791+67690559+023495277+65557770+014508472FL285     1 6TUVLU    6NEBUR   
AWY DCT   SA10223340211131+67690559+023495277+64462585+014113888FL285     1 6TUVLU    6NOGBO   
AWY DCT   SA10223340223190+67690559+023495277+62937222+012125278FL285     1 6TUVLU    6TIGBA   
AWY DCT   SA10223340211641+67690559+023495277+62434246+012181469FL285     1 6TUVLU    6OLGUV   
AWY DCT   SA10223340211771+67690559+023495277+62319653+012262203FL285     1 6TUVLU    6OSKOK   
AWY DCT   SA10223340207861+67690559+023495277+61675873+012216725FL285     1 6TUVLU    6EGAGO   
AWY DCT   SA10221730210791+66735275+023892221+65557770+014508472FL285     1 6MAGON    6NEBUR   
AWY DCT   SA10221730211131+66735275+023892221+64462585+014113888FL285     1 6MAGON    6NOGBO   
AWY DCT   SA10221730223190+66735275+023892221+62937222+012125278FL285     1 6MAGON    6TIGBA   
AWY DCT   SA10221730211641+66735275+023892221+62434246+012181469FL285     1 6MAGON    6OLGUV   
AWY DCT   SA10221730211771+66735275+023892221+62319653+012262203FL285     1 6MAGON    6OSKOK   
AWY DCT   SA10221730207861+66735275+023892221+61675873+012216725FL285     1 6MAGON    6EGAGO   
AWY DCT   SA10221730215141+66735275+023892221+61499748+012667910FL285     1 6MAGON    6XELVI   
AWY DCT   SA10221730212701+66735275+023892221+60512726+012606663FL285     1 6MAGON    6ROGED   
AWY DCT   SA10221730212811+66735275+023892221+60733784+012395507FL285     1 6MAGON    6ROVPA   
AWY DCT   SA10221730205311+66735275+023892221+55000000+007876111FL285     1 6MAGON    6TUSKA   
AWY DCT   SA10221730171831+66735275+023892221+54808613+009961667FL285     1 6MAGON    6ALASA   
AWY DCT   SA10221840210791+66174721+023819444+65557770+014508472FL285     1 6MISMO    6NEBUR   
AWY DCT   SA10221840211131+66174721+023819444+64462585+014113888FL285     1 6MISMO    6NOGBO   
AWY DCT   SA10221840213031+66174721+023819444+63330833+012052499FL285     1 6MISMO    6SOLKA   
AWY DCT   SA10221840223190+66174721+023819444+62937222+012125278FL285     1 6MISMO    6TIGBA   
AWY DCT   SA10221840211641+66174721+023819444+62434246+012181469FL285     1 6MISMO    6OLGUV   
AWY DCT   SA10221840211771+66174721+023819444+62319653+012262203FL285     1 6MISMO    6OSKOK   
AWY DCT   SA10221840207861+66174721+023819444+61675873+012216725FL285     1 6MISMO    6EGAGO   
AWY DCT   SA10221840215141+66174721+023819444+61499748+012667910FL285     1 6MISMO    6XELVI   
AWY DCT   SA10221840212811+66174721+023819444+60733784+012395507FL285     1 6MISMO    6ROVPA   
AWY DCT   SA10221840212701+66174721+023819444+60512726+012606663FL285     1 6MISMO    6ROGED   
AWY DCT   SA10221840204500+66174721+023819444+55000000+007697222FL285     1 6MISMO    6LANUL   
AWY DCT   SA10221840205311+66174721+023819444+55000000+007876111FL285     1 6MISMO    6TUSKA   
AWY DCT   SA10221840171831+66174721+023819444+54808613+009961667FL285     1 6MISMO    6ALASA   
AWY DCT   SA10212670220591+68791115+020324722+65592781+024153888FL285     1 6RIXEM    6BEXUL   
AWY DCT   SA10212280220591+68497780+019098611+65592781+024153888FL285     1 6POBEL    6BEXUL   
AWY DCT   SA10210500220591+66935867+016090494+65592781+024153888FL285     1 6MIMKI    6BEXUL   
AWY DCT   SA10220860212671+65251662+023727500+68791115+020324722FL285     1 6EKMIK    6RIXEM   
AWY DCT   SA10220860212281+65251662+023727500+68497780+019098611FL285     1 6EKMIK    6POBEL   
AWY DCT   SA10220860210501+65251662+023727500+66935867+016090494FL285     1 6EKMIK    6MIMKI   
AWY DCT   SA10220860211931+65251662+023727500+66636107+015676111FL285     1 6EKMIK    6PENAX   
AWY DCT   SA10220860214371+65251662+023727500+66257499+015395000FL285     1 6EKMIK    6USIKI   
AWY DCT   SA10220860210791+65251662+023727500+65557770+014508472FL285     1 6EKMIK    6NEBUR   
AWY DCT   SA10223110212671+64553886+022737777+68791115+020324722FL285     1 6SUTEV    6RIXEM   
AWY DCT   SA10223110212281+64553886+022737777+68497780+019098611FL285     1 6SUTEV    6POBEL   
AWY DCT   SA10223110210501+64553886+022737777+66935867+016090494FL285     1 6SUTEV    6MIMKI   
AWY DCT   SA10223110211931+64553886+022737777+66636107+015676111FL285     1 6SUTEV    6PENAX   
AWY DCT   SA10223110214371+64553886+022737777+66257499+015395000FL285     1 6SUTEV    6USIKI   
AWY DCT   SA10223110210791+64553886+022737777+65557770+014508472FL285     1 6SUTEV    6NEBUR   
AWY DCT   SA10223110211131+64553886+022737777+64462585+014113888FL285     1 6SUTEV    6NOGBO   
AWY DCT   SA10223110213031+64553886+022737777+63330833+012052499FL285     1 6SUTEV    6SOLKA   
AWY DCT   SA10223110223190+64553886+022737777+62937222+012125278FL285     1 6SUTEV    6TIGBA   
AWY DCT   SA10223110211641+64553886+022737777+62434246+012181469FL285     1 6SUTEV    6OLGUV   
AWY DCT   SA10223110211771+64553886+022737777+62319653+012262203FL285     1 6SUTEV    6OSKOK   
AWY DCT   SA10223110207861+64553886+022737777+61675873+012216725FL285     1 6SUTEV    6EGAGO   
AWY DCT   SA10223110215141+64553886+022737777+61499748+012667910FL285     1 6SUTEV    6XELVI   
AWY DCT   SA10223110212811+64553886+022737777+60733784+012395507FL285     1 6SUTEV    6ROVPA   
AWY DCT   SA10223110212701+64553886+022737777+60512726+012606663FL285     1 6SUTEV    6ROGED   
AWY DCT   SA10221540212281+63538612+021036666+68497780+019098611FL285     1 6LAMPI    6POBEL   
AWY DCT   SA10221540210501+63538612+021036666+66935867+016090494FL285     1 6LAMPI    6MIMKI   
AWY DCT   SA10221540211931+63538612+021036666+66636107+015676111FL285     1 6LAMPI    6PENAX   
AWY DCT   SA10221540214371+63538612+021036666+66257499+015395000FL285     1 6LAMPI    6USIKI   
AWY DCT   SA10221540210791+63538612+021036666+65557770+014508472FL285     1 6LAMPI    6NEBUR   
AWY DCT   SA10221540211131+63538612+021036666+64462585+014113888FL285     1 6LAMPI    6NOGBO   
AWY DCT   SA10205360205401+56900002+007566667+56537498+005000000FL285     1 6URUBO    6VAXIT   
AWY DCT   SA10223250210791+61761944+019540277+65557770+014508472FL285     1 6TOGMI    6NEBUR   
AWY DCT   SA10223250208671+61761944+019540277+64034308+013793861FL285     1 6TOGMI    6GIKAV   
AWY DCT   SA10223250213031+61761944+019540277+63330833+012052499FL285     1 6TOGMI    6SOLKA   
AWY DCT   SA10223250223190+61761944+019540277+62937222+012125278FL285     1 6TOGMI    6TIGBA   
AWY DCT   SA10223250211641+61761944+019540277+62434246+012181469FL285     1 6TOGMI    6OLGUV   
AWY DCT   SA10223250207861+61761944+019540277+61675873+012216725FL285     1 6TOGMI    6EGAGO   
AWY DCT   SA10220470205311+61362499+019415832+55000000+007876111FL285     1 6BAKLA    6TUSKA   
AWY DCT   SA10220470204500+61362499+019415832+55000000+007697222FL285     1 6BAKLA    6LANUL   
AWY DCT   SA10220470205361+61362499+019415832+56900002+007566667FL285     1 6BAKLA    6URUBO   
AWY DCT   SA10220470205350+61362499+019415832+55244720+005000000FL285     1 6BAKLA    6UPGAS   
AWY DCT   SA10220470214721+61362499+019415832+59317619+011820586FL285     1 6BAKLA    6VATEX   
AWY DCT   SA10220470215191+61362499+019415832+59717842+011936705FL285     1 6BAKLA    6XIDMI   
AWY DCT   SA10220470208310+61362499+019415832+60012711+012392347FL285     1 6BAKLA    6ESEBA   
AWY DCT   SA10220470212701+61362499+019415832+60512726+012606663FL285     1 6BAKLA    6ROGED   
AWY DCT   SA10220470212811+61362499+019415832+60733784+012395507FL285     1 6BAKLA    6ROVPA   
AWY DCT   SA10220470213201+61362499+019415832+61151390+012719442FL285     1 6BAKLA    6SUVAR   
AWY DCT   SA10220470215141+61362499+019415832+61499748+012667910FL285     1 6BAKLA    6XELVI   
AWY DCT   SA10220470211771+61362499+019415832+62319653+012262203FL285     1 6BAKLA    6OSKOK   
AWY DCT   SA10221290215140+60468613+019175832+61499748+012667910FL285     1 6KELAS    6XELVI   
AWY DCT   SA10221290213200+60468613+019175832+61151390+012719442FL285     1 6KELAS    6SUVAR   
AWY DCT   SA10221290212810+60468613+019175832+60733784+012395507FL285     1 6KELAS    6ROVPA   
AWY DCT   SA10221290212700+60468613+019175832+60512726+012606663FL285     1 6KELAS    6ROGED   
AWY DCT   SA10221290208310+60468613+019175832+60012711+012392347FL285     1 6KELAS    6ESEBA   
AWY DCT   SA10221290215190+60468613+019175832+59717842+011936705FL285     1 6KELAS    6XIDMI   
AWY DCT   SA10221290205350+60468613+019175832+55244720+005000000FL285     1 6KELAS    6UPGAS   
AWY DCT   SA10221010205361+60252220+019111944+56900002+007566667FL285     1 6EVLAN    6URUBO   
AWY DCT   SA10221290205360+60468613+019175832+56900002+007566667FL285     1 6KELAS    6URUBO   
AWY DCT   SA10221290214720+60468613+019175832+59317619+011820586FL285     1 6KELAS    6VATEX   
AWY DCT   SA10221010208671+60252220+019111944+64034308+013793861FL285     1 6EVLAN    6GIKAV   
AWY DCT   SA10221010213031+60252220+019111944+63330833+012052499FL285     1 6EVLAN    6SOLKA   
AWY DCT   SA10221010223190+60252220+019111944+62937222+012125278FL285     1 6EVLAN    6TIGBA   
AWY DCT   SA10221010211771+60252220+019111944+62319653+012262203FL285     1 6EVLAN    6OSKOK   
AWY DCT   SA10221010213201+60252220+019111944+61151390+012719442FL285     1 6EVLAN    6SUVAR   
AWY DCT   SA10221010212811+60252220+019111944+60733784+012395507FL285     1 6EVLAN    6ROVPA   
AWY DCT   SA10221010212701+60252220+019111944+60512726+012606663FL285     1 6EVLAN    6ROGED   
AWY DCT   SA10221010208310+60252220+019111944+60012711+012392347FL285     1 6EVLAN    6ESEBA   
AWY DCT   SA10221010215191+60252220+019111944+59717842+011936705FL285     1 6EVLAN    6XIDMI   
AWY DCT   SA10221010214721+60252220+019111944+59317619+011820586FL285     1 6EVLAN    6VATEX   
AWY DCT   SA10204280221010+55606945+005000000+60252220+019111944FL285     1 6INBOB    6EVLAN   
AWY DCT   SA10221010205350+60252220+019111944+55244720+005000000FL285     1 6EVLAN    6UPGAS   
AWY DCT   SA10204540220820+55385555+005000000+60044445+019301666FL285     1 6LESRA    6DODAM   
AWY DCT   SA10204540222500+55385555+005000000+59970833+019408056FL285     1 6LESRA    6RIKUM   
AWY DCT   SA10204540222080+55385555+005000000+59318611+020431667FL285     1 6LESRA    6NISIX   
AWY DCT   SA10204540220310+55385555+005000000+59047779+020915834FL285     1 6LESRA    6ALAMI   
AWY DCT   SA10204540222001+55385555+005000000+58627724+020771778FL285     1 6LESRA    6NEREN   
AWY DCT   SA10204540221021+55385555+005000000+57165001+019924722FL285     1 6LESRA    6EVONA   
AWY DCT   SA10204540223491+55385555+005000000+56531666+018876667FL285     1 6LESRA    6VEDEN   
AWY DCT   SA10204540222071+55385555+005000000+56228779+018285638FL285     1 6LESRA    6NINTA   
AWY DCT   SA10204540221101+55385555+005000000+55931667+017701667FL285     1 6LESRA    6GISON   
AWY DCT   SA10204540221571+55385555+005000000+55274445+016501667FL285     1 6LESRA    6LARMA   
AWY DCT   SA10204540222581+55385555+005000000+55033527+016070888FL285     1 6LESRA    6RUMAR   
AWY DCT   SA10222400215190+59981388+019392499+59717842+011936705FL285     1 6POKAS    6XIDMI   
AWY DCT   SA10222400214720+59981388+019392499+59317619+011820586FL285     1 6POKAS    6VATEX   
AWY DCT   SA10222400205360+59981388+019392499+56900002+007566667FL285     1 6POKAS    6URUBO   
AWY DCT   SA10222400204540+59981388+019392499+55385555+005000000FL285     1 6POKAS    6LESRA   
AWY DCT   SA10222400205350+59981388+019392499+55244720+005000000FL285     1 6POKAS    6UPGAS   
AWY DCT   SA10222190204500+59933056+019462221+55000000+007697222FL285     1 6OGLOB    6LANUL   
AWY DCT   SA10222190205310+59933056+019462221+55000000+007876111FL285     1 6OGLOB    6TUSKA   
AWY DCT   SA10222190203950+59933056+019462221+54836388+009852778FL285     1 6OGLOB    6DEMIR   
AWY DCT   SA10222190204370+59933056+019462221+54840557+009887499FL285     1 6OGLOB    6KESUR   
AWY DCT   SA10222190175660+59933056+019462221+54560001+011313611FL285     1 6OGLOB    6GIMRU   
AWY DCT   SA10222190223020+59933056+019462221+54916668+013386195FL285     1 6OGLOB    6SALLO   
AWY DCT   SA10221700205310+59640278+019876388+55000000+007876111FL285     1 6LUPET    6TUSKA   
AWY DCT   SA10221700204500+59640278+019876388+55000000+007697222FL285     1 6LUPET    6LANUL   
AWY DCT   SA10222590205310+59749722+019724166+55000000+007876111FL285     1 6RUNGA    6TUSKA   
AWY DCT   SA10222590204500+59749722+019724166+55000000+007697222FL285     1 6RUNGA    6LANUL   
AWY DCT   SA10222590205350+59749722+019724166+55244720+005000000FL285     1 6RUNGA    6UPGAS   
AWY DCT   SA10222590214720+59749722+019724166+59317619+011820586FL285     1 6RUNGA    6VATEX   
AWY DCT   SA10222590215190+59749722+019724166+59717842+011936705FL285     1 6RUNGA    6XIDMI   
AWY DCT   SA10222590208310+59749722+019724166+60012711+012392347FL285     1 6RUNGA    6ESEBA   
AWY DCT   SA10222590212700+59749722+019724166+60512726+012606663FL285     1 6RUNGA    6ROGED   
AWY DCT   SA10222590212810+59749722+019724166+60733784+012395507FL285     1 6RUNGA    6ROVPA   
AWY DCT   SA10222590213200+59749722+019724166+61151390+012719442FL285     1 6RUNGA    6SUVAR   
AWY DCT   SA10222590211770+59749722+019724166+62319653+012262203FL285     1 6RUNGA    6OSKOK   
AWY DCT   SA10222590223190+59749722+019724166+62937222+012125278FL285     1 6RUNGA    6TIGBA   
AWY DCT   SA10221700211770+59640278+019876388+62319653+012262203FL285     1 6LUPET    6OSKOK   
AWY DCT   SA10221700213200+59640278+019876388+61151390+012719442FL285     1 6LUPET    6SUVAR   
AWY DCT   SA10221700212810+59640278+019876388+60733784+012395507FL285     1 6LUPET    6ROVPA   
AWY DCT   SA10221700212700+59640278+019876388+60512726+012606663FL285     1 6LUPET    6ROGED   
AWY DCT   SA10221700208310+59640278+019876388+60012711+012392347FL285     1 6LUPET    6ESEBA   
AWY DCT   SA10221700215190+59640278+019876388+59717842+011936705FL285     1 6LUPET    6XIDMI   
AWY DCT   SA10221700214720+59640278+019876388+59317619+011820586FL285     1 6LUPET    6VATEX   
AWY DCT   SA10221700205360+59640278+019876388+56900002+007566667FL285     1 6LUPET    6URUBO   
AWY DCT   SA10221700205350+59640278+019876388+55244720+005000000FL285     1 6LUPET    6UPGAS   
AWY DCT   SA10221700203950+59640278+019876388+54836388+009852778FL285     1 6LUPET    6DEMIR   
AWY DCT   SA10221700204370+59640278+019876388+54840557+009887499FL285     1 6LUPET    6KESUR   
AWY DCT   SA10222080208310+59318611+020431667+60012711+012392347FL285     1 6NISIX    6ESEBA   
AWY DCT   SA10222080215191+59318611+020431667+59717842+011936705FL285     1 6NISIX    6XIDMI   
AWY DCT   SA10222080214721+59318611+020431667+59317619+011820586FL285     1 6NISIX    6VATEX   
AWY DCT   SA10222080205250+59318611+020431667+56250832+005000000FL285     1 6NISIX    6TINAC   
AWY DCT   SA10222080205350+59318611+020431667+55244720+005000000FL285     1 6NISIX    6UPGAS   
AWY DCT   SA10221100171830+55931667+017701667+54808613+009961667FL285     1 6GISON    6ALASA   
AWY DCT   SA10222070171830+56228779+018285638+54808613+009961667FL285     1 6NINTA    6ALASA   
AWY DCT   SA10220690203950+57672779+020210832+54836388+009852778FL285     1 6DEREX    6DEMIR   
AWY DCT   SA10220690204370+57672779+020210832+54840557+009887499FL285     1 6DEREX    6KESUR   
AWY DCT   SA10222000203950+58627724+020771778+54836388+009852778FL285     1 6NEREN    6DEMIR   
AWY DCT   SA10222000204370+58627724+020771778+54840557+009887499FL285     1 6NEREN    6KESUR   
AWY DCT   SA10221940203950+58904972+020941249+54836388+009852778FL285     1 6NEBSI    6DEMIR   
AWY DCT   SA10221940204370+58904972+020941249+54840557+009887499FL285     1 6NEBSI    6KESUR   
AWY DCT   SA10221460203950+59182777+020676111+54836388+009852778FL285     1 6KOSKA    6DEMIR   
AWY DCT   SA10221460204370+59182777+020676111+54840557+009887499FL285     1 6KOSKA    6KESUR   
AWY DCT   SA10221460204170+59182777+020676111+54622780+011086111FL285     1 6KOSKA    6GOBOT   
AWY DCT   SA10221460175660+59182777+020676111+54560001+011313611FL285     1 6KOSKA    6GIMRU   
AWY DCT   SA10221460223020+59182777+020676111+54916668+013386195FL285     1 6KOSKA    6SALLO   
AWY DCT   SA10221460223410+59182777+020676111+54916668+013994722FL285     1 6KOSKA    6UNGAV   
AWY DCT   SA10221460222410+59182777+020676111+54819584+014564250FL285     1 6KOSKA    6POKEN   
AWY DCT   SA10221460221720+59182777+020676111+54916668+015296111FL285     1 6KOSKA    6LUSID   
AWY DCT   SA10221460221160+59182777+020676111+54916668+015654999FL285     1 6KOSKA    6GORPI   
AWY DCT   SA10221460222360+59182777+020676111+55638611+017161388FL285     1 6KOSKA    6PENOR   
AWY DCT   SA10221460221040+59182777+020676111+56871387+019566667FL285     1 6KOSKA    6GELDA   
AWY DCT   SA10221940213031+58904972+020941249+63330833+012052499FL285     1 6NEBSI    6SOLKA   
AWY DCT   SA10221940223190+58904972+020941249+62937222+012125278FL285     1 6NEBSI    6TIGBA   
AWY DCT   SA10221940211771+58904972+020941249+62319653+012262203FL285     1 6NEBSI    6OSKOK   
AWY DCT   SA10221940213201+58904972+020941249+61151390+012719442FL285     1 6NEBSI    6SUVAR   
AWY DCT   SA10221940212811+58904972+020941249+60733784+012395507FL285     1 6NEBSI    6ROVPA   
AWY DCT   SA10212700221941+60512726+012606663+58904972+020941249FL285     1 6ROGED    6NEBSI   
AWY DCT   SA10221940208310+58904972+020941249+60012711+012392347FL285     1 6NEBSI    6ESEBA   
AWY DCT   SA10221940214721+58904972+020941249+59317619+011820586FL285     1 6NEBSI    6VATEX   
AWY DCT   SA10221940212501+58904972+020941249+58805946+010608141FL285     1 6NEBSI    6REPKU   
AWY DCT   SA10221940210901+58904972+020941249+57887943+009228278FL285     1 6NEBSI    6NERDO   
AWY DCT   SA10221940205251+58904972+020941249+56250832+005000000FL285     1 6NEBSI    6TINAC   
AWY DCT   SA10221940205351+58904972+020941249+55244720+005000000FL285     1 6NEBSI    6UPGAS   
AWY DCT   SA10221960208671+58304443+020578611+64034308+013793861FL285     1 6NEKET    6GIKAV   
AWY DCT   SA10221960213031+58304443+020578611+63330833+012052499FL285     1 6NEKET    6SOLKA   
AWY DCT   SA10221960223190+58304443+020578611+62937222+012125278FL285     1 6NEKET    6TIGBA   
AWY DCT   SA10221960211771+58304443+020578611+62319653+012262203FL285     1 6NEKET    6OSKOK   
AWY DCT   SA10221960213201+58304443+020578611+61151390+012719442FL285     1 6NEKET    6SUVAR   
AWY DCT   SA10221960212811+58304443+020578611+60733784+012395507FL285     1 6NEKET    6ROVPA   
AWY DCT   SA10221960212701+58304443+020578611+60512726+012606663FL285     1 6NEKET    6ROGED   
AWY DCT   SA10221960215191+58304443+020578611+59717842+011936705FL285     1 6NEKET    6XIDMI   
AWY DCT   SA10221960208310+58304443+020578611+60012711+012392347FL285     1 6NEKET    6ESEBA   
AWY DCT   SA10222420210791+58027943+020414667+65557770+014508472FL285     1 6RASEL    6NEBUR   
AWY DCT   SA10222420208671+58027943+020414667+64034308+013793861FL285     1 6RASEL    6GIKAV   
AWY DCT   SA10222420213031+58027943+020414667+63330833+012052499FL285     1 6RASEL    6SOLKA   
AWY DCT   SA10222420223190+58027943+020414667+62937222+012125278FL285     1 6RASEL    6TIGBA   
AWY DCT   SA10222420211771+58027943+020414667+62319653+012262203FL285     1 6RASEL    6OSKOK   
AWY DCT   SA10222420213201+58027943+020414667+61151390+012719442FL285     1 6RASEL    6SUVAR   
AWY DCT   SA10222420212811+58027943+020414667+60733784+012395507FL285     1 6RASEL    6ROVPA   
AWY DCT   SA10222420212701+58027943+020414667+60512726+012606663FL285     1 6RASEL    6ROGED   
AWY DCT   SA10222420208310+58027943+020414667+60012711+012392347FL285     1 6RASEL    6ESEBA   
AWY DCT   SA10222420215191+58027943+020414667+59717842+011936705FL285     1 6RASEL    6XIDMI   
AWY DCT   SA10222420214721+58027943+020414667+59317619+011820586FL285     1 6RASEL    6VATEX   
AWY DCT   SA10222420207111+58027943+020414667+58906548+010718483FL285     1 6RASEL    6BOMGU   
AWY DCT   SA10212500222421+58805946+010608141+58027943+020414667FL285     1 6REPKU    6RASEL   
AWY DCT   SA10220690208310+57672779+020210832+60012711+012392347FL285     1 6DEREX    6ESEBA   
AWY DCT   SA10220690215191+57672779+020210832+59717842+011936705FL285     1 6DEREX    6XIDMI   
AWY DCT   SA10220690210561+57672779+020210832+59125000+011769166FL285     1 6DEREX    6MOGLU   
AWY DCT   SA10220690207111+57672779+020210832+58906548+010718483FL285     1 6DEREX    6BOMGU   
AWY DCT   SA10220690212501+57672779+020210832+58805946+010608141FL285     1 6DEREX    6REPKU   
AWY DCT   SA10220690210901+57672779+020210832+57887943+009228278FL285     1 6DEREX    6NERDO   
AWY DCT   SA10220690206231+57672779+020210832+57675175+008802146FL285     1 6DEREX    6AMSEV   
AWY DCT   SA10220690205251+57672779+020210832+56250832+005000000FL285     1 6DEREX    6TINAC   
AWY DCT   SA10220690205401+57672779+020210832+56537498+005000000FL285     1 6DEREX    6VAXIT   
AWY DCT   SA10204540220691+55385555+005000000+57672779+020210832FL285     1 6LESRA    6DEREX   
AWY DCT   SA10220690204170+57672779+020210832+54622780+011086111FL285     1 6DEREX    6GOBOT   
AWY DCT   SA10220690171830+57672779+020210832+54808613+009961667FL285     1 6DEREX    6ALASA   
AWY DCT   SA10220690205350+57672779+020210832+55244720+005000000FL285     1 6DEREX    6UPGAS   
AWY DCT   SA10221020205610+57165001+019924722+66785004+015875834FL285     1 6EVONA    6ABAXI   
AWY DCT   SA10221020211931+57165001+019924722+66636107+015676111FL285     1 6EVONA    6PENAX   
AWY DCT   SA10221020214371+57165001+019924722+66257499+015395000FL285     1 6EVONA    6USIKI   
AWY DCT   SA10221020210791+57165001+019924722+65557770+014508472FL285     1 6EVONA    6NEBUR   
AWY DCT   SA10221020208671+57165001+019924722+64034308+013793861FL285     1 6EVONA    6GIKAV   
AWY DCT   SA10221020223190+57165001+019924722+62937222+012125278FL285     1 6EVONA    6TIGBA   
AWY DCT   SA10221020211771+57165001+019924722+62319653+012262203FL285     1 6EVONA    6OSKOK   
AWY DCT   SA10221020213201+57165001+019924722+61151390+012719442FL285     1 6EVONA    6SUVAR   
AWY DCT   SA10221020212811+57165001+019924722+60733784+012395507FL285     1 6EVONA    6ROVPA   
AWY DCT   SA10221020212701+57165001+019924722+60512726+012606663FL285     1 6EVONA    6ROGED   
AWY DCT   SA10221020208310+57165001+019924722+60012711+012392347FL285     1 6EVONA    6ESEBA   
AWY DCT   SA10221020210561+57165001+019924722+59125000+011769166FL285     1 6EVONA    6MOGLU   
AWY DCT   SA10221020207111+57165001+019924722+58906548+010718483FL285     1 6EVONA    6BOMGU   
AWY DCT   SA10221020212501+57165001+019924722+58805946+010608141FL285     1 6EVONA    6REPKU   
AWY DCT   SA10221020206231+57165001+019924722+57675175+008802146FL285     1 6EVONA    6AMSEV   
AWY DCT   SA10221020210901+57165001+019924722+57887943+009228278FL285     1 6EVONA    6NERDO   
AWY DCT   SA10221020205350+57165001+019924722+55244720+005000000FL285     1 6EVONA    6UPGAS   
AWY DCT   SA10221040220310+56871387+019566667+59047779+020915834FL285     1 6GELDA    6ALAMI   
AWY DCT   SA10221040222080+56871387+019566667+59318611+020431667FL285     1 6GELDA    6NISIX   
AWY DCT   SA10221040222500+56871387+019566667+59970833+019408056FL285     1 6GELDA    6RIKUM   
AWY DCT   SA10221040220820+56871387+019566667+60044445+019301666FL285     1 6GELDA    6DODAM   
AWY DCT   SA10221040205610+56871387+019566667+66785004+015875834FL285     1 6GELDA    6ABAXI   
AWY DCT   SA10221040214371+56871387+019566667+66257499+015395000FL285     1 6GELDA    6USIKI   
AWY DCT   SA10221040210791+56871387+019566667+65557770+014508472FL285     1 6GELDA    6NEBUR   
AWY DCT   SA10221040208671+56871387+019566667+64034308+013793861FL285     1 6GELDA    6GIKAV   
AWY DCT   SA10221040213031+56871387+019566667+63330833+012052499FL285     1 6GELDA    6SOLKA   
AWY DCT   SA10221040211771+56871387+019566667+62319653+012262203FL285     1 6GELDA    6OSKOK   
AWY DCT   SA10221040213201+56871387+019566667+61151390+012719442FL285     1 6GELDA    6SUVAR   
AWY DCT   SA10221040212811+56871387+019566667+60733784+012395507FL285     1 6GELDA    6ROVPA   
AWY DCT   SA10221040212701+56871387+019566667+60512726+012606663FL285     1 6GELDA    6ROGED   
AWY DCT   SA10221040208310+56871387+019566667+60012711+012392347FL285     1 6GELDA    6ESEBA   
AWY DCT   SA10221040215191+56871387+019566667+59717842+011936705FL285     1 6GELDA    6XIDMI   
AWY DCT   SA10221040214721+56871387+019566667+59317619+011820586FL285     1 6GELDA    6VATEX   
AWY DCT   SA10221040210561+56871387+019566667+59125000+011769166FL285     1 6GELDA    6MOGLU   
AWY DCT   SA10221040207111+56871387+019566667+58906548+010718483FL285     1 6GELDA    6BOMGU   
AWY DCT   SA10221040212501+56871387+019566667+58805946+010608141FL285     1 6GELDA    6REPKU   
AWY DCT   SA10223490205350+56531666+018876667+55244720+005000000FL285     1 6VEDEN    6UPGAS   
AWY DCT   SA10223490205040+56531666+018876667+56316944+012183333FL285     1 6VEDEN    6ROKAM   
AWY DCT   SA10205040204981+56316944+012183333+55938889+005000000FL285     1 6ROKAM    6PETIL   
AWY DCT   SA10205040205401+56316944+012183333+56537498+005000000FL285     1 6ROKAM    6VAXIT   
AWY DCT   SA10221100207111+55931667+017701667+58906548+010718483FL285     1 6GISON    6BOMGU   
AWY DCT   SA10221100212501+55931667+017701667+58805946+010608141FL285     1 6GISON    6REPKU   
AWY DCT   SA10221100205041+55931667+017701667+56316944+012183333FL285     1 6GISON    6ROKAM   
AWY DCT   SA10222360205611+55638611+017161388+66785004+015875834FL285     1 6PENOR    6ABAXI   
AWY DCT   SA10222360211931+55638611+017161388+66636107+015676111FL285     1 6PENOR    6PENAX   
AWY DCT   SA10222360210791+55638611+017161388+65557770+014508472FL285     1 6PENOR    6NEBUR   
AWY DCT   SA10222360208671+55638611+017161388+64034308+013793861FL285     1 6PENOR    6GIKAV   
AWY DCT   SA10222360213031+55638611+017161388+63330833+012052499FL285     1 6PENOR    6SOLKA   
AWY DCT   SA10222360223190+55638611+017161388+62937222+012125278FL285     1 6PENOR    6TIGBA   
AWY DCT   SA10222360211771+55638611+017161388+62319653+012262203FL285     1 6PENOR    6OSKOK   
AWY DCT   SA10222360213201+55638611+017161388+61151390+012719442FL285     1 6PENOR    6SUVAR   
AWY DCT   SA10222360212701+55638611+017161388+60512726+012606663FL285     1 6PENOR    6ROGED   
AWY DCT   SA10222360208310+55638611+017161388+60012711+012392347FL285     1 6PENOR    6ESEBA   
AWY DCT   SA10222360214721+55638611+017161388+59317619+011820586FL285     1 6PENOR    6VATEX   
AWY DCT   SA10222360210561+55638611+017161388+59125000+011769166FL285     1 6PENOR    6MOGLU   
AWY DCT   SA10222360207111+55638611+017161388+58906548+010718483FL285     1 6PENOR    6BOMGU   
AWY DCT   SA10222360212501+55638611+017161388+58805946+010608141FL285     1 6PENOR    6REPKU   
AWY DCT   SA10221570208310+55274445+016501667+60012711+012392347FL285     1 6LARMA    6ESEBA   
AWY DCT   SA10221570214721+55274445+016501667+59317619+011820586FL285     1 6LARMA    6VATEX   
AWY DCT   SA10221570210561+55274445+016501667+59125000+011769166FL285     1 6LARMA    6MOGLU   
AWY DCT   SA10221570207111+55274445+016501667+58906548+010718483FL285     1 6LARMA    6BOMGU   
AWY DCT   SA10221570212501+55274445+016501667+58805946+010608141FL285     1 6LARMA    6REPKU   
AWY DCT   SA10205130221100+55305557+005000000+55931667+017701667FL285     1 6SOPTO    6GISON   
AWY DCT   SA10205130222070+55305557+005000000+56228779+018285638FL285     1 6SOPTO    6NINTA   
AWY DCT   SA10205130223490+55305557+005000000+56531666+018876667FL285     1 6SOPTO    6VEDEN   
AWY DCT   SA10205130221020+55305557+005000000+57165001+019924722FL285     1 6SOPTO    6EVONA   
AWY DCT   SA10205130222000+55305557+005000000+58627724+020771778FL285     1 6SOPTO    6NEREN   
AWY DCT   SA10205130221940+55305557+005000000+58904972+020941249FL285     1 6SOPTO    6NEBSI   
AWY DCT   SA10205130220310+55305557+005000000+59047779+020915834FL285     1 6SOPTO    6ALAMI   
AWY DCT   SA10205130222080+55305557+005000000+59318611+020431667FL285     1 6SOPTO    6NISIX   
AWY DCT   SA10205130222500+55305557+005000000+59970833+019408056FL285     1 6SOPTO    6RIKUM   
AWY DCT   SA10205130220820+55305557+005000000+60044445+019301666FL285     1 6SOPTO    6DODAM   
AWY DCT   SA10205130221010+55305557+005000000+60252220+019111944FL285     1 6SOPTO    6EVLAN   
AWY DCT   SA10205130220470+55305557+005000000+61362499+019415832FL285     1 6SOPTO    6BAKLA   
AWY DCT   SA10205130206230+55305557+005000000+57675175+008802146FL285     1 6SOPTO    6AMSEV   
AWY DCT   SA10205130212410+55305557+005000000+57289593+008049481FL285     1 6SOPTO    6RASVI   
AWY DCT   SA10174120222070+54858612+009194167+56228779+018285638FL285     1 6DOSUR    6NINTA   
AWY DCT   SA10174120223490+54858612+009194167+56531666+018876667FL285     1 6DOSUR    6VEDEN   
AWY DCT   SA10174120221020+54858612+009194167+57165001+019924722FL285     1 6DOSUR    6EVONA   
AWY DCT   SA10174120220690+54858612+009194167+57672779+020210832FL285     1 6DOSUR    6DEREX   
AWY DCT   SA10174120222000+54858612+009194167+58627724+020771778FL285     1 6DOSUR    6NEREN   
AWY DCT   SA10174120220310+54858612+009194167+59047779+020915834FL285     1 6DOSUR    6ALAMI   
AWY DCT   SA10174120222080+54858612+009194167+59318611+020431667FL285     1 6DOSUR    6NISIX   
AWY DCT   SA10174120222500+54858612+009194167+59970833+019408056FL285     1 6DOSUR    6RIKUM   
AWY DCT   SA10174120220820+54858612+009194167+60044445+019301666FL285     1 6DOSUR    6DODAM   
AWY DCT   SA10204160222070+54644444+011000000+56228779+018285638FL285     1 6GITER    6NINTA   
AWY DCT   SA10204160223490+54644444+011000000+56531666+018876667FL285     1 6GITER    6VEDEN   
AWY DCT   SA10204160221020+54644444+011000000+57165001+019924722FL285     1 6GITER    6EVONA   
AWY DCT   SA10204160220690+54644444+011000000+57672779+020210832FL285     1 6GITER    6DEREX   
AWY DCT   SA10204160222000+54644444+011000000+58627724+020771778FL285     1 6GITER    6NEREN   
AWY DCT   SA10204160220310+54644444+011000000+59047779+020915834FL285     1 6GITER    6ALAMI   
AWY DCT   SA10204160222080+54644444+011000000+59318611+020431667FL285     1 6GITER    6NISIX   
AWY DCT   SA10204160221760+54644444+011000000+55016388+012800832FL285     1 6GITER    6MATEK   
AWY DCT   SA10178450221760+54468334+011648332+55016388+012800832FL285     1 6MEGAR    6MATEK   
AWY DCT   SA10178450220690+54468334+011648332+57672779+020210832FL285     1 6MEGAR    6DEREX   
AWY DCT   SA10178450222000+54468334+011648332+58627724+020771778FL285     1 6MEGAR    6NEREN   
AWY DCT   SA10178450220310+54468334+011648332+59047779+020915834FL285     1 6MEGAR    6ALAMI   
AWY DCT   SA10178450222080+54468334+011648332+59318611+020431667FL285     1 6MEGAR    6NISIX   
AWY DCT   SA10178450222500+54468334+011648332+59970833+019408056FL285     1 6MEGAR    6RIKUM   
AWY DCT   SA10178450220820+54468334+011648332+60044445+019301666FL285     1 6MEGAR    6DODAM   
AWY DCT   SA10178450221010+54468334+011648332+60252220+019111944FL285     1 6MEGAR    6EVLAN   
AWY DCT   SA10178450220470+54468334+011648332+61362499+019415832FL285     1 6MEGAR    6BAKLA   
AWY DCT   SA10204390220691+54461388+011689999+57672779+020210832FL285     1 6KOKOR    6DEREX   
AWY DCT   SA10204390222001+54461388+011689999+58627724+020771778FL285     1 6KOKOR    6NEREN   
AWY DCT   SA10204390220310+54461388+011689999+59047779+020915834FL285     1 6KOKOR    6ALAMI   
AWY DCT   SA10204390222080+54461388+011689999+59318611+020431667FL285     1 6KOKOR    6NISIX   
AWY DCT   SA10204390222500+54461388+011689999+59970833+019408056FL285     1 6KOKOR    6RIKUM   
AWY DCT   SA10204390220820+54461388+011689999+60044445+019301666FL285     1 6KOKOR    6DODAM   
AWY DCT   SA10204390221010+54461388+011689999+60252220+019111944FL285     1 6KOKOR    6EVLAN   
AWY DCT   SA10204390220470+54461388+011689999+61362499+019415832FL285     1 6KOKOR    6BAKLA   
AWY DCT   SA10204390220610+54461388+011689999+62415001+019824167FL285     1 6KOKOR    6BODRI   
AWY DCT   SA10204390221760+54461388+011689999+55016388+012800832FL285     1 6KOKOR    6MATEK   
AWY DCT   SA10221760221571+55016388+012800832+55274445+016501667FL285     1 6MATEK    6LARMA   
AWY DCT   SA10221760222070+55016388+012800832+56228779+018285638FL285     1 6MATEK    6NINTA   
AWY DCT   SA10221760223490+55016388+012800832+56531666+018876667FL285     1 6MATEK    6VEDEN   
AWY DCT   SA10221760221020+55016388+012800832+57165001+019924722FL285     1 6MATEK    6EVONA   
AWY DCT   SA10204640222000+54449444+011800277+58627724+020771778FL285     1 6MAKEL    6NEREN   
AWY DCT   SA10204640220310+54449444+011800277+59047779+020915834FL285     1 6MAKEL    6ALAMI   
AWY DCT   SA10204640222080+54449444+011800277+59318611+020431667FL285     1 6MAKEL    6NISIX   
AWY DCT   SA10204640222500+54449444+011800277+59970833+019408056FL285     1 6MAKEL    6RIKUM   
AWY DCT   SA10204640220820+54449444+011800277+60044445+019301666FL285     1 6MAKEL    6DODAM   
AWY DCT   SA10204640221010+54449444+011800277+60252220+019111944FL285     1 6MAKEL    6EVLAN   
AWY DCT   SA10204640220470+54449444+011800277+61362499+019415832FL285     1 6MAKEL    6BAKLA   
AWY DCT   SA10204640220610+54449444+011800277+62415001+019824167FL285     1 6MAKEL    6BODRI   
AWY DCT   SA10204640221730+54449444+011800277+66735275+023892221FL285     1 6MAKEL    6MAGON   
AWY DCT   SA10204640223340+54449444+011800277+67690559+023495277FL285     1 6MAKEL    6TUVLU   
AWY DCT   SA10204640222180+54449444+011800277+68833054+021172777FL285     1 6MAKEL    6OGLAV   
AWY DCT   SA10204640221760+54449444+011800277+55016388+012800832FL285     1 6MAKEL    6MATEK   
AWY DCT   SA10172490222000+54446110+011841388+58627724+020771778FL285     1 6BAMOR    6NEREN   
AWY DCT   SA10172490220310+54446110+011841388+59047779+020915834FL285     1 6BAMOR    6ALAMI   
AWY DCT   SA10172490222080+54446110+011841388+59318611+020431667FL285     1 6BAMOR    6NISIX   
AWY DCT   SA10172490222500+54446110+011841388+59970833+019408056FL285     1 6BAMOR    6RIKUM   
AWY DCT   SA10172490220820+54446110+011841388+60044445+019301666FL285     1 6BAMOR    6DODAM   
AWY DCT   SA10172490221010+54446110+011841388+60252220+019111944FL285     1 6BAMOR    6EVLAN   
AWY DCT   SA10172490220470+54446110+011841388+61362499+019415832FL285     1 6BAMOR    6BAKLA   
AWY DCT   SA10172490220610+54446110+011841388+62415001+019824167FL285     1 6BAMOR    6BODRI   
AWY DCT   SA10172490221730+54446110+011841388+66735275+023892221FL285     1 6BAMOR    6MAGON   
AWY DCT   SA10172490223340+54446110+011841388+67690559+023495277FL285     1 6BAMOR    6TUVLU   
AWY DCT   SA10172490222180+54446110+011841388+68833054+021172777FL285     1 6BAMOR    6OGLAV   
AWY DCT   SA10172490205610+54446110+011841388+66785004+015875834FL285     1 6BAMOR    6ABAXI   
AWY DCT   SA10172490214370+54446110+011841388+66257499+015395000FL285     1 6BAMOR    6USIKI   
AWY DCT   SA10172490208670+54446110+011841388+64034308+013793861FL285     1 6BAMOR    6GIKAV   
AWY DCT   SA10172490221760+54446110+011841388+55016388+012800832FL285     1 6BAMOR    6MATEK   
AWY DCT   SA10221760171830+55016388+012800832+54808613+009961667FL285     1 6MATEK    6ALASA   
AWY DCT   SA10221760204170+55016388+012800832+54622780+011086111FL285     1 6MATEK    6GOBOT   
AWY DCT   SA10221760175660+55016388+012800832+54560001+011313611FL285     1 6MATEK    6GIMRU   
AWY DCT   SA10222580204981+55033527+016070888+55938889+005000000FL285     1 6RUMAR    6PETIL   
AWY DCT   SA10222580205401+55033527+016070888+56537498+005000000FL285     1 6RUMAR    6VAXIT   
AWY DCT   SA10222580221761+55033527+016070888+55016388+012800832FL285     1 6RUMAR    6MATEK   
AWY DCT   SA10221160221020+54916668+015654999+57165001+019924722FL285     1 6GORPI    6EVONA   
AWY DCT   SA10221160220691+54916668+015654999+57672779+020210832FL285     1 6GORPI    6DEREX   
AWY DCT   SA10221160222000+54916668+015654999+58627724+020771778FL285     1 6GORPI    6NEREN   
AWY DCT   SA10221160220310+54916668+015654999+59047779+020915834FL285     1 6GORPI    6ALAMI   
AWY DCT   SA10221160222080+54916668+015654999+59318611+020431667FL285     1 6GORPI    6NISIX   
AWY DCT   SA10221160204981+54916668+015654999+55938889+005000000FL285     1 6GORPI    6PETIL   
AWY DCT   SA10221160205401+54916668+015654999+56537498+005000000FL285     1 6GORPI    6VAXIT   
AWY DCT   SA10205040206231+56316944+012183333+57675175+008802146FL285     1 6ROKAM    6AMSEV   
AWY DCT   SA10205040209711+56316944+012183333+57559700+008574142FL285     1 6ROKAM    6KOVIK   
AWY DCT   SA10220340205041+54889999+015097222+56316944+012183333FL285     1 6AMROR    6ROKAM   
AWY DCT   SA10221720204980+54916668+015296111+55938889+005000000FL285     1 6LUSID    6PETIL   
AWY DCT   SA10221720205400+54916668+015296111+56537498+005000000FL285     1 6LUSID    6VAXIT   
AWY DCT   SA10221720205040+54916668+015296111+56316944+012183333FL285     1 6LUSID    6ROKAM   
AWY DCT   SA10220340207111+54889999+015097222+58906548+010718483FL285     1 6AMROR    6BOMGU   
AWY DCT   SA10220340212501+54889999+015097222+58805946+010608141FL285     1 6AMROR    6REPKU   
AWY DCT   SA10220340206231+54889999+015097222+57675175+008802146FL285     1 6AMROR    6AMSEV   
AWY DCT   SA10220340209711+54889999+015097222+57559700+008574142FL285     1 6AMROR    6KOVIK   
AWY DCT   SA10221430209710+54823055+014944194+57559700+008574142FL285     1 6KOLOB    6KOVIK   
AWY DCT   SA10221430206230+54823055+014944194+57675175+008802146FL285     1 6KOLOB    6AMSEV   
AWY DCT   SA10221430208670+54823055+014944194+64034308+013793861FL285     1 6KOLOB    6GIKAV   
AWY DCT   SA10221430208310+54823055+014944194+60012711+012392347FL285     1 6KOLOB    6ESEBA   
AWY DCT   SA10221430210560+54823055+014944194+59125000+011769166FL285     1 6KOLOB    6MOGLU   
AWY DCT   SA10221430207110+54823055+014944194+58906548+010718483FL285     1 6KOLOB    6BOMGU   
AWY DCT   SA10221430212500+54823055+014944194+58805946+010608141FL285     1 6KOLOB    6REPKU   
AWY DCT   SA10221170222181+54805637+014857806+68833054+021172777FL285     1 6GOSOT    6OGLAV   
AWY DCT   SA10221170205610+54805637+014857806+66785004+015875834FL285     1 6GOSOT    6ABAXI   
AWY DCT   SA10221170214370+54805637+014857806+66257499+015395000FL285     1 6GOSOT    6USIKI   
AWY DCT   SA10221170208670+54805637+014857806+64034308+013793861FL285     1 6GOSOT    6GIKAV   
AWY DCT   SA10221170208310+54805637+014857806+60012711+012392347FL285     1 6GOSOT    6ESEBA   
AWY DCT   SA10221170210561+54805637+014857806+59125000+011769166FL285     1 6GOSOT    6MOGLU   
AWY DCT   SA10221170207111+54805637+014857806+58906548+010718483FL285     1 6GOSOT    6BOMGU   
AWY DCT   SA10221170212501+54805637+014857806+58805946+010608141FL285     1 6GOSOT    6REPKU   
AWY DCT   SA10222410221571+54819584+014564250+55274445+016501667FL285     1 6POKEN    6LARMA   
AWY DCT   SA10222410222071+54819584+014564250+56228779+018285638FL285     1 6POKEN    6NINTA   
AWY DCT   SA10222410221021+54819584+014564250+57165001+019924722FL285     1 6POKEN    6EVONA   
AWY DCT   SA10222410222001+54819584+014564250+58627724+020771778FL285     1 6POKEN    6NEREN   
AWY DCT   SA10222410221941+54819584+014564250+58904972+020941249FL285     1 6POKEN    6NEBSI   
AWY DCT   SA10222410220310+54819584+014564250+59047779+020915834FL285     1 6POKEN    6ALAMI   
AWY DCT   SA10222410222081+54819584+014564250+59318611+020431667FL285     1 6POKEN    6NISIX   
AWY DCT   SA10222410222500+54819584+014564250+59970833+019408056FL285     1 6POKEN    6RIKUM   
AWY DCT   SA10222410220820+54819584+014564250+60044445+019301666FL285     1 6POKEN    6DODAM   
AWY DCT   SA10222410221011+54819584+014564250+60252220+019111944FL285     1 6POKEN    6EVLAN   
AWY DCT   SA10222410220471+54819584+014564250+61362499+019415832FL285     1 6POKEN    6BAKLA   
AWY DCT   SA10220710221570+54916668+014344166+55274445+016501667FL285     1 6DETNI    6LARMA   
AWY DCT   SA10220710222070+54916668+014344166+56228779+018285638FL285     1 6DETNI    6NINTA   
AWY DCT   SA10220710221020+54916668+014344166+57165001+019924722FL285     1 6DETNI    6EVONA   
AWY DCT   SA10220710220690+54916668+014344166+57672779+020210832FL285     1 6DETNI    6DEREX   
AWY DCT   SA10220710222000+54916668+014344166+58627724+020771778FL285     1 6DETNI    6NEREN   
AWY DCT   SA10220710221940+54916668+014344166+58904972+020941249FL285     1 6DETNI    6NEBSI   
AWY DCT   SA10220710220310+54916668+014344166+59047779+020915834FL285     1 6DETNI    6ALAMI   
AWY DCT   SA10220600220310+54916668+014166667+59047779+020915834FL285     1 6BIKRU    6ALAMI   
AWY DCT   SA10220600222081+54916668+014166667+59318611+020431667FL285     1 6BIKRU    6NISIX   
AWY DCT   SA10220600222500+54916668+014166667+59970833+019408056FL285     1 6BIKRU    6RIKUM   
AWY DCT   SA10220600220820+54916668+014166667+60044445+019301666FL285     1 6BIKRU    6DODAM   
AWY DCT   SA10220600221011+54916668+014166667+60252220+019111944FL285     1 6BIKRU    6EVLAN   
AWY DCT   SA10220600220471+54916668+014166667+61362499+019415832FL285     1 6BIKRU    6BAKLA   
AWY DCT   SA10220600220611+54916668+014166667+62415001+019824167FL285     1 6BIKRU    6BODRI   
AWY DCT   SA10220600221731+54916668+014166667+66735275+023892221FL285     1 6BIKRU    6MAGON   
AWY DCT   SA10220600223341+54916668+014166667+67690559+023495277FL285     1 6BIKRU    6TUVLU   
AWY DCT   SA10220600222181+54916668+014166667+68833054+021172777FL285     1 6BIKRU    6OGLAV   
AWY DCT   SA10220600208670+54916668+014166667+64034308+013793861FL285     1 6BIKRU    6GIKAV   
AWY DCT   SA10222210222070+54916668+013763610+56228779+018285638FL285     1 6OKAGA    6NINTA   
AWY DCT   SA10222210221020+54916668+013763610+57165001+019924722FL285     1 6OKAGA    6EVONA   
AWY DCT   SA10222210222000+54916668+013763610+58627724+020771778FL285     1 6OKAGA    6NEREN   
AWY DCT   SA10222210221940+54916668+013763610+58904972+020941249FL285     1 6OKAGA    6NEBSI   
AWY DCT   SA10222210220310+54916668+013763610+59047779+020915834FL285     1 6OKAGA    6ALAMI   
AWY DCT   SA10222210222080+54916668+013763610+59318611+020431667FL285     1 6OKAGA    6NISIX   
AWY DCT   SA10222210222500+54916668+013763610+59970833+019408056FL285     1 6OKAGA    6RIKUM   
AWY DCT   SA10222210220820+54916668+013763610+60044445+019301666FL285     1 6OKAGA    6DODAM   
AWY DCT   SA10222210220470+54916668+013763610+61362499+019415832FL285     1 6OKAGA    6BAKLA   
AWY DCT   SA10222210220610+54916668+013763610+62415001+019824167FL285     1 6OKAGA    6BODRI   
AWY DCT   SA10222210221731+54916668+013763610+66735275+023892221FL285     1 6OKAGA    6MAGON   
AWY DCT   SA10222210223340+54916668+013763610+67690559+023495277FL285     1 6OKAGA    6TUVLU   
AWY DCT   SA10222210222180+54916668+013763610+68833054+021172777FL285     1 6OKAGA    6OGLAV   
AWY DCT   SA10222210214370+54916668+013763610+66257499+015395000FL285     1 6OKAGA    6USIKI   
AWY DCT   SA10220480222180+54916668+013560833+68833054+021172777FL285     1 6BAKLI    6OGLAV   
AWY DCT   SA10220480214370+54916668+013560833+66257499+015395000FL285     1 6BAKLI    6USIKI   
AWY DCT   SA10220480208670+54916668+013560833+64034308+013793861FL285     1 6BAKLI    6GIKAV   
AWY DCT   SA10220480208310+54916668+013560833+60012711+012392347FL285     1 6BAKLI    6ESEBA   
AWY DCT   SA10220480207110+54916668+013560833+58906548+010718483FL285     1 6BAKLI    6BOMGU   
AWY DCT   SA10223020221571+54916668+013386195+55274445+016501667FL285     1 6SALLO    6LARMA   
AWY DCT   SA10223020222071+54916668+013386195+56228779+018285638FL285     1 6SALLO    6NINTA   
AWY DCT   SA10223020221021+54916668+013386195+57165001+019924722FL285     1 6SALLO    6EVONA   
AWY DCT   SA10223020222001+54916668+013386195+58627724+020771778FL285     1 6SALLO    6NEREN   
AWY DCT   SA10223020221941+54916668+013386195+58904972+020941249FL285     1 6SALLO    6NEBSI   
AWY DCT   SA10223020220310+54916668+013386195+59047779+020915834FL285     1 6SALLO    6ALAMI   
AWY DCT   SA10223020222081+54916668+013386195+59318611+020431667FL285     1 6SALLO    6NISIX   
AWY DCT   SA10223020222500+54916668+013386195+59970833+019408056FL285     1 6SALLO    6RIKUM   
AWY DCT   SA10223020220820+54916668+013386195+60044445+019301666FL285     1 6SALLO    6DODAM   
AWY DCT   SA10223020221011+54916668+013386195+60252220+019111944FL285     1 6SALLO    6EVLAN   
AWY DCT   SA10223020220471+54916668+013386195+61362499+019415832FL285     1 6SALLO    6BAKLA   
AWY DCT   SA10223020220611+54916668+013386195+62415001+019824167FL285     1 6SALLO    6BODRI   
AWY DCT   SA10223020221731+54916668+013386195+66735275+023892221FL285     1 6SALLO    6MAGON   
AWY DCT   SA10223020223341+54916668+013386195+67690559+023495277FL285     1 6SALLO    6TUVLU   
AWY DCT   SA10223020184941+54916668+013386195+68141388+023321666FL285     1 6SALLO    6DOPUD   
AWY DCT   SA10223020222181+54916668+013386195+68833054+021172777FL285     1 6SALLO    6OGLAV   
AWY DCT   SA10223020214370+54916668+013386195+66257499+015395000FL285     1 6SALLO    6USIKI   
AWY DCT   SA10223020208670+54916668+013386195+64034308+013793861FL285     1 6SALLO    6GIKAV   
AWY DCT   SA10223020208310+54916668+013386195+60012711+012392347FL285     1 6SALLO    6ESEBA   
AWY DCT   SA10223020207111+54916668+013386195+58906548+010718483FL285     1 6SALLO    6BOMGU   
AWY DCT   SA10206400204500+58334419+010148983+55000000+007697222FL285     1 6ARTOR    6LANUL   
AWY DCT   SA10211080204500+58078518+009616783+55000000+007697222FL285     1 6NIROD    6LANUL   
AWY DCT   SA10212530204500+57991524+009438616+55000000+007697222FL285     1 6RETKA    6LANUL   
AWY DCT   SA10210900204500+57887943+009228278+55000000+007697222FL285     1 6NERDO    6LANUL   
AWY DCT   SA10206230204500+57675175+008802146+55000000+007697222FL285     1 6AMSEV    6LANUL   
AWY DCT   SA10209710204500+57559700+008574142+55000000+007697222FL285     1 6KOVIK    6LANUL   
AWY DCT   SA10212410204500+57289593+008049481+55000000+007697222FL285     1 6RASVI    6LANUL   
AWY DCT   SA10212360204500+57057110+007607319+55000000+007697222FL285     1 6RAMUD    6LANUL   
AWY DCT   SA10203990203701+55533333+007583333+54899723+008782777FL285     1 6DOREV    6ATTUS   
AWY DCT   SA10205400203991+56537498+005000000+55533333+007583333FL285     1 6VAXIT    6DOREV   
AWY DCT   SA10205400178851+56537498+005000000+54486389+012064999FL285     1 6VAXIT    6NEDIK   
AWY DCT   SA10205400179001+56537498+005000000+54608612+012285555FL285     1 6VAXIT    6NIKDA   
AWY DCT   SA10210100205250+57000000+007227316+56250832+005000000FL285     1 6LINVI    6TINAC   
AWY DCT   SA10210100205350+57000000+007227316+55244720+005000000FL285     1 6LINVI    6UPGAS   
AWY DCT   SA10207420205251+57000000+006697827+56250832+005000000FL285     1 6DANKO    6TINAC   
AWY DCT   SA10207420205350+57000000+006697827+55244720+005000000FL285     1 6DANKO    6UPGAS   
AWY DCT   SA10210520205350+57000000+006455695+55244720+005000000FL285     1 6MITSI    6UPGAS   
AWY DCT   SA10209550205350+57000000+005507432+55244720+005000000FL285     1 6KARLI    6UPGAS   
AWY DCT   SA10205400209551+56537498+005000000+57000000+005507432FL285     1 6VAXIT    6KARLI   
AWY DCT   SA10205400210521+56537498+005000000+57000000+006455695FL285     1 6VAXIT    6MITSI   
AWY DCT   SA10205400207421+56537498+005000000+57000000+006697827FL285     1 6VAXIT    6DANKO   
AWY DCT   SA10204980203991+55938889+005000000+55533333+007583333FL285     1 6PETIL    6DOREV   
AWY DCT   SA10204980178851+55938889+005000000+54486389+012064999FL285     1 6PETIL    6NEDIK   
AWY DCT   SA10204980179001+55938889+005000000+54608612+012285555FL285     1 6PETIL    6NIKDA   
AWY DCT   SA10204280209550+55606945+005000000+57000000+005507432FL285     1 6INBOB    6KARLI   
AWY DCT   SA10204280210520+55606945+005000000+57000000+006455695FL285     1 6INBOB    6MITSI   
AWY DCT   SA10204280207420+55606945+005000000+57000000+006697827FL285     1 6INBOB    6DANKO   
AWY DCT   SA10204280210100+55606945+005000000+57000000+007227316FL285     1 6INBOB    6LINVI   
AWY DCT   SA10200540204981+55000000+005858795+55938889+005000000FL285     1 6GREFI    6PETIL   
AWY DCT   SA10200540205401+55000000+005858795+56537498+005000000FL285     1 6GREFI    6VAXIT   
AWY DCT   SA10200540209551+55000000+005858795+57000000+005507432FL285     1 6GREFI    6KARLI   
AWY DCT   SA10200540210520+55000000+005858795+57000000+006455695FL285     1 6GREFI    6MITSI   
AWY DCT   SA10200540207420+55000000+005858795+57000000+006697827FL285     1 6GREFI    6DANKO   
AWY DCT   SA10204440209550+55000000+007620555+57000000+005507432FL285     1 6KUGAL    6KARLI   
AWY DCT   SA10204440210520+55000000+007620555+57000000+006455695FL285     1 6KUGAL    6MITSI   
AWY DCT   SA10204440207420+55000000+007620555+57000000+006697827FL285     1 6KUGAL    6DANKO   
AWY DCT   SA10204440210100+55000000+007620555+57000000+007227316FL285     1 6KUGAL    6LINVI   
AWY DCT   SA10204440212360+55000000+007620555+57057110+007607319FL285     1 6KUGAL    6RAMUD   
AWY DCT   SA10199540210521+55000000+006349999+57000000+006455695FL285     1 6AMADA    6MITSI   
AWY DCT   SA10199540207421+55000000+006349999+57000000+006697827FL285     1 6AMADA    6DANKO   
AWY DCT   SA10199540210101+55000000+006349999+57000000+007227316FL285     1 6AMADA    6LINVI   
AWY DCT   SA10199540212361+55000000+006349999+57057110+007607319FL285     1 6AMADA    6RAMUD   
AWY DCT   SA10199540212411+55000000+006349999+57289593+008049481FL285     1 6AMADA    6RASVI   
AWY DCT   SA10199540209711+55000000+006349999+57559700+008574142FL285     1 6AMADA    6KOVIK   
AWY DCT   SA10199540206231+55000000+006349999+57675175+008802146FL285     1 6AMADA    6AMSEV   
AWY DCT   SA10204440211080+55000000+007620555+58078518+009616783FL285     1 6KUGAL    6NIROD   
AWY DCT   SA10204440206400+55000000+007620555+58334419+010148983FL285     1 6KUGAL    6ARTOR   
AWY DCT   SA10204310210101+55224998+008032500+57000000+007227316FL285     1 6INSUS    6LINVI   
AWY DCT   SA10204310212361+55224998+008032500+57057110+007607319FL285     1 6INSUS    6RAMUD   
AWY DCT   SA10204310212411+55224998+008032500+57289593+008049481FL285     1 6INSUS    6RASVI   
AWY DCT   SA10204310209711+55224998+008032500+57559700+008574142FL285     1 6INSUS    6KOVIK   
AWY DCT   SA10204310206231+55224998+008032500+57675175+008802146FL285     1 6INSUS    6AMSEV   
AWY DCT   SA10204310211081+55224998+008032500+58078518+009616783FL285     1 6INSUS    6NIROD   
AWY DCT   SA10204310206401+55224998+008032500+58334419+010148983FL285     1 6INSUS    6ARTOR   
AWY DCT   SA10204610209551+55064167+008416111+57000000+005507432FL285     1 6LUTIR    6KARLI   
AWY DCT   SA10204610210521+55064167+008416111+57000000+006455695FL285     1 6LUTIR    6MITSI   
AWY DCT   SA10204610207421+55064167+008416111+57000000+006697827FL285     1 6LUTIR    6DANKO   
AWY DCT   SA10204610210101+55064167+008416111+57000000+007227316FL285     1 6LUTIR    6LINVI   
AWY DCT   SA10204610212361+55064167+008416111+57057110+007607319FL285     1 6LUTIR    6RAMUD   
AWY DCT   SA10204610212411+55064167+008416111+57289593+008049481FL285     1 6LUTIR    6RASVI   
AWY DCT   SA10204610209711+55064167+008416111+57559700+008574142FL285     1 6LUTIR    6KOVIK   
AWY DCT   SA10204610206231+55064167+008416111+57675175+008802146FL285     1 6LUTIR    6AMSEV   
AWY DCT   SA10204610210901+55064167+008416111+57887943+009228278FL285     1 6LUTIR    6NERDO   
AWY DCT   SA10203700209551+54899723+008782777+57000000+005507432FL285     1 6ATTUS    6KARLI   
AWY DCT   SA10203700210521+54899723+008782777+57000000+006455695FL285     1 6ATTUS    6MITSI   
AWY DCT   SA10203700207421+54899723+008782777+57000000+006697827FL285     1 6ATTUS    6DANKO   
AWY DCT   SA10203700210101+54899723+008782777+57000000+007227316FL285     1 6ATTUS    6LINVI   
AWY DCT   SA10203700212361+54899723+008782777+57057110+007607319FL285     1 6ATTUS    6RAMUD   
AWY DCT   SA10203700212411+54899723+008782777+57289593+008049481FL285     1 6ATTUS    6RASVI   
AWY DCT   SA10171830209711+54808613+009961667+57559700+008574142FL285     1 6ALASA    6KOVIK   
AWY DCT   SA10171830206231+54808613+009961667+57675175+008802146FL285     1 6ALASA    6AMSEV   
AWY DCT   SA10171830210901+54808613+009961667+57887943+009228278FL285     1 6ALASA    6NERDO   
AWY DCT   SA10171830212531+54808613+009961667+57991524+009438616FL285     1 6ALASA    6RETKA   
AWY DCT   SA10171830211081+54808613+009961667+58078518+009616783FL285     1 6ALASA    6NIROD   
AWY DCT   SA10171830206401+54808613+009961667+58334419+010148983FL285     1 6ALASA    6ARTOR   
AWY DCT   SA10181810206231+54878887+012780278+57675175+008802146FL285     1 6SONAL    6AMSEV   
AWY DCT   SA10178850206401+54486389+012064999+58334419+010148983FL285     1 6NEDIK    6ARTOR   
AWY DCT   SA10178850212531+54486389+012064999+57991524+009438616FL285     1 6NEDIK    6RETKA   
AWY DCT   SA10178850210901+54486389+012064999+57887943+009228278FL285     1 6NEDIK    6NERDO   
AWY DCT   SA10178850206231+54486389+012064999+57675175+008802146FL285     1 6NEDIK    6AMSEV   
AWY DCT   SA10178850209711+54486389+012064999+57559700+008574142FL285     1 6NEDIK    6KOVIK   
AWY DCT   SA10178850212411+54486389+012064999+57289593+008049481FL285     1 6NEDIK    6RASVI   
AWY DCT   SA10178850212361+54486389+012064999+57057110+007607319FL285     1 6NEDIK    6RAMUD   
AWY DCT   SA10179000206401+54608612+012285555+58334419+010148983FL285     1 6NIKDA    6ARTOR   
AWY DCT   SA10179000212531+54608612+012285555+57991524+009438616FL285     1 6NIKDA    6RETKA   
AWY DCT   SA10179000210901+54608612+012285555+57887943+009228278FL285     1 6NIKDA    6NERDO   
AWY DCT   SA10179000206231+54608612+012285555+57675175+008802146FL285     1 6NIKDA    6AMSEV   
AWY DCT   SA10179000209711+54608612+012285555+57559700+008574142FL285     1 6NIKDA    6KOVIK   
AWY DCT   SA10179000212411+54608612+012285555+57289593+008049481FL285     1 6NIKDA    6RASVI   
AWY DCT   SA10179000212361+54608612+012285555+57057110+007607319FL285     1 6NIKDA    6RAMUD   
AWY DCT   SA10179000210101+54608612+012285555+57000000+007227316FL285     1 6NIKDA    6LINVI   
AWY DCT   SA10181810206401+54878887+012780278+58334419+010148983FL285     1 6SONAL    6ARTOR   
AWY DCT   SA10181810212531+54878887+012780278+57991524+009438616FL285     1 6SONAL    6RETKA   
AWY DCT   SA10181810210901+54878887+012780278+57887943+009228278FL285     1 6SONAL    6NERDO   
AWY DCT   SA10181810209711+54878887+012780278+57559700+008574142FL285     1 6SONAL    6KOVIK   
AWY DCT   SA10181810212411+54878887+012780278+57289593+008049481FL285     1 6SONAL    6RASVI   
AWY DCT   SA10181810212361+54878887+012780278+57057110+007607319FL285     1 6SONAL    6RAMUD   
AWY DCT   SA10181810210101+54878887+012780278+57000000+007227316FL285     1 6SONAL    6LINVI   
AWY DCT   SA10204410206401+54779999+012597778+58334419+010148983FL285     1 6KOSEB    6ARTOR   
AWY DCT   SA10204410212531+54779999+012597778+57991524+009438616FL285     1 6KOSEB    6RETKA   
AWY DCT   SA10204410210901+54779999+012597778+57887943+009228278FL285     1 6KOSEB    6NERDO   
AWY DCT   SA10204410206231+54779999+012597778+57675175+008802146FL285     1 6KOSEB    6AMSEV   
AWY DCT   SA10204410209711+54779999+012597778+57559700+008574142FL285     1 6KOSEB    6KOVIK   
AWY DCT   SA10204410212411+54779999+012597778+57289593+008049481FL285     1 6KOSEB    6RASVI   
AWY DCT   SA10204410212361+54779999+012597778+57057110+007607319FL285     1 6KOSEB    6RAMUD   
AWY DCT   SA10204410210101+54779999+012597778+57000000+007227316FL285     1 6KOSEB    6LINVI   
AWY DCT   SA10178850210101+54486389+012064999+57000000+007227316FL285     1 6NEDIK    6LINVI   
AWY DCT   SA10220610221720+62415001+019824167+54916668+015296111FL285     1 6BODRI    6LUSID   
AWY DCT   SA10220610222410+62415001+019824167+54819584+014564250FL285     1 6BODRI    6POKEN   
AWY DCT   SA10171830220611+54808613+009961667+62415001+019824167FL285     1 6ALASA    6BODRI   
AWY DCT   SA10205310220611+55000000+007876111+62415001+019824167FL285     1 6TUSKA    6BODRI   
AWY DCT   SA10220610204500+62415001+019824167+55000000+007697222FL285     1 6BODRI    6LANUL   
AWY DCT   SA10215190220611+59717842+011936705+62415001+019824167FL285     1 6XIDMI    6BODRI   
AWY DCT   SA10212700220611+60512726+012606663+62415001+019824167FL285     1 6ROGED    6BODRI   
AWY DCT   SA10212810220611+60733784+012395507+62415001+019824167FL285     1 6ROVPA    6BODRI   
AWY DCT   SA10215140220611+61499748+012667910+62415001+019824167FL285     1 6XELVI    6BODRI   
AWY DCT   SA10207860220611+61675873+012216725+62415001+019824167FL285     1 6EGAGO    6BODRI   
AWY DCT   SA10211770220611+62319653+012262203+62415001+019824167FL285     1 6OSKOK    6BODRI   
AWY DCT   SA10211640220611+62434246+012181469+62415001+019824167FL285     1 6OLGUV    6BODRI   
AWY DCT   SA10220610223190+62415001+019824167+62937222+012125278FL285     1 6BODRI    6TIGBA   
AWY DCT   SA10213030220611+63330833+012052499+62415001+019824167FL285     1 6SOLKA    6BODRI   
AWY DCT   SA10208670220611+64034308+013793861+62415001+019824167FL285     1 6GIKAV    6BODRI   
AWY DCT   SA10211130220611+64462585+014113888+62415001+019824167FL285     1 6NOGBO    6BODRI   
AWY DCT   SA10220610210791+62415001+019824167+65557770+014508472FL285     1 6BODRI    6NEBUR   
AWY DCT   SA10221270212701+62830555+020010833+60512726+012606663FL285     1 6IRGAL    6ROGED   
AWY DCT   SA10221270212811+62830555+020010833+60733784+012395507FL285     1 6IRGAL    6ROVPA   
AWY DCT   SA10221270215141+62830555+020010833+61499748+012667910FL285     1 6IRGAL    6XELVI   
AWY DCT   SA10221270207861+62830555+020010833+61675873+012216725FL285     1 6IRGAL    6EGAGO   
AWY DCT   SA10221270211771+62830555+020010833+62319653+012262203FL285     1 6IRGAL    6OSKOK   
AWY DCT   SA10221270211641+62830555+020010833+62434246+012181469FL285     1 6IRGAL    6OLGUV   
AWY DCT   SA10221270223190+62830555+020010833+62937222+012125278FL285     1 6IRGAL    6TIGBA   
AWY DCT   SA10221270213031+62830555+020010833+63330833+012052499FL285     1 6IRGAL    6SOLKA   
AWY DCT   SA10221270211131+62830555+020010833+64462585+014113888FL285     1 6IRGAL    6NOGBO   
AWY DCT   SA10221270210791+62830555+020010833+65557770+014508472FL285     1 6IRGAL    6NEBUR   
AWY DCT   SA10221270214371+62830555+020010833+66257499+015395000FL285     1 6IRGAL    6USIKI   
AWY DCT   SA10223470213031+63418610+020574167+63330833+012052499FL285     1 6VALAK    6SOLKA   
AWY DCT   SA10223470211131+63418610+020574167+64462585+014113888FL285     1 6VALAK    6NOGBO   
AWY DCT   SA10223470210791+63418610+020574167+65557770+014508472FL285     1 6VALAK    6NEBUR   
AWY DCT   SA10223470214371+63418610+020574167+66257499+015395000FL285     1 6VALAK    6USIKI   
AWY DCT   SA10223470211931+63418610+020574167+66636107+015676111FL285     1 6VALAK    6PENAX   
AWY DCT   SA10223470210501+63418610+020574167+66935867+016090494FL285     1 6VALAK    6MIMKI   
AWY DCT   SA10203970206230+57587612+011069055+57675175+008802146FL285     1 6DETNA    6AMSEV   
AWY DCT   SA10203970210900+57587612+011069055+57887943+009228278FL285     1 6DETNA    6NERDO   
AWY DCT   SA10203970205250+57587612+011069055+56250832+005000000FL285     1 6DETNA    6TINAC   
AWY DCT   SA10203970204540+57587612+011069055+55385555+005000000FL285     1 6DETNA    6LESRA   
AWY DCT   SA10203970205350+57587612+011069055+55244720+005000000FL285     1 6DETNA    6UPGAS   
AWY DCT   SA10203970204500+57587612+011069055+55000000+007697222FL285     1 6DETNA    6LANUL   
AWY DCT   SA10203970205310+57587612+011069055+55000000+007876111FL285     1 6DETNA    6TUSKA   
AWY DCT   SA10223440171830+57137779+011643889+54808613+009961667FL285     1 6VADIN    6ALASA   
AWY DCT   SA10223440204560+57137779+011643889+54592220+011202777FL285     1 6VADIN    6LOMPU   
AWY DCT   SA10223300223020+57135860+012338945+54916668+013386195FL285     1 6TOPLA    6SALLO   
AWY DCT   SA10223300222410+57135860+012338945+54819584+014564250FL285     1 6TOPLA    6POKEN   
AWY DCT   SA10223300220340+57135860+012338945+54889999+015097222FL285     1 6TOPLA    6AMROR   
AWY DCT   SA10223300221160+57135860+012338945+54916668+015654999FL285     1 6TOPLA    6GORPI   
AWY DCT   SA10223300222580+57135860+012338945+55033527+016070888FL285     1 6TOPLA    6RUMAR   
AWY DCT   SA10223300221570+57135860+012338945+55274445+016501667FL285     1 6TOPLA    6LARMA   
AWY DCT   SA10939970222360+57713585+013148388+55638611+017161388FL285     1 6LUKAX    6PENOR   
AWY DCT   SA10939970223490+57713585+013148388+56531666+018876667FL285     1 6LUKAX    6VEDEN   
AWY DCT   SA10939970221040+57713585+013148388+56871387+019566667FL285     1 6LUKAX    6GELDA   
AWY DCT   SA10939970221020+57713585+013148388+57165001+019924722FL285     1 6LUKAX    6EVONA   
AWY DCT   SA10939970220690+57713585+013148388+57672779+020210832FL285     1 6LUKAX    6DEREX   
AWY DCT   SA10939970222000+57713585+013148388+58627724+020771778FL285     1 6LUKAX    6NEREN   
AWY DCT   SA10939970220310+57713585+013148388+59047779+020915834FL285     1 6LUKAX    6ALAMI   
AWY DCT   SA10939970222500+57713585+013148388+59970833+019408056FL285     1 6LUKAX    6RIKUM   
AWY DCT   SA10220720220820+58599998+014264361+60044445+019301666FL285     1 6DETSO    6DODAM   
AWY DCT   SA10220720221010+58599998+014264361+60252220+019111944FL285     1 6DETSO    6EVLAN   
AWY DCT   SA10220720220470+58599998+014264361+61362499+019415832FL285     1 6DETSO    6BAKLA   
AWY DCT   SA10220720221840+58599998+014264361+66174721+023819444FL285     1 6DETSO    6MISMO   
AWY DCT   SA10223340222170+67690559+023495277+58770557+013127778FL285     1 6TUVLU    6OGIRO   
AWY DCT   SA10222170221730+58770557+013127778+66735275+023892221FL285     1 6OGIRO    6MAGON   
AWY DCT   SA10222170221840+58770557+013127778+66174721+023819444FL285     1 6OGIRO    6MISMO   
AWY DCT   SA10222170214370+58770557+013127778+66257499+015395000FL285     1 6OGIRO    6USIKI   
AWY DCT   SA10205400204470+56537498+005000000+57338055+011000000FL285     1 6VAXIT    6KUVUS   
AWY DCT   SA10205250204470+56250832+005000000+57338055+011000000FL285     1 6TINAC    6KUVUS   
AWY DCT   SA10204540204470+55385555+005000000+57338055+011000000FL285     1 6LESRA    6KUVUS   
AWY DCT   SA10205130204470+55305557+005000000+57338055+011000000FL285     1 6SOPTO    6KUVUS   
AWY DCT   SA10204440204240+55000000+007620555+57205002+011272777FL285     1 6KUGAL    6GOTEX   
AWY DCT   SA10205310204240+55000000+007876111+57205002+011272777FL285     1 6TUSKA    6GOTEX   
AWY DCT   SA10171830204240+54808613+009961667+57205002+011272777FL285     1 6ALASA    6GOTEX   
AWY DCT   SA10204640223480+54449444+011800277+56531666+012123611FL285     1 6MAKEL    6VEDAR   
AWY DCT   SA10172490223480+54446110+011841388+56531666+012123611FL285     1 6BAMOR    6VEDAR   
AWY DCT   SA10178850223480+54486389+012064999+56531666+012123611FL285     1 6NEDIK    6VEDAR   
AWY DCT   SA10223020222520+54916668+013386195+57041943+011979167FL285     1 6SALLO    6RISMA   
AWY DCT   SA10221170222520+54805637+014857806+57041943+011979167FL285     1 6GOSOT    6RISMA   
AWY DCT   SA10221430222520+54823055+014944194+57041943+011979167FL285     1 6KOLOB    6RISMA   
AWY DCT   SA10220340222520+54889999+015097222+57041943+011979167FL285     1 6AMROR    6RISMA   
AWY DCT   SA10221720222520+54916668+015296111+57041943+011979167FL285     1 6LUSID    6RISMA   
AWY DCT   SA10221160222520+54916668+015654999+57041943+011979167FL285     1 6GORPI    6RISMA   
AWY DCT   SA10222580222520+55033527+016070888+57041943+011979167FL285     1 6RUMAR    6RISMA   
AWY DCT   SA10221570222520+55274445+016501667+57041943+011979167FL285     1 6LARMA    6RISMA   
AWY DCT   SA10221100222520+55931667+017701667+57041943+011979167FL285     1 6GISON    6RISMA   
AWY DCT   SA10223490222520+56531666+018876667+57041943+011979167FL285     1 6VEDEN    6RISMA   
AWY DCT   SA10221040221910+56871387+019566667+58531361+013313917FL285     1 6GELDA    6MOXAM   
AWY DCT   SA10221020221910+57165001+019924722+58531361+013313917FL285     1 6EVONA    6MOXAM   
AWY DCT   SA10222420221910+58027943+020414667+58531361+013313917FL285     1 6RASEL    6MOXAM   
AWY DCT   SA10221940221910+58904972+020941249+58531361+013313917FL285     1 6NEBSI    6MOXAM   
AWY DCT   SA10222080221910+59318611+020431667+58531361+013313917FL285     1 6NISIX    6MOXAM   
AWY DCT   SA10221700221910+59640278+019876388+58531361+013313917FL285     1 6LUPET    6MOXAM   
AWY DCT   SA10222590221910+59749722+019724166+58531361+013313917FL285     1 6RUNGA    6MOXAM   
AWY DCT   SA10221010221910+60252220+019111944+58531361+013313917FL285     1 6EVLAN    6MOXAM   
AWY DCT   SA10221290221910+60468613+019175832+58531361+013313917FL285     1 6KELAS    6MOXAM   
AWY DCT   SA10220470222170+61362499+019415832+58770557+013127778FL285     1 6BAKLA    6OGIRO   
AWY DCT   SA10220610222170+62415001+019824167+58770557+013127778FL285     1 6BODRI    6OGIRO   
AWY DCT   SA10223110222170+64553886+022737777+58770557+013127778FL285     1 6SUTEV    6OGIRO   
AWY DCT   SA10222180222170+68833054+021172777+58770557+013127778FL285     1 6OGLAV    6OGIRO   
AWY DCT   SA10212280221590+68497780+019098611+58557220+011970277FL285     1 6POBEL    6LATKU   
AWY DCT   SA10213770221590+59891144+012020006+58557220+011970277FL285     1 6TUMGU    6LATKU   
AWY DCT   SA10210560221590+59125000+011769166+58557220+011970277FL285     1 6MOGLU    6LATKU   
AWY DCT   SA10220990221570+55473446+015634833+55274445+016501667FL285     1 6ETRUS    6LARMA   
AWY DCT   SA10220990221100+55473446+015634833+55931667+017701667FL285     1 6ETRUS    6GISON   
AWY DCT   SA10220990222070+55473446+015634833+56228779+018285638FL285     1 6ETRUS    6NINTA   
AWY DCT   SA10220990221020+55473446+015634833+57165001+019924722FL285     1 6ETRUS    6EVONA   
AWY DCT   SA10221470220691+56132751+014836667+57672779+020210832FL285     1 6KOTAM    6DEREX   
AWY DCT   SA10221470221021+56132751+014836667+57165001+019924722FL285     1 6KOTAM    6EVONA   
AWY DCT   SA10221470223490+56132751+014836667+56531666+018876667FL285     1 6KOTAM    6VEDEN   
AWY DCT   SA10221220222000+56460556+014311389+58627724+020771778FL285     1 6IDPAL    6NEREN   
AWY DCT   SA10222280220310+56491669+014269444+59047779+020915834FL285     1 6OTVEB    6ALAMI   
AWY DCT   SA10222570222500+56564529+014033389+59970833+019408056FL285     1 6ROXEN    6RIKUM   
AWY DCT   SA10222440220470+56758389+013815278+61362499+019415832FL285     1 6RASMU    6BAKLA   
AWY DCT   SA10222440221840+56758389+013815278+66174721+023819444FL285     1 6RASMU    6MISMO   
AWY DCT   SA10222440221730+56758389+013815278+66735275+023892221FL285     1 6RASMU    6MAGON   
AWY DCT   SA10221580222180+56928360+012011694+68833054+021172777FL285     1 6LASLI    6OGLAV   
AWY DCT   SA10221580212280+56928360+012011694+68497780+019098611FL285     1 6LASLI    6POBEL   
AWY DCT   SA10221100221470+55931667+017701667+56132751+014836667FL285     1 6GISON    6KOTAM   
AWY DCT   SA10212281995710+68497780+019098611+57760387+014065417FL285     1 6POBEL    4JON     
AWY DCT   SA10221460221470+59182777+020676111+56132751+014836667FL285     1 6KOSKA    6KOTAM   
AWY DCT   SA10222000221470+58627724+020771778+56132751+014836667FL285     1 6NEREN    6KOTAM   
AWY DCT   SA10222070221470+56228779+018285638+56132751+014836667FL285     1 6NINTA    6KOTAM   
AWY DCT   SA10221570220910+55274445+016501667+55411861+014094222FL285     1 6LARMA    6ELVIX   
AWY DCT   SA10205130221760+55305557+005000000+55016388+012800832FL285     1 6SOPTO    6MATEK   
AWY DCT   SA10204540221761+55385555+005000000+55016388+012800832FL285     1 6LESRA    6MATEK   
AWY DCT   SA10223010223020+58176556+011642722+54916668+013386195FL285     1 6SABAK    6SALLO   
AWY DCT   SA10223010222410+58176556+011642722+54819584+014564250FL285     1 6SABAK    6POKEN   
AWY DCT   SA10223010220340+58176556+011642722+54889999+015097222FL285     1 6SABAK    6AMROR   
AWY DCT   SA10223010221160+58176556+011642722+54916668+015654999FL285     1 6SABAK    6GORPI   
AWY DCT   SA10223010222580+58176556+011642722+55033527+016070888FL285     1 6SABAK    6RUMAR   
AWY DCT   SA10223010221570+58176556+011642722+55274445+016501667FL285     1 6SABAK    6LARMA   
AWY DCT   SA10223010221100+58176556+011642722+55931667+017701667FL285     1 6SABAK    6GISON   
AWY DCT   SA10221590221040+58557220+011970277+56871387+019566667FL285     1 6LATKU    6GELDA   
AWY DCT   SA10221590221020+58557220+011970277+57165001+019924722FL285     1 6LATKU    6EVONA   
AWY DCT   SA10221590220690+58557220+011970277+57672779+020210832FL285     1 6LATKU    6DEREX   
AWY DCT   SA10221300223020+58243584+012054166+54916668+013386195FL285     1 6KELIN    6SALLO   
AWY DCT   SA10221300222410+58243584+012054166+54819584+014564250FL285     1 6KELIN    6POKEN   
AWY DCT   SA10221300221160+58243584+012054166+54916668+015654999FL285     1 6KELIN    6GORPI   
AWY DCT   SA10221300221570+58243584+012054166+55274445+016501667FL285     1 6KELIN    6LARMA   
AWY DCT   SA10221260222360+58130806+013452667+55638611+017161388FL285     1 6IPKAL    6PENOR   
AWY DCT   SA10221260221100+58130806+013452667+55931667+017701667FL285     1 6IPKAL    6GISON   
AWY DCT   SA10221260223490+58130806+013452667+56531666+018876667FL285     1 6IPKAL    6VEDEN   
AWY DCT   SA10221260221040+58130806+013452667+56871387+019566667FL285     1 6IPKAL    6GELDA   
AWY DCT   SA10221260221020+58130806+013452667+57165001+019924722FL285     1 6IPKAL    6EVONA   
AWY DCT   SA11995740222500+59442444+013331556+59970833+019408056FL285     1 4KSD      6RIKUM   
AWY DCT   SA11995740221010+59442444+013331556+60252220+019111944FL285     1 4KSD      6EVLAN   
AWY DCT   SA11995740220470+59442444+013331556+61362499+019415832FL285     1 4KSD      6BAKLA   
AWY DCT   SA10221620222080+60046112+014438332+59318611+020431667FL285     1 6LEGPO    6NISIX   
AWY DCT   SA10178850223010+54486389+012064999+58176556+011642722FL285     1 6NEDIK    6SABAK   
AWY DCT   SA10223020223540+54916668+013386195+58691444+011482722FL285     1 6SALLO    6XENTA   
AWY DCT   SA10221170223540+54805637+014857806+58691444+011482722FL285     1 6GOSOT    6XENTA   
AWY DCT   SA10221430223540+54823055+014944194+58691444+011482722FL285     1 6KOLOB    6XENTA   
AWY DCT   SA10220340223540+54889999+015097222+58691444+011482722FL285     1 6AMROR    6XENTA   
AWY DCT   SA10221720223540+54916668+015296111+58691444+011482722FL285     1 6LUSID    6XENTA   
AWY DCT   SA10221570223540+55274445+016501667+58691444+011482722FL285     1 6LARMA    6XENTA   
AWY DCT   SA10222360223540+55638611+017161388+58691444+011482722FL285     1 6PENOR    6XENTA   
AWY DCT   SA10222360222230+55638611+017161388+59329445+011957222FL285     1 6PENOR    6OKSAT   
AWY DCT   SA10221040222230+56871387+019566667+59329445+011957222FL285     1 6GELDA    6OKSAT   
AWY DCT   SA10221020222230+57165001+019924722+59329445+011957222FL285     1 6EVONA    6OKSAT   
AWY DCT   SA10222420222230+58027943+020414667+59329445+011957222FL285     1 6RASEL    6OKSAT   
AWY DCT   SA10221940222230+58904972+020941249+59329445+011957222FL285     1 6NEBSI    6OKSAT   
AWY DCT   SA10221700222230+59640278+019876388+59329445+011957222FL285     1 6LUPET    6OKSAT   
AWY DCT   SA10222590222230+59749722+019724166+59329445+011957222FL285     1 6RUNGA    6OKSAT   
AWY DCT   SA10221040220830+56871387+019566667+59799999+014660555FL285     1 6GELDA    6EBURI   
AWY DCT   SA10221020220830+57165001+019924722+59799999+014660555FL285     1 6EVONA    6EBURI   
AWY DCT   SA10222420220830+58027943+020414667+59799999+014660555FL285     1 6RASEL    6EBURI   
AWY DCT   SA10221940220830+58904972+020941249+59799999+014660555FL285     1 6NEBSI    6EBURI   
AWY DCT   SA10221700220830+59640278+019876388+59799999+014660555FL285     1 6LUPET    6EBURI   
AWY DCT   SA10222590220830+59749722+019724166+59799999+014660555FL285     1 6RUNGA    6EBURI   
AWY DCT   SA10221010220830+60252220+019111944+59799999+014660555FL285     1 6EVLAN    6EBURI   
AWY DCT   SA10221990222360+58928890+018566389+55638611+017161388FL285     1 6NEPVA    6PENOR   
AWY DCT   SA10223530221720+57578140+016390638+54916668+015296111FL285     1 6VIBAR    6LUSID   
AWY DCT   SA10220280220600+57986637+015569610+54916668+014166667FL285     1 6ABAMA    6BIKRU   
AWY DCT   SA10220280223020+57986637+015569610+54916668+013386195FL285     1 6ABAMA    6SALLO   
AWY DCT   SA10220280203720+57986637+015569610+54572777+011270000FL285     1 6ABAMA    6BAGOS   
AWY DCT   SA10220280204370+57986637+015569610+54840557+009887499FL285     1 6ABAMA    6KESUR   
AWY DCT   SA10220280203950+57986637+015569610+54836388+009852778FL285     1 6ABAMA    6DEMIR   
AWY DCT   SA10220890204370+58095470+015273361+54840557+009887499FL285     1 6ELPAX    6KESUR   
AWY DCT   SA10220890203950+58095470+015273361+54836388+009852778FL285     1 6ELPAX    6DEMIR   
AWY DCT   SA10220890205310+58095470+015273361+55000000+007876111FL285     1 6ELPAX    6TUSKA   
AWY DCT   SA10220890204500+58095470+015273361+55000000+007697222FL285     1 6ELPAX    6LANUL   
AWY DCT   SA10221560205310+58920528+014305472+55000000+007876111FL285     1 6LAPSI    6TUSKA   
AWY DCT   SA10221560204500+58920528+014305472+55000000+007697222FL285     1 6LAPSI    6LANUL   
AWY DCT   SA10221560205350+58920528+014305472+55244720+005000000FL285     1 6LAPSI    6UPGAS   
AWY DCT   SA10221560204540+58920528+014305472+55385555+005000000FL285     1 6LAPSI    6LESRA   
AWY DCT   SA10221560205360+58920528+014305472+56900002+007566667FL285     1 6LAPSI    6URUBO   
AWY DCT   SA10205130220720+55305557+005000000+58599998+014264361FL285     1 6SOPTO    6DETSO   
AWY DCT   SA10204540220720+55385555+005000000+58599998+014264361FL285     1 6LESRA    6DETSO   
AWY DCT   SA10205250220720+56250832+005000000+58599998+014264361FL285     1 6TINAC    6DETSO   
AWY DCT   SA10204440220720+55000000+007620555+58599998+014264361FL285     1 6KUGAL    6DETSO   
AWY DCT   SA10205310220720+55000000+007876111+58599998+014264361FL285     1 6TUSKA    6DETSO   
AWY DCT   SA10174120221800+54858612+009194167+57907028+015921972FL285     1 6DOSUR    6MIKNA   
AWY DCT   SA10178450221800+54468334+011648332+57907028+015921972FL285     1 6MEGAR    6MIKNA   
AWY DCT   SA10204390221800+54461388+011689999+57907028+015921972FL285     1 6KOKOR    6MIKNA   
AWY DCT   SA10204640221800+54449444+011800277+57907028+015921972FL285     1 6MAKEL    6MIKNA   
AWY DCT   SA10172490221800+54446110+011841388+57907028+015921972FL285     1 6BAMOR    6MIKNA   
AWY DCT   SA10222210223530+54916668+013763610+57578140+016390638FL285     1 6OKAGA    6VIBAR   
AWY DCT   SA10223020223530+54916668+013386195+57578140+016390638FL285     1 6SALLO    6VIBAR   
AWY DCT   SA10220600223530+54916668+014166667+57578140+016390638FL285     1 6BIKRU    6VIBAR   
AWY DCT   SA10221160220380+54916668+015654999+57500721+017346139FL285     1 6GORPI    6ARMOD   
AWY DCT   SA10222360220380+55638611+017161388+57500721+017346139FL285     1 6PENOR    6ARMOD   
AWY DCT   SA10221040222540+56871387+019566667+58193779+018001750FL285     1 6GELDA    6ROGMI   
AWY DCT   SA10221020222540+57165001+019924722+58193779+018001750FL285     1 6EVONA    6ROGMI   
AWY DCT   SA10222180222361+68833054+021172777+55638611+017161388FL285     1 6OGLAV    6PENOR   
AWY DCT   SA10222180221720+68833054+021172777+54916668+015296111FL285     1 6OGLAV    6LUSID   
AWY DCT   SA10221300178850+58243584+012054166+54486389+012064999FL285     1 6KELIN    6NEDIK   
AWY DCT   SA10221300179000+58243584+012054166+54608612+012285555FL285     1 6KELIN    6NIKDA   
AWY DCT   SA10206400204560+58334419+010148983+54592220+011202777FL285     1 6ARTOR    6LOMPU   
AWY DCT   SA10220280204410+57986637+015569610+54779999+012597778FL285     1 6ABAMA    6KOSEB   
AWY DCT   SA10211770208670+62319653+012262203+64034308+013793861FL285     1 6OSKOK    6GIKAV   
AWY DCT   SA10212500223300+58805946+010608141+57135860+012338945FL285     1 6REPKU    6TOPLA   
AWY DCT   SA10209710205220+57559700+008574142+55898335+010531110FL285     1 6KOVIK    6TESPI   
AWY DCT   SA10212410205220+57289593+008049481+55898335+010531110FL285     1 6RASVI    6TESPI   
AWY DCT   SA10221620221940+60046112+014438332+58904972+020941249FL285     1 6LEGPO    6NEBSI   
AWY DCT   SA10221620222420+60046112+014438332+58027943+020414667FL285     1 6LEGPO    6RASEL   
AWY DCT   SA10221620220690+60046112+014438332+57672779+020210832FL285     1 6LEGPO    6DEREX   
AWY DCT   SA10221620221020+60046112+014438332+57165001+019924722FL285     1 6LEGPO    6EVONA   
AWY DCT   SA10221620221040+60046112+014438332+56871387+019566667FL285     1 6LEGPO    6GELDA   
AWY DCT   SA10221980220600+57158722+014370472+54916668+014166667FL285     1 6NEMBA    6BIKRU   
AWY DCT   SA10221980223020+57158722+014370472+54916668+013386195FL285     1 6NEMBA    6SALLO   
AWY DCT   SA10221980203720+57158722+014370472+54572777+011270000FL285     1 6NEMBA    6BAGOS   
AWY DCT   SA10221980204410+57158722+014370472+54779999+012597778FL285     1 6NEMBA    6KOSEB   
AWY DCT   SA10178450220550+54468334+011648332+57359806+015130639FL285     1 6MEGAR    6BEDOS   
AWY DCT   SA10204390220550+54461388+011689999+57359806+015130639FL285     1 6KOKOR    6BEDOS   
AWY DCT   SA10204640220550+54449444+011800277+57359806+015130639FL285     1 6MAKEL    6BEDOS   
AWY DCT   SA10172490220550+54446110+011841388+57359806+015130639FL285     1 6BAMOR    6BEDOS   
AWY DCT   SA10223360203950+57156666+013717222+54836388+009852778FL285     1 6UMIXA    6DEMIR   
AWY DCT   SA10223360204370+57156666+013717222+54840557+009887499FL285     1 6UMIXA    6KESUR   
AWY DCT   SA10221560212500+58920528+014305472+58805946+010608141FL285     1 6LAPSI    6REPKU   
AWY DCT   SA10222410223531+54819584+014564250+57578140+016390638FL285     1 6POKEN    6VIBAR   
AWY DCT   SA10220470223260+61362499+019415832+57155582+013911027FL285     1 6BAKLA    6TOKSI   
AWY DCT   SA10221430214371+54823055+014944194+66257499+015395000FL285     1 6KOLOB    6USIKI   
AWY DCT   SA10222360210501+55638611+017161388+66935867+016090494FL285     1 6PENOR    6MIMKI   
AWY DCT   SA10221170210791+54805637+014857806+65557770+014508472FL285     1 6GOSOT    6NEBUR   
AWY DCT   SA10211930220640+66636107+015676111+60638832+017956666FL285     1 6PENAX    6DEGAL   
AWY DCT   SA10214370220640+66257499+015395000+60638832+017956666FL285     1 6USIKI    6DEGAL   
AWY DCT   SA10221170223390+54805637+014857806+63332054+020039110FL285     1 6GOSOT    6UMSOM   
AWY DCT   SA10220690213201+57672779+020210832+61151390+012719442FL285     1 6DEREX    6SUVAR   
AWY DCT   SA10220690211771+57672779+020210832+62319653+012262203FL285     1 6DEREX    6OSKOK   
AWY DCT   SA10222420204170+58027943+020414667+54622780+011086111FL285     1 6RASEL    6GOBOT   
AWY DCT   SA10222420171830+58027943+020414667+54808613+009961667FL285     1 6RASEL    6ALASA   
AWY DCT   SA10204390222420+54461388+011689999+58027943+020414667FL285     1 6KOKOR    6RASEL   
AWY DCT   SA10178450222420+54468334+011648332+58027943+020414667FL285     1 6MEGAR    6RASEL   
AWY DCT   SA10208670220471+64034308+013793861+61362499+019415832FL285     1 6GIKAV    6BAKLA   
AWY DCT   SA10220470213031+61362499+019415832+63330833+012052499FL285     1 6BAKLA    6SOLKA   
AWY DCT   SA10220470223190+61362499+019415832+62937222+012125278FL285     1 6BAKLA    6TIGBA   
