
AWY DCT   SA10212950641320+49412777+021439167+51723057+023543056FL285FL6601 6PODAN    6BIGLU   
AWY DCT   SA10213960212000+54795277+017826667+52592220+018000000FL285FL6601 6VAPOS    6MOLIL   
AWY DCT   SA10469280213160+49336388+021010278+52922501+016225278FL315FL6601 6LENOV    6RONEX   
AWY DCT   SA10209430451140+52227779+023208889+50953056+015293333FL460FL6601 6ABERO    6TOMTI   
AWY DCT   SA10210450211070+53698334+020500000+53521111+018781389FL295FL6601 6ELKAR    6GRUDA   
AWY DCT   SA10210830211950+51078609+016491945+51185833+016934444FL095FL6601 6GIGAL    6MISKA   
AWY DCT   SA10211030451140+53178055+023894166+50953056+015293333FL455FL6601 6GORAT    6TOMTI   
AWY DCT   SA10211090213270+50027779+018941667+49940277+019899999FL095FL6601 6IBEKA    6SKAVI   
AWY DCT   SA11967550213430+49482777+019678611+50653332+018411666FL095FL6601 4JAB      6SUDOL   
AWY DCT   SA10175350210830+51406944+014961667+51078609+016491945FL095FL2851 6LASIS    6GIGAL   
AWY DCT   SA10211812038680+54244167+016881389+53475277+015333056FL315FL6601 6MALOX    5CHO     
AWY DCT   SA10212000212030+52592220+018000000+55209442+017505556FL315FL6601 6MOLIL    6MOTAD   
AWY DCT   SA10212300451160+49939720+018923055+49847496+018572835FL095FL6601 6NOMIX    6TUSIN   
AWY DCT   SA10212990209660+51145557+016259166+51495556+017123889FL095FL2851 6RASUT    6ARMEX   
AWY DCT   SA10213162038680+52922501+016225278+53475277+015333056FL245FL6601 6RONEX    5CHO     
AWY DCT   SA10213270213430+49940277+019899999+50653332+018411666FL095FL6601 6SKAVI    6SUDOL   
AWY DCT   SA11967760210830+52379723+014585556+51078609+016491945FL095FL6601 4SUI      6GIGAL   
AWY DCT   SA10219000210020+54194443+023406944+52921665+022944444FL095FL6601 6VABER    6BESOT   
AWY DCT   SA10213930213940+51308056+017114444+51333057+017555833FL095FL6601 6VAGON    6VAGSA   
