
AWY DCT   SA10220600175310+54916668+014166667+51398056+011451110FL335     1 6BIKRU    6GALMA   
AWY DCT   SA30175020182080+48727501+009460000+49198612+008864167 5500     1 6ETAGO    6SUNEG   
AWY DCT   SA10175360172070+52829166+011118056+52150276+007111389FL245     1 6GARLU    6AMSAN   
AWY DCT   SA10176690181310+52917500+009424166+54209999+012076666FL245     1 6KEGAB    6ROSOK   
AWY DCT   SA10181310173550+54209999+012076666+51983334+008672778FL245     1 6ROSOK    6DENOL   
AWY DCT   SA11988871988890+53685574+010204997+50928150+014368800FL325     1 2HAM      4HDO     
AWY DCT   SA10181312064300+54209999+012076666+53347172+008874733FL245     1 6ROSOK    5WSN     
AWY DCT   SA10173300172560+53119999+011286110+54461945+014297222FL285     1 6BUMIL    6BANUB   
AWY DCT   SA10171310174100+50069195+012093718+48438610+012480833FL345     1 6ABERU    6DOSEL   
AWY DCT   SA10171310171940+50069195+012093718+48496113+012102500FL345     1 6ABERU    6ALUTU   
AWY DCT   SA10181310201470+54209999+012076666+52916904+003148196FL255     1 6ROSOK    6RAVLO   
AWY DCT   SA10173510201470+54646667+009469445+52916904+003148196FL245     1 6DEGUL    6RAVLO   
AWY DCT   SA10172260173300+52200001+007797778+53119999+011286110FL245     1 6ARTER    6BUMIL   
AWY DCT   SA10172260180180+52200001+007797778+54369446+011461388FL245     1 6ARTER    6PIBUL   
AWY DCT   YY10181730171690+50464722+011827221+54325558+013360278FL245     1 6SODRO    6ADUKI   
AWY DCT   SA10200860172660+53839584+003942544+52546944+011099721FL245     1 6LONAM    6BATEL   
AWY DCT   SA10200861988900+53839584+003942544+52363396+010795220FL245     1 6LONAM    4HLZ     
AWY DCT   SA10200860183230+53839584+003942544+51928612+010220000FL245     1 6LONAM    6UPDAT   
AWY DCT   SA11992460200860+53163906+006666675+53839584+003942544FL255     1 4EEL      6LONAM   
AWY DCT   SA10177310200861+51834431+010869346+53839584+003942544FL245     1 6LARET    6LONAM   
AWY DCT   SA30170580171070+50592777+005251389+50252777+005773889FL195     1 6BULUX    6SOPOK   
AWY DCT   SA11988830201490+51170509+007892038+51809566+002666908FL335     1 4GMH      6REFSO   
AWY DCT   SA10201951992710+53402592+003561466+52540279+004853781FL265     1 6TOPPA    4SPY     
AWY DCT   SA10201950177620+53402592+003561466+50186668+006453332FL245     1 6TOPPA    6LIRSU   
AWY DCT   SA10173300201040+53119999+011286110+53100891+003303508FL255     1 6BUMIL    6MIMVA   
AWY DCT   SA11988620180390+54185684+007910699+52128380+010827777FL265     1 2DHE      6POVEL   
AWY DCT   SA10205490201470+49476391+006114999+52916904+003148196FL255     1 6ROUSY    6RAVLO   
AWY DCT   SA10205490172680+49476391+006114999+54633610+008757499FL335     1 6ROUSY    6BATOB   
AWY DCT   SA10177310201840+51834431+010869346+55000000+005418817FL245     1 6LARET    6SUTEB   
AWY DCT   SA10181310200520+54209999+012076666+51924068+003171835FL255     1 6ROSOK    6GORLO   
AWY DCT   SA10200540200520+55000000+005858795+51924068+003171835FL245     1 6GREFI    6GORLO   
AWY DCT   SA11988830200520+51170509+007892038+51924068+003171835FL335     1 4GMH      6GORLO   
AWY DCT   SA10173300200520+53119999+011286110+51924068+003171835FL245     1 6BUMIL    6GORLO   
AWY DCT   SA10203700200520+54899723+008782777+51924068+003171835FL245     1 6ATTUS    6GORLO   
AWY DCT   SA10172840201470+53726112+011467778+52916904+003148196FL245     1 6BERIM    6RAVLO   
AWY DCT   SA10182570205310+51829445+009533056+55000000+007876111FL245     1 6TOLGI    6TUSKA   
AWY DCT   SA10176710205310+51123611+009675000+55000000+007876111FL255     1 6KEMAD    6TUSKA   
AWY DCT   SA10172640182540+52771988+008788538+51525555+007133889FL255     1 6BASUM    6TOBIV   
AWY DCT   SA10172260182710+52200001+007797778+54652779+009910834FL245     1 6ARTER    6TUGDU   
AWY DCT   SA10171390204440+51410000+007954166+55000000+007620555FL245     1 6ABILU    6KUGAL   
AWY DCT   SA10199950202080+53213333+007216944+52071342+003839831FL245     1 6DOBAK    6VALKO   
AWY DCT   SA10201930176660+51530315+004086594+53562702+006920028FL245     1 6TOLEN    6JUIST   
AWY DCT   SA10201930199950+51530315+004086594+53213333+007216944FL295     1 6TOLEN    6DOBAK   
AWY DCT   SA10172970201470+51325558+008432778+52916904+003148196FL245     1 6BIGGE    6RAVLO   
AWY DCT   SA10200570199540+51235313+003869710+55000000+006349999FL245     1 6HELEN    6AMADA   
AWY DCT   SA10430220200540+50514999+003361666+55000000+005858795FL265     1 6ADUTO    6GREFI   
AWY DCT   SA10171050437830+50806389+005045278+50342220+003675000FL275     1 6SOGRI    6MEDIL   
AWY DCT   SA11992460437830+53163906+006666675+50342220+003675000FL275     1 4EEL      6MEDIL   
AWY DCT   SA10205310437830+55000000+007876111+50342220+003675000FL275     1 6TUSKA    6MEDIL   
AWY DCT   SA10200540437830+55000000+005858795+50342220+003675000FL245     1 6GREFI    6MEDIL   
AWY DCT   SA10199540437830+55000000+006349999+50342220+003675000FL265     1 6AMADA    6MEDIL   
AWY DCT   SA20178970432970+51328018+006271356+50314720+004089722FL200FL2451 6NETEX    6DELOM   
AWY DCT   SA10178200438930+54648335+009576945+50296665+004118888FL245     1 6MALID    6NILEM   
AWY DCT   SA10205310438930+55000000+007876111+50296665+004118888FL245     1 6TUSKA    6NILEM   
AWY DCT   SA10201840438930+55000000+005418817+50296665+004118888FL245     1 6SUTEB    6NILEM   
AWY DCT   SA10199540438930+55000000+006349999+50296665+004118888FL245     1 6AMADA    6NILEM   
AWY DCT   SA10177620170640+50186668+006453332+51236111+003657500FL255     1 6LIRSU    6DENUT   
AWY DCT   SA10177621988240+50186668+006453332+50902332+004538083FL245     1 6LIRSU    4BUB     
AWY DCT   SA10170980177620+50662224+004914166+50186668+006453332FL245     1 6REMBA    6LIRSU   
AWY DCT   SA10205490170540+49476391+006114999+50649166+005848777FL245     1 6ROUSY    6BATTY   
AWY DCT   SA10176750205460+50722500+006239443+49637222+006281667FL245     1 6KENUM    6LIMGO   
AWY DCT   SA10444641989590+49514446+005781110+52200134+008285519FL255     1 6VALEK    1OSN     
AWY DCT   SA10205490176260+49476391+006114999+50494167+006332778FL245     1 6ROUSY    6IBESA   
AWY DCT   SA10178350181420+50416668+006369721+50047588+008078269FL325     1 6MATUG    6RUDUS   
AWY DCT   SA10205480174420+49728611+006519444+48988888+008310833FL245     1 6PITES    6EDISA   
AWY DCT   SA10174420183320+48988888+008310833+48255001+009461667FL245     1 6EDISA    6UTABA   
AWY DCT   SA10174420172690+48988888+008310833+48019169+009563888FL325     1 6EDISA    6BATUB   
AWY DCT   SA10460770172440+47408455+009651910+47731110+011945278FL345     1 6GAMSA    6BADVI   
AWY DCT   SA10175020177620+48727501+009460000+50186668+006453332FL245     1 6ETAGO    6LIRSU   
AWY DCT   YY10175020182360+48727501+009460000+50409721+009873333FL245     1 6ETAGO    6TIKNI   
AWY DCT   SA30175020176100+48727501+009460000+49618443+009414564FL055     1 6ETAGO    6HAREM   
AWY DCT   YY10182250182360+48618408+009259207+50409721+009873333FL245     1 6TEDGO    6TIKNI   
AWY DCT   SA12025470172030+50065147+012405738+49509445+010811389FL335     1 4OKG      6AMOSA   
AWY DCT   YY10171940178240+48496113+012102500+47899353+011799956FL345     1 6ALUTU    6MANAL   
AWY DCT   SA11989410183180+48263432+011311924+47821667+012601111FL345     1 4MAH      6UNKEN   
AWY DCT   SA10174100182730+48438610+012480833+47701607+011788758FL335     1 6DOSEL    6TULSI   
AWY DCT   SA10180870175830+48588421+010802825+48138889+012694722FL345     1 6RIDAR    6GOMIG   
AWY DCT   SA10180870172920+48588421+010802825+48397049+012749780FL335     1 6RIDAR    6BIBAG   
AWY DCT   SA10176730177250+49549999+011224166+48653332+013583333FL325     1 6KEMES    6LAMSI   
AWY DCT   SA10461600458900+48230152+013015816+49435982+012656546FL335     1 6SIMBA    6TIVDA   
AWY DCT   SA10176930174920+50183887+009506667+50341110+008859722FL245     1 6KONAP    6ESAMA   
AWY DCT   SA10173840176930+50166943+010578611+50183887+009506667FL245     1 6DIMSU    6KONAP   
AWY DCT   SA10179850176930+50070118+009783066+50183887+009506667FL245     1 6OSBIT    6KONAP   
AWY DCT   SA10182340179850+50444901+008618871+50070118+009783066FL325     1 6TESGA    6OSBIT   
AWY DCT   SA10179850176730+50070118+009783066+49549999+011224166FL325     1 6OSBIT    6KEMES   
AWY DCT   SA10172870178300+48643612+011251667+50729168+009598333FL375     1 6BESNI    6MASEK   
AWY DCT   SA10458680178300+50190491+012338639+50729168+009598333FL355     1 6RAPET    6MASEK   
AWY DCT   SA10177250178770+48653332+013583333+50668304+011181544FL335     1 6LAMSI    6NARUS   
AWY DCT   SA10182140172030+50558475+011531250+49509445+010811389FL285     1 6TABAT    6AMOSA   
AWY DCT   SA10183580181730+50983055+011251943+50464722+011827221FL265     1 6WEMAR    6SODRO   
AWY DCT   SA10182140172200+50558475+011531250+49722500+012323332FL325     1 6TABAT    6ARMUT   
AWY DCT   SA10177250172200+48653332+013583333+49722500+012323332FL335     1 6LAMSI    6ARMUT   
AWY DCT   SA10179850172200+50070118+009783066+49722500+012323332FL325     1 6OSBIT    6ARMUT   
AWY DCT   SA10171800180210+49707779+012086111+50435123+010711022FL315     1 6AKOSI    6PILAM   
AWY DCT   SA10171800178770+49707779+012086111+50668304+011181544FL315     1 6AKOSI    6NARUS   
AWY DCT   SA10181400182050+49335835+012541397+50075191+010728808FL335     1 6RUDNO    6SULUS   
AWY DCT   SA10181400461600+49335835+012541397+48230152+013015816FL345     1 6RUDNO    6SIMBA   
AWY DCT   SA10182140181400+50558475+011531250+49335835+012541397FL345     1 6TABAT    6RUDNO   
AWY DCT   YY10181400171940+49335835+012541397+48496113+012102500FL345     1 6RUDNO    6ALUTU   
AWY DCT   SA10180010182050+48802502+013651110+50075191+010728808FL335     1 6PASAU    6SULUS   
AWY DCT   SA10180010180210+48802502+013651110+50435123+010711022FL335     1 6PASAU    6PILAM   
AWY DCT   SA10181400178280+49335835+012541397+51133610+008813888FL335     1 6RUDNO    6MAPOX   
AWY DCT   SA10180010178280+48802502+013651110+51133610+008813888FL335     1 6PASAU    6MAPOX   
AWY DCT   SA10178280201040+51133610+008813888+53100891+003303508FL255     1 6MAPOX    6MIMVA   
AWY DCT   SA10178281992710+51133610+008813888+52540279+004853781FL335     1 6MAPOX    4SPY     
AWY DCT   SA10178280201470+51133610+008813888+52916904+003148196FL335     1 6MAPOX    6RAVLO   
AWY DCT   SA10201990179240+52367748+003857309+51447777+010501944FL245     1 6TULIP    6NOMKA   
AWY DCT   SA10200770179240+52732899+002994355+51447777+010501944FL245     1 6LAMSO    6NOMKA   
AWY DCT   SA10175310172030+51398056+011451110+49509445+010811389FL325     1 6GALMA    6AMOSA   
AWY DCT   SA10174670171920+52057438+011349675+50707500+011701666FL285     1 6EMBOX    6ALOSO   
AWY DCT   SA10174670171800+52057438+011349675+49707779+012086111FL325     1 6EMBOX    6AKOSI   
AWY DCT   SA10177080204440+51537498+010635000+55000000+007620555FL245     1 6KUMER    6KUGAL   
AWY DCT   SA10200540177080+55000000+005858795+51537498+010635000FL245     1 6GREFI    6KUMER   
AWY DCT   SA10177080183580+51537498+010635000+50983055+011251943FL285     1 6KUMER    6WEMAR   
AWY DCT   SA10177330177080+50360584+011228075+51537498+010635000FL315     1 6LASGA    6KUMER   
AWY DCT   YY10177331988530+50360584+011228075+53034527+011546217FL335     1 6LASGA    4BKD     
AWY DCT   SA10176880174530+47622223+011399722+49654167+011407500FL335     1 6KOGOL    6EKSOS   
AWY DCT   SA10174530179140+49654167+011407500+53251389+011591111FL335     1 6EKSOS    6NOBRI   
AWY DCT   SA11995210216700+52379723+014585556+51078609+016491945FL095     1 4SUI      6GIGAL   
AWY DCT   SA10174530223020+49654167+011407500+54916668+013386195FL335     1 6EKSOS    6SALLO   
AWY DCT   SA10223020182170+54916668+013386195+51429905+012548177FL335     1 6SALLO    6TADUV   
AWY DCT   YY10223020182140+54916668+013386195+50558475+011531250FL325     1 6SALLO    6TABAT   
AWY DCT   SA10223020182030+54916668+013386195+51161945+012229999FL315     1 6SALLO    6SULED   
AWY DCT   SA10181810223020+54878887+012780278+54916668+013386195FL285     1 6SONAL    6SALLO   
AWY DCT   SA10223020458060+54916668+013386195+50715466+013628830FL325     1 6SALLO    6MAREM   
AWY DCT   SA10223020175850+54916668+013386195+52316570+014088147FL285     1 6SALLO    6GORIG   
AWY DCT   SA10223020172840+54916668+013386195+53726112+011467778FL295     1 6SALLO    6BERIM   
AWY DCT   SA10223020172030+54916668+013386195+49509445+010811389FL335     1 6SALLO    6AMOSA   
AWY DCT   SA10223020181310+54916668+013386195+54209999+012076666FL295     1 6SALLO    6ROSOK   
AWY DCT   SA10180380223020+51845280+013983888+54916668+013386195FL325     1 6POGAB    6SALLO   
AWY DCT   SA10223021988891+54916668+013386195+50928150+014368800FL325     1 6SALLO    4HDO     
AWY DCT   SA10175360223020+52829166+011118056+54916668+013386195FL285     1 6GARLU    6SALLO   
AWY DCT   SA10182570223020+51829445+009533056+54916668+013386195FL245     1 6TOLGI    6SALLO   
AWY DCT   SA10223021988900+54916668+013386195+52363396+010795220FL315     1 6SALLO    4HLZ     
AWY DCT   SA10223020173300+54916668+013386195+53119999+011286110FL315     1 6SALLO    6BUMIL   
AWY DCT   SA10181310220710+54209999+012076666+54916668+014344166FL305     1 6ROSOK    6DETNI   
AWY DCT   SA10204410220710+54779999+012597778+54916668+014344166FL285     1 6KOSEB    6DETNI   
AWY DCT   SA10174490220710+50964497+013321350+54916668+014344166FL335     1 6EKPEK    6DETNI   
AWY DCT   SA10173300220710+53119999+011286110+54916668+014344166FL285     1 6BUMIL    6DETNI   
AWY DCT   SA10180050220710+52395832+012646666+54916668+014344166FL285     1 6PENEK    6DETNI   
AWY DCT   SA10220600181080+54916668+014166667+53686111+013731389FL305     1 6BIKRU    6RODEP   
AWY DCT   SA10174490220600+50964497+013321350+54916668+014166667FL335     1 6EKPEK    6BIKRU   
AWY DCT   SA10220600182170+54916668+014166667+51429905+012548177FL325     1 6BIKRU    6TADUV   
AWY DCT   SA10220600182100+54916668+014166667+52781666+011996389FL315     1 6BIKRU    6SUVAL   
AWY DCT   SA10220600181310+54916668+014166667+54209999+012076666FL295     1 6BIKRU    6ROSOK   
AWY DCT   SA10220600175360+54916668+014166667+52829166+011118056FL295     1 6BIKRU    6GARLU   
AWY DCT   SA10220600172030+54916668+014166667+49509445+010811389FL325     1 6BIKRU    6AMOSA   
AWY DCT   SA10220600173300+54916668+014166667+53119999+011286110FL315     1 6BIKRU    6BUMIL   
AWY DCT   SA10223410181310+54916668+013994722+54209999+012076666FL295     1 6UNGAV    6ROSOK   
AWY DCT   SA10223410204410+54916668+013994722+54779999+012597778FL285     1 6UNGAV    6KOSEB   
AWY DCT   SA10223410175380+54916668+013994722+54274811+012276536FL315     1 6UNGAV    6GASBO   
AWY DCT   SA10223410172840+54916668+013994722+53726112+011467778FL295     1 6UNGAV    6BERIM   
AWY DCT   SA10223410173300+54916668+013994722+53119999+011286110FL315     1 6UNGAV    6BUMIL   
AWY DCT   YY10174530222210+49654167+011407500+54916668+013763610FL335     1 6EKSOS    6OKAGA   
AWY DCT   SA10181810222210+54878887+012780278+54916668+013763610FL285     1 6SONAL    6OKAGA   
AWY DCT   SA10181310222210+54209999+012076666+54916668+013763610FL285     1 6ROSOK    6OKAGA   
AWY DCT   YY10177330222210+50360584+011228075+54916668+013763610FL335     1 6LASGA    6OKAGA   
AWY DCT   SA10175360222210+52829166+011118056+54916668+013763610FL285     1 6GARLU    6OKAGA   
AWY DCT   SA10173300222210+53119999+011286110+54916668+013763610FL285     1 6BUMIL    6OKAGA   
AWY DCT   SA10182570222210+51829445+009533056+54916668+013763610FL245     1 6TOLGI    6OKAGA   
AWY DCT   SA11988890220480+50928150+014368800+54916668+013560833FL335     1 4HDO      6BAKLI   
AWY DCT   SA10173020181310+54774723+014338889+54209999+012076666FL315     1 6BILRA    6ROSOK   
AWY DCT   SA10181310222410+54209999+012076666+54819584+014564250FL305     1 6ROSOK    6POKEN   
AWY DCT   SA10181310178850+54209999+012076666+54486389+012064999FL285     1 6ROSOK    6NEDIK   
AWY DCT   SA10181080204410+53686111+013731389+54779999+012597778FL255     1 6RODEP    6KOSEB   
AWY DCT   SA10180810204410+52914722+013961667+54779999+012597778FL295     1 6RENKI    6KOSEB   
AWY DCT   SA10204410215950+54779999+012597778+53759445+014275555FL285     1 6KOSEB    6BINKA   
AWY DCT   SA10204410173300+54779999+012597778+53119999+011286110FL285     1 6KOSEB    6BUMIL   
AWY DCT   SA10181810175850+54878887+012780278+52316570+014088147FL285     1 6SONAL    6GORIG   
AWY DCT   SA10181810180810+54878887+012780278+52914722+013961667FL305     1 6SONAL    6RENKI   
AWY DCT   SA10181810181310+54878887+012780278+54209999+012076666FL285     1 6SONAL    6ROSOK   
AWY DCT   SA10181810181080+54878887+012780278+53686111+013731389FL285     1 6SONAL    6RODEP   
AWY DCT   SA10180380181810+51845280+013983888+54878887+012780278FL325     1 6POGAB    6SONAL   
AWY DCT   SA10181811988890+54878887+012780278+50928150+014368800FL365     1 6SONAL    4HDO     
AWY DCT   SA10215950181810+53759445+014275555+54878887+012780278FL295     1 6BINKA    6SONAL   
AWY DCT   SA10182570181810+51829445+009533056+54878887+012780278FL245     1 6TOLGI    6SONAL   
AWY DCT   SA10173300181810+53119999+011286110+54878887+012780278FL285     1 6BUMIL    6SONAL   
AWY DCT   SA10182570181310+51829445+009533056+54209999+012076666FL245     1 6TOLGI    6ROSOK   
AWY DCT   SA11988870181310+53685574+010204997+54209999+012076666FL245     1 2HAM      6ROSOK   
AWY DCT   SA10181310434360+54209999+012076666+49974998+004566667FL325     1 6ROSOK    6FAMEN   
AWY DCT   SA10430740181310+49861946+004857778+54209999+012076666FL305     1 6ARDEN    6ROSOK   
AWY DCT   SA10176710201470+51123611+009675000+52916904+003148196FL245     1 6KEMAD    6RAVLO   
AWY DCT   SA10176710180180+51123611+009675000+54369446+011461388FL245     1 6KEMAD    6PIBUL   
AWY DCT   SA10176710175360+51123611+009675000+52829166+011118056FL245     1 6KEMAD    6GARLU   
AWY DCT   SA10176360176710+52993946+009450494+51123611+009675000FL245     1 6IDEKO    6KEMAD   
AWY DCT   SA11989440170670+54305462+011005186+49831944+005331389FL245     1 1MIC      6DINAN   
AWY DCT   SA11989440180920+54305462+011005186+51333889+010219444FL245     1 1MIC      6RIMET   
AWY DCT   SA11989440180390+54305462+011005186+52128380+010827777FL245     1 1MIC      6POVEL   
AWY DCT   SA11989440180350+54305462+011005186+51612499+008688056FL245     1 1MIC      6PODER   
AWY DCT   SA11989440171360+54305462+011005186+51867058+011053430FL245     1 1MIC      6ABGUS   
AWY DCT   SA11989440434360+54305462+011005186+49974998+004566667FL325     1 1MIC      6FAMEN   
AWY DCT   SA10430740172660+49861946+004857778+52546944+011099721FL245     1 6ARDEN    6BATEL   
AWY DCT   SA10430740173300+49861946+004857778+53119999+011286110FL265     1 6ARDEN    6BUMIL   
AWY DCT   SA10430740175360+49861946+004857778+52829166+011118056FL265     1 6ARDEN    6GARLU   
AWY DCT   SA10430741988900+49861946+004857778+52363396+010795220FL305     1 6ARDEN    4HLZ     
AWY DCT   SA10430740172640+49861946+004857778+52771988+008788538FL245     1 6ARDEN    6BASUM   
AWY DCT   SA10430740175660+49861946+004857778+54560001+011313611FL245     1 6ARDEN    6GIMRU   
AWY DCT   SA10430740204390+49861946+004857778+54461388+011689999FL245     1 6ARDEN    6KOKOR   
AWY DCT   SA10430740172840+49861946+004857778+53726112+011467778FL305     1 6ARDEN    6BERIM   
AWY DCT   SA10172840434360+53726112+011467778+49974998+004566667FL325     1 6BERIM    6FAMEN   
AWY DCT   SA10183730173300+52510834+014613611+53119999+011286110FL285     1 6XIGRI    6BUMIL   
AWY DCT   SA10173300173550+53119999+011286110+51983334+008672778FL245     1 6BUMIL    6DENOL   
AWY DCT   SA11995210173301+52379723+014585556+53119999+011286110FL285     1 4SUI      6BUMIL   
AWY DCT   SA10173300177340+53119999+011286110+51406944+014961667FL325     1 6BUMIL    6LASIS   
AWY DCT   SA10173300182540+53119999+011286110+51525555+007133889FL245     1 6BUMIL    6TOBIV   
AWY DCT   SA10170500173300+50299168+006132222+53119999+011286110FL265     1 6ARCKY    6BUMIL   
AWY DCT   SA10173300434360+53119999+011286110+49974998+004566667FL325     1 6BUMIL    6FAMEN   
AWY DCT   SA10178841995210+53067780+011216943+52379723+014585556FL285     1 6NEBUN    4SUI     
AWY DCT   SA10178840177340+53067780+011216943+51406944+014961667FL285     1 6NEBUN    6LASIS   
AWY DCT   SA10178840173150+53067780+011216943+53275833+014409999FL285     1 6NEBUN    6BODLA   
AWY DCT   SA10178841988890+53067780+011216943+50928150+014368800FL345     1 6NEBUN    4HDO     
AWY DCT   SA10172260175360+52200001+007797778+52829166+011118056FL245     1 6ARTER    6GARLU   
AWY DCT   SA10175360173550+52829166+011118056+51983334+008672778FL245     1 6GARLU    6DENOL   
AWY DCT   SA10175360215950+52829166+011118056+53759445+014275555FL285     1 6GARLU    6BINKA   
AWY DCT   SA10175360172190+52829166+011118056+54506111+013496110FL285     1 6GARLU    6ARGAD   
AWY DCT   SA10175360173150+52829166+011118056+53275833+014409999FL285     1 6GARLU    6BODLA   
AWY DCT   SA10175361989820+52829166+011118056+51505695+009110914FL245     1 6GARLU    4WRB     
AWY DCT   SA10175360182540+52829166+011118056+51525555+007133889FL245     1 6GARLU    6TOBIV   
AWY DCT   SA10181050175360+52233616+009269619+52829166+011118056FL245     1 6ROBEG    6GARLU   
AWY DCT   SA10179870175360+52076668+008279722+52829166+011118056FL245     1 6OSDIK    6GARLU   
AWY DCT   SA10182570175360+51829445+009533056+52829166+011118056FL245     1 6TOLGI    6GARLU   
AWY DCT   SA10171240175360+51424999+007280556+52829166+011118056FL245     1 6ABAMI    6GARLU   
AWY DCT   SA10175360434360+52829166+011118056+49974998+004566667FL325     1 6GARLU    6FAMEN   
AWY DCT   SA10178610172660+52206390+008449444+52546944+011099721FL245     1 6MOBSA    6BATEL   
AWY DCT   SA10179870172660+52076668+008279722+52546944+011099721FL245     1 6OSDIK    6BATEL   
AWY DCT   SA10175891988900+52058334+014755556+52363396+010795220FL335     1 6GOVEN    4HLZ     
AWY DCT   SA10215461988901+52899166+014306667+52363396+010795220FL285     1 6ALUKA    4HLZ     
AWY DCT   SA11988900182540+52363396+010795220+51525555+007133889FL245     1 4HLZ      6TOBIV   
AWY DCT   SA10182571988900+51829445+009533056+52363396+010795220FL245     1 6TOLGI    4HLZ     
AWY DCT   SA10171241988900+51424999+007280556+52363396+010795220FL245     1 6ABAMI    4HLZ     
AWY DCT   SA11988900200520+52363396+010795220+51924068+003171835FL245     1 4HLZ      6GORLO   
AWY DCT   SA11988900177340+52363396+010795220+51406944+014961667FL345     1 4HLZ      6LASIS   
AWY DCT   SA10183731988900+52510834+014613611+52363396+010795220FL315     1 6XIGRI    4HLZ     
AWY DCT   SA10173151988901+53275833+014409999+52363396+010795220FL285     1 6BODLA    4HLZ     
AWY DCT   SA11988900434360+52363396+010795220+49974998+004566667FL325     1 4HLZ      6FAMEN   
AWY DCT   SA10183730180390+52510834+014613611+52128380+010827777FL285     1 6XIGRI    6POVEL   
AWY DCT   SA10180390173550+52128380+010827777+51983334+008672778FL245     1 6POVEL    6DENOL   
AWY DCT   SA11995210180390+52379723+014585556+52128380+010827777FL295     1 4SUI      6POVEL   
AWY DCT   SA10217940180390+51203056+015010556+52128380+010827777FL375     1 6NAROX    6POVEL   
AWY DCT   SA11988890180390+50928150+014368800+52128380+010827777FL335     1 4HDO      6POVEL   
AWY DCT   SA10175890180390+52058334+014755556+52128380+010827777FL335     1 6GOVEN    6POVEL   
AWY DCT   SA10180391989820+52128380+010827777+51505695+009110914FL245     1 6POVEL    4WRB     
AWY DCT   SA10180390182540+52128380+010827777+51525555+007133889FL245     1 6POVEL    6TOBIV   
AWY DCT   SA10182570180390+51829445+009533056+52128380+010827777FL245     1 6TOLGI    6POVEL   
AWY DCT   SA10178610180390+52206390+008449444+52128380+010827777FL245     1 6MOBSA    6POVEL   
AWY DCT   SA10171240180390+51424999+007280556+52128380+010827777FL245     1 6ABAMI    6POVEL   
AWY DCT   SA10172940180390+53128796+010456935+52128380+010827777FL245     1 6BIBNU    6POVEL   
AWY DCT   SA10215460180390+52899166+014306667+52128380+010827777FL295     1 6ALUKA    6POVEL   
AWY DCT   SA10173150180390+53275833+014409999+52128380+010827777FL295     1 6BODLA    6POVEL   
AWY DCT   SA10180390458250+52128380+010827777+50837914+014000758FL315     1 6POVEL    6OMELO   
AWY DCT   SA10180390434360+52128380+010827777+49974998+004566667FL325     1 6POVEL    6FAMEN   
AWY DCT   SA10201480180390+52114586+002487947+52128380+010827777FL345     1 6REDFA    6POVEL   
AWY DCT   SA10217940177310+51203056+015010556+51834431+010869346FL375     1 6NAROX    6LARET   
AWY DCT   SA10177330177310+50360584+011228075+51834431+010869346FL335     1 6LASGA    6LARET   
AWY DCT   SA10177310458250+51834431+010869346+50837914+014000758FL325     1 6LARET    6OMELO   
AWY DCT   SA11988890177310+50928150+014368800+51834431+010869346FL335     1 4HDO      6LARET   
AWY DCT   SA10174840177310+48844723+011219444+51834431+010869346FL335     1 6ERNAS    6LARET   
AWY DCT   SA10172200177310+49722500+012323332+51834431+010869346FL335     1 6ARMUT    6LARET   
AWY DCT   SA10177310182540+51834431+010869346+51525555+007133889FL245     1 6LARET    6TOBIV   
AWY DCT   SA10177311992650+51834431+010869346+52133198+006763877FL245     1 6LARET    4RKN     
AWY DCT   SA10201990177310+52367748+003857309+51834431+010869346FL245     1 6TULIP    6LARET   
AWY DCT   SA10171700177310+52911667+010028888+51834431+010869346FL245     1 6AGATI    6LARET   
AWY DCT   SA10177310171920+51834431+010869346+50707500+011701666FL285     1 6LARET    6ALOSO   
AWY DCT   SA11988650177310+52250320+009883495+51834431+010869346FL245     1 4DLE      6LARET   
AWY DCT   SA10177310180350+51834431+010869346+51612499+008688056FL245     1 6LARET    6PODER   
AWY DCT   SA10171800177310+49707779+012086111+51834431+010869346FL335     1 6AKOSI    6LARET   
AWY DCT   SA10199660177310+52350155+004575041+51834431+010869346FL265     1 6BASNO    6LARET   
AWY DCT   SA10177310182170+51834431+010869346+51429905+012548177FL315     1 6LARET    6TADUV   
AWY DCT   SA10182110177310+51969166+007108056+51834431+010869346FL285     1 6SUVOX    6LARET   
AWY DCT   SA10172940180920+53128796+010456935+51333889+010219444FL245     1 6BIBNU    6RIMET   
AWY DCT   SA10176480180920+53248890+010888610+51333889+010219444FL245     1 6IRKIS    6RIMET   
AWY DCT   SA10181060172560+50897499+010435050+54461945+014297222FL345     1 6ROBEL    6BANUB   
AWY DCT   SA11989400172560+51994987+011794305+54461945+014297222FL285     1 4MAG      6BANUB   
AWY DCT   SA10174490172560+50964497+013321350+54461945+014297222FL335     1 6EKPEK    6BANUB   
AWY DCT   SA10174881989400+51050583+010286603+51994987+011794305FL325     1 6ERSIL    4MAG     
AWY DCT   SA11989400173150+51994987+011794305+53275833+014409999FL285     1 4MAG      6BODLA   
AWY DCT   SA11989400215460+51994987+011794305+52899166+014306667FL285     1 4MAG      6ALUKA   
AWY DCT   SA10180380180340+51845280+013983888+54158890+014094166FL325     1 6POGAB    6POBOX   
AWY DCT   SA10180340182170+54158890+014094166+51429905+012548177FL335     1 6POBOX    6TADUV   
AWY DCT   SA10180340458060+54158890+014094166+50715466+013628830FL335     1 6POBOX    6MAREM   
AWY DCT   SA10180340177030+54158890+014094166+51951111+012924166FL295     1 6POBOX    6KUBOG   
AWY DCT   SA10180340172030+54158890+014094166+49509445+010811389FL335     1 6POBOX    6AMOSA   
AWY DCT   SA11988890175550+50928150+014368800+53761978+013481521FL335     1 4HDO      6GEVNI   
AWY DCT   SA10180380175550+51845280+013983888+53761978+013481521FL325     1 6POGAB    6GEVNI   
AWY DCT   SA10174880215950+51050583+010286603+53759445+014275555FL345     1 6ERSIL    6BINKA   
AWY DCT   SA10182570215950+51829445+009533056+53759445+014275555FL245     1 6TOLGI    6BINKA   
AWY DCT   SA10171240215950+51424999+007280556+53759445+014275555FL245     1 6ABAMI    6BINKA   
AWY DCT   SA10181060215950+50897499+010435050+53759445+014275555FL345     1 6ROBEL    6BINKA   
AWY DCT   SA10180120180810+53507778+014325833+52914722+013961667FL285     1 6PESEL    6RENKI   
AWY DCT   SA10180120182170+53507778+014325833+51429905+012548177FL335     1 6PESEL    6TADUV   
AWY DCT   SA10180120179570+53507778+014325833+49414444+010661945FL335     1 6PESEL    6ODEGU   
AWY DCT   SA10181060173150+50897499+010435050+53275833+014409999FL345     1 6ROBEL    6BODLA   
AWY DCT   SA10174880173150+51050583+010286603+53275833+014409999FL345     1 6ERSIL    6BODLA   
AWY DCT   SA10174490173150+50964497+013321350+53275833+014409999FL345     1 6EKPEK    6BODLA   
AWY DCT   SA10173150183520+53275833+014409999+52975204+012338581FL295     1 6BODLA    6VIBIS   
AWY DCT   SA10173150176780+53275833+014409999+52927853+013654947FL295     1 6BODLA    6KETAP   
AWY DCT   SA10171240173150+51424999+007280556+53275833+014409999FL245     1 6ABAMI    6BODLA   
AWY DCT   SA10171241995210+51424999+007280556+52379723+014585556FL245     1 6ABAMI    4SUI     
AWY DCT   SA10171240215460+51424999+007280556+52899166+014306667FL245     1 6ABAMI    6ALUKA   
AWY DCT   YY10461360181400+47386604+011402297+49335835+012541397FL335     1 6NORIN    6RUDNO   
AWY DCT   SA30178970434360+51328018+006271356+49974998+004566667FL245     1 6NETEX    6FAMEN   
AWY DCT   SA30174070434360+51709530+007587131+49974998+004566667FL325     1 6DOMEG    6FAMEN   
AWY DCT   SA30172640434360+52771988+008788538+49974998+004566667FL325     1 6BASUM    6FAMEN   
AWY DCT   SA30204390434360+54461388+011689999+49974998+004566667FL325     1 6KOKOR    6FAMEN   
AWY DCT   SA10172260180310+52200001+007797778+54347500+011514445FL245     1 6ARTER    6PIXID   
AWY DCT   SA30182570174590+51829445+009533056+54289165+011675000FL255     1 6TOLGI    6ELKIM   
AWY DCT   SA10180810458060+52914722+013961667+50715466+013628830FL335     1 6RENKI    6MAREM   
AWY DCT   SA10171650458060+52400276+013621945+50715466+013628830FL325     1 6ADLIR    6MAREM   
AWY DCT   SA10215460458060+52899166+014306667+50715466+013628830FL325     1 6ALUKA    6MAREM   
AWY DCT   SA10176870171650+54316944+013543889+52400276+013621945FL305     1 6KOGIM    6ADLIR   
AWY DCT   SA11995210180810+52379723+014585556+52914722+013961667FL295     1 4SUI      6RENKI   
AWY DCT   SA10180380180810+51845280+013983888+52914722+013961667FL325     1 6POGAB    6RENKI   
AWY DCT   SA10181060215460+50897499+010435050+52899166+014306667FL335     1 6ROBEL    6ALUKA   
AWY DCT   SA10174880215460+51050583+010286603+52899166+014306667FL345     1 6ERSIL    6ALUKA   
AWY DCT   SA10215460182170+52899166+014306667+51429905+012548177FL325     1 6ALUKA    6TADUV   
AWY DCT   SA10215460177030+52899166+014306667+51951111+012924166FL295     1 6ALUKA    6KUBOG   
AWY DCT   SA10182570215460+51829445+009533056+52899166+014306667FL245     1 6TOLGI    6ALUKA   
AWY DCT   SA10182571995210+51829445+009533056+52379723+014585556FL245     1 6TOLGI    4SUI     
AWY DCT   SA10183730183520+52510834+014613611+52975204+012338581FL285     1 6XIGRI    6VIBIS   
AWY DCT   SA10183730182170+52510834+014613611+51429905+012548177FL315     1 6XIGRI    6TADUV   
AWY DCT   SA10183730177030+52510834+014613611+51951111+012924166FL285     1 6XIGRI    6KUBOG   
AWY DCT   SA11995210183520+52379723+014585556+52975204+012338581FL295     1 4SUI      6VIBIS   
AWY DCT   SA10178301995210+50729168+009598333+52379723+014585556FL325     1 6MASEK    4SUI     
AWY DCT   SA10174491995210+50964497+013321350+52379723+014585556FL335     1 6EKPEK    4SUI     
AWY DCT   SA10174881995210+51050583+010286603+52379723+014585556FL345     1 6ERSIL    4SUI     
AWY DCT   SA10173070174880+49982948+006561627+51050583+010286603FL265     1 6BITBU    6ERSIL   
AWY DCT   SA10173070181060+49982948+006561627+50897499+010435050FL265     1 6BITBU    6ROBEL   
AWY DCT   SA10175890174960+52058334+014755556+52123890+012671388FL335     1 6GOVEN    6ESIKA   
AWY DCT   SA10175890183520+52058334+014755556+52975204+012338581FL335     1 6GOVEN    6VIBIS   
AWY DCT   SA10175890181740+52058334+014755556+52635277+011905278FL335     1 6GOVEN    6SOGMA   
AWY DCT   SA10175890172030+52058334+014755556+49509445+010811389FL335     1 6GOVEN    6AMOSA   
AWY DCT   SA10176970180630+51583057+014738056+50072777+010098610FL365     1 6KORUP    6RASPU   
AWY DCT   SA10179240177340+51447777+010501944+51406944+014961667FL345     1 6NOMKA    6LASIS   
AWY DCT   SA10177340182030+51406944+014961667+51161945+012229999FL295     1 6LASIS    6SULED   
AWY DCT   SA10177340181740+51406944+014961667+52635277+011905278FL335     1 6LASIS    6SOGMA   
AWY DCT   SA11988890178510+50928150+014368800+51571945+013029722FL335     1 4HDO      6MILGU   
AWY DCT   SA10178510177000+51571945+013029722+51899166+012456111FL275     1 6MILGU    6KOSIX   
AWY DCT   SA10179240176840+51447777+010501944+51513332+014252499FL345     1 6NOMKA    6KOBUS   
AWY DCT   SA10178300176840+50729168+009598333+51513332+014252499FL295     1 6MASEK    6KOBUS   
AWY DCT   SA10176840180630+51513332+014252499+50072777+010098610FL365     1 6KOBUS    6RASPU   
AWY DCT   SA10176840172030+51513332+014252499+49509445+010811389FL365     1 6KOBUS    6AMOSA   
AWY DCT   SA10175350180380+51384407+014116116+51845280+013983888FL295     1 6GARKI    6POGAB   
AWY DCT   SA10180790182030+51278057+013884721+51161945+012229999FL295     1 6RENDO    6SULED   
AWY DCT   SA10179240458250+51447777+010501944+50837914+014000758FL365     1 6NOMKA    6OMELO   
AWY DCT   SA10171360182140+51867058+011053430+50558475+011531250FL335     1 6ABGUS    6TABAT   
AWY DCT   SA10171360171920+51867058+011053430+50707500+011701666FL285     1 6ABGUS    6ALOSO   
AWY DCT   SA10171360171800+51867058+011053430+49707779+012086111FL325     1 6ABGUS    6AKOSI   
AWY DCT   SA11988650171360+52250320+009883495+51867058+011053430FL265     1 4DLE      6ABGUS   
AWY DCT   SA10176480171360+53248890+010888610+51867058+011053430FL245     1 6IRKIS    6ABGUS   
AWY DCT   SA10172940171360+53128796+010456935+51867058+011053430FL245     1 6BIBNU    6ABGUS   
AWY DCT   SA10177080205310+51537498+010635000+55000000+007876111FL245     1 6KUMER    6TUSKA   
AWY DCT   SA10201840177080+55000000+005418817+51537498+010635000FL245     1 6SUTEB    6KUMER   
AWY DCT   SA10173510201040+54646667+009469445+53100891+003303508FL245     1 6DEGUL    6MIMVA   
AWY DCT   SA10444640182710+49514446+005781110+54652779+009910834FL245     1 6VALEK    6TUGDU   
AWY DCT   SA10171240205310+51424999+007280556+55000000+007876111FL245     1 6ABAMI    6TUSKA   
AWY DCT   SA10200541988610+55000000+005858795+50783520+007594194FL245     1 6GREFI    2COL     
AWY DCT   SA10201990180180+52367748+003857309+54369446+011461388FL265     1 6TULIP    6PIBUL   
AWY DCT   SA10201480181310+52114586+002487947+54209999+012076666FL265     1 6REDFA    6ROSOK   
AWY DCT   SA10171240182710+51424999+007280556+54652779+009910834FL245     1 6ABAMI    6TUGDU   
AWY DCT   SA10171240222210+51424999+007280556+54916668+013763610FL285     1 6ABAMI    6OKAGA   
AWY DCT   SA10171240223020+51424999+007280556+54916668+013386195FL285     1 6ABAMI    6SALLO   
AWY DCT   SA10172840175620+53726112+011467778+54637779+008958056FL245     1 6BERIM    6GIKOG   
AWY DCT   SA10200770172840+52732899+002994355+53726112+011467778FL245     1 6LAMSO    6BERIM   
AWY DCT   SA10200860172840+53839584+003942544+53726112+011467778FL245     1 6LONAM    6BERIM   
AWY DCT   SA11992710204610+52540279+004853781+55064167+008416111FL265     1 4SPY      6LUTIR   
AWY DCT   SA10176710201840+51123611+009675000+55000000+005418817FL295     1 6KEMAD    6SUTEB   
AWY DCT   SA10182300180010+49526112+011044444+48802502+013651110FL345     1 6TENLO    6PASAU   
AWY DCT   SA10182300177250+49526112+011044444+48653332+013583333FL345     1 6TENLO    6LAMSI   
AWY DCT   SA10173220182300+50056667+008800277+49526112+011044444FL325     1 6BOMBI    6TENLO   
AWY DCT   SA10180390200520+52128380+010827777+51924068+003171835FL315     1 6POVEL    6GORLO   
AWY DCT   YY10176740222210+51619572+011264394+54916668+013763610FL335     1 6KENIG    6OKAGA   
AWY DCT   SA10460920172440+47150555+009935833+47731110+011945278FL335     1 6INTEG    6BADVI   
AWY DCT   SA10460920178130+47150555+009935833+47324375+010288886FL335     1 6INTEG    6MADEB   
AWY DCT   SA10460920460560+47150555+009935833+47347778+011923889FL335     1 6INTEG    6BIRGI   
AWY DCT   SA10460920461060+47150555+009935833+47115070+011756035FL335     1 6INTEG    6LIZUM   
AWY DCT   YY10177710182360+48166668+009182778+50409721+009873333FL335     1 6LOKTA    6TIKNI   
AWY DCT   SA10178350179250+50416668+006369721+49794998+008399444FL325     1 6MATUG    6NONKO   
AWY DCT   SA10200770177080+52732899+002994355+51537498+010635000FL255     1 6LAMSO    6KUMER   
AWY DCT   SA10176711989320+51123611+009675000+53652592+009579481FL245     1 6KEMAD    4LBV     
AWY DCT   SA10177081989320+51537498+010635000+53652592+009579481FL245     1 6KUMER    4LBV     
AWY DCT   SA10177311989320+51834431+010869346+53652592+009579481FL245     1 6LARET    4LBV     
AWY DCT   SA10181311989320+54209999+012076666+53652592+009579481FL245     1 6ROSOK    4LBV     
AWY DCT   SA10179330170780+50020557+006711389+49741669+005869721FL245     1 6NOSPA    6IDOSA   
AWY DCT   SA10444640000000+49514446+005781110+50840660+006694156FL255     1 6VALEK    2NOR     
AWY DCT   SA10173300000000+53119999+011286110+50840660+006694156FL245     1 6BUMIL    2NOR     
AWY DCT   SA10000000175360+50840660+006694156+52829166+011118056FL285     1 2NOR      6GARLU   
AWY DCT   SA10000000172660+50840660+006694156+52546944+011099721FL245     1 2NOR      6BATEL   
AWY DCT   SA10000001988900+50840660+006694156+52363396+010795220FL285     1 2NOR      4HLZ     
AWY DCT   SA10180390000001+52128380+010827777+50840660+006694156FL285     1 6POVEL    2NOR     
AWY DCT   SA10000000173150+50840660+006694156+53275833+014409999FL245     1 2NOR      6BODLA   
AWY DCT   SA10172640000000+52771988+008788538+50840660+006694156FL255     1 6BASUM    2NOR     
AWY DCT   SA10000000205460+50840660+006694156+49637222+006281667FL245     1 2NOR      6LIMGO   
AWY DCT   SA10000000434360+50840660+006694156+49974998+004566667FL325     1 2NOR      6FAMEN   
AWY DCT   SA30173570000000+50712502+006862222+50840660+006694156 3500FL2451 6DEPOK    2NOR     
AWY DCT   SA10177080000000+51537498+010635000+53654202+009595067FL245     1 6KUMER    4LBE     
AWY DCT   SA10176710000000+51123611+009675000+53654202+009595067FL245     1 6KEMAD    4LBE     
AWY DCT   SA10177310000000+51834431+010869346+53654202+009595067FL245     1 6LARET    4LBE     
AWY DCT   SA30000000434360+53654202+009595067+49974998+004566667FL325     1 4LBE      6FAMEN   
