
AWY DCT   SA10199820201820+51560295+004853334+53015224+003564464FL295     1 6BREDA    6SUPUR   
AWY DCT   YY10438130435910+46448891+005093610+45808334+006390832FL355     1 6MOKIP    6KOGAS   
AWY DCT   YY12027050431340+46253918+006132222+45477501+005960834FL345     1 4GVA      6BALSI   
AWY DCT   YY12027050435910+46253918+006132222+45808334+006390832FL355     1 4GVA      6KOGAS   
AWY DCT   YY10469082027050+47057693+007172805+46253918+006132222FL355     1 6BENOT    4GVA     
AWY DCT   YY10435910453820+45808334+006390832+45106110+007157777FL355     1 6KOGAS    6NITAM   
AWY DCT   SA10177960431060+48435055+007733622+48584721+006699721FL195     1 6LUPEN    6ATNUL   
AWY DCT   SA10444600431600+48188057+006684999+47908333+007583333FL195     1 6VAKPA    6BEGAR   
AWY DCT   SA10436580444600+48900833+004226944+48188057+006684999FL195     1 6LASIV    6VAKPA   
AWY DCT   SA10436580431060+48900833+004226944+48584721+006699721FL195     1 6LASIV    6ATNUL   
AWY DCT   SA10436670425310+45811111-002533611+44835220-006919722FL195     1 6LEBRI    6KORUL   
AWY DCT   SA10444300443170+47447777-006968056+44983055-007885000FL195     1 6TURDO    6SOSOV   
AWY DCT   YY10443510441750+40424721+008000000+39000000+006250000FL195     1 6SUPUX    6REQIN   
AWY DCT   YY10441750433780+39000000+006250000+40608055+008000000FL195     1 6REQIN    6ELSAG   
AWY DCT   YY10438182022371+44055279+004512777+43765888+004417555FL195     1 6MOLEN    6NG      
AWY DCT   YY10435710440150+43012779+005633333+43231667+005333056FL195     1 6JULEE    6PADKO   
AWY DCT   YY30438182022321+44055279+004512777+44554947+004779861FL085     1 6MOLEN    4MTL     
AWY DCT   YY10434230439890+39731667+007163332+42328888+008361945FL285     1 6ETOIL    6OMEDA   
AWY DCT   YY10443590439700+39150002+008000000+42015278+006342500FL285     1 6TABOT    6OKSER   
AWY DCT   YY10439702022280+42015278+006342500+43377335+005326445FL285     1 6OKSER    4MRM     
AWY DCT   SA10438080469350+45809723+006722777+46592777+007708889FL355     1 6MOBLO    6GODRA   
AWY DCT   SA10469350469200+46592777+007708889+47302223+008333333FL355     1 6GODRA    6DITON   
AWY DCT   SA10469350460770+46592777+007708889+47408455+009651910FL355     1 6GODRA    6GAMSA   
AWY DCT   YY10469350177710+46592777+007708889+48166668+009182778FL355     1 6GODRA    6LOKTA   
AWY DCT   YY10469350460920+46592777+007708889+47150555+009935833FL355     1 6GODRA    6INTEG   
AWY DCT   SA10180692027060+47729168+009669445+47466557+007665444FL355     1 6RAVED    4HOC     
AWY DCT   YY10470140460920+46410557+009009166+47150555+009935833FL355     1 6UTAVO    6INTEG   
AWY DCT   SA20180690181200+47729168+009669445+47713055+009107777     FL0951 6RAVED    6ROMIR   
AWY DCT   SA32063770183070+52589592+010029456+52845833+010581945 3500     1 5CEL      6ULSEN   
AWY DCT   SA20181841988830+51723610+008573888+51170509+007892038 3500FL2451 6SONOR    4GMH     
AWY DCT   SA10199820200520+51560295+004853334+51924068+003171835FL265     1 6BREDA    6GORLO   
AWY DCT   SA10199820201490+51560295+004853334+51809566+002666908FL265     1 6BREDA    6REFSO   
AWY DCT   SA10180360201970+50942722+007819458+51183395+005833392FL325     1 6PODIP    6TORNU   
AWY DCT   SA10180360173220+50942722+007819458+50056667+008800277FL325     1 6PODIP    6BOMBI   
AWY DCT   SA10180360182340+50942722+007819458+50444901+008618871FL325     1 6PODIP    6TESGA   
AWY DCT   SA10201860180360+51894169+006587778+50942722+007819458FL325     1 6TEBRO    6PODIP   
AWY DCT   SA10178300180360+50729168+009598333+50942722+007819458FL335     1 6MASEK    6PODIP   
AWY DCT   SA10200380180360+52640408+003387000+50942722+007819458FL325     1 6EVELI    6PODIP   
