
AWY DCT   SA10240621971651+26138889-014643889+27142851-013217952FL195     1 6CABOJ    4LAY     
AWY DCT   SA10240470240581+20916668-018000000+25000000-016358806FL195     1 6AMDIB    6BIPET   
AWY DCT   SA10240780240471+21338278-018678777+20916668-018000000FL195FL3051 6ETIBA    6AMDIB   
AWY DCT   SA10241090240781+22081362-019590028+21338278-018678777FL195FL3051 6ISOKA    6ETIBA   
AWY DCT   SA10242060241091+23066778-020836360+22081362-019590028FL195FL3051 6USOTI    6ISOKA   
AWY DCT   SA10242060241441+23066778-020836360+24638361-022480028FL195FL3051 6USOTI    6NORED   
AWY DCT   SA10456350241441+28000000-025000000+24638361-022480028FL195FL3051 6INSAD    6NORED   
AWY DCT   SA10456410241441+27000000-025000000+24638361-022480028FL195FL3051 6IXIKU    6NORED   
AWY DCT   SA10456490241631+26000000-025000000+28256056-020000000FL195     1 6KUXOV    6ROSTA   
AWY DCT   SA10456490241441+26000000-025000000+24638361-022480028FL195FL3051 6KUXOV    6NORED   
AWY DCT   SA10456520241631+25000000-025000000+28256056-020000000FL195     1 6LAPTU    6ROSTA   
AWY DCT   SA10241630242100+28256056-020000000+23600000-024416667FL195     1 6ROSTA    6XIGLU   
AWY DCT   SA10241130241631+31300833-015301667+28256056-020000000FL285     1 6KONBA    6ROSTA   
AWY DCT   SA10456450241631+30000000-020000000+28256056-020000000FL195     1 6KETID    6ROSTA   
AWY DCT   SA10456450456491+30000000-020000000+26000000-025000000FL195     1 6KETID    6KUXOV   
AWY DCT   SA10241410456521+30000000-021000000+25000000-025000000FL195     1 6NEXUX    6LAPTU   
AWY DCT   SA10241410456491+30000000-021000000+26000000-025000000FL195     1 6NEXUX    6KUXOV   
AWY DCT   SA10241410456411+30000000-021000000+27000000-025000000FL195     1 6NEXUX    6IXIKU   
AWY DCT   SA10241410456351+30000000-021000000+28000000-025000000FL195     1 6NEXUX    6INSAD   
AWY DCT   SA10241410456161+30000000-021000000+29000000-025000000FL195     1 6NEXUX    6GOBEG   
AWY DCT   SA10456990456521+30000000-022000000+25000000-025000000FL195     1 6OSLEV    6LAPTU   
AWY DCT   SA10456990456491+30000000-022000000+26000000-025000000FL195     1 6OSLEV    6KUXOV   
AWY DCT   SA10456990456411+30000000-022000000+27000000-025000000FL195     1 6OSLEV    6IXIKU   
AWY DCT   SA10456990456351+30000000-022000000+28000000-025000000FL195     1 6OSLEV    6INSAD   
AWY DCT   SA10456990456161+30000000-022000000+29000000-025000000FL195     1 6OSLEV    6GOBEG   
AWY DCT   SA10457050241631+30000000-023000000+28256056-020000000FL195     1 6PIBIL    6ROSTA   
AWY DCT   SA10457050456521+30000000-023000000+25000000-025000000FL195     1 6PIBIL    6LAPTU   
AWY DCT   SA10457050456491+30000000-023000000+26000000-025000000FL195     1 6PIBIL    6KUXOV   
AWY DCT   SA10457050456411+30000000-023000000+27000000-025000000FL195     1 6PIBIL    6IXIKU   
AWY DCT   SA10457050456351+30000000-023000000+28000000-025000000FL195     1 6PIBIL    6INSAD   
AWY DCT   SA10457050456161+30000000-023000000+29000000-025000000FL195     1 6PIBIL    6GOBEG   
AWY DCT   SA10457270456521+30000000-024000000+25000000-025000000FL195     1 6RIPOD    6LAPTU   
AWY DCT   SA10457270456491+30000000-024000000+26000000-025000000FL195     1 6RIPOD    6KUXOV   
AWY DCT   SA10457270456411+30000000-024000000+27000000-025000000FL195     1 6RIPOD    6IXIKU   
AWY DCT   SA10457270456351+30000000-024000000+28000000-025000000FL195     1 6RIPOD    6INSAD   
AWY DCT   SA10457270456161+30000000-024000000+29000000-025000000FL195     1 6RIPOD    6GOBEG   
AWY DCT   SA10456990241631+30000000-022000000+28256056-020000000FL195     1 6OSLEV    6ROSTA   
AWY DCT   SA10241410241631+30000000-021000000+28256056-020000000FL195     1 6NEXUX    6ROSTA   
AWY DCT   SA10457270241631+30000000-024000000+28256056-020000000FL195     1 6RIPOD    6ROSTA   
AWY DCT   SA10456450456521+30000000-020000000+25000000-025000000FL195     1 6KETID    6LAPTU   
AWY DCT   SA10456450456411+30000000-020000000+27000000-025000000FL195     1 6KETID    6IXIKU   
AWY DCT   SA10456450456351+30000000-020000000+28000000-025000000FL195     1 6KETID    6INSAD   
AWY DCT   SA10456450456161+30000000-020000000+29000000-025000000FL195     1 6KETID    6GOBEG   
AWY DCT   SA10456350241631+28000000-025000000+28256056-020000000FL195     1 6INSAD    6ROSTA   
AWY DCT   SA10456160241631+29000000-025000000+28256056-020000000FL195     1 6GOBEG    6ROSTA   
AWY DCT   SA10456410241631+27000000-025000000+28256056-020000000FL195     1 6IXIKU    6ROSTA   
AWY DCT   SA10240471971870+20916668-018000000+18091583-015948278FL195     1 6AMDIB    4KC      
AWY DCT   SA10241131971150+31300833-015301667+28077084-015428999FL285     1 6KONBA    4GDV     
