
AWY DCT   YY10249620249800+35966667-009372011+30505833-012373333FL245FL6601 6TAKAV    6VEDOD   
AWY DCT   YY10249580463200+30915834-013248333+35966667-010023332FL195FL6601 6SULAM    6BAROK   
AWY DCT   SA10246911999110+29731417-012578332+29010469-010069296     FL6601 6KORAL    4GLM     
AWY DCT   YY10248700465171+34444447-008789167+35546391-012312500     FL6601 6IBALU    6SUBAL   
AWY DCT   YY10248701999050+34444447-008789167+33521496-007677186     FL6601 6IBALU    4CBA     
AWY DCT   YY11999110247510+29010469-010069296+28906111-012816389     FL6601 4GLM      6RUSIK   
AWY DCT   YY11999090249621+31401245-009686958+35966667-009372011     FL6601 4ESS      6TAKAV   
AWY DCT   YY10463250248701+35966667-011448332+34444447-008789167     FL6601 6BEXAL    6IBALU   
AWY DCT   YY10463250247521+35966667-011448332+30899721-014415556FL245FL6601 6BEXAL    6SAMAR   
AWY DCT   YY10463070248700+35966667-007883334+34444447-008789167     FL6601 6AMSEL    6IBALU   
AWY DCT   YY11999030249701+32514294-002030478+34000000-001978611     FL6601 4BRF      6ULMAM   
AWY DCT   YY11999070249770+31924168-004360528+31833334-003750000     FL6601 4ERA      6VANOP   
AWY DCT   YY10249361999030+32275002-003000000+32514294-002030478     FL6601 6PIXEB    4BRF     
AWY DCT   YY11999300249780+35728813-005890797+34025555-006348332FL245FL6601 4TNG      6VARAS   
AWY DCT   YY10249701999230+34000000-001978611+34773335-001950278     FL6601 6ULMAM    4OJD     
AWY DCT   YY10249770249360+31833334-003750000+32275002-003000000     FL6601 6VANOP    6PIXEB   
