
AWY DCT   YY10417650414640+44835220-006919722+44346638-008814444FL245FL4601 6KORUL    6ADROX   
AWY DCT   YY10414640418880+44346638-008814444+43500000-013000000FL245FL4601 6ADROX    6MUDOS   
AWY DCT   YY10414640417600+44346638-008814444+44000000-013000000FL245FL4601 6ADROX    6KOPAS   
AWY DCT   YY10418070416860+44658749-005836638+42616528-007783695FL245     1 6LOTEE    6ELTEP   
AWY DCT   YY10416431993171+41830139-006216610+42926861-008425389FL245     1 6DESAT    4STG     
AWY DCT   YY10415030415390+42515919-008491889+45000000-009000000FL245     1 6ASDEB    6BEGAS   
AWY DCT   YY10415390420450+45000000-009000000+43322388-008366889FL245FL3151 6BEGAS    6RIMTU   
AWY DCT   YY10415390416860+45000000-009000000+42616528-007783695FL315     1 6BEGAS    6ELTEP   
AWY DCT   YY10415030417650+42515919-008491889+44835220-006919722FL245     1 6ASDEB    6KORUL   
AWY DCT   YY10417650416860+44835220-006919722+42616528-007783695FL245     1 6KORUL    6ELTEP   
AWY DCT   YY10415030418070+42515919-008491889+44658749-005836638FL245     1 6ASDEB    6LOTEE   
AWY DCT   YY10415100417420+44505360-004947527+42275639-007094250FL245     1 6ATLEN    6INSID   
AWY DCT   YY10415180417420+44412498-004436111+42275639-007094250FL245     1 6BAKUP    6INSID   
AWY DCT   YY10417881993301+43504139-004873445+43557056-006007082FL245     1 6LASKU    4VES     
AWY DCT   YY10420270417220+41936611-007116361+41721443-006323667FL245     1 6RALUS    6GODIV   
AWY DCT   YY10420450416860+43322388-008366889+42616528-007783695FL245     1 6RIMTU    6ELTEP   
AWY DCT   YY10416420418070+41925694-009362000+44658749-005836638FL245     1 6DEMOS    6LOTEE   
AWY DCT   YY10414670415391+41872890-008926694+45000000-009000000FL245     1 6AGADO    6BEGAS   
AWY DCT   YY10457070417650+41851112-008597778+44835220-006919722FL245     1 6PINEK    6KORUL   
AWY DCT   YY10418070415081+44658749-005836638+41815140-008081193FL325     1 6LOTEE    6ASPOR   
AWY DCT   YY10417650415081+44835220-006919722+41815140-008081193FL245     1 6KORUL    6ASPOR   
AWY DCT   YY10415590455220+42796555-006538556+41751110-007236111FL245     1 6BISMU    6ABUPI   
AWY DCT   YY10420690455460+42741859-005856417+41700558-006621944FL245     1 6ROVAK    6BATAX   
AWY DCT   YY10418070457071+44658749-005836638+41851112-008597778FL245     1 6LOTEE    6PINEK   
AWY DCT   YY10418070419871+44658749-005836638+42678917-012000000FL245     1 6LOTEE    6PETEK   
AWY DCT   YY10418070455460+44658749-005836638+41700558-006621944FL245     1 6LOTEE    6BATAX   
AWY DCT   YY10418070455220+44658749-005836638+41751110-007236111FL245     1 6LOTEE    6ABUPI   
AWY DCT   YY10417650422131+44835220-006919722+42023888-010067972FL245     1 6KORUL    6XERES   
AWY DCT   YY10417650420471+44835220-006919722+42283054-010816194FL245     1 6KORUL    6RIPEL   
AWY DCT   YY10417650419871+44835220-006919722+42678917-012000000FL245     1 6KORUL    6PETEK   
AWY DCT   YY10419960417601+45000000-012000000+44000000-013000000FL245     1 6PITAX    6KOPAS   
AWY DCT   YY10419960417351+45000000-012000000+44500000-013000000FL245     1 6PITAX    6HIDRA   
AWY DCT   YY10416570422131+45000000-010000000+42023888-010067972FL245     1 6DIXIS    6XERES   
AWY DCT   YY10416570420471+45000000-010000000+42283054-010816194FL245     1 6DIXIS    6RIPEL   
AWY DCT   YY10416570419871+45000000-010000000+42678917-012000000FL245     1 6DIXIS    6PETEK   
AWY DCT   YY10417650416421+44835220-006919722+41925694-009362000FL245     1 6KORUL    6DEMOS   
AWY DCT   YY10415490420471+45000000-011000000+42283054-010816194FL245     1 6BERUX    6RIPEL   
AWY DCT   YY10415490419871+45000000-011000000+42678917-012000000FL245     1 6BERUX    6PETEK   
AWY DCT   YY10415490418881+45000000-011000000+43500000-013000000FL245     1 6BERUX    6MUDOS   
AWY DCT   YY10415490417601+45000000-011000000+44000000-013000000FL245     1 6BERUX    6KOPAS   
AWY DCT   YY10415390422131+45000000-009000000+42023888-010067972FL245     1 6BEGAS    6XERES   
AWY DCT   YY10415390420471+45000000-009000000+42283054-010816194FL245     1 6BEGAS    6RIPEL   
AWY DCT   YY10415390457071+45000000-009000000+41851112-008597778FL245     1 6BEGAS    6PINEK   
AWY DCT   YY10415390416421+45000000-009000000+41925694-009362000FL245     1 6BEGAS    6DEMOS   
AWY DCT   YY10455410418070+41730556-006981667+44658749-005836638FL315     1 6BALNO    6LOTEE   
AWY DCT   YY10415180455460+44412498-004436111+41700558-006621944FL245     1 6BAKUP    6BATAX   
AWY DCT   YY10415180455220+44412498-004436111+41751110-007236111FL245     1 6BAKUP    6ABUPI   
AWY DCT   YY10415100455460+44505360-004947527+41700558-006621944FL245     1 6ATLEN    6BATAX   
AWY DCT   YY10415100455220+44505360-004947527+41751110-007236111FL245     1 6ATLEN    6ABUPI   
AWY DCT   YY10418070414670+44658749-005836638+41872890-008926694FL245     1 6LOTEE    6AGADO   
AWY DCT   YY10417650414671+44835220-006919722+41872890-008926694FL245     1 6KORUL    6AGADO   
AWY DCT   YY10419711993301+45000000-013000000+43557056-006007082FL245     1 6PASAS    4VES     
AWY DCT   YY10419711993171+45000000-013000000+42926861-008425389FL245     1 6PASAS    4STG     
AWY DCT   YY10419961993171+45000000-012000000+42926861-008425389FL245     1 6PITAX    4STG     
AWY DCT   YY10415491993171+45000000-011000000+42926861-008425389FL245     1 6BERUX    4STG     
AWY DCT   YY10416571993171+45000000-010000000+42926861-008425389FL245     1 6DIXIS    4STG     
AWY DCT   YY10415391993171+45000000-009000000+42926861-008425389FL245     1 6BEGAS    4STG     
AWY DCT   YY10415391993301+45000000-009000000+43557056-006007082FL245     1 6BEGAS    4VES     
AWY DCT   YY10417651993301+44835220-006919722+43557056-006007082FL245     1 6KORUL    4VES     
AWY DCT   YY10418070418641+44658749-005836638+43498859-007596471FL245     1 6LOTEE    6MEGAT   
AWY DCT   YY10418071993301+44658749-005836638+43557056-006007082FL245     1 6LOTEE    4VES     
AWY DCT   YY10415101993300+44505360-004947527+43557056-006007082FL245     1 6ATLEN    4VES     
AWY DCT   YY10457070418021+41851112-008597778+42852806-007296028FL245     1 6PINEK    6LOMDA   
AWY DCT   YY10457070420711+41851112-008597778+43213001-007357555FL245     1 6PINEK    6ROXER   
AWY DCT   YY10414670418021+41872890-008926694+42852806-007296028FL245     1 6AGADO    6LOMDA   
AWY DCT   YY10414670420711+41872890-008926694+43213001-007357555FL245     1 6AGADO    6ROXER   
AWY DCT   YY10416420418020+41925694-009362000+42852806-007296028FL245     1 6DEMOS    6LOMDA   
AWY DCT   YY10416421993171+41925694-009362000+42926861-008425389FL245     1 6DEMOS    4STG     
AWY DCT   YY10422131993171+42023888-010067972+42926861-008425389FL245     1 6XERES    4STG     
AWY DCT   YY10420471993171+42283054-010816194+42926861-008425389FL195     1 6RIPEL    4STG     
AWY DCT   YY10419871993171+42678917-012000000+42926861-008425389FL195     1 6PETEK    4STG     
AWY DCT   YY10420371993171+43000000-013000000+42926861-008425389FL195     1 6RETEN    4STG     
AWY DCT   YY10420371993301+43000000-013000000+43557056-006007082FL245     1 6RETEN    4VES     
AWY DCT   YY10418881993171+43500000-013000000+42926861-008425389FL195     1 6MUDOS    4STG     
AWY DCT   YY10418881993301+43500000-013000000+43557056-006007082FL245     1 6MUDOS    4VES     
AWY DCT   YY10417601993171+44000000-013000000+42926861-008425389FL245     1 6KOPAS    4STG     
AWY DCT   YY10417601993301+44000000-013000000+43557056-006007082FL245     1 6KOPAS    4VES     
AWY DCT   YY10417351993171+44500000-013000000+42926861-008425389FL245     1 6HIDRA    4STG     
AWY DCT   YY10417351993301+44500000-013000000+43557056-006007082FL245     1 6HIDRA    4VES     
AWY DCT   YY11993171993301+42926861-008425389+43557056-006007082FL245     1 4STG      4VES     
AWY DCT   YY10417650417621+44835220-006919722+43653111-007865583FL245     1 6KORUL    6KORAV   
AWY DCT   YY11993241993080+39969444-004337472+40853863-003246639FL195     1 4TLD      4RBO     
AWY DCT   YY10419850419480+37036694-007383333+37246723-006760000FL245     1 6PESAS    6ONUBA   
AWY DCT   YY10419850457091+37036694-007383333+36833336-007383333FL245     1 6PESAS    6PIREN   
AWY DCT   YY10414611993350+35833336-006028333+36239334-005975500FL075     1 6ADKIM    4VJF     
AWY DCT   YY10420260420590+36720028-004134139+37415638-002854361FL245     1 6RAKOR    6ROLAS   
AWY DCT   YY10420590421941+37415638-002854361+37392223-003630861FL245     1 6ROLAS    6VIBAS   
AWY DCT   YY10421660414990+37250557-003277694+37579750-003024194FL265     1 6UNTOS    6ARPEX   
AWY DCT   YY10415090416110+39024387-001263000+39805332-001211666     FL4601 6ASTRO    6CATON   
AWY DCT   YY11992330414660+40867306-001298056+40512333-002064277FL195     1 4CMA      6ADUXO   
AWY DCT   YY11993300419441+43557056-006007082+42276501-005772194FL245     1 4VES      6OMESI   
AWY DCT   YY10000001993171+42706501-005442695+42926861-008425389FL245     1 6SUYYS    4STG     
