
AWY DCT   SA30452060452391+35966946+013216667+36040558+011500000FL195FL4601 6DEXOL    6OMENI   
AWY DCT   SA30452130452061+35631668+018288333+35966946+013216667FL195FL4601 6EMLAR    6DEXOL   
AWY DCT   SA30452310452131+35133331+021961111+35631668+018288333FL195FL4601 6NEVIK    6EMLAR   
AWY DCT   YY10448880452440+36500000+017425832+34333332+021466110FL195FL4601 6VENIM    6RASNO   
AWY DCT   YY10448880451960+36500000+017425832+34625278+023000000FL195FL4601 6VENIM    6ARLOS   
AWY DCT   YY10448580452390+36500000+013539722+36040558+011500000FL195FL4601 6UPLIT    6OMENI   
AWY DCT   SA10452530452440+36500000+017773056+34333332+021466110FL195FL4601 6TISAL    6RASNO   
AWY DCT   YY10447970452440+36500000+016857221+34333332+021466110FL195FL4601 6SUBOK    6RASNO   
AWY DCT   YY10447970452030+36500000+016857221+34333332+019036943FL195FL4601 6SUBOK    6BONAR   
AWY DCT   SA10452480452240+34333332+013246389+35107224+018593889FL195FL4601 6SARKI    6KUTOS   
AWY DCT   SA10452480445850+34333332+013246389+36862778+014392778FL195FL4601 6SARKI    6NELDA   
AWY DCT   SA10452480440910+34333332+013246389+37345554+013025278FL195FL4601 6SARKI    6ADEXI   
AWY DCT   SA10452480447570+34333332+013246389+36500000+011623056FL195FL4601 6SARKI    6ROLEV   
AWY DCT   YY11997460452431+36814445+011965749+34523609+011500000FL195FL4601 4PAN      6RALAK   
AWY DCT   SA10452390251280+36040558+011500000+34333332+016369445FL195FL4601 6OMENI    6ELIMO   
AWY DCT   SA10452390442731+36040558+011500000+36500000+014310000FL195FL4601 6OMENI    6DIRKA   
AWY DCT   SA10452370447970+34333332+018130556+36500000+016857221FL315FL4601 6OLMAX    6SUBOK   
AWY DCT   SA10452370452530+34333332+018130556+36500000+017773056FL285FL4601 6OLMAX    6TISAL   
AWY DCT   SA10452370452080+34333332+018130556+36500000+011822221FL195FL4601 6OLMAX    6DINUX   
AWY DCT   SA10452370452390+34333332+018130556+36040558+011500000FL195FL4601 6OLMAX    6OMENI   
AWY DCT   SA10452370452060+34333332+018130556+35966946+013216667FL195FL4601 6OLMAX    6DEXOL   
AWY DCT   SA10452310452550+35133331+021961111+34333332+013730555FL195FL4601 6NEVIK    6VARIG   
AWY DCT   SA10452310251560+35133331+021961111+34333332+015166389FL195FL4601 6NEVIK    6LOTIN   
AWY DCT   SA10452310452030+35133331+021961111+34333332+019036943FL195FL4601 6NEVIK    6BONAR   
AWY DCT   SA10452280452540+34333332+014700833+34827499+021390832FL195FL4601 6LUMED    6VANIX   
AWY DCT   SA10452281998340+34333332+014700833+36037342+014205264FL255FL4601 6LUMED    4GZO     
AWY DCT   YY10444790452431+36500000+015616666+34523609+011500000FL195FL4601 6LORED    6RALAK   
AWY DCT   SA10452240452391+35107224+018593889+36040558+011500000FL195FL4601 6KUTOS    6OMENI   
AWY DCT   SA10452190452390+34333332+016948055+36040558+011500000FL195FL4601 6INDOT    6OMENI   
AWY DCT   YY10442730452141+36500000+014310000+35881390+016941667FL195FL4601 6DIRKA    6EVIRA   
AWY DCT   YY10442730452501+36500000+014310000+35408054+014508055FL195FL4601 6DIRKA    6SUDIK   
AWY DCT   SA10452080452030+36500000+011822221+34333332+019036943FL195FL4601 6DINUX    6BONAR   
AWY DCT   SA10452040448581+35518055+021153333+36500000+013539722FL195FL4601 6DEMAG    6UPLIT   
AWY DCT   SA10452040442731+35518055+021153333+36500000+014310000FL195FL4601 6DEMAG    6DIRKA   
AWY DCT   SA10452040442801+35518055+021153333+36500000+012126943FL195FL4601 6DEMAG    6DOBIX   
AWY DCT   SA10452020452241+35047501+011500000+35107224+018593889FL195FL4601 6BIRSA    6KUTOS   
AWY DCT   SA10451960452550+34625278+023000000+34333332+013730555FL195FL4601 6ARLOS    6VARIG   
AWY DCT   SA10451960251560+34625278+023000000+34333332+015166389FL195FL4601 6ARLOS    6LOTIN   
AWY DCT   SA10452400451960+36500000+018333332+34625278+023000000FL195FL4601 6ORTAP    6ARLOS   
AWY DCT   SA10451960452121+34625278+023000000+35871666+019694166FL195FL4601 6ARLOS    6ELKAN   
AWY DCT   SA30452380452151+35683887+019443611+35032780+021772777FL195FL4601 6OMARA    6EVLIB   
AWY DCT   SA10442730451981+36500000+014310000+36263889+013211111FL195FL4601 6DIRKA    6ASDAX   
AWY DCT   SA30452340251280+35656666+011500000+34333332+016369445FL195FL4601 6NIGAT    6ELIMO   
