
AWY DCT   YY10456620455500+37000000-015000000+35966667-011448332FL195FL6601 6LUTAK    6BEXAL   
AWY DCT   YY10455400421510+41040279-007083889+40990780-006288610FL245     1 6BABEX    6TOSDI   
AWY DCT   YY10455400455191+41040279-007083889+39821667-007654167FL245     1 6BABEX    6ABRAT   
AWY DCT   YY10414620455401+41483002-006280000+41040279-007083889FL245     1 6ADORO    6BABEX   
AWY DCT   YY10414940455400+41173279-006282332+41040279-007083889FL245     1 6ARDID    6BABEX   
AWY DCT   YY10455190421510+39821667-007654167+40990780-006288610FL245     1 6ABRAT    6TOSDI   
AWY DCT   YY10415290455191+40583500-006302444+39821667-007654167FL245     1 6BARDI    6ABRAT   
AWY DCT   YY10455830457671+38665001-007918611+36772499-013675277FL245     1 6EVURA    6VERAM   
AWY DCT   YY10455830456791+38665001-007918611+36325558-012973334FL245     1 6EVURA    6NASAS   
AWY DCT   YY10455830456781+38665001-007918611+36056389-012558055FL245     1 6EVURA    6NARTA   
AWY DCT   YY10455830455501+38665001-007918611+35966667-011448332FL245     1 6EVURA    6BEXAL   
AWY DCT   YY10414600455190+40017666-006373639+39821667-007654167FL245     1 6ADINO    6ABRAT   
AWY DCT   YY10455190455831+39821667-007654167+38665001-007918611FL245     1 6ABRAT    6EVURA   
AWY DCT   YY10457070455191+41851112-008597778+39821667-007654167FL245     1 6PINEK    6ABRAT   
AWY DCT   YY10455780455191+37416668-007614721+39821667-007654167FL245     1 6ERTIS    6ABRAT   
AWY DCT   YY10457280455190+41823612-008199443+39821667-007654167FL245     1 6RITUS    6ABRAT   
AWY DCT   YY10455790455190+41789165-007730000+39821667-007654167FL245     1 6ETAKA    6ABRAT   
AWY DCT   YY10455220455190+41751110-007236111+39821667-007654167FL245     1 6ABUPI    6ABRAT   
AWY DCT   YY10455190455410+39821667-007654167+41730556-006981667FL245     1 6ABRAT    6BALNO   
AWY DCT   YY10455460455190+41700558-006621944+39821667-007654167FL245     1 6BATAX    6ABRAT   
AWY DCT   YY10456530455191+38037498-007222777+39821667-007654167FL245     1 6LASIB    6ABRAT   
AWY DCT   YY10456780419531+36056389-012558055+36026669-007383333FL245     1 6NARTA    6ORTOP   
AWY DCT   YY10456230457571+39000000-015000000+38179443-010000000FL245     1 6GUNTI    6UNPOT   
AWY DCT   YY10456480457571+38000000-015000000+38179443-010000000FL245     1 6KOMUT    6UNPOT   
AWY DCT   YY10456780456571+36056389-012558055+38000000-009590832FL245     1 6NARTA    6LIGRA   
AWY DCT   YY10455280457090+35966667-008949999+36833336-007383333FL245     1 6AKUDA    6PIREN   
AWY DCT   YY10457090455321+36833336-007383333+35966667-007883334FL245     1 6PIREN    6AMSEL   
AWY DCT   YY10457090456981+36833336-007383333+35966667-008314166FL245     1 6PIREN    6OSLAD   
AWY DCT   YY10457090243961+36833336-007383333+35966667-009372011FL245     1 6PIREN    6TAKAV   
AWY DCT   YY10457090455451+36833336-007383333+35966667-010023332FL245     1 6PIREN    6BAROK   
AWY DCT   YY10457090455501+36833336-007383333+35966667-011448332FL245     1 6PIREN    6BEXAL   
AWY DCT   YY10457090456781+36833336-007383333+36056389-012558055FL245     1 6PIREN    6NARTA   
AWY DCT   YY10457090456791+36833336-007383333+36325558-012973334FL245     1 6PIREN    6NASAS   
AWY DCT   YY10455320419850+35966667-007883334+37036694-007383333FL245     1 6AMSEL    6PESAS   
AWY DCT   YY10456980419850+35966667-008314166+37036694-007383333FL245     1 6OSLAD    6PESAS   
AWY DCT   YY10455280419850+35966667-008949999+37036694-007383333FL245     1 6AKUDA    6PESAS   
AWY DCT   YY10243960419850+35966667-009372011+37036694-007383333FL245     1 6TAKAV    6PESAS   
AWY DCT   YY10455450419850+35966667-010023332+37036694-007383333FL245     1 6BAROK    6PESAS   
AWY DCT   YY10455500419850+35966667-011448332+37036694-007383333FL245     1 6BEXAL    6PESAS   
AWY DCT   YY10456780419850+36056389-012558055+37036694-007383333FL245     1 6NARTA    6PESAS   
AWY DCT   YY10456790419850+36325558-012973334+37036694-007383333FL245     1 6NASAS    6PESAS   
AWY DCT   YY10457670419850+36772499-013675277+37036694-007383333FL245     1 6VERAM    6PESAS   
AWY DCT   YY10421570455321+37076111-007383333+35966667-007883334FL245     1 6TUPIX    6AMSEL   
AWY DCT   YY10421570456981+37076111-007383333+35966667-008314166FL245     1 6TUPIX    6OSLAD   
AWY DCT   YY10421570243961+37076111-007383333+35966667-009372011FL245     1 6TUPIX    6TAKAV   
AWY DCT   YY10421570455451+37076111-007383333+35966667-010023332FL245     1 6TUPIX    6BAROK   
AWY DCT   YY10421570455501+37076111-007383333+35966667-011448332FL245     1 6TUPIX    6BEXAL   
AWY DCT   YY10421570456781+37076111-007383333+36056389-012558055FL245     1 6TUPIX    6NARTA   
AWY DCT   YY10421570456791+37076111-007383333+36325558-012973334FL245     1 6TUPIX    6NASAS   
AWY DCT   YY10421570457671+37076111-007383333+36772499-013675277FL245     1 6TUPIX    6VERAM   
AWY DCT   YY10455280421570+35966667-008949999+37076111-007383333FL245     1 6AKUDA    6TUPIX   
AWY DCT   YY10455280418710+35966667-008949999+37128807-007383333FL245     1 6AKUDA    6MINTA   
AWY DCT   YY10418710455321+37128807-007383333+35966667-007883334FL245     1 6MINTA    6AMSEL   
AWY DCT   YY10418710456981+37128807-007383333+35966667-008314166FL245     1 6MINTA    6OSLAD   
AWY DCT   YY10418710243961+37128807-007383333+35966667-009372011FL245     1 6MINTA    6TAKAV   
AWY DCT   YY10418710455451+37128807-007383333+35966667-010023332FL245     1 6MINTA    6BAROK   
AWY DCT   YY10418710455501+37128807-007383333+35966667-011448332FL245     1 6MINTA    6BEXAL   
AWY DCT   YY10418710456781+37128807-007383333+36056389-012558055FL245     1 6MINTA    6NARTA   
AWY DCT   YY10418710456791+37128807-007383333+36325558-012973334FL245     1 6MINTA    6NASAS   
AWY DCT   YY10418710457671+37128807-007383333+36772499-013675277FL245     1 6MINTA    6VERAM   
AWY DCT   YY10419190455321+37245861-007428500+35966667-007883334FL245     1 6NIRAK    6AMSEL   
AWY DCT   YY10419190456981+37245861-007428500+35966667-008314166FL245     1 6NIRAK    6OSLAD   
AWY DCT   YY10455280419190+35966667-008949999+37245861-007428500FL245     1 6AKUDA    6NIRAK   
AWY DCT   YY10419190243961+37245861-007428500+35966667-009372011FL245     1 6NIRAK    6TAKAV   
AWY DCT   YY10419190455451+37245861-007428500+35966667-010023332FL245     1 6NIRAK    6BAROK   
AWY DCT   YY10419190455501+37245861-007428500+35966667-011448332FL245     1 6NIRAK    6BEXAL   
AWY DCT   YY10419190456781+37245861-007428500+36056389-012558055FL245     1 6NIRAK    6NARTA   
AWY DCT   YY10419190456791+37245861-007428500+36325558-012973334FL245     1 6NIRAK    6NASAS   
AWY DCT   YY10419190457671+37245861-007428500+36772499-013675277FL245     1 6NIRAK    6VERAM   
AWY DCT   YY10455280456530+35966667-008949999+38037498-007222777FL245     1 6AKUDA    6LASIB   
AWY DCT   YY10456530243961+38037498-007222777+35966667-009372011FL245     1 6LASIB    6TAKAV   
AWY DCT   YY10456530455501+38037498-007222777+35966667-011448332FL245     1 6LASIB    6BEXAL   
AWY DCT   YY10456530455451+38037498-007222777+35966667-010023332FL245     1 6LASIB    6BAROK   
AWY DCT   YY10456530457671+38037498-007222777+36772499-013675277FL245     1 6LASIB    6VERAM   
AWY DCT   YY10456530456781+38037498-007222777+36056389-012558055FL245     1 6LASIB    6NARTA   
AWY DCT   YY10456530456791+38037498-007222777+36325558-012973334FL245     1 6LASIB    6NASAS   
AWY DCT   YY11992270420120+39524502-006434721+39330082-007302583FL245     1 4CCS      6PORTA   
AWY DCT   YY10420120419360+39330082-007302583+39801666-006400528FL245     1 6PORTA    6OGERO   
AWY DCT   YY10420120421670+39330082-007302583+39859806-006393305FL245     1 6PORTA    6UREDI   
AWY DCT   YY10456790419360+36325558-012973334+39801666-006400528FL245     1 6NASAS    6OGERO   
AWY DCT   YY10456790421670+36325558-012973334+39859806-006393305FL245     1 6NASAS    6UREDI   
AWY DCT   YY10457670419360+36772499-013675277+39801666-006400528FL245     1 6VERAM    6OGERO   
AWY DCT   YY10457670421670+36772499-013675277+39859806-006393305FL245     1 6VERAM    6UREDI   
AWY DCT   YY10414600455500+40017666-006373639+35966667-011448332FL245     1 6ADINO    6BEXAL   
AWY DCT   YY10414600456780+40017666-006373639+36056389-012558055FL245     1 6ADINO    6NARTA   
AWY DCT   YY10414600456790+40017666-006373639+36325558-012973334FL245     1 6ADINO    6NASAS   
AWY DCT   YY10414600457670+40017666-006373639+36772499-013675277FL245     1 6ADINO    6VERAM   
AWY DCT   YY10415290457371+40583500-006302444+36500000-010000000FL245     1 6BARDI    6SONAP   
AWY DCT   YY10415290455501+40583500-006302444+35966667-011448332FL245     1 6BARDI    6BEXAL   
AWY DCT   YY10415290456781+40583500-006302444+36056389-012558055FL245     1 6BARDI    6NARTA   
AWY DCT   YY10415290456791+40583500-006302444+36325558-012973334FL245     1 6BARDI    6NASAS   
AWY DCT   YY10415290457671+40583500-006302444+36772499-013675277FL245     1 6BARDI    6VERAM   
AWY DCT   YY10455280420120+35966667-008949999+39330082-007302583FL245     1 6AKUDA    6PORTA   
AWY DCT   YY10243960420120+35966667-009372011+39330082-007302583FL245     1 6TAKAV    6PORTA   
AWY DCT   YY10457370421510+36500000-010000000+40990780-006288610FL245     1 6SONAP    6TOSDI   
AWY DCT   YY10455500421510+35966667-011448332+40990780-006288610FL245     1 6BEXAL    6TOSDI   
AWY DCT   YY10456780421510+36056389-012558055+40990780-006288610FL245     1 6NARTA    6TOSDI   
AWY DCT   YY10456790421510+36325558-012973334+40990780-006288610FL245     1 6NASAS    6TOSDI   
AWY DCT   YY10457670421510+36772499-013675277+40990780-006288610FL245     1 6VERAM    6TOSDI   
AWY DCT   YY10416420455781+41925694-009362000+37416668-007614721FL245     1 6DEMOS    6ERTIS   
AWY DCT   YY10414670455781+41872890-008926694+37416668-007614721FL245     1 6AGADO    6ERTIS   
AWY DCT   YY10455220414620+41751110-007236111+41483002-006280000FL245     1 6ABUPI    6ADORO   
AWY DCT   YY10455220421510+41751110-007236111+40990780-006288610FL245     1 6ABUPI    6TOSDI   
AWY DCT   YY10455220415290+41751110-007236111+40583500-006302444FL245     1 6ABUPI    6BARDI   
AWY DCT   YY10455220421670+41751110-007236111+39859806-006393305FL245     1 6ABUPI    6UREDI   
AWY DCT   YY10455220419360+41751110-007236111+39801666-006400528FL245     1 6ABUPI    6OGERO   
AWY DCT   YY10455220243960+41751110-007236111+35966667-009372011FL245     1 6ABUPI    6TAKAV   
AWY DCT   YY10455220457370+41751110-007236111+36500000-010000000FL245     1 6ABUPI    6SONAP   
AWY DCT   YY10455220456780+41751110-007236111+36056389-012558055FL245     1 6ABUPI    6NARTA   
AWY DCT   YY10455220456790+41751110-007236111+36325558-012973334FL245     1 6ABUPI    6NASAS   
AWY DCT   YY10455220457670+41751110-007236111+36772499-013675277FL245     1 6ABUPI    6VERAM   
AWY DCT   YY10455220456880+41751110-007236111+36657223-014245833FL245     1 6ABUPI    6OBESA   
AWY DCT   YY10455790414620+41789165-007730000+41483002-006280000FL245     1 6ETAKA    6ADORO   
AWY DCT   YY10455790421510+41789165-007730000+40990780-006288610FL245     1 6ETAKA    6TOSDI   
AWY DCT   YY10455790415290+41789165-007730000+40583500-006302444FL245     1 6ETAKA    6BARDI   
AWY DCT   YY10455790421670+41789165-007730000+39859806-006393305FL245     1 6ETAKA    6UREDI   
AWY DCT   YY10455790419360+41789165-007730000+39801666-006400528FL245     1 6ETAKA    6OGERO   
AWY DCT   YY10455790455780+41789165-007730000+37416668-007614721FL245     1 6ETAKA    6ERTIS   
AWY DCT   YY10455790243960+41789165-007730000+35966667-009372011FL245     1 6ETAKA    6TAKAV   
AWY DCT   YY10455790457370+41789165-007730000+36500000-010000000FL245     1 6ETAKA    6SONAP   
AWY DCT   YY10455790456780+41789165-007730000+36056389-012558055FL245     1 6ETAKA    6NARTA   
AWY DCT   YY10455790456790+41789165-007730000+36325558-012973334FL245     1 6ETAKA    6NASAS   
AWY DCT   YY10455790457670+41789165-007730000+36772499-013675277FL245     1 6ETAKA    6VERAM   
AWY DCT   YY10455790456880+41789165-007730000+36657223-014245833FL245     1 6ETAKA    6OBESA   
AWY DCT   YY10457280414620+41823612-008199443+41483002-006280000FL245     1 6RITUS    6ADORO   
AWY DCT   YY10457280421510+41823612-008199443+40990780-006288610FL245     1 6RITUS    6TOSDI   
AWY DCT   YY10457280415290+41823612-008199443+40583500-006302444FL245     1 6RITUS    6BARDI   
AWY DCT   YY10457280421670+41823612-008199443+39859806-006393305FL245     1 6RITUS    6UREDI   
AWY DCT   YY10457280419360+41823612-008199443+39801666-006400528FL245     1 6RITUS    6OGERO   
AWY DCT   YY10457280456530+41823612-008199443+38037498-007222777FL245     1 6RITUS    6LASIB   
AWY DCT   YY10455780419530+37416668-007614721+36026669-007383333FL245     1 6ERTIS    6ORTOP   
AWY DCT   YY10457280455780+41823612-008199443+37416668-007614721FL245     1 6RITUS    6ERTIS   
AWY DCT   YY10457280455320+41823612-008199443+35966667-007883334FL245     1 6RITUS    6AMSEL   
AWY DCT   YY10457280456980+41823612-008199443+35966667-008314166FL245     1 6RITUS    6OSLAD   
AWY DCT   YY10457280243960+41823612-008199443+35966667-009372011FL245     1 6RITUS    6TAKAV   
AWY DCT   YY10457280457370+41823612-008199443+36500000-010000000FL245     1 6RITUS    6SONAP   
AWY DCT   YY10457280455500+41823612-008199443+35966667-011448332FL245     1 6RITUS    6BEXAL   
AWY DCT   YY10457280456780+41823612-008199443+36056389-012558055FL245     1 6RITUS    6NARTA   
AWY DCT   YY10457280456790+41823612-008199443+36325558-012973334FL245     1 6RITUS    6NASAS   
AWY DCT   YY10457280457670+41823612-008199443+36772499-013675277FL245     1 6RITUS    6VERAM   
AWY DCT   YY10457280456880+41823612-008199443+36657223-014245833FL245     1 6RITUS    6OBESA   
AWY DCT   YY10457070414621+41851112-008597778+41483002-006280000FL245     1 6PINEK    6ADORO   
AWY DCT   YY10414940457070+41173279-006282332+41851112-008597778FL245     1 6ARDID    6PINEK   
AWY DCT   YY10457070421510+41851112-008597778+40990780-006288610FL245     1 6PINEK    6TOSDI   
AWY DCT   YY10457070415291+41851112-008597778+40583500-006302444FL245     1 6PINEK    6BARDI   
AWY DCT   YY10414600457070+40017666-006373639+41851112-008597778FL245     1 6ADINO    6PINEK   
AWY DCT   YY10457070421670+41851112-008597778+39859806-006393305FL245     1 6PINEK    6UREDI   
AWY DCT   YY10457070419360+41851112-008597778+39801666-006400528FL245     1 6PINEK    6OGERO   
AWY DCT   YY11992270457070+39524502-006434721+41851112-008597778FL245     1 4CCS      6PINEK   
AWY DCT   YY10457070456531+41851112-008597778+38037498-007222777FL245     1 6PINEK    6LASIB   
AWY DCT   YY10455780419850+37416668-007614721+37036694-007383333FL245     1 6ERTIS    6PESAS   
AWY DCT   YY10455780457091+37416668-007614721+36833336-007383333FL245     1 6ERTIS    6PIREN   
AWY DCT   YY10455780421571+37416668-007614721+37076111-007383333FL245     1 6ERTIS    6TUPIX   
AWY DCT   YY10455780418711+37416668-007614721+37128807-007383333FL245     1 6ERTIS    6MINTA   
AWY DCT   YY10455780419191+37416668-007614721+37245861-007428500FL245     1 6ERTIS    6NIRAK   
AWY DCT   YY10457070455781+41851112-008597778+37416668-007614721FL245     1 6PINEK    6ERTIS   
AWY DCT   YY10457070419531+41851112-008597778+36026669-007383333FL245     1 6PINEK    6ORTOP   
AWY DCT   YY10457070243961+41851112-008597778+35966667-009372011FL245     1 6PINEK    6TAKAV   
AWY DCT   YY10457070457371+41851112-008597778+36500000-010000000FL245     1 6PINEK    6SONAP   
AWY DCT   YY10457070456881+41851112-008597778+36657223-014245833FL245     1 6PINEK    6OBESA   
AWY DCT   YY10457070457671+41851112-008597778+36772499-013675277FL245     1 6PINEK    6VERAM   
AWY DCT   YY10457070456781+41851112-008597778+36056389-012558055FL245     1 6PINEK    6NARTA   
AWY DCT   YY10457070456791+41851112-008597778+36325558-012973334FL245     1 6PINEK    6NASAS   
AWY DCT   YY10455790455500+41789165-007730000+35966667-011448332FL245     1 6ETAKA    6BEXAL   
AWY DCT   YY10455790456980+41789165-007730000+35966667-008314166FL245     1 6ETAKA    6OSLAD   
AWY DCT   YY10455790455320+41789165-007730000+35966667-007883334FL245     1 6ETAKA    6AMSEL   
AWY DCT   YY10455220455500+41751110-007236111+35966667-011448332FL245     1 6ABUPI    6BEXAL   
AWY DCT   YY10455220456980+41751110-007236111+35966667-008314166FL245     1 6ABUPI    6OSLAD   
AWY DCT   YY10457070455501+41851112-008597778+35966667-011448332FL245     1 6PINEK    6BEXAL   
AWY DCT   YY10455280457070+35966667-008949999+41851112-008597778FL245     1 6AKUDA    6PINEK   
AWY DCT   YY10457070456981+41851112-008597778+35966667-008314166FL245     1 6PINEK    6OSLAD   
AWY DCT   YY10457070455321+41851112-008597778+35966667-007883334FL245     1 6PINEK    6AMSEL   
AWY DCT   YY10455220455320+41751110-007236111+35966667-007883334FL245     1 6ABUPI    6AMSEL   
AWY DCT   YY10456800457671+35520557-016234443+36772499-013675277FL245     1 6NAVIX    6VERAM   
AWY DCT   YY10240570456790+31421446-016032888+36325558-012973334FL245     1 6BIMBO    6NASAS   
AWY DCT   YY10243250456791+32000000-014801111+36325558-012973334FL245     1 6LEPRU    6NASAS   
AWY DCT   YY10243530456781+33000000-014123333+36056389-012558055FL245     1 6NIPRI    6NARTA   
AWY DCT   YY10243630456781+34000000-013427222+36056389-012558055FL245     1 6OGDOR    6NARTA   
AWY DCT   YY10242580456781+35000000-012711667+36056389-012558055FL245     1 6ASGAM    6NARTA   
AWY DCT   YY10457400456781+35546391-012312500+36056389-012558055FL245     1 6SUBAL    6NARTA   
AWY DCT   YY10456380457671+33924999-018069166+36772499-013675277FL245     1 6IRKID    6VERAM   
AWY DCT   YY10456670456791+36194443-015390277+36325558-012973334FL245     1 6MANOX    6NASAS   
AWY DCT   YY10456800456791+35520557-016234443+36325558-012973334FL245     1 6NAVIX    6NASAS   
AWY DCT   YY10455160456791+32331111-018130277+36325558-012973334FL245     1 6ABALO    6NASAS   
AWY DCT   YY10240570456780+31421446-016032888+36056389-012558055FL245     1 6BIMBO    6NARTA   
AWY DCT   YY10455430419871+42000000-015000000+42678917-012000000FL245     1 6BANAL    6PETEK   
AWY DCT   YY10455430420471+42000000-015000000+42283054-010816194FL245     1 6BANAL    6RIPEL   
AWY DCT   YY10455430422131+42000000-015000000+42023888-010067972FL245     1 6BANAL    6XERES   
AWY DCT   YY10455430456531+42000000-015000000+38037498-007222777FL245     1 6BANAL    6LASIB   
AWY DCT   YY10455430418711+42000000-015000000+37128807-007383333FL245     1 6BANAL    6MINTA   
AWY DCT   YY10455430421571+42000000-015000000+37076111-007383333FL245     1 6BANAL    6TUPIX   
AWY DCT   YY10455430419850+42000000-015000000+37036694-007383333FL245     1 6BANAL    6PESAS   
AWY DCT   YY10455430419531+42000000-015000000+36026669-007383333FL245     1 6BANAL    6ORTOP   
AWY DCT   YY10455430455321+42000000-015000000+35966667-007883334FL245     1 6BANAL    6AMSEL   
AWY DCT   YY10455430456981+42000000-015000000+35966667-008314166FL245     1 6BANAL    6OSLAD   
AWY DCT   YY10455580420371+41000000-015000000+43000000-013000000FL245     1 6DETOX    6RETEN   
AWY DCT   YY10455580419871+41000000-015000000+42678917-012000000FL245     1 6DETOX    6PETEK   
AWY DCT   YY10455580420471+41000000-015000000+42283054-010816194FL245     1 6DETOX    6RIPEL   
AWY DCT   YY10455580422131+41000000-015000000+42023888-010067972FL245     1 6DETOX    6XERES   
AWY DCT   YY10455580416421+41000000-015000000+41925694-009362000FL245     1 6DETOX    6DEMOS   
AWY DCT   YY10455580414671+41000000-015000000+41872890-008926694FL245     1 6DETOX    6AGADO   
AWY DCT   YY10455790455580+41789165-007730000+41000000-015000000FL245     1 6ETAKA    6DETOX   
AWY DCT   YY10455580456531+41000000-015000000+38037498-007222777FL245     1 6DETOX    6LASIB   
AWY DCT   YY10455580418711+41000000-015000000+37128807-007383333FL245     1 6DETOX    6MINTA   
AWY DCT   YY10455580421571+41000000-015000000+37076111-007383333FL245     1 6DETOX    6TUPIX   
AWY DCT   YY10455580419850+41000000-015000000+37036694-007383333FL245     1 6DETOX    6PESAS   
AWY DCT   YY10455580419531+41000000-015000000+36026669-007383333FL245     1 6DETOX    6ORTOP   
AWY DCT   YY10455580455321+41000000-015000000+35966667-007883334FL245     1 6DETOX    6AMSEL   
AWY DCT   YY10455580456981+41000000-015000000+35966667-008314166FL245     1 6DETOX    6OSLAD   
AWY DCT   YY10455770420371+40000000-015000000+43000000-013000000FL245     1 6ERPES    6RETEN   
AWY DCT   YY10455770419871+40000000-015000000+42678917-012000000FL245     1 6ERPES    6PETEK   
AWY DCT   YY10455770420471+40000000-015000000+42283054-010816194FL245     1 6ERPES    6RIPEL   
AWY DCT   YY10455770422131+40000000-015000000+42023888-010067972FL245     1 6ERPES    6XERES   
AWY DCT   YY10455770416421+40000000-015000000+41925694-009362000FL245     1 6ERPES    6DEMOS   
AWY DCT   YY10455770414671+40000000-015000000+41872890-008926694FL245     1 6ERPES    6AGADO   
AWY DCT   YY10455790455770+41789165-007730000+40000000-015000000FL245     1 6ETAKA    6ERPES   
AWY DCT   YY10455770456531+40000000-015000000+38037498-007222777FL245     1 6ERPES    6LASIB   
AWY DCT   YY10455770418711+40000000-015000000+37128807-007383333FL245     1 6ERPES    6MINTA   
AWY DCT   YY10455770421571+40000000-015000000+37076111-007383333FL245     1 6ERPES    6TUPIX   
AWY DCT   YY10455770419850+40000000-015000000+37036694-007383333FL245     1 6ERPES    6PESAS   
AWY DCT   YY10455770419531+40000000-015000000+36026669-007383333FL245     1 6ERPES    6ORTOP   
AWY DCT   YY10456230420371+39000000-015000000+43000000-013000000FL245     1 6GUNTI    6RETEN   
AWY DCT   YY10456230419871+39000000-015000000+42678917-012000000FL245     1 6GUNTI    6PETEK   
AWY DCT   YY10456230420471+39000000-015000000+42283054-010816194FL245     1 6GUNTI    6RIPEL   
AWY DCT   YY10456230422131+39000000-015000000+42023888-010067972FL245     1 6GUNTI    6XERES   
AWY DCT   YY10456230416421+39000000-015000000+41925694-009362000FL245     1 6GUNTI    6DEMOS   
AWY DCT   YY10456230414671+39000000-015000000+41872890-008926694FL245     1 6GUNTI    6AGADO   
AWY DCT   YY10455790456230+41789165-007730000+39000000-015000000FL245     1 6ETAKA    6GUNTI   
AWY DCT   YY10456230456531+39000000-015000000+38037498-007222777FL245     1 6GUNTI    6LASIB   
AWY DCT   YY10456230418711+39000000-015000000+37128807-007383333FL245     1 6GUNTI    6MINTA   
AWY DCT   YY10456230421571+39000000-015000000+37076111-007383333FL245     1 6GUNTI    6TUPIX   
AWY DCT   YY10456230419850+39000000-015000000+37036694-007383333FL245     1 6GUNTI    6PESAS   
AWY DCT   YY10456230455451+39000000-015000000+35966667-010023332FL245     1 6GUNTI    6BAROK   
AWY DCT   YY10456230455501+39000000-015000000+35966667-011448332FL245     1 6GUNTI    6BEXAL   
AWY DCT   YY10455770455451+40000000-015000000+35966667-010023332FL245     1 6ERPES    6BAROK   
AWY DCT   YY10455770455501+40000000-015000000+35966667-011448332FL245     1 6ERPES    6BEXAL   
AWY DCT   YY10455580455451+41000000-015000000+35966667-010023332FL245     1 6DETOX    6BAROK   
AWY DCT   YY10455580455501+41000000-015000000+35966667-011448332FL245     1 6DETOX    6BEXAL   
AWY DCT   YY10455430455451+42000000-015000000+35966667-010023332FL245     1 6BANAL    6BAROK   
AWY DCT   YY10455430455501+42000000-015000000+35966667-011448332FL245     1 6BANAL    6BEXAL   
AWY DCT   YY10456480420371+38000000-015000000+43000000-013000000FL245     1 6KOMUT    6RETEN   
AWY DCT   YY10456480419871+38000000-015000000+42678917-012000000FL245     1 6KOMUT    6PETEK   
AWY DCT   YY10456480420471+38000000-015000000+42283054-010816194FL245     1 6KOMUT    6RIPEL   
AWY DCT   YY10456480422131+38000000-015000000+42023888-010067972FL245     1 6KOMUT    6XERES   
AWY DCT   YY10456480416421+38000000-015000000+41925694-009362000FL245     1 6KOMUT    6DEMOS   
AWY DCT   YY10456480414671+38000000-015000000+41872890-008926694FL245     1 6KOMUT    6AGADO   
AWY DCT   YY10455790456480+41789165-007730000+38000000-015000000FL245     1 6ETAKA    6KOMUT   
AWY DCT   YY10456620420371+37000000-015000000+43000000-013000000FL245     1 6LUTAK    6RETEN   
AWY DCT   YY10456620416421+37000000-015000000+41925694-009362000FL245     1 6LUTAK    6DEMOS   
AWY DCT   YY10456620414671+37000000-015000000+41872890-008926694FL245     1 6LUTAK    6AGADO   
AWY DCT   YY10455790456620+41789165-007730000+37000000-015000000FL245     1 6ETAKA    6LUTAK   
AWY DCT   YY10456480456531+38000000-015000000+38037498-007222777FL245     1 6KOMUT    6LASIB   
AWY DCT   YY10456480418711+38000000-015000000+37128807-007383333FL245     1 6KOMUT    6MINTA   
AWY DCT   YY10456480421571+38000000-015000000+37076111-007383333FL245     1 6KOMUT    6TUPIX   
AWY DCT   YY10456480419850+38000000-015000000+37036694-007383333FL245     1 6KOMUT    6PESAS   
AWY DCT   YY10456480455451+38000000-015000000+35966667-010023332FL245     1 6KOMUT    6BAROK   
AWY DCT   YY10456480455501+38000000-015000000+35966667-011448332FL245     1 6KOMUT    6BEXAL   
AWY DCT   YY10456620456531+37000000-015000000+38037498-007222777FL245     1 6LUTAK    6LASIB   
AWY DCT   YY10456620418711+37000000-015000000+37128807-007383333FL245     1 6LUTAK    6MINTA   
AWY DCT   YY10456620421571+37000000-015000000+37076111-007383333FL245     1 6LUTAK    6TUPIX   
AWY DCT   YY10456620419850+37000000-015000000+37036694-007383333FL245     1 6LUTAK    6PESAS   
AWY DCT   YY10456380241390+33924999-018069166+31682917-017457000FL245     1 6IRKID    6NELSO   
AWY DCT   YY10456800241390+35520557-016234443+31682917-017457000FL245     1 6NAVIX    6NELSO   
AWY DCT   YY10456380241490+33924999-018069166+31406944-016556917FL245     1 6IRKID    6ORTIS   
AWY DCT   YY10456800241490+35520557-016234443+31406944-016556917FL245     1 6NAVIX    6ORTIS   
AWY DCT   YY10240570455160+31421446-016032888+32331111-018130277FL245     1 6BIMBO    6ABALO   
AWY DCT   YY10240570456380+31421446-016032888+33924999-018069166FL245     1 6BIMBO    6IRKID   
AWY DCT   YY10240570456800+31421446-016032888+35520557-016234443FL245     1 6BIMBO    6NAVIX   
AWY DCT   YY10456620419360+37000000-015000000+39801666-006400528FL245     1 6LUTAK    6OGERO   
AWY DCT   YY10456480419360+38000000-015000000+39801666-006400528FL245     1 6KOMUT    6OGERO   
AWY DCT   YY10456230419360+39000000-015000000+39801666-006400528FL245     1 6GUNTI    6OGERO   
AWY DCT   YY10455770419360+40000000-015000000+39801666-006400528FL245     1 6ERPES    6OGERO   
AWY DCT   YY10455580419360+41000000-015000000+39801666-006400528FL245     1 6DETOX    6OGERO   
AWY DCT   YY10455430419360+42000000-015000000+39801666-006400528FL245     1 6BANAL    6OGERO   
AWY DCT   YY10455430421670+42000000-015000000+39859806-006393305FL245     1 6BANAL    6UREDI   
AWY DCT   YY10455580421670+41000000-015000000+39859806-006393305FL245     1 6DETOX    6UREDI   
AWY DCT   YY10455770421670+40000000-015000000+39859806-006393305FL245     1 6ERPES    6UREDI   
AWY DCT   YY10456230421670+39000000-015000000+39859806-006393305FL245     1 6GUNTI    6UREDI   
AWY DCT   YY10456480421670+38000000-015000000+39859806-006393305FL245     1 6KOMUT    6UREDI   
AWY DCT   YY10456620421670+37000000-015000000+39859806-006393305FL245     1 6LUTAK    6UREDI   
AWY DCT   YY10414600455430+40017666-006373639+42000000-015000000FL245     1 6ADINO    6BANAL   
AWY DCT   YY10414600455580+40017666-006373639+41000000-015000000FL245     1 6ADINO    6DETOX   
AWY DCT   YY10414600455770+40017666-006373639+40000000-015000000FL245     1 6ADINO    6ERPES   
AWY DCT   YY10414600456230+40017666-006373639+39000000-015000000FL245     1 6ADINO    6GUNTI   
AWY DCT   YY10414600456480+40017666-006373639+38000000-015000000FL245     1 6ADINO    6KOMUT   
AWY DCT   YY10414600456620+40017666-006373639+37000000-015000000FL245     1 6ADINO    6LUTAK   
AWY DCT   YY10455430415291+42000000-015000000+40583500-006302444FL245     1 6BANAL    6BARDI   
AWY DCT   YY10455580415291+41000000-015000000+40583500-006302444FL245     1 6DETOX    6BARDI   
AWY DCT   YY10455770415291+40000000-015000000+40583500-006302444FL245     1 6ERPES    6BARDI   
AWY DCT   YY10456230415291+39000000-015000000+40583500-006302444FL245     1 6GUNTI    6BARDI   
AWY DCT   YY10456480415291+38000000-015000000+40583500-006302444FL245     1 6KOMUT    6BARDI   
AWY DCT   YY10456620415291+37000000-015000000+40583500-006302444FL245     1 6LUTAK    6BARDI   
AWY DCT   YY10455430421510+42000000-015000000+40990780-006288610FL245     1 6BANAL    6TOSDI   
AWY DCT   YY10455580421510+41000000-015000000+40990780-006288610FL245     1 6DETOX    6TOSDI   
AWY DCT   YY10455770421510+40000000-015000000+40990780-006288610FL245     1 6ERPES    6TOSDI   
AWY DCT   YY10456230421510+39000000-015000000+40990780-006288610FL245     1 6GUNTI    6TOSDI   
AWY DCT   YY10456480421510+38000000-015000000+40990780-006288610FL245     1 6KOMUT    6TOSDI   
AWY DCT   YY10456620421510+37000000-015000000+40990780-006288610FL245     1 6LUTAK    6TOSDI   
AWY DCT   YY10414940455430+41173279-006282332+42000000-015000000FL245     1 6ARDID    6BANAL   
AWY DCT   YY10414940455580+41173279-006282332+41000000-015000000FL245     1 6ARDID    6DETOX   
AWY DCT   YY10414940455770+41173279-006282332+40000000-015000000FL245     1 6ARDID    6ERPES   
AWY DCT   YY10414940456230+41173279-006282332+39000000-015000000FL245     1 6ARDID    6GUNTI   
AWY DCT   YY10414940456480+41173279-006282332+38000000-015000000FL245     1 6ARDID    6KOMUT   
AWY DCT   YY10414940456620+41173279-006282332+37000000-015000000FL245     1 6ARDID    6LUTAK   
AWY DCT   YY10455460455580+41700558-006621944+41000000-015000000FL245     1 6BATAX    6DETOX   
AWY DCT   YY10455460455770+41700558-006621944+40000000-015000000FL245     1 6BATAX    6ERPES   
AWY DCT   YY10455460456230+41700558-006621944+39000000-015000000FL245     1 6BATAX    6GUNTI   
AWY DCT   YY10455460456620+41700558-006621944+37000000-015000000FL245     1 6BATAX    6LUTAK   
AWY DCT   YY10456480457071+38000000-015000000+41851112-008597778FL245     1 6KOMUT    6PINEK   
AWY DCT   YY10456620457071+37000000-015000000+41851112-008597778FL245     1 6LUTAK    6PINEK   
AWY DCT   YY10456620414621+37000000-015000000+41483002-006280000FL245     1 6LUTAK    6ADORO   
AWY DCT   YY10456480414621+38000000-015000000+41483002-006280000FL245     1 6KOMUT    6ADORO   
AWY DCT   YY10456230414621+39000000-015000000+41483002-006280000FL245     1 6GUNTI    6ADORO   
AWY DCT   YY10455770414621+40000000-015000000+41483002-006280000FL245     1 6ERPES    6ADORO   
AWY DCT   YY10455580414621+41000000-015000000+41483002-006280000FL245     1 6DETOX    6ADORO   
AWY DCT   YY10455430414621+42000000-015000000+41483002-006280000FL245     1 6BANAL    6ADORO   
AWY DCT   YY10455220455580+41751110-007236111+41000000-015000000FL245     1 6ABUPI    6DETOX   
AWY DCT   YY10455220455770+41751110-007236111+40000000-015000000FL245     1 6ABUPI    6ERPES   
AWY DCT   YY10455220456230+41751110-007236111+39000000-015000000FL245     1 6ABUPI    6GUNTI   
AWY DCT   YY10455220456480+41751110-007236111+38000000-015000000FL245     1 6ABUPI    6KOMUT   
AWY DCT   YY10455220456620+41751110-007236111+37000000-015000000FL245     1 6ABUPI    6LUTAK   
AWY DCT   YY10456620419871+37000000-015000000+42678917-012000000FL245     1 6LUTAK    6PETEK   
AWY DCT   YY10456620420471+37000000-015000000+42283054-010816194FL245     1 6LUTAK    6RIPEL   
AWY DCT   YY10456620422131+37000000-015000000+42023888-010067972FL245     1 6LUTAK    6XERES   
AWY DCT   YY10456670457671+36194443-015390277+36772499-013675277FL245     1 6MANOX    6VERAM   
AWY DCT   YY10456670456781+36194443-015390277+36056389-012558055FL245     1 6MANOX    6NARTA   
AWY DCT   YY10456670457401+36194443-015390277+35546391-012312500FL245     1 6MANOX    6SUBAL   
AWY DCT   YY10456670242581+36194443-015390277+35000000-012711667FL245     1 6MANOX    6ASGAM   
AWY DCT   YY10456670243631+36194443-015390277+34000000-013427222FL245     1 6MANOX    6OGDOR   
AWY DCT   YY10456670243531+36194443-015390277+33000000-014123333FL245     1 6MANOX    6NIPRI   
AWY DCT   YY10456670243251+36194443-015390277+32000000-014801111FL245     1 6MANOX    6LEPRU   
AWY DCT   YY10240570456670+31421446-016032888+36194443-015390277FL245     1 6BIMBO    6MANOX   
AWY DCT   YY10456670241490+36194443-015390277+31406944-016556917FL245     1 6MANOX    6ORTIS   
AWY DCT   YY10456670241390+36194443-015390277+31682917-017457000FL245     1 6MANOX    6NELSO   
AWY DCT   YY10456670455161+36194443-015390277+32331111-018130277FL245     1 6MANOX    6ABALO   
AWY DCT   YY10456800456781+35520557-016234443+36056389-012558055FL245     1 6NAVIX    6NARTA   
AWY DCT   YY10456800457401+35520557-016234443+35546391-012312500FL245     1 6NAVIX    6SUBAL   
AWY DCT   YY10456800242581+35520557-016234443+35000000-012711667FL245     1 6NAVIX    6ASGAM   
AWY DCT   YY10456800243631+35520557-016234443+34000000-013427222FL245     1 6NAVIX    6OGDOR   
AWY DCT   YY10456800243531+35520557-016234443+33000000-014123333FL245     1 6NAVIX    6NIPRI   
AWY DCT   YY10456800243251+35520557-016234443+32000000-014801111FL245     1 6NAVIX    6LEPRU   
AWY DCT   YY10456800455161+35520557-016234443+32331111-018130277FL245     1 6NAVIX    6ABALO   
AWY DCT   YY10456380456791+33924999-018069166+36325558-012973334FL245     1 6IRKID    6NASAS   
AWY DCT   YY10456380456781+33924999-018069166+36056389-012558055FL245     1 6IRKID    6NARTA   
AWY DCT   YY10456380457401+33924999-018069166+35546391-012312500FL245     1 6IRKID    6SUBAL   
AWY DCT   YY10456380242581+33924999-018069166+35000000-012711667FL245     1 6IRKID    6ASGAM   
AWY DCT   YY10456380243631+33924999-018069166+34000000-013427222FL245     1 6IRKID    6OGDOR   
AWY DCT   YY10456380243531+33924999-018069166+33000000-014123333FL245     1 6IRKID    6NIPRI   
AWY DCT   YY10456380243251+33924999-018069166+32000000-014801111FL245     1 6IRKID    6LEPRU   
AWY DCT   YY10456380455161+33924999-018069166+32331111-018130277FL245     1 6IRKID    6ABALO   
AWY DCT   YY10455160457671+32331111-018130277+36772499-013675277FL245     1 6ABALO    6VERAM   
AWY DCT   YY10455160456781+32331111-018130277+36056389-012558055FL245     1 6ABALO    6NARTA   
AWY DCT   YY10455160457401+32331111-018130277+35546391-012312500FL245     1 6ABALO    6SUBAL   
AWY DCT   YY10455160242581+32331111-018130277+35000000-012711667FL245     1 6ABALO    6ASGAM   
AWY DCT   YY10455160243631+32331111-018130277+34000000-013427222FL245     1 6ABALO    6OGDOR   
AWY DCT   YY10455160243531+32331111-018130277+33000000-014123333FL245     1 6ABALO    6NIPRI   
AWY DCT   YY10455160243251+32331111-018130277+32000000-014801111FL245     1 6ABALO    6LEPRU   
AWY DCT   YY10240570241390+31421446-016032888+31682917-017457000FL245     1 6BIMBO    6NELSO   
AWY DCT   YY10240570243250+31421446-016032888+32000000-014801111FL245     1 6BIMBO    6LEPRU   
AWY DCT   YY10240570243530+31421446-016032888+33000000-014123333FL245     1 6BIMBO    6NIPRI   
AWY DCT   YY10240570243630+31421446-016032888+34000000-013427222FL245     1 6BIMBO    6OGDOR   
AWY DCT   YY10240570242580+31421446-016032888+35000000-012711667FL245     1 6BIMBO    6ASGAM   
AWY DCT   YY10240570457400+31421446-016032888+35546391-012312500FL245     1 6BIMBO    6SUBAL   
AWY DCT   YY10240570457670+31421446-016032888+36772499-013675277FL245     1 6BIMBO    6VERAM   
AWY DCT   YY10243250456781+32000000-014801111+36056389-012558055FL245     1 6LEPRU    6NARTA   
AWY DCT   YY10243250457671+32000000-014801111+36772499-013675277FL245     1 6LEPRU    6VERAM   
AWY DCT   YY10243530456791+33000000-014123333+36325558-012973334FL245     1 6NIPRI    6NASAS   
AWY DCT   YY10243530457671+33000000-014123333+36772499-013675277FL245     1 6NIPRI    6VERAM   
AWY DCT   YY10243530456881+33000000-014123333+36657223-014245833FL245     1 6NIPRI    6OBESA   
AWY DCT   YY10243630456881+34000000-013427222+36657223-014245833FL245     1 6OGDOR    6OBESA   
AWY DCT   YY10243630457671+34000000-013427222+36772499-013675277FL245     1 6OGDOR    6VERAM   
AWY DCT   YY10243630456791+34000000-013427222+36325558-012973334FL245     1 6OGDOR    6NASAS   
AWY DCT   YY10242580456791+35000000-012711667+36325558-012973334FL245     1 6ASGAM    6NASAS   
AWY DCT   YY10242580457671+35000000-012711667+36772499-013675277FL245     1 6ASGAM    6VERAM   
AWY DCT   YY10242580456881+35000000-012711667+36657223-014245833FL245     1 6ASGAM    6OBESA   
AWY DCT   YY10457400456791+35546391-012312500+36325558-012973334FL245     1 6SUBAL    6NASAS   
AWY DCT   YY10457400457671+35546391-012312500+36772499-013675277FL245     1 6SUBAL    6VERAM   
AWY DCT   YY10457400456881+35546391-012312500+36657223-014245833FL245     1 6SUBAL    6OBESA   
AWY DCT   YY10456880456671+36657223-014245833+36194443-015390277FL245     1 6OBESA    6MANOX   
AWY DCT   YY10456880456801+36657223-014245833+35520557-016234443FL245     1 6OBESA    6NAVIX   
AWY DCT   YY10456880456381+36657223-014245833+33924999-018069166FL245     1 6OBESA    6IRKID   
AWY DCT   YY10456880455161+36657223-014245833+32331111-018130277FL245     1 6OBESA    6ABALO   
AWY DCT   YY10456880241391+36657223-014245833+31682917-017457000FL245     1 6OBESA    6NELSO   
AWY DCT   YY10456880241491+36657223-014245833+31406944-016556917FL245     1 6OBESA    6ORTIS   
AWY DCT   YY10456880243251+36657223-014245833+32000000-014801111FL245     1 6OBESA    6LEPRU   
AWY DCT   YY10240570456881+31421446-016032888+36657223-014245833FL245     1 6BIMBO    6OBESA   
AWY DCT   YY10456620456881+37000000-015000000+36657223-014245833FL245     1 6LUTAK    6OBESA   
AWY DCT   YY10456620457671+37000000-015000000+36772499-013675277FL245     1 6LUTAK    6VERAM   
AWY DCT   YY10457670455501+36772499-013675277+35966667-011448332FL245     1 6VERAM    6BEXAL   
AWY DCT   YY10457670455451+36772499-013675277+35966667-010023332FL245     1 6VERAM    6BAROK   
AWY DCT   YY10457670457371+36772499-013675277+36500000-010000000FL245     1 6VERAM    6SONAP   
AWY DCT   YY10457370243961+36500000-010000000+35966667-009372011FL245     1 6SONAP    6TAKAV   
AWY DCT   YY10455280457370+35966667-008949999+36500000-010000000FL245     1 6AKUDA    6SONAP   
AWY DCT   YY10457370456981+36500000-010000000+35966667-008314166FL245     1 6SONAP    6OSLAD   
AWY DCT   YY10457370455321+36500000-010000000+35966667-007883334FL245     1 6SONAP    6AMSEL   
AWY DCT   YY10419530457371+36026669-007383333+36500000-010000000FL245     1 6ORTOP    6SONAP   
AWY DCT   YY10456620457091+37000000-015000000+36833336-007383333FL245     1 6LUTAK    6PIREN   
AWY DCT   YY10456620419191+37000000-015000000+37245861-007428500FL245     1 6LUTAK    6NIRAK   
AWY DCT   YY11992270456620+39524502-006434721+37000000-015000000FL245     1 4CCS      6LUTAK   
AWY DCT   YY10456620455410+37000000-015000000+41730556-006981667FL245     1 6LUTAK    6BALNO   
AWY DCT   YY10457280456620+41823612-008199443+37000000-015000000FL245     1 6RITUS    6LUTAK   
AWY DCT   YY10456620455351+37000000-015000000+42500000-014000000FL245     1 6LUTAK    6ARMED   
AWY DCT   YY10456480456881+38000000-015000000+36657223-014245833FL245     1 6KOMUT    6OBESA   
AWY DCT   YY10456480457671+38000000-015000000+36772499-013675277FL245     1 6KOMUT    6VERAM   
AWY DCT   YY10456480457371+38000000-015000000+36500000-010000000FL245     1 6KOMUT    6SONAP   
AWY DCT   YY10456480457091+38000000-015000000+36833336-007383333FL245     1 6KOMUT    6PIREN   
AWY DCT   YY10456480419191+38000000-015000000+37245861-007428500FL245     1 6KOMUT    6NIRAK   
AWY DCT   YY11992270456480+39524502-006434721+38000000-015000000FL245     1 4CCS      6KOMUT   
AWY DCT   YY10456480455460+38000000-015000000+41700558-006621944FL245     1 6KOMUT    6BATAX   
AWY DCT   YY10456480455410+38000000-015000000+41730556-006981667FL245     1 6KOMUT    6BALNO   
AWY DCT   YY10457280456480+41823612-008199443+38000000-015000000FL245     1 6RITUS    6KOMUT   
AWY DCT   YY10456480455351+38000000-015000000+42500000-014000000FL245     1 6KOMUT    6ARMED   
AWY DCT   YY10456230456881+39000000-015000000+36657223-014245833FL245     1 6GUNTI    6OBESA   
AWY DCT   YY10456230457671+39000000-015000000+36772499-013675277FL245     1 6GUNTI    6VERAM   
AWY DCT   YY10456230457371+39000000-015000000+36500000-010000000FL245     1 6GUNTI    6SONAP   
AWY DCT   YY10456230457091+39000000-015000000+36833336-007383333FL245     1 6GUNTI    6PIREN   
AWY DCT   YY10456230419191+39000000-015000000+37245861-007428500FL245     1 6GUNTI    6NIRAK   
AWY DCT   YY11992270456230+39524502-006434721+39000000-015000000FL245     1 4CCS      6GUNTI   
AWY DCT   YY10456230455410+39000000-015000000+41730556-006981667FL245     1 6GUNTI    6BALNO   
AWY DCT   YY10457280456230+41823612-008199443+39000000-015000000FL245     1 6RITUS    6GUNTI   
AWY DCT   YY10456230457071+39000000-015000000+41851112-008597778FL245     1 6GUNTI    6PINEK   
AWY DCT   YY10456230455351+39000000-015000000+42500000-014000000FL245     1 6GUNTI    6ARMED   
AWY DCT   YY10455770456881+40000000-015000000+36657223-014245833FL245     1 6ERPES    6OBESA   
AWY DCT   YY10455770457671+40000000-015000000+36772499-013675277FL245     1 6ERPES    6VERAM   
AWY DCT   YY10455770456791+40000000-015000000+36325558-012973334FL245     1 6ERPES    6NASAS   
AWY DCT   YY10455770456781+40000000-015000000+36056389-012558055FL245     1 6ERPES    6NARTA   
AWY DCT   YY10455770457371+40000000-015000000+36500000-010000000FL245     1 6ERPES    6SONAP   
AWY DCT   YY10455770457091+40000000-015000000+36833336-007383333FL245     1 6ERPES    6PIREN   
AWY DCT   YY10455770419191+40000000-015000000+37245861-007428500FL245     1 6ERPES    6NIRAK   
AWY DCT   YY11992270455770+39524502-006434721+40000000-015000000FL245     1 4CCS      6ERPES   
AWY DCT   YY10455770455410+40000000-015000000+41730556-006981667FL245     1 6ERPES    6BALNO   
AWY DCT   YY10457280455770+41823612-008199443+40000000-015000000FL245     1 6RITUS    6ERPES   
AWY DCT   YY10455770457071+40000000-015000000+41851112-008597778FL245     1 6ERPES    6PINEK   
AWY DCT   YY10455770455351+40000000-015000000+42500000-014000000FL245     1 6ERPES    6ARMED   
AWY DCT   YY10455580456881+41000000-015000000+36657223-014245833FL245     1 6DETOX    6OBESA   
AWY DCT   YY10455580457671+41000000-015000000+36772499-013675277FL245     1 6DETOX    6VERAM   
AWY DCT   YY10455580456791+41000000-015000000+36325558-012973334FL245     1 6DETOX    6NASAS   
AWY DCT   YY10455580456781+41000000-015000000+36056389-012558055FL245     1 6DETOX    6NARTA   
AWY DCT   YY10455580457371+41000000-015000000+36500000-010000000FL245     1 6DETOX    6SONAP   
AWY DCT   YY10455580457091+41000000-015000000+36833336-007383333FL245     1 6DETOX    6PIREN   
AWY DCT   YY10455580419191+41000000-015000000+37245861-007428500FL245     1 6DETOX    6NIRAK   
AWY DCT   YY11992270455580+39524502-006434721+41000000-015000000FL245     1 4CCS      6DETOX   
AWY DCT   YY10455580455410+41000000-015000000+41730556-006981667FL245     1 6DETOX    6BALNO   
AWY DCT   YY10457280455580+41823612-008199443+41000000-015000000FL245     1 6RITUS    6DETOX   
AWY DCT   YY10455580457071+41000000-015000000+41851112-008597778FL245     1 6DETOX    6PINEK   
AWY DCT   YY10455580455351+41000000-015000000+42500000-014000000FL245     1 6DETOX    6ARMED   
AWY DCT   YY10455430456881+42000000-015000000+36657223-014245833FL245     1 6BANAL    6OBESA   
AWY DCT   YY10455430457671+42000000-015000000+36772499-013675277FL245     1 6BANAL    6VERAM   
AWY DCT   YY10455430456791+42000000-015000000+36325558-012973334FL245     1 6BANAL    6NASAS   
AWY DCT   YY10455430456781+42000000-015000000+36056389-012558055FL245     1 6BANAL    6NARTA   
AWY DCT   YY10455430457371+42000000-015000000+36500000-010000000FL245     1 6BANAL    6SONAP   
AWY DCT   YY10455430457091+42000000-015000000+36833336-007383333FL245     1 6BANAL    6PIREN   
AWY DCT   YY10455430419191+42000000-015000000+37245861-007428500FL245     1 6BANAL    6NIRAK   
AWY DCT   YY11992270455430+39524502-006434721+42000000-015000000FL245     1 4CCS      6BANAL   
AWY DCT   YY10455350456881+42500000-014000000+36657223-014245833FL245     1 6ARMED    6OBESA   
AWY DCT   YY10455350457671+42500000-014000000+36772499-013675277FL245     1 6ARMED    6VERAM   
AWY DCT   YY10455350456791+42500000-014000000+36325558-012973334FL245     1 6ARMED    6NASAS   
AWY DCT   YY10455350456781+42500000-014000000+36056389-012558055FL245     1 6ARMED    6NARTA   
AWY DCT   YY10455350455501+42500000-014000000+35966667-011448332FL245     1 6ARMED    6BEXAL   
AWY DCT   YY10455350455451+42500000-014000000+35966667-010023332FL245     1 6ARMED    6BAROK   
AWY DCT   YY10455350456981+42500000-014000000+35966667-008314166FL245     1 6ARMED    6OSLAD   
AWY DCT   YY10455350455321+42500000-014000000+35966667-007883334FL245     1 6ARMED    6AMSEL   
AWY DCT   YY10455350419531+42500000-014000000+36026669-007383333FL245     1 6ARMED    6ORTOP   
AWY DCT   YY10455350457091+42500000-014000000+36833336-007383333FL245     1 6ARMED    6PIREN   
AWY DCT   YY10455350419850+42500000-014000000+37036694-007383333FL245     1 6ARMED    6PESAS   
AWY DCT   YY10455350421571+42500000-014000000+37076111-007383333FL245     1 6ARMED    6TUPIX   
AWY DCT   YY10455350418711+42500000-014000000+37128807-007383333FL245     1 6ARMED    6MINTA   
AWY DCT   YY10455350419191+42500000-014000000+37245861-007428500FL245     1 6ARMED    6NIRAK   
AWY DCT   YY10455350456531+42500000-014000000+38037498-007222777FL245     1 6ARMED    6LASIB   
AWY DCT   YY11992270455350+39524502-006434721+42500000-014000000FL245     1 4CCS      6ARMED   
AWY DCT   YY10455350419360+42500000-014000000+39801666-006400528FL245     1 6ARMED    6OGERO   
AWY DCT   YY10455350421670+42500000-014000000+39859806-006393305FL245     1 6ARMED    6UREDI   
AWY DCT   YY10414600455350+40017666-006373639+42500000-014000000FL245     1 6ADINO    6ARMED   
AWY DCT   YY10455350415291+42500000-014000000+40583500-006302444FL245     1 6ARMED    6BARDI   
AWY DCT   YY10455350421510+42500000-014000000+40990780-006288610FL245     1 6ARMED    6TOSDI   
AWY DCT   YY10414940455350+41173279-006282332+42500000-014000000FL245     1 6ARDID    6ARMED   
AWY DCT   YY10420370456531+43000000-013000000+38037498-007222777FL245     1 6RETEN    6LASIB   
AWY DCT   YY10420370418711+43000000-013000000+37128807-007383333FL245     1 6RETEN    6MINTA   
AWY DCT   YY10420370421571+43000000-013000000+37076111-007383333FL245     1 6RETEN    6TUPIX   
AWY DCT   YY10420370419850+43000000-013000000+37036694-007383333FL245     1 6RETEN    6PESAS   
AWY DCT   YY10420370419531+43000000-013000000+36026669-007383333FL245     1 6RETEN    6ORTOP   
AWY DCT   YY10420370455321+43000000-013000000+35966667-007883334FL245     1 6RETEN    6AMSEL   
AWY DCT   YY10420370456981+43000000-013000000+35966667-008314166FL245     1 6RETEN    6OSLAD   
AWY DCT   YY10455280420371+35966667-008949999+43000000-013000000FL245     1 6AKUDA    6RETEN   
AWY DCT   YY10420370455451+43000000-013000000+35966667-010023332FL245     1 6RETEN    6BAROK   
AWY DCT   YY10420370455501+43000000-013000000+35966667-011448332FL245     1 6RETEN    6BEXAL   
AWY DCT   YY10419870455501+42678917-012000000+35966667-011448332FL245     1 6PETEK    6BEXAL   
AWY DCT   YY10420470455501+42283054-010816194+35966667-011448332FL245     1 6RIPEL    6BEXAL   
AWY DCT   YY10422130455501+42023888-010067972+35966667-011448332FL245     1 6XERES    6BEXAL   
AWY DCT   YY10416420455501+41925694-009362000+35966667-011448332FL245     1 6DEMOS    6BEXAL   
AWY DCT   YY10414670455501+41872890-008926694+35966667-011448332FL245     1 6AGADO    6BEXAL   
AWY DCT   YY10419870455451+42678917-012000000+35966667-010023332FL245     1 6PETEK    6BAROK   
AWY DCT   YY10455280419870+35966667-008949999+42678917-012000000FL245     1 6AKUDA    6PETEK   
AWY DCT   YY10455280420471+35966667-008949999+42283054-010816194FL245     1 6AKUDA    6RIPEL   
AWY DCT   YY10455280422130+35966667-008949999+42023888-010067972FL245     1 6AKUDA    6XERES   
AWY DCT   YY10455280416420+35966667-008949999+41925694-009362000FL245     1 6AKUDA    6DEMOS   
AWY DCT   YY10455280414670+35966667-008949999+41872890-008926694FL245     1 6AKUDA    6AGADO   
AWY DCT   YY10414670456981+41872890-008926694+35966667-008314166FL245     1 6AGADO    6OSLAD   
AWY DCT   YY10416420456981+41925694-009362000+35966667-008314166FL245     1 6DEMOS    6OSLAD   
AWY DCT   YY10422130456981+42023888-010067972+35966667-008314166FL245     1 6XERES    6OSLAD   
AWY DCT   YY10420470456981+42283054-010816194+35966667-008314166FL245     1 6RIPEL    6OSLAD   
AWY DCT   YY10419870456981+42678917-012000000+35966667-008314166FL245     1 6PETEK    6OSLAD   
AWY DCT   YY10414670455321+41872890-008926694+35966667-007883334FL245     1 6AGADO    6AMSEL   
AWY DCT   YY10416420455321+41925694-009362000+35966667-007883334FL245     1 6DEMOS    6AMSEL   
AWY DCT   YY10422130455321+42023888-010067972+35966667-007883334FL245     1 6XERES    6AMSEL   
AWY DCT   YY10420470455321+42283054-010816194+35966667-007883334FL245     1 6RIPEL    6AMSEL   
AWY DCT   YY10419870455321+42678917-012000000+35966667-007883334FL245     1 6PETEK    6AMSEL   
AWY DCT   YY10420370419360+43000000-013000000+39801666-006400528FL245     1 6RETEN    6OGERO   
AWY DCT   YY10420370421670+43000000-013000000+39859806-006393305FL245     1 6RETEN    6UREDI   
AWY DCT   YY10414600420370+40017666-006373639+43000000-013000000FL245     1 6ADINO    6RETEN   
AWY DCT   YY10420370456881+43000000-013000000+36657223-014245833FL245     1 6RETEN    6OBESA   
AWY DCT   YY10420370457671+43000000-013000000+36772499-013675277FL245     1 6RETEN    6VERAM   
AWY DCT   YY10420370456791+43000000-013000000+36325558-012973334FL245     1 6RETEN    6NASAS   
AWY DCT   YY10420370456781+43000000-013000000+36056389-012558055FL245     1 6RETEN    6NARTA   
AWY DCT   YY10420370457371+43000000-013000000+36500000-010000000FL245     1 6RETEN    6SONAP   
AWY DCT   YY10420370457091+43000000-013000000+36833336-007383333FL245     1 6RETEN    6PIREN   
AWY DCT   YY10420370419191+43000000-013000000+37245861-007428500FL245     1 6RETEN    6NIRAK   
AWY DCT   YY11992270420370+39524502-006434721+43000000-013000000FL245     1 4CCS      6RETEN   
AWY DCT   YY10419870456881+42678917-012000000+36657223-014245833FL245     1 6PETEK    6OBESA   
AWY DCT   YY10419870457671+42678917-012000000+36772499-013675277FL245     1 6PETEK    6VERAM   
AWY DCT   YY10419870456791+42678917-012000000+36325558-012973334FL245     1 6PETEK    6NASAS   
AWY DCT   YY10419870456781+42678917-012000000+36056389-012558055FL245     1 6PETEK    6NARTA   
AWY DCT   YY10419870457371+42678917-012000000+36500000-010000000FL245     1 6PETEK    6SONAP   
AWY DCT   YY10419870243961+42678917-012000000+35966667-009372011FL245     1 6PETEK    6TAKAV   
AWY DCT   YY10419870419531+42678917-012000000+36026669-007383333FL245     1 6PETEK    6ORTOP   
AWY DCT   YY10419870457091+42678917-012000000+36833336-007383333FL245     1 6PETEK    6PIREN   
AWY DCT   YY10419870419850+42678917-012000000+37036694-007383333FL245     1 6PETEK    6PESAS   
AWY DCT   YY10419870421571+42678917-012000000+37076111-007383333FL245     1 6PETEK    6TUPIX   
AWY DCT   YY10419870418711+42678917-012000000+37128807-007383333FL245     1 6PETEK    6MINTA   
AWY DCT   YY10419870419191+42678917-012000000+37245861-007428500FL245     1 6PETEK    6NIRAK   
AWY DCT   YY10419870456531+42678917-012000000+38037498-007222777FL245     1 6PETEK    6LASIB   
AWY DCT   YY11992270419870+39524502-006434721+42678917-012000000FL245     1 4CCS      6PETEK   
AWY DCT   YY10419870419360+42678917-012000000+39801666-006400528FL245     1 6PETEK    6OGERO   
AWY DCT   YY10419870421670+42678917-012000000+39859806-006393305FL245     1 6PETEK    6UREDI   
AWY DCT   YY10414600419870+40017666-006373639+42678917-012000000FL245     1 6ADINO    6PETEK   
AWY DCT   YY10420470456881+42283054-010816194+36657223-014245833FL245     1 6RIPEL    6OBESA   
AWY DCT   YY10420470457671+42283054-010816194+36772499-013675277FL245     1 6RIPEL    6VERAM   
AWY DCT   YY10420470456791+42283054-010816194+36325558-012973334FL245     1 6RIPEL    6NASAS   
AWY DCT   YY10420470456781+42283054-010816194+36056389-012558055FL245     1 6RIPEL    6NARTA   
AWY DCT   YY10420470457371+42283054-010816194+36500000-010000000FL245     1 6RIPEL    6SONAP   
AWY DCT   YY10457370455451+36500000-010000000+35966667-010023332FL245     1 6SONAP    6BAROK   
AWY DCT   YY10420470243961+42283054-010816194+35966667-009372011FL245     1 6RIPEL    6TAKAV   
AWY DCT   YY10420470419531+42283054-010816194+36026669-007383333FL245     1 6RIPEL    6ORTOP   
AWY DCT   YY10420470457091+42283054-010816194+36833336-007383333FL245     1 6RIPEL    6PIREN   
AWY DCT   YY10420470419850+42283054-010816194+37036694-007383333FL245     1 6RIPEL    6PESAS   
AWY DCT   YY10420470421571+42283054-010816194+37076111-007383333FL245     1 6RIPEL    6TUPIX   
AWY DCT   YY10420470418711+42283054-010816194+37128807-007383333FL245     1 6RIPEL    6MINTA   
AWY DCT   YY10420470419191+42283054-010816194+37245861-007428500FL245     1 6RIPEL    6NIRAK   
AWY DCT   YY10420470456531+42283054-010816194+38037498-007222777FL245     1 6RIPEL    6LASIB   
AWY DCT   YY11992270420470+39524502-006434721+42283054-010816194FL245     1 4CCS      6RIPEL   
AWY DCT   YY10420470419360+42283054-010816194+39801666-006400528FL245     1 6RIPEL    6OGERO   
AWY DCT   YY10420470421670+42283054-010816194+39859806-006393305FL245     1 6RIPEL    6UREDI   
AWY DCT   YY10414600420470+40017666-006373639+42283054-010816194FL245     1 6ADINO    6RIPEL   
AWY DCT   YY10422130456881+42023888-010067972+36657223-014245833FL245     1 6XERES    6OBESA   
AWY DCT   YY10422130457671+42023888-010067972+36772499-013675277FL245     1 6XERES    6VERAM   
AWY DCT   YY10422130456791+42023888-010067972+36325558-012973334FL245     1 6XERES    6NASAS   
AWY DCT   YY10422130456781+42023888-010067972+36056389-012558055FL245     1 6XERES    6NARTA   
AWY DCT   YY10422130457371+42023888-010067972+36500000-010000000FL245     1 6XERES    6SONAP   
AWY DCT   YY10422130243961+42023888-010067972+35966667-009372011FL245     1 6XERES    6TAKAV   
AWY DCT   YY10422130419531+42023888-010067972+36026669-007383333FL245     1 6XERES    6ORTOP   
AWY DCT   YY10422130456531+42023888-010067972+38037498-007222777FL245     1 6XERES    6LASIB   
AWY DCT   YY11992270422130+39524502-006434721+42023888-010067972FL245     1 4CCS      6XERES   
AWY DCT   YY10422130419360+42023888-010067972+39801666-006400528FL245     1 6XERES    6OGERO   
AWY DCT   YY10422130421670+42023888-010067972+39859806-006393305FL245     1 6XERES    6UREDI   
AWY DCT   YY10414600422130+40017666-006373639+42023888-010067972FL245     1 6ADINO    6XERES   
AWY DCT   YY10422130415291+42023888-010067972+40583500-006302444FL245     1 6XERES    6BARDI   
AWY DCT   YY10422130421510+42023888-010067972+40990780-006288610FL245     1 6XERES    6TOSDI   
AWY DCT   YY10416420457671+41925694-009362000+36772499-013675277FL245     1 6DEMOS    6VERAM   
AWY DCT   YY10416420456881+41925694-009362000+36657223-014245833FL245     1 6DEMOS    6OBESA   
AWY DCT   YY10416420456791+41925694-009362000+36325558-012973334FL245     1 6DEMOS    6NASAS   
AWY DCT   YY10416420456781+41925694-009362000+36056389-012558055FL245     1 6DEMOS    6NARTA   
AWY DCT   YY10416420457371+41925694-009362000+36500000-010000000FL245     1 6DEMOS    6SONAP   
AWY DCT   YY10416420243961+41925694-009362000+35966667-009372011FL245     1 6DEMOS    6TAKAV   
AWY DCT   YY10416420419531+41925694-009362000+36026669-007383333FL245     1 6DEMOS    6ORTOP   
AWY DCT   YY10416420456531+41925694-009362000+38037498-007222777FL245     1 6DEMOS    6LASIB   
AWY DCT   YY11992270416420+39524502-006434721+41925694-009362000FL245     1 4CCS      6DEMOS   
AWY DCT   YY10416420419360+41925694-009362000+39801666-006400528FL245     1 6DEMOS    6OGERO   
AWY DCT   YY10416420421670+41925694-009362000+39859806-006393305FL245     1 6DEMOS    6UREDI   
AWY DCT   YY10414600416420+40017666-006373639+41925694-009362000FL245     1 6ADINO    6DEMOS   
AWY DCT   YY10416420415291+41925694-009362000+40583500-006302444FL245     1 6DEMOS    6BARDI   
AWY DCT   YY10416420421511+41925694-009362000+40990780-006288610FL245     1 6DEMOS    6TOSDI   
AWY DCT   YY10414670456881+41872890-008926694+36657223-014245833FL245     1 6AGADO    6OBESA   
AWY DCT   YY10414670457671+41872890-008926694+36772499-013675277FL245     1 6AGADO    6VERAM   
AWY DCT   YY10414670456791+41872890-008926694+36325558-012973334FL245     1 6AGADO    6NASAS   
AWY DCT   YY10414670456781+41872890-008926694+36056389-012558055FL245     1 6AGADO    6NARTA   
AWY DCT   YY10414670457371+41872890-008926694+36500000-010000000FL245     1 6AGADO    6SONAP   
AWY DCT   YY10414670243961+41872890-008926694+35966667-009372011FL245     1 6AGADO    6TAKAV   
AWY DCT   YY10414670419531+41872890-008926694+36026669-007383333FL245     1 6AGADO    6ORTOP   
AWY DCT   YY10414670456531+41872890-008926694+38037498-007222777FL245     1 6AGADO    6LASIB   
AWY DCT   YY11992270414670+39524502-006434721+41872890-008926694FL245     1 4CCS      6AGADO   
AWY DCT   YY10414670419360+41872890-008926694+39801666-006400528FL245     1 6AGADO    6OGERO   
AWY DCT   YY10414670421670+41872890-008926694+39859806-006393305FL245     1 6AGADO    6UREDI   
AWY DCT   YY10414600414670+40017666-006373639+41872890-008926694FL245     1 6ADINO    6AGADO   
AWY DCT   YY10414670415291+41872890-008926694+40583500-006302444FL245     1 6AGADO    6BARDI   
AWY DCT   YY10414670421511+41872890-008926694+40990780-006288610FL245     1 6AGADO    6TOSDI   
AWY DCT   YY10414940414670+41173279-006282332+41872890-008926694FL245     1 6ARDID    6AGADO   
AWY DCT   YY10414670414621+41872890-008926694+41483002-006280000FL245     1 6AGADO    6ADORO   
AWY DCT   YY10414620456781+41483002-006280000+36056389-012558055FL245     1 6ADORO    6NARTA   
AWY DCT   YY10414620455501+41483002-006280000+35966667-011448332FL245     1 6ADORO    6BEXAL   
AWY DCT   YY10414620457671+41483002-006280000+36772499-013675277FL245     1 6ADORO    6VERAM   
AWY DCT   YY10414620456791+41483002-006280000+36325558-012973334FL245     1 6ADORO    6NASAS   
AWY DCT   YY10414620457371+41483002-006280000+36500000-010000000FL245     1 6ADORO    6SONAP   
AWY DCT   YY10414620243961+41483002-006280000+35966667-009372011FL245     1 6ADORO    6TAKAV   
AWY DCT   YY10420120455781+39330082-007302583+37416668-007614721FL245     1 6PORTA    6ERTIS   
AWY DCT   YY10455780455321+37416668-007614721+35966667-007883334FL245     1 6ERTIS    6AMSEL   
AWY DCT   YY10455780456981+37416668-007614721+35966667-008314166FL245     1 6ERTIS    6OSLAD   
AWY DCT   YY10414940457670+41173279-006282332+36772499-013675277FL245     1 6ARDID    6VERAM   
AWY DCT   YY10414940456790+41173279-006282332+36325558-012973334FL245     1 6ARDID    6NASAS   
AWY DCT   YY10414940456780+41173279-006282332+36056389-012558055FL245     1 6ARDID    6NARTA   
AWY DCT   YY10414940455500+41173279-006282332+35966667-011448332FL245     1 6ARDID    6BEXAL   
AWY DCT   YY10414940457370+41173279-006282332+36500000-010000000FL245     1 6ARDID    6SONAP   
AWY DCT   YY10414940243960+41173279-006282332+35966667-009372011FL245     1 6ARDID    6TAKAV   
