
AWY DCT   YY10481360480470+41454445-008981110+40899723-009281110FL055FL6601 6TOVBA    6LULAS   
AWY DCT   YY10481360257300+41454445-008981110+31682917-017457000FL195FL6601 6TOVBA    6NELSO   
AWY DCT   YY10481360480410+41454445-008981110+33667500-015949722FL195FL6601 6TOVBA    6LIDRO   
AWY DCT   YY10481360480320+41454445-008981110+38000000-015000000FL195FL6601 6TOVBA    6KOMUT   
AWY DCT   YY10481360480060+41454445-008981110+39000000-015000000FL195FL6601 6TOVBA    6GUNTI   
AWY DCT   YY10481050479110+33556946-015781389+40722778-008431111FL195FL6601 6RAKUN    6ABLEG   
AWY DCT   SA10480690479510+35520557-016234443+38544998-010000000FL055FL6601 6NAVIX    6BUSEN   
AWY DCT   YY10480540479470+40691944-008616110+35966667-011448332FL195FL6601 6MANIK    6BEXAL   
AWY DCT   YY10481360480490+41454445-008981110+37000000-015000000FL195FL6601 6TOVBA    6LUTAK   
AWY DCT   YY10480490480390+37000000-015000000+41003334-009129444FL095FL6601 6LUTAK    6LAVPA   
AWY DCT   YY10479260479831+38088612-007614443+38665001-007918611FL245     1 6ALAGU    6EVURA   
AWY DCT   YY10481250479831+38292778-008220000+38665001-007918611FL245     1 6SOTEX    6EVURA   
AWY DCT   YY10480350480491+39205833-010965000+37000000-015000000FL245     1 6LAMDI    6LUTAK   
AWY DCT   YY10480350480321+39205833-010965000+38000000-015000000FL245     1 6LAMDI    6KOMUT   
AWY DCT   YY10481330480351+40416668-009591111+39205833-010965000FL245     1 6TERVA    6LAMDI   
AWY DCT   YY10481330480061+40416668-009591111+39000000-015000000FL245     1 6TERVA    6GUNTI   
AWY DCT   YY10481330479771+40416668-009591111+40000000-015000000FL245     1 6TERVA    6ERPES   
AWY DCT   YY10481330479551+40416668-009591111+41000000-015000000FL245     1 6TERVA    6DETOX   
AWY DCT   YY10480390479551+41003334-009129444+41000000-015000000FL245     1 6LAVPA    6DETOX   
AWY DCT   YY10480390479401+41003334-009129444+42000000-015000000FL245     1 6LAVPA    6BANAL   
AWY DCT   YY10480390479311+41003334-009129444+42500000-014000000FL245     1 6LAVPA    6ARMED   
AWY DCT   YY10480670479511+36056389-012558055+38544998-010000000FL245     1 6NARTA    6BUSEN   
AWY DCT   YY10480670480351+36056389-012558055+39205833-010965000FL245     1 6NARTA    6LAMDI   
AWY DCT   YY10480680480351+36325558-012973333+39205833-010965000FL245     1 6NASAS    6LAMDI   
AWY DCT   YY10481580480351+36772499-013675277+39205833-010965000FL245     1 6VERAM    6LAMDI   
AWY DCT   YY10481360445411+41454445-008981110+43000000-013000000FL245     1 6TOVBA    6RETEN   
AWY DCT   YY10481360444921+41454445-008981110+42678917-012000000FL245     1 6TOVBA    6PETEK   
AWY DCT   YY10481360445501+41454445-008981110+42283054-010816193FL245     1 6TOVBA    6RIPEL   
AWY DCT   YY10481360447141+41454445-008981110+42023888-010067972FL245     1 6TOVBA    6XERES   
AWY DCT   YY10481360441381+41454445-008981110+41925694-009362000FL245     1 6TOVBA    6DEMOS   
AWY DCT   YY10480390445411+41003334-009129444+43000000-013000000FL245     1 6LAVPA    6RETEN   
AWY DCT   YY10480390444921+41003334-009129444+42678917-012000000FL245     1 6LAVPA    6PETEK   
AWY DCT   YY10480390445501+41003334-009129444+42283054-010816193FL245     1 6LAVPA    6RIPEL   
AWY DCT   YY10480390447141+41003334-009129444+42023888-010067972FL245     1 6LAVPA    6XERES   
AWY DCT   YY10480540481611+40691944-008616110+40031113-008536110FL245     1 6MANIK    6XAMAX   
AWY DCT   YY10480540480131+40691944-008616110+40001945-008301943FL245     1 6MANIK    6INBOM   
AWY DCT   YY10480970444400+40881943-008114999+39801666-006400528FL245     1 6PESUL    6OGERO   
AWY DCT   YY10480970446690+40881943-008114999+39859806-006393305FL245     1 6PESUL    6UREDI   
AWY DCT   YY10480970440261+40881943-008114999+40583500-006302444FL245     1 6PESUL    6BARDI   
AWY DCT   YY10479460440261+41358612-007777222+40583500-006302444FL245     1 6BELDU    6BARDI   
AWY DCT   YY10479460446500+41358612-007777222+40990780-006288610FL245     1 6BELDU    6TOSDI   
AWY DCT   YY10479460439561+41358612-007777222+41483002-006280000FL245     1 6BELDU    6ADORO   
AWY DCT   YY10479460479380+41358612-007777222+41730556-006981667FL245     1 6BELDU    6BALNO   
AWY DCT   YY10480570479831+37416668-007841111+38665001-007918611FL245     1 6MARIM    6EVURA   
AWY DCT   YY10481630479831+37597221-007949999+38665001-007918611FL245     1 6XAPAS    6EVURA   
AWY DCT   YY10481630445161+37597221-007949999+39330082-007302583FL245     1 6XAPAS    6PORTA   
AWY DCT   YY10481250445161+38292778-008220000+39330082-007302583FL245     1 6SOTEX    6PORTA   
AWY DCT   YY10479830481611+38665001-007918611+40031113-008536110FL245     1 6EVURA    6XAMAX   
AWY DCT   YY10479830480131+38665001-007918611+40001945-008301943FL245     1 6EVURA    6INBOM   
AWY DCT   YY10479830480241+38665001-007918611+39654999-008016667FL245     1 6EVURA    6IXIDA   
AWY DCT   YY10479830445161+38665001-007918611+39330082-007302583FL245     1 6EVURA    6PORTA   
AWY DCT   YY10479260480131+38088612-007614443+40001945-008301943FL245     1 6ALAGU    6INBOM   
AWY DCT   YY10479260445161+38088612-007614443+39330082-007302583FL245     1 6ALAGU    6PORTA   
AWY DCT   YY10480680481471+36325558-012973333+38179443-010000000FL245     1 6NASAS    6UNPOT   
AWY DCT   YY10480370479851+38037498-007222777+38904446-008016667FL245     1 6LASIB    6EXONA   
AWY DCT   YY10479850446690+38904446-008016667+39859806-006393305FL245     1 6EXONA    6UREDI   
AWY DCT   YY10479850444400+38904446-008016667+39801666-006400528FL245     1 6EXONA    6OGERO   
AWY DCT   YY10479510480681+38544998-010000000+36325558-012973333FL245     1 6BUSEN    6NASAS   
AWY DCT   YY10479910481581+38000000-009817500+36772499-013675277FL245     1 6GANSU    6VERAM   
AWY DCT   YY10480660479471+38000000-009334444+35966667-011448332FL245     1 6NAKOS    6BEXAL   
AWY DCT   YY10481370481031+38073334-008879166+36833332-007383333FL245     1 6TROIA    6PIREN   
AWY DCT   YY10479880480371+38275555-008543055+38037498-007222777FL245     1 6GAIOS    6LASIB   
AWY DCT   YY10480240479380+39654999-008016667+41730556-006981667FL245     1 6IXIDA    6BALNO   
AWY DCT   YY10479150256540+32867012-016635541+31421444-016032888FL245     1 6ABUSU    6BIMBO   
AWY DCT   YY10479150257370+32867012-016635541+31406944-016556917FL245     1 6ABUSU    6ORTIS   
AWY DCT   YY10479150257300+32867012-016635541+31682917-017457000FL245     1 6ABUSU    6NELSO   
AWY DCT   YY10479150479091+32867012-016635541+32331111-018130277FL245     1 6ABUSU    6ABALO   
AWY DCT   YY12180820480691+33090415-016350639+35520557-016234443FL245     1 4SNT      6NAVIX   
AWY DCT   YY12180820480551+33090415-016350639+36194443-015390277FL245     1 4SNT      6MANOX   
AWY DCT   YY12180820480791+33090415-016350639+36657223-014245833FL245     1 4SNT      6OBESA   
AWY DCT   YY12180820481581+33090415-016350639+36772499-013675277FL245     1 4SNT      6VERAM   
AWY DCT   YY12180820480681+33090415-016350639+36325558-012973333FL245     1 4SNT      6NASAS   
AWY DCT   YY12180820480671+33090415-016350639+36056389-012558055FL245     1 4SNT      6NARTA   
AWY DCT   YY12180820481261+33090415-016350639+35546391-012312500FL245     1 4SNT      6SUBAL   
AWY DCT   YY12180820258361+33090415-016350639+35000000-012711667FL245     1 4SNT      6ASGAM   
AWY DCT   YY12180820259361+33090415-016350639+34000000-013427222FL245     1 4SNT      6OGDOR   
AWY DCT   YY12180820259281+33090415-016350639+33000000-014123333FL245     1 4SNT      6NIPRI   
AWY DCT   YY10480730480221+32365276-017353056+33924999-018069166FL245     1 6NIDUL    6IRKID   
AWY DCT   YY10479530480790+33418610-015658332+36657223-014245833FL245     1 6DEGUN    6OBESA   
AWY DCT   YY10259280480280+33000000-014123333+32449165-016227222FL245     1 6NIPRI    6KEKOS   
AWY DCT   YY10258990480280+32000000-014801111+32449165-016227222FL245     1 6LEPRU    6KEKOS   
AWY DCT   YY10256540480280+31421444-016032888+32449165-016227222FL245     1 6BIMBO    6KEKOS   
AWY DCT   YY10480500256541+32161945-017085277+31421444-016032888FL245     1 6MADAT    6BIMBO   
AWY DCT   YY10480500257370+32161945-017085277+31406944-016556917FL245     1 6MADAT    6ORTIS   
AWY DCT   YY10480500257300+32161945-017085277+31682917-017457000FL245     1 6MADAT    6NELSO   
AWY DCT   YY10480500479091+32161945-017085277+32331111-018130277FL245     1 6MADAT    6ABALO   
AWY DCT   YY10479310479511+42500000-014000000+38544998-010000000FL245     1 6ARMED    6BUSEN   
AWY DCT   YY10479400479511+42000000-015000000+38544998-010000000FL245     1 6BANAL    6BUSEN   
AWY DCT   YY10479550479511+41000000-015000000+38544998-010000000FL245     1 6DETOX    6BUSEN   
AWY DCT   YY10479770479511+40000000-015000000+38544998-010000000FL245     1 6ERPES    6BUSEN   
AWY DCT   YY10480490481471+37000000-015000000+38179443-010000000FL245     1 6LUTAK    6UNPOT   
AWY DCT   YY10481580481471+36772499-013675277+38179443-010000000FL245     1 6VERAM    6UNPOT   
AWY DCT   YY10480680480421+36325558-012973333+38000000-009590832FL245     1 6NASAS    6LIGRA   
AWY DCT   YY10479470480421+35966667-011448332+38000000-009590832FL245     1 6BEXAL    6LIGRA   
AWY DCT   YY10479420480661+35966667-010023332+38000000-009334444FL245     1 6BAROK    6NAKOS   
AWY DCT   YY10259690480661+35966667-009372011+38000000-009334444FL245     1 6TAKAV    6NAKOS   
AWY DCT   YY10480900481371+35966667-008314166+38073334-008879166FL245     1 6OSLAD    6TROIA   
AWY DCT   YY10479290481371+35966667-007883333+38073334-008879166FL245     1 6AMSEL    6TROIA   
AWY DCT   YY10444570481371+36026669-007383333+38073334-008879166FL245     1 6ORTOP    6TROIA   
AWY DCT   YY10481030479881+36833332-007383333+38275555-008543055FL245     1 6PIREN    6GAIOS   
AWY DCT   YY10479880444900+38275555-008543055+37036694-007383333FL245     1 6GAIOS    6PESAS   
AWY DCT   YY10446570479881+37076111-007383333+38275555-008543055FL245     1 6TUPIX    6GAIOS   
AWY DCT   YY10443710479881+37128807-007383333+38275555-008543055FL245     1 6MINTA    6GAIOS   
AWY DCT   YY10444210479881+37245861-007428500+38275555-008543055FL245     1 6NIRAK    6GAIOS   
AWY DCT   YY10440260480131+40583500-006302444+40001945-008301943FL245     1 6BARDI    6INBOM   
AWY DCT   YY10439890480130+41173279-006282332+40001945-008301943FL245     1 6ARDID    6INBOM   
AWY DCT   YY10439560480131+41483002-006280000+40001945-008301943FL245     1 6ADORO    6INBOM   
AWY DCT   YY10479430480130+41700558-006621944+40001945-008301943FL245     1 6BATAX    6INBOM   
AWY DCT   YY10479140480130+41751110-007236111+40001945-008301943FL245     1 6ABUPI    6INBOM   
AWY DCT   YY10479790480130+41789165-007730000+40001945-008301943FL245     1 6ETAKA    6INBOM   
AWY DCT   YY10481130481610+41823612-008199443+40031113-008536110FL245     1 6RITUS    6XAMAX   
AWY DCT   YY10481010481611+41851112-008597778+40031113-008536110FL245     1 6PINEK    6XAMAX   
AWY DCT   YY10439610481611+41872890-008926693+40031113-008536110FL245     1 6AGADO    6XAMAX   
AWY DCT   YY10441380481611+41925694-009362000+40031113-008536110FL245     1 6DEMOS    6XAMAX   
AWY DCT   YY10447140481611+42023888-010067972+40031113-008536110FL245     1 6XERES    6XAMAX   
AWY DCT   YY10445500481611+42283054-010816193+40031113-008536110FL245     1 6RIPEL    6XAMAX   
AWY DCT   YY10444920481611+42678917-012000000+40031113-008536110FL245     1 6PETEK    6XAMAX   
AWY DCT   YY12174220479850+39524502-006434721+38904446-008016667FL245     1 4CCS      6EXONA   
AWY DCT   YY10439540479850+40017666-006373639+38904446-008016667FL245     1 6ADINO    6EXONA   
AWY DCT   YY10440260479851+40583500-006302444+38904446-008016667FL245     1 6BARDI    6EXONA   
AWY DCT   YY12174220480090+39524502-006434721+39278332-008016667FL245     1 4CCS      6IDBID   
AWY DCT   YY10439540480090+40017666-006373639+39278332-008016667FL245     1 6ADINO    6IDBID   
AWY DCT   YY10440260480091+40583500-006302444+39278332-008016667FL245     1 6BARDI    6IDBID   
AWY DCT   YY10480090444400+39278332-008016667+39801666-006400528FL245     1 6IDBID    6OGERO   
AWY DCT   YY10480090446690+39278332-008016667+39859806-006393305FL245     1 6IDBID    6UREDI   
AWY DCT   YY10480240440261+39654999-008016667+40583500-006302444FL245     1 6IXIDA    6BARDI   
AWY DCT   YY10480240446501+39654999-008016667+40990780-006288610FL245     1 6IXIDA    6TOSDI   
AWY DCT   YY10480240439561+39654999-008016667+41483002-006280000FL245     1 6IXIDA    6ADORO   
AWY DCT   YY10480130479380+40001945-008301943+41730556-006981667FL245     1 6INBOM    6BALNO   
AWY DCT   YY10480130481011+40001945-008301943+41851112-008597778FL245     1 6INBOM    6PINEK   
AWY DCT   YY10480130439611+40001945-008301943+41872890-008926693FL245     1 6INBOM    6AGADO   
AWY DCT   YY10480130441381+40001945-008301943+41925694-009362000FL245     1 6INBOM    6DEMOS   
AWY DCT   YY10480130447141+40001945-008301943+42023888-010067972FL245     1 6INBOM    6XERES   
AWY DCT   YY10479510445501+38544998-010000000+42283054-010816193FL245     1 6BUSEN    6RIPEL   
AWY DCT   YY10479510444921+38544998-010000000+42678917-012000000FL245     1 6BUSEN    6PETEK   
AWY DCT   YY10479510445411+38544998-010000000+43000000-013000000FL245     1 6BUSEN    6RETEN   
AWY DCT   YY10479510480061+38544998-010000000+39000000-015000000FL245     1 6BUSEN    6GUNTI   
AWY DCT   YY10479510480321+38544998-010000000+38000000-015000000FL245     1 6BUSEN    6KOMUT   
AWY DCT   YY10479510480491+38544998-010000000+37000000-015000000FL245     1 6BUSEN    6LUTAK   
AWY DCT   YY10479510481581+38544998-010000000+36772499-013675277FL245     1 6BUSEN    6VERAM   
AWY DCT   YY10479910480681+38000000-009817500+36325558-012973333FL245     1 6GANSU    6NASAS   
AWY DCT   YY10479910480671+38000000-009817500+36056389-012558055FL245     1 6GANSU    6NARTA   
AWY DCT   YY10440050480130+41815140-008081193+40001945-008301943FL245     1 6ASPOR    6INBOM   
AWY DCT   YY10441860481251+39219444-007223332+38292778-008220000FL245     1 6ELVAR    6SOTEX   
AWY DCT   YY10480130481251+40001945-008301943+38292778-008220000FL245     1 6INBOM    6SOTEX   
AWY DCT   YY10481610481251+40031113-008536110+38292778-008220000FL245     1 6XAMAX    6SOTEX   
AWY DCT   YY10479510481251+38544998-010000000+38292778-008220000FL245     1 6BUSEN    6SOTEX   
AWY DCT   YY10481470481251+38179443-010000000+38292778-008220000FL245     1 6UNPOT    6SOTEX   
AWY DCT   YY10480680480261+36325558-012973333+36976391-008701666FL245     1 6NASAS    6IXOLI   
AWY DCT   YY10480670480261+36056389-012558055+36976391-008701666FL245     1 6NARTA    6IXOLI   
AWY DCT   YY10479470480261+35966667-011448332+36976391-008701666FL245     1 6BEXAL    6IXOLI   
AWY DCT   YY10479420480261+35966667-010023332+36976391-008701666FL245     1 6BAROK    6IXOLI   
AWY DCT   YY10259690480261+35966667-009372011+36976391-008701666FL245     1 6TAKAV    6IXOLI   
AWY DCT   YY10479240480260+35966667-008949999+36976391-008701666FL245     1 6AKUDA    6IXOLI   
AWY DCT   YY10480900480261+35966667-008314166+36976391-008701666FL245     1 6OSLAD    6IXOLI   
AWY DCT   YY10479290480261+35966667-007883333+36976391-008701666FL245     1 6AMSEL    6IXOLI   
AWY DCT   YY10444570479951+36026669-007383333+36764442-008005832FL245     1 6ORTOP    6GIMAL   
AWY DCT   YY10481030479951+36833332-007383333+36764442-008005832FL245     1 6PIREN    6GIMAL   
AWY DCT   YY10481250480831+38292778-008220000+37497501-008383889FL245     1 6SOTEX    6ODEMI   
AWY DCT   YY10479510480831+38544998-010000000+37497501-008383889FL245     1 6BUSEN    6ODEMI   
AWY DCT   YY10481470480831+38179443-010000000+37497501-008383889FL245     1 6UNPOT    6ODEMI   
AWY DCT   YY10480670479951+36056389-012558055+36764442-008005832FL245     1 6NARTA    6GIMAL   
AWY DCT   YY10479470479951+35966667-011448332+36764442-008005832FL245     1 6BEXAL    6GIMAL   
AWY DCT   YY10479420479951+35966667-010023332+36764442-008005832FL245     1 6BAROK    6GIMAL   
AWY DCT   YY10259690479951+35966667-009372011+36764442-008005832FL245     1 6TAKAV    6GIMAL   
AWY DCT   YY10480900479951+35966667-008314166+36764442-008005832FL245     1 6OSLAD    6GIMAL   
AWY DCT   YY10479290479951+35966667-007883333+36764442-008005832FL245     1 6AMSEL    6GIMAL   
AWY DCT   YY10480410480691+33667500-015949722+35520557-016234443FL245     1 6LIDRO    6NAVIX   
AWY DCT   YY10480410480551+33667500-015949722+36194443-015390277FL245     1 6LIDRO    6MANOX   
AWY DCT   YY10480410480791+33667500-015949722+36657223-014245833FL245     1 6LIDRO    6OBESA   
AWY DCT   YY10480410481581+33667500-015949722+36772499-013675277FL245     1 6LIDRO    6VERAM   
AWY DCT   YY10480410480681+33667500-015949722+36325558-012973333FL245     1 6LIDRO    6NASAS   
AWY DCT   YY10480410480671+33667500-015949722+36056389-012558055FL245     1 6LIDRO    6NARTA   
AWY DCT   YY10480410481261+33667500-015949722+35546391-012312500FL245     1 6LIDRO    6SUBAL   
AWY DCT   YY10480410258361+33667500-015949722+35000000-012711667FL245     1 6LIDRO    6ASGAM   
AWY DCT   YY10480410259361+33667500-015949722+34000000-013427222FL245     1 6LIDRO    6OGDOR   
AWY DCT   YY10481050480691+33556946-015781389+35520557-016234443FL245     1 6RAKUN    6NAVIX   
AWY DCT   YY10481050480551+33556946-015781389+36194443-015390277FL245     1 6RAKUN    6MANOX   
AWY DCT   YY10481050480791+33556946-015781389+36657223-014245833FL245     1 6RAKUN    6OBESA   
AWY DCT   YY10481050481581+33556946-015781389+36772499-013675277FL245     1 6RAKUN    6VERAM   
AWY DCT   YY10481050480681+33556946-015781389+36325558-012973333FL245     1 6RAKUN    6NASAS   
AWY DCT   YY10481050480671+33556946-015781389+36056389-012558055FL245     1 6RAKUN    6NARTA   
AWY DCT   YY10481050481261+33556946-015781389+35546391-012312500FL245     1 6RAKUN    6SUBAL   
AWY DCT   YY10481050258361+33556946-015781389+35000000-012711667FL245     1 6RAKUN    6ASGAM   
AWY DCT   YY10481050259361+33556946-015781389+34000000-013427222FL245     1 6RAKUN    6OGDOR   
AWY DCT   YY10479530480680+33418610-015658332+36325558-012973333FL245     1 6DEGUN    6NASAS   
AWY DCT   YY10479530481580+33418610-015658332+36772499-013675277FL245     1 6DEGUN    6VERAM   
AWY DCT   YY10479530480670+33418610-015658332+36056389-012558055FL245     1 6DEGUN    6NARTA   
AWY DCT   YY10479530481260+33418610-015658332+35546391-012312500FL245     1 6DEGUN    6SUBAL   
AWY DCT   YY10479530258360+33418610-015658332+35000000-012711667FL245     1 6DEGUN    6ASGAM   
AWY DCT   YY10479530259360+33418610-015658332+34000000-013427222FL245     1 6DEGUN    6OGDOR   
AWY DCT   YY10479530259280+33418610-015658332+33000000-014123333FL245     1 6DEGUN    6NIPRI   
AWY DCT   YY10480740480691+33348610-016873611+35520557-016234443FL245     1 6NIKAV    6NAVIX   
AWY DCT   YY10480740480221+33348610-016873611+33924999-018069166FL245     1 6NIKAV    6IRKID   
AWY DCT   YY10480740479091+33348610-016873611+32331111-018130277FL245     1 6NIKAV    6ABALO   
AWY DCT   YY10480730479091+32365276-017353056+32331111-018130277FL245     1 6NIDUL    6ABALO   
AWY DCT   YY10480730257300+32365276-017353056+31682917-017457000FL245     1 6NIDUL    6NELSO   
AWY DCT   YY10481290257370+32225555-016457500+31406944-016556917FL245     1 6TABOM    6ORTIS   
AWY DCT   YY10481290256540+32225555-016457500+31421444-016032888FL245     1 6TABOM    6BIMBO   
AWY DCT   YY10481290258990+32225555-016457500+32000000-014801111FL245     1 6TABOM    6LEPRU   
AWY DCT   YY10479140479690+41751110-007236111+41521111-007673056FL245     1 6ABUPI    6ELGIX   
AWY DCT   YY10479430479690+41700558-006621944+41521111-007673056FL245     1 6BATAX    6ELGIX   
AWY DCT   YY10439560479691+41483002-006280000+41521111-007673056FL245     1 6ADORO    6ELGIX   
AWY DCT   YY10439890479690+41173279-006282332+41521111-007673056FL245     1 6ARDID    6ELGIX   
AWY DCT   YY10440260479691+40583500-006302444+41521111-007673056FL245     1 6BARDI    6ELGIX   
AWY DCT   YY10480370445161+38037498-007222777+39330082-007302583FL245     1 6LASIB    6PORTA   
AWY DCT   YY10480370481631+38037498-007222777+37597221-007949999FL245     1 6LASIB    6XAPAS   
AWY DCT   YY10481630481251+37597221-007949999+38292778-008220000FL245     1 6XAPAS    6SOTEX   
AWY DCT   YY10480130480971+40001945-008301943+40881943-008114999FL245     1 6INBOM    6PESUL   
AWY DCT   YY10480970445161+40881943-008114999+39330082-007302583FL245     1 6PESUL    6PORTA   
AWY DCT   YY10480540479511+40691944-008616110+38544998-010000000FL245     1 6MANIK    6BUSEN   
AWY DCT   YY10480540480351+40691944-008616110+39205833-010965000FL245     1 6MANIK    6LAMDI   
AWY DCT   YY10479110480131+40722778-008431111+40001945-008301943FL245     1 6ABLEG    6INBOM   
AWY DCT   YY10479110479511+40722778-008431111+38544998-010000000FL245     1 6ABLEG    6BUSEN   
AWY DCT   YY10479110480351+40722778-008431111+39205833-010965000FL245     1 6ABLEG    6LAMDI   
AWY DCT   YY10479110481331+40722778-008431111+40416668-009591111FL245     1 6ABLEG    6TERVA   
AWY DCT   YY10480130445161+40001945-008301943+39330082-007302583FL245     1 6INBOM    6PORTA   
AWY DCT   YY10481250479951+38292778-008220000+36764442-008005832FL245     1 6SOTEX    6GIMAL   
AWY DCT   YY10481630479951+37597221-007949999+36764442-008005832FL245     1 6XAPAS    6GIMAL   
AWY DCT   YY10480372234511+38037498-007222777+38159248-007921721FL245     1 6LASIB    5BJA     
AWY DCT   YY10479782234511+37416668-007614721+38159248-007921721FL245     1 6ERTIS    5BJA     
AWY DCT   YY10479832234511+38665001-007918611+38159248-007921721FL245     1 6EVURA    5BJA     
AWY DCT   YY12234510479951+38159248-007921721+36764442-008005832FL245     1 5BJA      6GIMAL   
AWY DCT   YY12234510480261+38159248-007921721+36976391-008701666FL245     1 5BJA      6IXOLI   
AWY DCT   YY12234510479511+38159248-007921721+38544998-010000000FL245     1 5BJA      6BUSEN   
AWY DCT   YY12234510479911+38159248-007921721+38000000-009817500FL245     1 5BJA      6GANSU   
AWY DCT   YY10000000000001+38424274-009185771+38544998-010000000FL245     0 01 2ESP   06BUS    
AWY DCT   YY10000000000001+38424274-009185771+36772499-013675272FL245     0 01 2ESP   06VER    
AWY DCT   YY10000000000001+38424274-009185771+36325558-012973334FL245     0 01 2ESP   06NAS    
AWY DCT   YY10000000000001+38424274-009185771+36056389-012558054FL245     0 01 2ESP   06NAR    
AWY DCT   YY10000000000001+38424274-009185771+35966667-011448329FL245     0 01 2ESP   06BEX    
AWY DCT   YY10000000000001+38424274-009185771+35966667-010023325FL245     0 01 2ESP   06BAR    
AWY DCT   YY10000000000001+38424274-009185771+35966667-009372011FL245     0 01 2ESP   06TAK    
AWY DCT   YY10000000000000+35966667-008949996+38424274-009185771FL245     0 01 6AKU   02ESP    
AWY DCT   YY10000000000001+38424274-009185771+35966667-008314166FL245     0 01 2ESP   06OSL    
AWY DCT   YY10000000000001+38424274-009185771+35966667-007883334FL245     0 01 2ESP   06AMS    
AWY DCT   YY10000000000001+38424274-009185771+36026669-007383333FL245     0 01 2ESP   06ORT    
AWY DCT   YY10000000000001+38424274-009185771+36833336-007383333FL245     0 01 2ESP   06PIR    
AWY DCT   YY10000000000000+38424274-009185771+37036694-007383333FL245     0 01 2ESP   06PES    
AWY DCT   YY10000000000001+38424274-009185771+37076111-007383333FL245     0 01 2ESP   06TUP    
AWY DCT   YY10000000000001+38424274-009185771+37128807-007383333FL245     0 01 2ESP   06MIN    
AWY DCT   YY10000000000001+38424274-009185771+37245861-007428500FL245     0 01 2ESP   06NIR    
AWY DCT   YY10000000000001+39665680-008492650+42023888-010067972FL245     0 01 4FTM   06XER    
AWY DCT   YY10000000000001+39665680-008492650+41925694-009362000FL245     0 01 4FTM   06DEM    
AWY DCT   YY10000000000001+39665680-008492650+41872890-008926693FL245     0 01 4FTM   06AGA    
AWY DCT   YY10000000000001+39665680-008492650+41851112-008597778FL245     0 01 4FTM   06PIN    
AWY DCT   YY10000000000000+39665680-008492650+41730556-006981667FL245     0 01 4FTM   06BAL    
AWY DCT   YY10000000000001+39665680-008492650+41483002-006280000FL245     0 01 4FTM   06ADO    
AWY DCT   YY10000000000000+39665680-008492650+40990780-006288610FL245     0 01 4FTM   06TOS    
AWY DCT   YY10000000000001+39665680-008492650+40583500-006302444FL245     0 01 4FTM   06BAR    
