
AWY DCT   SA10196590186000+57453056-003627222+58500000-010000000     FL6601 6VADNO    6ADODO   
AWY DCT   SA10195170188430+57369167-004898611+57500000-010000000     FL6601 6RUGID    6ETILO   
AWY DCT   SA10195170186000+57369167-004898611+58500000-010000000     FL6601 6RUGID    6ADODO   
AWY DCT   SA10194180186000+57051945-005294722+58500000-010000000     FL6601 6ORSUM    6ADODO   
AWY DCT   SA10196411964540+55973335-007526389+55430023-005650414     FL6601 6TUXOS    9MAC     
AWY DCT   SA11963280188430+55870502-004445725+57500000-010000000     FL6601 4GOW      6ETILO   
AWY DCT   SA11963280186000+55870502-004445725+58500000-010000000     FL6601 4GOW      6ADODO   
AWY DCT   SA10188580188430+56369167-003463610+57500000-010000000     FL6601 6FINDO    6ETILO   
AWY DCT   SA10188470195170+57408611-009500000+57369167-004898611     FL6601 6EVNAL    6RUGID   
AWY DCT   SA10188471964540+57408611-009500000+55430023-005650414     FL6601 6EVNAL    9MAC     
AWY DCT   SA10188470188580+57408611-009500000+56369167-003463610     FL6601 6EVNAL    6FINDO   
AWY DCT   SA10188471963210+57408611-009500000+54721912-003340639     FL6601 6EVNAL    9DCS     
AWY DCT   SA10188470186540+57408611-009500000+59433334-003952778     FL6601 6EVNAL    6BAMRA   
AWY DCT   SA10186540188430+59433334-003952778+57500000-010000000     FL6601 6BAMRA    6ETILO   
AWY DCT   SA10186540186000+59433334-003952778+58500000-010000000     FL6601 6BAMRA    6ADODO   
AWY DCT   SA10186180196590+58373611-009500000+57453056-003627222     FL6601 6AMTAP    6VADNO   
AWY DCT   SA10186180195170+58373611-009500000+57369167-004898611     FL6601 6AMTAP    6RUGID   
AWY DCT   SA10186180194180+58373611-009500000+57051945-005294722     FL6601 6AMTAP    6ORSUM   
AWY DCT   SA10186181964540+58373611-009500000+55430023-005650414     FL6601 6AMTAP    9MAC     
AWY DCT   SA10186181963210+58373611-009500000+54721912-003340639     FL6601 6AMTAP    9DCS     
AWY DCT   SA10186180187150+58373611-009500000+56236389-005841111     FL6601 6AMTAP    6BRUCE   
AWY DCT   SA10186180186540+58373611-009500000+59433334-003952778     FL6601 6AMTAP    6BAMRA   
AWY DCT   SA10187150186591+56236389-005841111+60605000-009409999     FL6601 6BRUCE    6BARKU   
AWY DCT   SA10186040187150+59964443-009500000+56236389-005841111     FL6601 6AKIVO    6BRUCE   
AWY DCT   SA10187150186370+56236389-005841111+60000000-010000000     FL6601 6BRUCE    6ATSIX   
AWY       SA-10187150203550-2147483648-214748364-2147483648-214748364     FL6601 6         6        
AWY DCT   SA11964540188430+55430023-005650414+57500000-010000000     FL6601 9MAC      6ETILO   
AWY DCT   SA10188360188430+54278889-007392777+57500000-010000000     FL6601 6ERNAN    6ETILO   
AWY DCT   SA10188471964720+57408611-009500000+58206947-006183046     FL6601 6EVNAL    4STN     
AWY DCT   SA10187150188430+56236389-005841111+57500000-010000000     FL6601 6BRUCE    6ETILO   
AWY DCT   SA10187150186000+56236389-005841111+58500000-010000000     FL6601 6BRUCE    6ADODO   
AWY DCT   SA11963060188430+54661144-006229908+57500000-010000000     FL6601 4BEL      6ETILO   
AWY DCT   SA11963060186000+54661144-006229908+58500000-010000000     FL6601 4BEL      6ADODO   
AWY DCT   SA11964540186000+55430023-005650414+58500000-010000000     FL6601 9MAC      6ADODO   
AWY DCT   SA10188360186000+54278889-007392777+58500000-010000000     FL6601 6ERNAN    6ADODO   
AWY DCT   SA10188470188360+57408611-009500000+54278889-007392777     FL6601 6EVNAL    6ERNAN   
AWY DCT   SA10188471963060+57408611-009500000+54661144-006229908     FL6601 6EVNAL    4BEL     
AWY DCT   SA10186180188360+58373611-009500000+54278889-007392777     FL6601 6AMTAP    6ERNAN   
AWY DCT   SA11964720186000+58206947-006183046+58500000-010000000     FL6601 4STN      6ADODO   
AWY DCT   SA10188471963280+57408611-009500000+55870502-004445725     FL6601 6EVNAL    4GOW     
AWY DCT   SA11964720188430+58206947-006183046+57500000-010000000     FL6601 4STN      6ETILO   
AWY DCT   SA10186181963280+58373611-009500000+55870502-004445725     FL6601 6AMTAP    4GOW     
AWY DCT   SA10186181964720+58373611-009500000+58206947-006183046     FL6601 6AMTAP    4STN     
AWY DCT   SA10188430188470+57500000-010000000+57408611-009500000     FL6601 6ETILO    6EVNAL   
AWY DCT   SA10186181963060+58373611-009500000+54661144-006229908     FL6601 6AMTAP    4BEL     
AWY DCT   SA10186000186180+58500000-010000000+58373611-009500000     FL6601 6ADODO    6AMTAP   
AWY DCT   SA10195751963061+57332500-007085000+54661144-006229908     FL6601 6SUPIT    4BEL     
AWY DCT   SA10195750188330+57332500-007085000+58000000-010000000     FL6601 6SUPIT    6ERAKA   
AWY DCT   SA10196470186071+54028889-000485278+55447224-001565000     FL2451 6UMBEL    6ALASO   
AWY DCT   SA10196470187830+54028889-000485278+52797222+002500000FL245     1 6UMBEL    6DIBAL   
AWY DCT   SA10198260196470+52732899+002994355+54028889-000485278FL225     1 6LAMSO    6UMBEL   
AWY DCT   SA11964791964671+55499146-003352833+55907513-002206336FL245     1 4TLA      4SAB     
AWY DCT   SA11964790188610+55499146-003352833+56142776-004382222          1 4TLA      6FOYLE   
AWY DCT   SA11964790188980+55499146-003352833+56196667-003685555FL245     1 4TLA      6GRICE   
AWY DCT   SA11964720186590+58206947-006183046+60605000-009409999     FL2451 4STN      6BARKU   
AWY DCT   SA11964720194180+58206947-006183046+57051945-005294722     FL2451 4STN      6ORSUM   
AWY DCT   SA11964720878701+58206947-006183046+56062778-004579999          1 4STN      6LOMON   
AWY DCT   SA10194130192770+61000000-006500000+53604446+003515832FL285     1 6OLKER    6LARDI   
AWY DCT   SA10194130198350+61000000-006500000+53839584+003942544FL285     1 6OLKER    6LONAM   
AWY DCT   SA11964540193711+55430023-005650414+54229443-007123333FL105FL2451 9MAC      6NESON   
AWY DCT   SA11964780188780+56493210-006875588+56924999-009500000     FL2451 4TIR      6GINGA   
AWY DCT   SA10188020188781+55719166-007695556+56924999-009500000FL195FL6601 6DONIB    6GINGA   
AWY DCT   SA11963070187151+57477936-007365300+56236389-005841111FL245     1 4BEN      6BRUCE   
AWY DCT   SA11963070196251+57477936-007365300+56760555-006469721     FL2451 4BEN      6TOBMO   
AWY DCT   SA11963060196250+54661144-006229908+56760555-006469721     FL2451 4BEL      6TOBMO   
AWY DCT   SA10186591963071+60605000-009409999+57477936-007365300          1 6BARKU    4BEN     
AWY DCT   SA10188781963280+56924999-009500000+55870502-004445725          1 6GINGA    4GOW     
AWY DCT   SA10188930188780+57000000-010000000+56924999-009500000          1 6GOMUP    6GINGA   
AWY DCT   SA11964720186041+58206947-006183046+59964443-009500000     FL2451 4STN      6AKIVO   
AWY DCT   SA11964720193831+58206947-006183046+58855556-009500000     FL2451 4STN      6NINEX   
AWY DCT   SA10188330188440+58000000-010000000+57891945-009500000          1 6ERAKA    6ETSOM   
AWY DCT   SA10196590188330+57453056-003627222+58000000-010000000FL255     1 6VADNO    6ERAKA   
AWY DCT   SA11964810187011+55313412-004783857+54883335-005158888          1 4TRN      6BLACA   
AWY DCT   SA11964790188930+55499146-003352833+57000000-010000000FL255     1 4TLA      6GOMUP   
AWY DCT   SA11964720188330+58206947-006183046+58000000-010000000          1 4STN      6ERAKA   
AWY DCT   SA10195170188330+57369167-004898611+58000000-010000000FL255     1 6RUGID    6ERAKA   
AWY DCT   SA10200690188961+54028805-006066222+54594723-005598055FL255     1 6ROTEV    6GOTNA   
AWY DCT   SA10200690187011+54028805-006066222+54883335-005158888FL255     1 6ROTEV    6BLACA   
AWY DCT   SA10194750200410+53960278-003825556+54613609-009506388FL255     1 6REMSI    6MOLAK   
AWY DCT   SA10194750188930+53960278-003825556+57000000-010000000FL255     1 6REMSI    6GOMUP   
AWY DCT   SA10194750193641+53960278-003825556+54490002-005302777FL255     1 6REMSI    6NELBO   
AWY DCT   SA10200521964721+54452499-008402777+58206947-006183046          1 6NIPIT    4STN     
AWY DCT   SA10200520187151+54452499-008402777+56236389-005841111          1 6NIPIT    6BRUCE   
AWY DCT   SA10193830188360+58855556-009500000+54278889-007392777          1 6NINEX    6ERNAN   
AWY DCT   SA10193831963060+58855556-009500000+54661144-006229908          1 6NINEX    4BEL     
AWY DCT   SA10193831963210+58855556-009500000+54721912-003340639          1 6NINEX    9DCS     
AWY DCT   SA10193831964540+58855556-009500000+55430023-005650414          1 6NINEX    9MAC     
AWY DCT   SA10193831963280+58855556-009500000+55870502-004445725          1 6NINEX    4GOW     
AWY DCT   SA10193830187150+58855556-009500000+56236389-005841111          1 6NINEX    6BRUCE   
AWY DCT   SA10193790193130+55000000-010000000+53974998-004874445          1 6NIBOG    6MAKUX   
AWY DCT   SA10193790195570+55000000-010000000+53815556-004508333          1 6NIBOG    6SOSIM   
AWY DCT   SA10194750193791+53960278-003825556+55000000-010000000          1 6REMSI    6NIBOG   
AWY DCT   SA10200490193790+54068333-006269833+55000000-010000000FL255     1 6NEVRI    6NIBOG   
AWY DCT   SA10200490192590+54068333-006269833+55500000-010000000          1 6NEVRI    6KUGUR   
AWY DCT   SA10200490193340+54068333-006269833+56000000-010000000FL255     1 6NEVRI    6MIMKU   
AWY DCT   SA10200490188930+54068333-006269833+57000000-010000000          1 6NEVRI    6GOMUP   
AWY DCT   SA10200490188330+54068333-006269833+58000000-010000000          1 6NEVRI    6ERAKA   
AWY DCT   SA10200490186510+54068333-006269833+59000000-010000000          1 6NEVRI    6BALIX   
AWY DCT   SA10200490186370+54068333-006269833+60000000-010000000          1 6NEVRI    6ATSIX   
AWY DCT   SA10193640200511+54490002-005302777+53965027-005742138FL235     1 6NELBO    6NIMAT   
AWY DCT   SA10200410193790+54613609-009506388+55000000-010000000          1 6MOLAK    6NIBOG   
AWY DCT   SA10200410188930+54613609-009506388+57000000-010000000          1 6MOLAK    6GOMUP   
AWY DCT   SA10193340193130+56000000-010000000+53974998-004874445          1 6MIMKU    6MAKUX   
AWY DCT   SA10193340195570+56000000-010000000+53815556-004508333          1 6MIMKU    6SOSIM   
AWY DCT   SA10194750193341+53960278-003825556+56000000-010000000          1 6REMSI    6MIMKU   
AWY DCT   SA11964790193341+55499146-003352833+56000000-010000000          1 4TLA      6MIMKU   
AWY DCT   SA10193340188580+56000000-010000000+56369167-003463610          1 6MIMKU    6FINDO   
AWY DCT   SA10194750193201+53960278-003825556+54155834-004354167FL255     1 6REMSI    6MASOP   
AWY DCT   SA10193200193641+54155834-004354167+54490002-005302777FL255     1 6MASOP    6NELBO   
AWY DCT   SA10200521964541+54452499-008402777+55430023-005650414          1 6NIPIT    9MAC     
AWY DCT   SA10200411964541+54613609-009506388+55430023-005650414          1 6MOLAK    9MAC     
AWY DCT   SA10193791964541+55000000-010000000+55430023-005650414          1 6NIBOG    9MAC     
AWY DCT   SA10193341964541+56000000-010000000+55430023-005650414          1 6MIMKU    9MAC     
AWY DCT   SA11964540188930+55430023-005650414+57000000-010000000          1 9MAC      6GOMUP   
AWY DCT   SA11964540188330+55430023-005650414+58000000-010000000          1 9MAC      6ERAKA   
AWY DCT   SA11964540186510+55430023-005650414+59000000-010000000          1 9MAC      6BALIX   
AWY DCT   SA10194750192591+53960278-003825556+55500000-010000000          1 6REMSI    6KUGUR   
AWY DCT   SA10192590195570+55500000-010000000+53815556-004508333          1 6KUGUR    6SOSIM   
AWY DCT   SA10192590193130+55500000-010000000+53974998-004874445          1 6KUGUR    6MAKUX   
AWY DCT   SA11964540192591+55430023-005650414+55500000-010000000          1 9MAC      6KUGUR   
AWY DCT   SA10192310200410+53905277-004364167+54613609-009506388          1 6KELLY    6MOLAK   
AWY DCT   SA10193790192311+55000000-010000000+53905277-004364167          1 6NIBOG    6KELLY   
AWY DCT   SA10192590192311+55500000-010000000+53905277-004364167          1 6KUGUR    6KELLY   
AWY DCT   SA10193340192311+56000000-010000000+53905277-004364167          1 6MIMKU    6KELLY   
AWY DCT   SA10192310192031+53905277-004364167+56500000-010000000          1 6KELLY    6IBROD   
AWY DCT   SA10192310188930+53905277-004364167+57000000-010000000          1 6KELLY    6GOMUP   
AWY DCT   SA10192030193130+56500000-010000000+53974998-004874445          1 6IBROD    6MAKUX   
AWY DCT   SA10192030195570+56500000-010000000+53815556-004508333          1 6IBROD    6SOSIM   
AWY DCT   SA10194750192031+53960278-003825556+56500000-010000000          1 6REMSI    6IBROD   
AWY DCT   SA11964790192031+55499146-003352833+56500000-010000000          1 4TLA      6IBROD   
AWY DCT   SA11964540192031+55430023-005650414+56500000-010000000          1 9MAC      6IBROD   
AWY DCT   SA10193791963281+55000000-010000000+55870502-004445725          1 6NIBOG    4GOW     
AWY DCT   SA10192591963281+55500000-010000000+55870502-004445725          1 6KUGUR    4GOW     
AWY DCT   SA10193341963281+56000000-010000000+55870502-004445725          1 6MIMKU    4GOW     
AWY DCT   SA11963280187151+55870502-004445725+56236389-005841111FL195     1 4GOW      6BRUCE   
AWY DCT   SA11963281963070+55870502-004445725+57477936-007365300          1 4GOW      4BEN     
AWY DCT   SA10192031963281+56500000-010000000+55870502-004445725          1 6IBROD    4GOW     
AWY DCT   SA11963280188930+55870502-004445725+57000000-010000000          1 4GOW      6GOMUP   
AWY DCT   SA11963280188330+55870502-004445725+58000000-010000000          1 4GOW      6ERAKA   
AWY DCT   SA11963280186510+55870502-004445725+59000000-010000000          1 4GOW      6BALIX   
AWY DCT   SA10188960187011+54594723-005598055+54883335-005158888FL255     1 6GOTNA    6BLACA   
AWY DCT   SA10188780200410+56924999-009500000+54613609-009506388          1 6GINGA    6MOLAK   
AWY DCT   SA10188780188360+56924999-009500000+54278889-007392777          1 6GINGA    6ERNAN   
AWY DCT   SA10188781963061+56924999-009500000+54661144-006229908          1 6GINGA    4BEL     
AWY DCT   SA10188780193130+56924999-009500000+53974998-004874445FL255     1 6GINGA    6MAKUX   
AWY DCT   SA10188780195570+56924999-009500000+53815556-004508333FL255     1 6GINGA    6SOSIM   
AWY DCT   SA10188780192310+56924999-009500000+53905277-004364167FL255     1 6GINGA    6KELLY   
AWY DCT   SA10188780194750+56924999-009500000+53960278-003825556FL255     1 6GINGA    6REMSI   
AWY DCT   SA10188781963210+56924999-009500000+54721912-003340639          1 6GINGA    9DCS     
AWY DCT   SA10188781964540+56924999-009500000+55430023-005650414          1 6GINGA    9MAC     
AWY DCT   SA10188780188580+56924999-009500000+56369167-003463610FL105     1 6GINGA    6FINDO   
AWY DCT   SA10188780187150+56924999-009500000+56236389-005841111          1 6GINGA    6BRUCE   
AWY DCT   SA10188580192031+56369167-003463610+56500000-010000000FL255     1 6FINDO    6IBROD   
AWY DCT   SA10188580188930+56369167-003463610+57000000-010000000FL255     1 6FINDO    6GOMUP   
AWY DCT   SA10188580188330+56369167-003463610+58000000-010000000FL255     1 6FINDO    6ERAKA   
AWY DCT   SA10188440187150+57891945-009500000+56236389-005841111FL255     1 6ETSOM    6BRUCE   
AWY DCT   SA10188440188360+57891945-009500000+54278889-007392777FL255     1 6ETSOM    6ERNAN   
AWY DCT   SA10188441963060+57891945-009500000+54661144-006229908FL255     1 6ETSOM    4BEL     
AWY DCT   SA10188441963210+57891945-009500000+54721912-003340639FL255     1 6ETSOM    9DCS     
AWY DCT   SA10188441964540+57891945-009500000+55430023-005650414FL255     1 6ETSOM    9MAC     
AWY DCT   SA10188441963280+57891945-009500000+55870502-004445725FL255     1 6ETSOM    4GOW     
AWY DCT   SA10188440188580+57891945-009500000+56369167-003463610FL255     1 6ETSOM    6FINDO   
AWY DCT   SA10188440195170+57891945-009500000+57369167-004898611FL255     1 6ETSOM    6RUGID   
AWY DCT   SA10188440196590+57891945-009500000+57453056-003627222FL255     1 6ETSOM    6VADNO   
AWY DCT   SA10188440186540+57891945-009500000+59433334-003952778FL255     1 6ETSOM    6BAMRA   
AWY DCT   SA10188441964720+57891945-009500000+58206947-006183046FL255     1 6ETSOM    4STN     
AWY DCT   SA10193790188361+55000000-010000000+54278889-007392777          1 6NIBOG    6ERNAN   
AWY DCT   SA10192590188361+55500000-010000000+54278889-007392777          1 6KUGUR    6ERNAN   
AWY DCT   SA10193340188361+56000000-010000000+54278889-007392777          1 6MIMKU    6ERNAN   
AWY DCT   SA10188360188330+54278889-007392777+58000000-010000000          1 6ERNAN    6ERAKA   
AWY DCT   SA10188360186510+54278889-007392777+59000000-010000000          1 6ERNAN    6BALIX   
AWY DCT   SA10188360186370+54278889-007392777+60000000-010000000          1 6ERNAN    6ATSIX   
AWY DCT   SA11964720188361+58206947-006183046+54278889-007392777          1 4STN      6ERNAN   
AWY DCT   SA11964540188361+55430023-005650414+54278889-007392777          1 9MAC      6ERNAN   
AWY DCT   SA11964810199881+55313412-004783857+54189167-006906389          1 4TRN      6DEGOS   
AWY DCT   SA11964540199881+55430023-005650414+54189167-006906389          1 9MAC      6DEGOS   
AWY DCT   SA10193790187151+55000000-010000000+56236389-005841111          1 6NIBOG    6BRUCE   
AWY DCT   SA10192590187151+55500000-010000000+56236389-005841111          1 6KUGUR    6BRUCE   
AWY DCT   SA10187150193341+56236389-005841111+56000000-010000000          1 6BRUCE    6MIMKU   
AWY DCT   SA10187150192031+56236389-005841111+56500000-010000000          1 6BRUCE    6IBROD   
AWY DCT   SA10187150188930+56236389-005841111+57000000-010000000          1 6BRUCE    6GOMUP   
AWY DCT   SA10187150188330+56236389-005841111+58000000-010000000          1 6BRUCE    6ERAKA   
AWY DCT   SA10187150186510+56236389-005841111+59000000-010000000          1 6BRUCE    6BALIX   
AWY DCT   SA10187151964781+56236389-005841111+56493210-006875588FL105     1 6BRUCE    4TIR     
AWY DCT   SA11963070193831+57477936-007365300+58855556-009500000          1 4BEN      6NINEX   
AWY DCT   SA11963070186040+57477936-007365300+59964443-009500000          1 4BEN      6AKIVO   
AWY DCT   SA11963060193960+54661144-006229908+54144444-005593332          1 4BEL      6NUMPI   
AWY DCT   SA11963060199881+54661144-006229908+54189167-006906389          1 4BEL      6DEGOS   
AWY DCT   SA11963060188360+54661144-006229908+54278889-007392777          1 4BEL      6ERNAN   
AWY DCT   SA10200411963061+54613609-009506388+54661144-006229908          1 6MOLAK    4BEL     
AWY DCT   SA10193791963061+55000000-010000000+54661144-006229908          1 6NIBOG    4BEL     
AWY DCT   SA10192591963061+55500000-010000000+54661144-006229908          1 6KUGUR    4BEL     
AWY DCT   SA10193341963061+56000000-010000000+54661144-006229908          1 6MIMKU    4BEL     
AWY DCT   SA10192031963061+56500000-010000000+54661144-006229908          1 6IBROD    4BEL     
AWY DCT   SA11963060188930+54661144-006229908+57000000-010000000          1 4BEL      6GOMUP   
AWY DCT   SA11963060188330+54661144-006229908+58000000-010000000          1 4BEL      6ERAKA   
AWY DCT   SA11963060186510+54661144-006229908+59000000-010000000          1 4BEL      6BALIX   
AWY DCT   SA11964721963061+58206947-006183046+54661144-006229908          1 4STN      4BEL     
AWY DCT   SA10186540188330+59433334-003952778+58000000-010000000          1 6BAMRA    6ERAKA   
AWY DCT   SA10188781963280+56924999-009500000+55870502-004445725          1 6GINGA    4GOW     
AWY DCT   SA10186040188360+59964443-009500000+54278889-007392777          1 6AKIVO    6ERNAN   
AWY DCT   SA11963060186041+54661144-006229908+59964443-009500000          1 4BEL      6AKIVO   
AWY DCT   SA10200490193070+54068333-006269833+55239445-010000000          1 6NEVRI    6LUTOV   
AWY DCT   SA10200490186230+54068333-006269833+55823055-010000000          1 6NEVRI    6APSOV   
AWY DCT   SA10200490186120+54068333-006269833+56264446-010000000          1 6NEVRI    6AMLAD   
AWY DCT   SA10193070193130+55239445-010000000+53974998-004874445          1 6LUTOV    6MAKUX   
AWY DCT   SA10193070195570+55239445-010000000+53815556-004508333          1 6LUTOV    6SOSIM   
AWY DCT   SA11964540193071+55430023-005650414+55239445-010000000          1 9MAC      6LUTOV   
AWY DCT   SA10193070192311+55239445-010000000+53905277-004364167          1 6LUTOV    6KELLY   
AWY DCT   SA10193071963281+55239445-010000000+55870502-004445725          1 6LUTOV    4GOW     
AWY DCT   SA10193070188361+55239445-010000000+54278889-007392777          1 6LUTOV    6ERNAN   
AWY DCT   SA10193071963061+55239445-010000000+54661144-006229908          1 6LUTOV    4BEL     
AWY DCT   SA10192310186230+53905277-004364167+55823055-010000000          1 6KELLY    6APSOV   
AWY DCT   SA10188360186230+54278889-007392777+55823055-010000000          1 6ERNAN    6APSOV   
AWY DCT   SA11963060186230+54661144-006229908+55823055-010000000          1 4BEL      6APSOV   
AWY DCT   SA11964540186230+55430023-005650414+55823055-010000000          1 9MAC      6APSOV   
AWY DCT   SA11963280186230+55870502-004445725+55823055-010000000          1 4GOW      6APSOV   
AWY DCT   SA11964790186230+55499146-003352833+55823055-010000000          1 4TLA      6APSOV   
AWY DCT   SA10187150186231+56236389-005841111+55823055-010000000          1 6BRUCE    6APSOV   
AWY DCT   SA10186120193130+56264446-010000000+53974998-004874445FL255     1 6AMLAD    6MAKUX   
AWY DCT   SA10186120195570+56264446-010000000+53815556-004508333FL255     1 6AMLAD    6SOSIM   
AWY DCT   SA10192310186121+53905277-004364167+56264446-010000000          1 6KELLY    6AMLAD   
AWY DCT   SA10188360186121+54278889-007392777+56264446-010000000          1 6ERNAN    6AMLAD   
AWY DCT   SA11963060186121+54661144-006229908+56264446-010000000          1 4BEL      6AMLAD   
AWY DCT   SA11964540186121+55430023-005650414+56264446-010000000          1 9MAC      6AMLAD   
AWY DCT   SA11963280186121+55870502-004445725+56264446-010000000          1 4GOW      6AMLAD   
AWY DCT   SA11964790186121+55499146-003352833+56264446-010000000          1 4TLA      6AMLAD   
AWY DCT   SA10188580186121+56369167-003463610+56264446-010000000FL255     1 6FINDO    6AMLAD   
AWY DCT   SA10187150186121+56236389-005841111+56264446-010000000          1 6BRUCE    6AMLAD   
AWY DCT   SA10186120194750+56264446-010000000+53960278-003825556FL255     1 6AMLAD    6REMSI   
AWY DCT   SA10193070187151+55239445-010000000+56236389-005841111          1 6LUTOV    6BRUCE   
AWY DCT   SA10193070194750+55239445-010000000+53960278-003825556          1 6LUTOV    6REMSI   
AWY DCT   SA10187150200410+56236389-005841111+54613609-009506388          1 6BRUCE    6MOLAK   
AWY DCT   SA10186040198350+59964443-009500000+53839584+003942544FL285     1 6AKIVO    6LONAM   
AWY DCT   SA10186040192770+59964443-009500000+53604446+003515832FL245     1 6AKIVO    6LARDI   
AWY DCT   SA10186540187810+59433334-003952778+60715000-008769445     FL2451 6BAMRA    6DEVBI   
AWY DCT   SA11963070193220+57477936-007365300+61000000-008066666          1 4BEN      6MATIK   
AWY DCT   SA10187151964811+56236389-005841111+55313412-004783857     FL2451 6BRUCE    4TRN     
AWY DCT   SA11963070188330+57477936-007365300+58000000-010000000     FL2451 4BEN      6ERAKA   
AWY DCT   SA10188360188930+54278889-007392777+57000000-010000000          1 6ERNAN    6GOMUP   
AWY DCT   SA10188780205750+56924999-009500000+58390121+002828928FL285     1 6GINGA    6KLONN   
AWY DCT   SA10188780199440+56924999-009500000+53402592+003561466FL285     1 6GINGA    6TOPPA   
AWY DCT   SA10188781964790+56924999-009500000+55499146-003352833FL105     1 6GINGA    4TLA     
AWY DCT   SA11963281964721+55870502-004445725+58206947-006183046     FL2451 4GOW      4STN     
AWY DCT   SA10192030196470+56500000-010000000+54028889-000485278FL285     1 6IBROD    6UMBEL   
AWY DCT   SA10192590193230+55500000-010000000+54049168-003517777FL285     1 6KUGUR    6MAVET   
AWY DCT   SA11964540188021+55430023-005650414+55719166-007695556FL245     1 9MAC      6DONIB   
AWY DCT   SA11964541964810+55430023-005650414+55313412-004783857FL245     1 9MAC      4TRN     
AWY DCT   SA10193130195570+53974998-004874445+53815556-004508333FL145     1 6MAKUX    6SOSIM   
AWY DCT   SA10193340205750+56000000-010000000+58390121+002828928FL285     1 6MIMKU    6KLONN   
AWY DCT   SA10193340196470+56000000-010000000+54028889-000485278FL285     1 6MIMKU    6UMBEL   
AWY DCT   SA10193790193230+55000000-010000000+54049168-003517777FL285     1 6NIBOG    6MAVET   
AWY DCT   SA10194750195141+53960278-003825556+55320000-006935277     FL2451 6REMSI    6RUBEX   
AWY DCT   SA10193830199440+58855556-009500000+53402592+003561466FL285FL6601 6NINEX    6TOPPA   
AWY DCT   SA10193830192770+58855556-009500000+53604446+003515832FL245     1 6NINEX    6LARDI   
AWY DCT   SA10200521963061+54452499-008402777+54661144-006229908          1 6NIPIT    4BEL     
AWY DCT   SA10193960200510+54144444-005593332+53965027-005742138FL255     1 6NUMPI    6NIMAT   
AWY DCT   SA11964720188981+58206947-006183046+56196667-003685555     FL2451 4STN      6GRICE   
AWY DCT   SA11964721964101+58206947-006183046+57542625-004041542FL105     1 4STN      4INS     
AWY DCT   SA11964720192081+58206947-006183046+56700001-004249722     FL2451 4STN      6INBAS   
AWY DCT   SA11964720186931+58206947-006183046+60019722-008568888     FL2451 4STN      6BILLY   
AWY DCT   SA11964720193221+58206947-006183046+61000000-008066666     FL2451 4STN      6MATIK   
AWY DCT   SA11964720194131+58206947-006183046+61000000-006500000     FL2451 4STN      6OLKER   
AWY DCT   SA11964720194721+58206947-006183046+61000000-010000000     FL2451 4STN      6RATSU   
AWY DCT   SA11964791964811+55499146-003352833+55313412-004783857FL105     1 4TLA      4TRN     
AWY DCT   SA10193701963280+57121666-004146667+55870502-004445725FL105FL6601 6NESDI    4GOW     
AWY DCT   SA10188981963280+56196667-003685555+55870502-004445725     FL6601 6GRICE    4GOW     
AWY DCT   SA10188581964780+56369167-003463610+56493210-006875588FL245FL6601 6FINDO    4TIR     
AWY DCT   SA10188580193751+56369167-003463610+56695278-004544722     FL6601 6FINDO    6NEVIS   
AWY DCT   SA10196411963281+55973335-007526389+55870502-004445725     FL6601 6TUXOS    4GOW     
