
AWY DCT   SA30223960224301+57906113+021149444+56369068+024630466FL095     1 6RUTEK    6ERIVA   
AWY DCT   SA30223960223691+57906113+021149444+55812778+026978056FL095     1 6RUTEK    6DUBIN   
AWY DCT   SA30223960223801+57906113+021149444+57336945+022636945FL095     1 6RUTEK    6LAPSA   
AWY DCT   SA30221960223961+58304443+020578611+57906113+021149444FL095     1 6NEKET    6RUTEK   
AWY DCT   SA10223110185080+64553886+022737777+61074722+023572221FL285     1 6SUTEV    6ENETI   
AWY DCT   SA30221540185080+63538612+021036666+61074722+023572221FL285     1 6LAMPI    6ENETI   
AWY DCT   SA30223470185080+63418610+020574167+61074722+023572221FL285     1 6VALAK    6ENETI   
AWY DCT   SA11994720206530+58875011+005640070+57000000+005000000FL135     1 4ZOL      6ATNAK   
AWY DCT   SA30215190212010+59717842+011936705+60243252+006585361FL135     1 6XIDMI    6PESUR   
AWY DCT   SA30212700212010+60512726+012606663+60243252+006585361FL135     1 6ROGED    6PESUR   
AWY DCT   SA30223760184921+56369446+024958610+59799446+024452499FL095     1 6IRBEX    6DOBAN   
AWY DCT   SA10211640214910+62434246+012181469+62830696+011288360FL135     1 6OLGUV    6VEVOD   
AWY DCT   SA30184010224400+59082222+023834446+56212776+019573333FL095     1 6LONSA    6KEDUX   
AWY DCT   SA30220310186530+59047779+020915834+66076111+025531667FL095     1 6ALAMI    6RENVI   
AWY DCT   SA30220310186010+59047779+020915834+66108329+025124166FL095     1 6ALAMI    6NEPIX   
AWY DCT   SA10187120223471+61092499+023849445+63418610+020574167FL285     1 6UVEMO    6VALAK   
AWY DCT   SA10187120221541+61092499+023849445+63538612+021036666FL285     1 6UVEMO    6LAMPI   
AWY DCT   SA10223110187121+64553886+022737777+61092499+023849445FL285     1 6SUTEV    6UVEMO   
AWY DCT   SA10185690185860+62421665+031108333+60575001+025984445FL285     1 6KOMEK    6MAMOP   
AWY DCT   SA10186530186860+66076111+025531667+60821110+024824722FL285     1 6RENVI    6TEVRU   
AWY DCT   SA10186880186860+67290558+025334446+60821110+024824722FL285     1 6TUGPU    6TEVRU   
AWY DCT   SA10187070186860+65298058+025485555+60821110+024824722FL285     1 6UPEDU    6TEVRU   
AWY DCT   SA10185900186860+64444168+025437221+60821110+024824722FL285     1 6MIKNU    6TEVRU   
AWY DCT   SA30222080184180+59318611+020431667+59249168+023475833FL095     1 6NISIX    6OSMUR   
AWY DCT   SA30223610183910+56382778+022612777+58722500+024586944FL095     1 6ASKOR    6KEMET   
AWY DCT   SA30184920224641+59799446+024452499+56090279+020495555FL095     1 6DOBAN    6RONUS   
AWY DCT   SA30213441994560+60010529+006350527+59169109+010259266FL135     1 6TINIG    4TOR     
AWY DCT   SA30214311994560+59101612+006866167+59169109+010259266FL135     1 6UPLEV    4TOR     
AWY DCT   SA31994560209160+59169109+010259266+58960140+006903861FL135     1 4TOR      6IDIPI   
AWY DCT   SA30214761994560+58646240+008737155+59169109+010259266FL135     1 6VAVET    4TOR     
AWY DCT   SA30184010221020+59082222+023834446+57165001+019924722FL095     1 6LONSA    6EVONA   
AWY DCT   SA30184270184200+59338333+027490278+58212776+021214443FL095     1 6RESMO    6PIMEX   
AWY DCT   SA10223430205610+66620560+017612222+66785004+015875834FL135FL2851 6UPEVA    6ABAXI   
AWY DCT   SA10222270211931+66051941+016814722+66636107+015676111FL135FL2851 6OSTAX    6PENAX   
AWY DCT   SA10222270214371+66051941+016814722+66257499+015395000FL135FL2851 6OSTAX    6USIKI   
AWY DCT   SA10211130211270+64462585+014113888+64131362+011682832FL135FL2851 6NOGBO    6NUPGO   
AWY DCT   SA10210500223431+66935867+016090494+66620560+017612222FL135FL2851 6MIMKI    6UPEVA   
AWY DCT   SA10221670213491+67261948+016813333+67261948+016329999FL135FL2851 6LIVLI    6TIPEL   
AWY DCT   SA10210070222270+66331108+015460832+66051941+016814722FL135FL2851 6LIDNA    6OSTAX   
AWY DCT   SA10210070223430+66331108+015460832+66620560+017612222FL135FL2851 6LIDNA    6UPEVA   
AWY DCT   SA10208700222201+68027496+017101110+67732635+019302555FL135FL2851 6GILEN    6OGRIN   
AWY DCT   SA10208670210681+64034308+013793861+64207222+013017222FL195FL2851 6GIKAV    6NAMIG   
AWY DCT   SA10208670211270+64034308+013793861+64131362+011682832FL135FL2851 6GIKAV    6NUPGO   
AWY DCT   SA10186960186471+64661109+026141666+60858334+028338333FL095     1 6UGMOR    6RATLA   
AWY DCT   SA10186530186471+66076111+025531667+60858334+028338333FL095     1 6RENVI    6RATLA   
AWY DCT   SA30184790185480+63949444+026550277+61619999+025295278FL095     1 6BAVMO    6IBOSU   
AWY DCT   SA30187100184790+61612499+025015556+63949444+026550277FL095     1 6USUPO    6BAVMO   
AWY DCT   SA30184550184580+61423332+026830556+62648335+029838611FL095     1 6ADOPO    6AGIVU   
AWY DCT   SA20206600212630+59517223+009313195+59327778+009750000FL135FL1901 6BAKIV    6RIPAM   
AWY DCT   SA30184070185921+57875557+022789445+59896946+025584999FL095     1 6NETNA    6MOHNI   
AWY DCT   SA30184070184771+57875557+022789445+59904167+025251667FL095     1 6NETNA    6BALTI   
AWY DCT   SA30224640184070+56090279+020495555+57875557+022789445FL095     1 6RONUS    6NETNA   
AWY DCT   SA30224070184390+57550278+024725833+58788612+027171943FL095     1 6VANAG    6TOMPA   
AWY DCT   SA31989970184390+59411331+024838445+58788612+027171943FL095     1 4TLL      6TOMPA   
AWY DCT   SA30183810184390+59115276+026037500+58788612+027171943FL095     1 6BIRSI    6TOMPA   
AWY DCT   SA30184080184090+58808887+024969999+57830002+027559722FL095     1 6NITSO    6NOTAR   
AWY DCT   SA30184080223690+58808887+024969999+55812778+026978056FL095     1 6NITSO    6DUBIN   
AWY DCT   SA30184080223840+58808887+024969999+56175278+025158611FL095     1 6NITSO    6LUNIT   
AWY DCT   SA30223690183910+55812778+026978056+58722500+024586944FL095     1 6DUBIN    6KEMET   
AWY DCT   SA30223950183910+56298889+024031667+58722500+024586944FL095     1 6ROLAV    6KEMET   
AWY DCT   SA30221020184330+57165001+019924722+58971668+024068611FL095     1 6EVONA    6SULUN   
AWY DCT   SA30184130224190+58849998+024322778+56363056+023426389FL095     1 6ORTAX    6BERIL   
AWY DCT   SA30184010184200+59082222+023834446+58212776+021214443FL095     1 6LONSA    6PIMEX   
AWY DCT   SA30184180184201+59249168+023475833+58212776+021214443FL095     1 6OSMUR    6PIMEX   
AWY DCT   SA30220610186381+62415001+019824167+59511112+023141944FL095     1 6BODRI    6PETOT   
AWY DCT   SA30186380221700+59511112+023141944+59640278+019876388FL095     1 6PETOT    6LUPET   
AWY DCT   SA30186380221011+59511112+023141944+60252220+019111944FL095     1 6PETOT    6EVLAN   
AWY DCT   SA10184580185920+62648335+029838611+59896946+025584999FL285     1 6AGIVU    6MOHNI   
AWY DCT   SA30184580185940+62648335+029838611+61584446+026094444FL095     1 6AGIVU    6NAPRU   
AWY DCT   SA10184920185690+59799446+024452499+62421665+031108333FL285     1 6DOBAN    6KOMEK   
AWY DCT   SA10184020183830+59454166+027446388+59437778+026047222FL095     1 6LUKUN    6DOPIK   
AWY DCT   SA30184270223990+59338333+027490278+57900002+024299444FL095     1 6RESMO    6SOKVA   
AWY DCT   SA30184270183810+59338333+027490278+59115276+026037500FL095     1 6RESMO    6BIRSI   
AWY DCT   SA10186880223860+67290558+025334446+57899445+023914722FL285     1 6TUGPU    6LUTAL   
AWY DCT   SA30223990224641+57900002+024299444+56090279+020495555FL095     1 6SOKVA    6RONUS   
AWY DCT   SA30223990224321+57900002+024299444+56146111+020082222FL095     1 6SOKVA    6GARSO   
AWY DCT   SA30184200185921+58212776+021214443+59896946+025584999FL095     1 6PIMEX    6MOHNI   
AWY DCT   SA30184200184771+58212776+021214443+59904167+025251667FL095     1 6PIMEX    6BALTI   
AWY DCT   SA30184200222421+58212776+021214443+58027943+020414667FL095     1 6PIMEX    6RASEL   
AWY DCT   SA30222420223871+58027943+020414667+57688057+021455278FL095     1 6RASEL    6MILTA   
AWY DCT   SA30223870223750+57688057+021455278+56360001+028200000FL095     1 6MILTA    6IGORO   
AWY DCT   SA30223870650930+57688057+021455278+56038891+027821388FL095     1 6MILTA    6NIGBA   
AWY DCT   SA30221960223871+58304443+020578611+57688057+021455278FL095     1 6NEKET    6MILTA   
AWY DCT   SA30224010221021+56601944+024824722+57165001+019924722FL095     1 6SORES    6EVONA   
AWY DCT   SA30224010220691+56601944+024824722+57672779+020210832FL095     1 6SORES    6DEREX   
AWY DCT   SA30224010223691+56601944+024824722+55812778+026978056FL095     1 6SORES    6DUBIN   
AWY DCT   SA30224010223750+56601944+024824722+56360001+028200000FL095     1 6SORES    6IGORO   
AWY DCT   SA30224090224010+56297779+018898334+56601944+024824722FL095     1 6ADAXA    6SORES   
AWY DCT   SA30208420209490+60816765+009936533+62000000+000000000FL135     1 6EVTOG    6IPTON   
AWY DCT   SA30208420214570+60816765+009936533+61214428+000000000FL135     1 6EVTOG    6VALDI   
AWY DCT   SA30208420208990+60816765+009936533+61000000+000000000FL135     1 6EVTOG    6GUNPA   
AWY DCT   SA10223950186530+56298889+024031667+66076111+025531667FL285     1 6ROLAV    6RENVI   
AWY DCT   SA30223950184921+56298889+024031667+59799446+024452499FL095     1 6ROLAV    6DOBAN   
AWY DCT   SA30209370210680+60970779+005849333+64207222+013017222FL135     1 6INTUM    6NAMIG   
AWY DCT   SA30184550185670+61423332+026830556+61799999+030083332FL095     1 6ADOPO    6KETOL   
AWY DCT   SA30184550185690+61423332+026830556+62421665+031108333FL095     1 6ADOPO    6KOMEK   
AWY DCT   SA30184550185680+61423332+026830556+62666668+031375278FL095     1 6ADOPO    6KOKAT   
AWY DCT   SA30187100186010+61612499+025015556+66108329+025124166FL095     1 6USUPO    6NEPIX   
AWY DCT   SA10186060223110+61126110+024048610+64553886+022737777FL285     1 6NISVI    6SUTEV   
AWY DCT   SA10186060221540+61126110+024048610+63538612+021036666FL285     1 6NISVI    6LAMPI   
AWY DCT   SA10186060223470+61126110+024048610+63418610+020574167FL285     1 6NISVI    6VALAK   
AWY DCT   SA10186060221270+61126110+024048610+62830555+020010833FL285     1 6NISVI    6IRGAL   
AWY DCT   SA10186060220610+61126110+024048610+62415001+019824167FL285     1 6NISVI    6BODRI   
AWY DCT   SA30184920224190+59799446+024452499+56363056+023426389FL095     1 6DOBAN    6BERIL   
AWY DCT   SA31989970650930+59411331+024838445+56038891+027821388FL095     1 4TLL      6NIGBA   
AWY DCT   SA31989970223690+59411331+024838445+55812778+026978056FL095     1 4TLL      6DUBIN   
AWY DCT   SA31989970223840+59411331+024838445+56175278+025158611FL095     1 4TLL      6LUNIT   
AWY DCT   SA31989970184090+59411331+024838445+57830002+027559722FL095     1 4TLL      6NOTAR   
AWY DCT   SA30184920224320+59799446+024452499+56146111+020082222FL095     1 6DOBAN    6GARSO   
AWY DCT   SA30184920224400+59799446+024452499+56212776+019573333FL095     1 6DOBAN    6KEDUX   
AWY DCT   SA30184310220690+59476391+023779445+57672779+020210832FL095     1 6ROSAX    6DEREX   
AWY DCT   SA30184310222000+59476391+023779445+58627724+020771778FL095     1 6ROSAX    6NEREN   
AWY DCT   SA30184310221940+59476391+023779445+58904972+020941249FL095     1 6ROSAX    6NEBSI   
AWY DCT   SA30223690183890+55812778+026978056+58942501+025576944FL095     1 6DUBIN    6GONOS   
AWY DCT   SA30223840183890+56175278+025158611+58942501+025576944FL095     1 6LUNIT    6GONOS   
AWY DCT   SA30223840183910+56175278+025158611+58722500+024586944FL095     1 6LUNIT    6KEMET   
AWY DCT   SA30224340183910+56371387+023755556+58722500+024586944FL095     1 6GUNTA    6KEMET   
AWY DCT   SA30224320184330+56146111+020082222+58971668+024068611FL095     1 6GARSO    6SULUN   
AWY DCT   SA30224400184330+56212776+019573333+58971668+024068611FL095     1 6KEDUX    6SULUN   
AWY DCT   SA30212800185480+69797218+028530832+61619999+025295278FL095     1 6ROVAN    6IBOSU   
AWY DCT   SA30185630185080+64591667+024685277+61074722+023572221FL095     1 6IXONO    6ENETI   
AWY DCT   SA30185630220611+64591667+024685277+62415001+019824167FL095     1 6IXONO    6BODRI   
AWY DCT   SA30185630220471+64591667+024685277+61362499+019415832FL095     1 6IXONO    6BAKLA   
AWY DCT   SA30185630222590+64591667+024685277+59749722+019724166FL095     1 6IXONO    6RUNGA   
AWY DCT   SA30185630221700+64591667+024685277+59640278+019876388FL095     1 6IXONO    6LUPET   
AWY DCT   SA30185630222080+64591667+024685277+59318611+020431667FL095     1 6IXONO    6NISIX   
AWY DCT   SA30185630221460+64591667+024685277+59182777+020676111FL095     1 6IXONO    6KOSKA   
AWY DCT   SA30185900186380+64444168+025437221+59511112+023141944FL095     1 6MIKNU    6PETOT   
AWY DCT   SA30185900184770+64444168+025437221+59904167+025251667FL095     1 6MIKNU    6BALTI   
AWY DCT   SA30186960185691+64661109+026141666+62421665+031108333FL095     1 6UGMOR    6KOMEK   
AWY DCT   SA30187070185651+65298058+025485555+68503334+028458332FL095     1 6UPEDU    6KELEK   
AWY DCT   SA30187070212801+65298058+025485555+69797218+028530832FL095     1 6UPEDU    6ROVAN   
AWY DCT   SA10184920187070+59799446+024452499+65298058+025485555FL285     1 6DOBAN    6UPEDU   
AWY DCT   SA30187070184771+65298058+025485555+59904167+025251667FL095     1 6UPEDU    6BALTI   
AWY DCT   SA30184680185310+65398613+025128055+68110558+024349721FL095     1 6ASLUP    6EXUTI   
AWY DCT   SA30184800220590+65374443+024941944+65592781+024153888FL095     1 6BEDSO    6BEXUL   
AWY DCT   SA30186880184770+67290558+025334446+59904167+025251667FL095     1 6TUGPU    6BALTI   
AWY DCT   SA10186880185920+67290558+025334446+59896946+025584999FL285     1 6TUGPU    6MOHNI   
AWY DCT   SA30186880184920+67290558+025334446+59799446+024452499FL095     1 6TUGPU    6DOBAN   
AWY DCT   SA30186880186380+67290558+025334446+59511112+023141944FL095     1 6TUGPU    6PETOT   
AWY DCT   SA30187310212801+67873337+025365278+69797218+028530832FL095     1 6XETMU    6ROVAN   
AWY DCT   SA30187310212951+67873337+025365278+69574448+029237777FL095     1 6XETMU    6SIVNU   
AWY DCT   SA30187310185651+67873337+025365278+68503334+028458332FL095     1 6XETMU    6KELEK   
AWY DCT   SA10184920186530+59799446+024452499+66076111+025531667FL285     1 6DOBAN    6RENVI   
AWY DCT   SA30224340184920+56371387+023755556+59799446+024452499FL095     1 6GUNTA    6DOBAN   
AWY DCT   SA30186380224321+59511112+023141944+56146111+020082222FL095     1 6PETOT    6GARSO   
AWY DCT   SA30186380224401+59511112+023141944+56212776+019573333FL095     1 6PETOT    6KEDUX   
AWY DCT   SA30186010186381+66108329+025124166+59511112+023141944FL095     1 6NEPIX    6PETOT   
AWY DCT   SA10186530224190+66076111+025531667+56363056+023426389FL285     1 6RENVI    6BERIL   
AWY DCT   SA10186530224461+66076111+025531667+56138889+025571388FL285     1 6RENVI    6LISGO   
AWY DCT   SA30186530185691+66076111+025531667+62421665+031108333FL095     1 6RENVI    6KOMEK   
AWY DCT   SA10186530185921+66076111+025531667+59896946+025584999FL285     1 6RENVI    6MOHNI   
AWY DCT   SA10185310186250+68110558+024349721+66862503+025406389FL095     1 6EXUTI    6OSLIT   
AWY DCT   SA10186210187350+66188614+024705278+65940558+024076667FL095     1 6OLNOP    6XONTU   
AWY DCT   SA10186010221460+66108329+025124166+59182777+020676111FL095     1 6NEPIX    6KOSKA   
AWY DCT   SA10186010222080+66108329+025124166+59318611+020431667FL095     1 6NEPIX    6NISIX   
AWY DCT   SA10186010221700+66108329+025124166+59640278+019876388FL095     1 6NEPIX    6LUPET   
AWY DCT   SA10186010222190+66108329+025124166+59933056+019462221FL095     1 6NEPIX    6OGLOB   
AWY DCT   SA10186010221011+66108329+025124166+60252220+019111944FL095     1 6NEPIX    6EVLAN   
AWY DCT   SA10186010220471+66108329+025124166+61362499+019415832FL095     1 6NEPIX    6BAKLA   
AWY DCT   SA10185990221841+66339996+024694166+66174721+023819444FL095     1 6NEMGU    6MISMO   
AWY DCT   SA30186690185651+66960556+025961111+68503334+028458332FL095     1 6ROTKO    6KELEK   
AWY DCT   SA30186690212951+66960556+025961111+69574448+029237777FL095     1 6ROTKO    6SIVNU   
AWY DCT   SA30186690212801+66960556+025961111+69797218+028530832FL095     1 6ROTKO    6ROVAN   
AWY DCT   SA10185490185310+66708336+025018056+68110558+024349721FL095     1 6IBSAN    6EXUTI   
AWY DCT   SA30223810223750+56435280+020215278+56360001+028200000FL095     1 6LASMA    6IGORO   
AWY DCT   SA30186380223861+59511112+023141944+57899445+023914722FL095     1 6PETOT    6LUTAL   
AWY DCT   SA30186380223471+59511112+023141944+63418610+020574167FL095     1 6PETOT    6VALAK   
AWY DCT   SA30186380223251+59511112+023141944+61761944+019540277FL095     1 6PETOT    6TOGMI   
AWY DCT   SA30223860223251+57899445+023914722+61761944+019540277FL095     1 6LUTAL    6TOGMI   
AWY DCT   SA30223860221541+57899445+023914722+63538612+021036666FL095     1 6LUTAL    6LAMPI   
AWY DCT   SA30223860223471+57899445+023914722+63418610+020574167FL095     1 6LUTAL    6VALAK   
AWY DCT   SA30224640185921+56090279+020495555+59896946+025584999FL095     1 6RONUS    6MOHNI   
AWY DCT   SA30224340185920+56371387+023755556+59896946+025584999FL095     1 6GUNTA    6MOHNI   
AWY DCT   SA30185920223841+59896946+025584999+56175278+025158611FL095     1 6MOHNI    6LUNIT   
AWY DCT   SA30185920224190+59896946+025584999+56363056+023426389FL095     1 6MOHNI    6BERIL   
AWY DCT   SA10185920185680+59896946+025584999+62666668+031375278FL285     1 6MOHNI    6KOKAT   
AWY DCT   SA10185920185671+59896946+025584999+61799999+030083332FL285     1 6MOHNI    6KETOL   
AWY DCT   SA10186470185921+60858334+028338333+59896946+025584999FL285     1 6RATLA    6MOHNI   
AWY DCT   SA30223680221940+56826668+027468055+58904972+020941249FL095     1 6DOLUN    6NEBSI   
AWY DCT   SA10921790212511+69948059+024000000+68578888+018016666FL135     1 6BIGSI    6RERDI   
AWY DCT   SA10921790208521+69948059+024000000+69172501+021796110FL135     1 6BIGSI    6GAPRO   
AWY DCT   SA30212110185311+69323647+019743803+68110558+024349721FL095     1 6PIGAX    6EXUTI   
AWY DCT   SA10209490213780+62000000+000000000+61725418+005925556FL135     1 6IPTON    6TUMIM   
AWY DCT   SA10214570213780+61214428+000000000+61725418+005925556FL135     1 6VALDI    6TUMIM   
AWY DCT   SA10211970213780+59992012+000015003+61725418+005925556FL135     1 6PEPIN    6TUMIM   
AWY DCT   SA10206950213780+59035828+001738942+61725418+005925556FL135     1 6BEREP    6TUMIM   
AWY DCT   SA10212590213780+58793289+002154953+61725418+005925556FL135     1 6RIGVU    6TUMIM   
AWY DCT   SA10206120213780+57907539+003608356+61725418+005925556FL135     1 6ALOTI    6TUMIM   
AWY DCT   SA10211120213780+57569946+004136917+61725418+005925556FL135     1 6NIVUN    6TUMIM   
AWY DCT   SA10211950213780+57109901+004836330+61725418+005925556FL135     1 6PENUN    6TUMIM   
AWY DCT   SA10209550213780+57000000+005507432+61725418+005925556FL135     1 6KARLI    6TUMIM   
AWY DCT   SA10210520213780+57000000+006455695+61725418+005925556FL135     1 6MITSI    6TUMIM   
AWY DCT   SA10212410211340+57289593+008049481+62005444+007330667FL135     1 6RASVI    6OBITI   
AWY DCT   SA10212530211340+57991524+009438616+62005444+007330667FL135     1 6RETKA    6OBITI   
AWY DCT   SA10206400211340+58334419+010148983+62005444+007330667FL135     1 6ARTOR    6OBITI   
AWY DCT   SA10207110211340+58906548+010718483+62005444+007330667FL135     1 6BOMGU    6OBITI   
AWY DCT   SA10212810211340+60733784+012395507+62005444+007330667FL135     1 6ROVPA    6OBITI   
AWY DCT   SA10208310211340+60012711+012392347+62005444+007330667FL135     1 6ESEBA    6OBITI   
AWY DCT   SA10213200211340+61151390+012719442+62005444+007330667FL135     1 6SUVAR    6OBITI   
AWY DCT   SA10211770207440+62319653+012262203+63296860+009086777FL135     1 6OSKOK    6DEKEB   
AWY DCT   SA10211640207440+62434246+012181469+63296860+009086777FL135     1 6OLGUV    6DEKEB   
AWY DCT   SA10223190207440+62937222+012125278+63296860+009086777FL135     1 6TIGBA    6DEKEB   
AWY DCT   SA10211130207440+64462585+014113888+63296860+009086777FL135     1 6NOGBO    6DEKEB   
AWY DCT   SA10213030207440+63330833+012052499+63296860+009086777FL135     1 6SOLKA    6DEKEB   
AWY DCT   SA10210810211770+63108971+009630861+62319653+012262203FL135     1 6NELSU    6OSKOK   
AWY DCT   SA10210812066290+63108971+009630861+69161369+017815858FL135     1 6NELSU    5SJA     
AWY DCT   SA10210810211130+63108971+009630861+64462585+014113888FL135     1 6NELSU    6NOGBO   
AWY DCT   SA10210810213030+63108971+009630861+63330833+012052499FL135     1 6NELSU    6SOLKA   
AWY DCT   SA10208650211770+62210640+007378639+62319653+012262203FL135     1 6GIGIR    6OSKOK   
AWY DCT   SA10213850209550+62000000+005453332+57000000+005507432FL135     1 6TUTOP    6KARLI   
AWY DCT   SA10213850206530+62000000+005453332+57000000+005000000FL135     1 6TUTOP    6ATNAK   
AWY DCT   SA10213850211120+62000000+005453332+57569946+004136917FL135     1 6TUTOP    6NIVUN   
AWY DCT   SA10213850206120+62000000+005453332+57907539+003608356FL135     1 6TUTOP    6ALOTI   
AWY DCT   SA10213850206950+62000000+005453332+59035828+001738942FL135     1 6TUTOP    6BEREP   
AWY DCT   SA10213850211970+62000000+005453332+59992012+000015003FL135     1 6TUTOP    6PEPIN   
AWY DCT   SA10213850209530+62000000+005453332+63000000+000000000FL135     1 6TUTOP    6ISVIG   
AWY DCT   SA10213850209260+62000000+005453332+62434982+000000000FL135     1 6TUTOP    6INGAL   
AWY DCT   SA10213850209490+62000000+005453332+62000000+000000000FL135     1 6TUTOP    6IPTON   
AWY DCT   SA30211810209260+62840084+010073027+62434982+000000000FL135     1 6OSMUM    6INGAL   
AWY DCT   SA30211810209490+62840084+010073027+62000000+000000000FL135     1 6OSMUM    6IPTON   
AWY DCT   SA30211810211970+62840084+010073027+59992012+000015003FL135     1 6OSMUM    6PEPIN   
AWY DCT   SA30211810206950+62840084+010073027+59035828+001738942FL135     1 6OSMUM    6BEREP   
AWY DCT   SA30211810212590+62840084+010073027+58793289+002154953FL135     1 6OSMUM    6RIGVU   
AWY DCT   SA30211810206120+62840084+010073027+57907539+003608356FL135     1 6OSMUM    6ALOTI   
AWY DCT   SA30211810211120+62840084+010073027+57569946+004136917FL135     1 6OSMUM    6NIVUN   
AWY DCT   SA30214420209550+62832695+010703722+57000000+005507432FL135     1 6UTUNA    6KARLI   
AWY DCT   SA30214420210520+62832695+010703722+57000000+006455695FL135     1 6UTUNA    6MITSI   
AWY DCT   SA30214420210100+62832695+010703722+57000000+007227316FL135     1 6UTUNA    6LINVI   
AWY DCT   SA30214420212410+62832695+010703722+57289593+008049481FL135     1 6UTUNA    6RASVI   
AWY DCT   SA30214420206230+62832695+010703722+57675175+008802146FL135     1 6UTUNA    6AMSEV   
AWY DCT   SA30214420210900+62832695+010703722+57887943+009228278FL135     1 6UTUNA    6NERDO   
AWY DCT   SA30214420211080+62832695+010703722+58078518+009616783FL135     1 6UTUNA    6NIROD   
AWY DCT   SA30214420206400+62832695+010703722+58334419+010148983FL135     1 6UTUNA    6ARTOR   
AWY DCT   SA10209370210810+60970779+005849333+63108971+009630861FL135     1 6INTUM    6NELSU   
AWY DCT   SA10211970210810+59992012+000015003+63108971+009630861FL135     1 6PEPIN    6NELSU   
AWY DCT   SA10206950210810+59035828+001738942+63108971+009630861FL135     1 6BEREP    6NELSU   
AWY DCT   SA10206120210810+57907539+003608356+63108971+009630861FL135     1 6ALOTI    6NELSU   
AWY DCT   SA10211120210810+57569946+004136917+63108971+009630861FL135     1 6NIVUN    6NELSU   
AWY DCT   SA10210520214910+57000000+006455695+62830696+011288360FL135     1 6MITSI    6VEVOD   
AWY DCT   SA10207420214910+57000000+006697827+62830696+011288360FL135     1 6DANKO    6VEVOD   
AWY DCT   SA10210100214910+57000000+007227316+62830696+011288360FL135     1 6LINVI    6VEVOD   
AWY DCT   SA10212410214910+57289593+008049481+62830696+011288360FL135     1 6RASVI    6VEVOD   
AWY DCT   SA10210900214910+57887943+009228278+62830696+011288360FL135     1 6NERDO    6VEVOD   
AWY DCT   SA10211080214910+58078518+009616783+62830696+011288360FL135     1 6NIROD    6VEVOD   
AWY DCT   SA10206400214910+58334419+010148983+62830696+011288360FL135     1 6ARTOR    6VEVOD   
AWY DCT   SA10212470214910+59108891+011349445+62830696+011288360FL135     1 6REGMA    6VEVOD   
AWY DCT   SA10212810209260+60733784+012395507+62434982+000000000FL135     1 6ROVPA    6INGAL   
AWY DCT   SA10212700209260+60512726+012606663+62434982+000000000FL135     1 6ROGED    6INGAL   
AWY DCT   SA10206952066290+59035828+001738942+69161369+017815858FL135     1 6BEREP    5SJA     
AWY DCT   SA10206122066290+57907539+003608356+69161369+017815858FL135     1 6ALOTI    5SJA     
AWY DCT   SA10211122066290+57569946+004136917+69161369+017815858FL135     1 6NIVUN    5SJA     
AWY DCT   SA10211952066290+57109901+004836330+69161369+017815858FL135     1 6PENUN    5SJA     
AWY DCT   SA10209552066290+57000000+005507432+69161369+017815858FL135     1 6KARLI    5SJA     
AWY DCT   SA10210522066290+57000000+006455695+69161369+017815858FL135     1 6MITSI    5SJA     
AWY DCT   SA10207422066290+57000000+006697827+69161369+017815858FL135     1 6DANKO    5SJA     
AWY DCT   SA10210102066290+57000000+007227316+69161369+017815858FL135     1 6LINVI    5SJA     
AWY DCT   SA10213052066290+63349167+011805000+69161369+017815858FL135     1 6SOMUB    5SJA     
AWY DCT   SA10213050210901+63349167+011805000+57887943+009228278FL135     1 6SOMUB    6NERDO   
AWY DCT   SA10213050211081+63349167+011805000+58078518+009616783FL135     1 6SOMUB    6NIROD   
AWY DCT   SA10213050206401+63349167+011805000+58334419+010148983FL135     1 6SOMUB    6ARTOR   
AWY DCT   SA10213050213770+63349167+011805000+59891144+012020006FL135     1 6SOMUB    6TUMGU   
AWY DCT   SA10206160206530+67875000+016441389+57000000+005000000FL135     1 6AMIMO    6ATNAK   
AWY DCT   SA10206160211120+67875000+016441389+57569946+004136917FL135     1 6AMIMO    6NIVUN   
AWY DCT   SA10206160206120+67875000+016441389+57907539+003608356FL135     1 6AMIMO    6ALOTI   
AWY DCT   SA10206160206950+67875000+016441389+59035828+001738942FL135     1 6AMIMO    6BEREP   
AWY DCT   SA10208710213250+69494064+017506597+66039726+007441133FL135     1 6GILGU    6TABEV   
AWY DCT   SA10208710208810+69494064+017506597+67038810+009059413FL135     1 6GILGU    6GISOX   
AWY DCT   SA10208710211220+69494064+017506597+68097191+010961311FL135     1 6GILGU    6NORVA   
AWY DCT   SA10208710211700+69494064+017506597+69019669+012806836FL135     1 6GILGU    6OMEXA   
AWY DCT   SA10206160209550+67875000+016441389+57000000+005507432FL135     1 6AMIMO    6KARLI   
AWY DCT   SA10206160210520+67875000+016441389+57000000+006455695FL135     1 6AMIMO    6MITSI   
AWY DCT   SA10206160207420+67875000+016441389+57000000+006697827FL135     1 6AMIMO    6DANKO   
AWY DCT   SA10206160210100+67875000+016441389+57000000+007227316FL135     1 6AMIMO    6LINVI   
AWY DCT   SA10206160213050+67875000+016441389+63349167+011805000FL135     1 6AMIMO    6SOMUB   
AWY DCT   SA10213760212280+69243706+018967611+68497780+019098611FL135     1 6TULDA    6POBEL   
AWY DCT   SA10211970212370+59992012+000015003+66881142+014123666FL135     1 6PEPIN    6RANUM   
AWY DCT   SA10910670211220+67534500+014066482+68097191+010961311FL135     1 6ABTAM    6NORVA   
AWY DCT   SA10910670211700+67534500+014066482+69019669+012806836FL135     1 6ABTAM    6OMEXA   
AWY DCT   SA12066340211970+66290237+013768831+59992012+000015003FL135     1 5STM      6PEPIN   
AWY DCT   SA12066340206950+66290237+013768831+59035828+001738942FL135     1 5STM      6BEREP   
AWY DCT   SA12066340212590+66290237+013768831+58793289+002154953FL135     1 5STM      6RIGVU   
AWY DCT   SA12066340206120+66290237+013768831+57907539+003608356FL135     1 5STM      6ALOTI   
AWY DCT   SA12066340211120+66290237+013768831+57569946+004136917FL135     1 5STM      6NIVUN   
AWY DCT   SA12066340209551+66290237+013768831+57000000+005507432FL135     1 5STM      6KARLI   
AWY DCT   SA12066340210521+66290237+013768831+57000000+006455695FL135     1 5STM      6MITSI   
AWY DCT   SA12066340207421+66290237+013768831+57000000+006697827FL135     1 5STM      6DANKO   
AWY DCT   SA12066340210101+66290237+013768831+57000000+007227316FL135     1 5STM      6LINVI   
AWY DCT   SA12066340212411+66290237+013768831+57289593+008049481FL135     1 5STM      6RASVI   
AWY DCT   SA12066340206231+66290237+013768831+57675175+008802146FL135     1 5STM      6AMSEV   
AWY DCT   SA12066340213051+66290237+013768831+63349167+011805000FL135     1 5STM      6SOMUB   
AWY DCT   SA10207650210791+66532630+013912317+65557770+014508472FL135     1 6DISMU    6NEBUR   
AWY DCT   SA30214760211770+58646240+008737155+62319653+012262203FL135     1 6VAVET    6OSKOK   
AWY DCT   SA30214760207860+58646240+008737155+61675873+012216725FL135     1 6VAVET    6EGAGO   
AWY DCT   SA30214760215140+58646240+008737155+61499748+012667910FL135     1 6VAVET    6XELVI   
AWY DCT   SA30214760212810+58646240+008737155+60733784+012395507FL135     1 6VAVET    6ROVPA   
AWY DCT   SA30214760212700+58646240+008737155+60512726+012606663FL135     1 6VAVET    6ROGED   
AWY DCT   SA30214760215190+58646240+008737155+59717842+011936705FL135     1 6VAVET    6XIDMI   
AWY DCT   SA30214760212500+58646240+008737155+58805946+010608141FL135     1 6VAVET    6REPKU   
AWY DCT   SA30212650208990+58414806+006527360+61000000+000000000FL135     1 6RIVEX    6GUNPA   
AWY DCT   SA30212650214570+58414806+006527360+61214428+000000000FL135     1 6RIVEX    6VALDI   
AWY DCT   SA30212650211730+58414806+006527360+59638264+000669067FL135     1 6RIVEX    6ORVIK   
AWY DCT   SA30212650209630+58414806+006527360+58390121+002828928FL135     1 6RIVEX    6KLONN   
AWY DCT   SA30212650206120+58414806+006527360+57907539+003608356FL135     1 6RIVEX    6ALOTI   
AWY DCT   SA30212650211120+58414806+006527360+57569946+004136917FL135     1 6RIVEX    6NIVUN   
AWY DCT   SA30209530212020+63000000+000000000+58497055+006807750FL135     1 6ISVIG    6PEVEB   
AWY DCT   SA30209490212020+62000000+000000000+58497055+006807750FL135     1 6IPTON    6PEVEB   
AWY DCT   SA30214570212020+61214428+000000000+58497055+006807750FL135     1 6VALDI    6PEVEB   
AWY DCT   SA30208990212020+61000000+000000000+58497055+006807750FL135     1 6GUNPA    6PEVEB   
AWY DCT   SA30211730212020+59638264+000669067+58497055+006807750FL135     1 6ORVIK    6PEVEB   
AWY DCT   SA30209630212020+58390121+002828928+58497055+006807750FL135     1 6KLONN    6PEVEB   
AWY DCT   SA30211120212020+57569946+004136917+58497055+006807750FL135     1 6NIVUN    6PEVEB   
AWY DCT   SA10212810211820+60733784+012395507+58474377+009052411FL135     1 6ROVPA    6OSVAL   
AWY DCT   SA10212700211820+60512726+012606663+58474377+009052411FL135     1 6ROGED    6OSVAL   
AWY DCT   SA10212500211820+58805946+010608141+58474377+009052411FL135     1 6REPKU    6OSVAL   
AWY DCT   SA30209900210521+57483871+007227428+57000000+006455695FL135     1 6LANTI    6MITSI   
AWY DCT   SA30207860212720+61675873+012216725+59329807+006844584FL135     1 6EGAGO    6ROPNO   
AWY DCT   SA30215140212720+61499748+012667910+59329807+006844584FL135     1 6XELVI    6ROPNO   
AWY DCT   SA30212810212720+60733784+012395507+59329807+006844584FL135     1 6ROVPA    6ROPNO   
AWY DCT   SA30212700212720+60512726+012606663+59329807+006844584FL135     1 6ROGED    6ROPNO   
AWY DCT   SA30208310212720+60012711+012392347+59329807+006844584FL135     1 6ESEBA    6ROPNO   
AWY DCT   SA30212360212650+57057110+007607319+58414806+006527360FL135     1 6RAMUD    6RIVEX   
AWY DCT   SA30206230212650+57675175+008802146+58414806+006527360FL135     1 6AMSEV    6RIVEX   
AWY DCT   SA30215190209160+59717842+011936705+58960140+006903861FL135     1 6XIDMI    6IDIPI   
AWY DCT   SA30212500209160+58805946+010608141+58960140+006903861FL135     1 6REPKU    6IDIPI   
AWY DCT   SA30212810212010+60733784+012395507+60243252+006585361FL135     1 6ROVPA    6PESUR   
AWY DCT   SA30208310212010+60012711+012392347+60243252+006585361FL135     1 6ESEBA    6PESUR   
AWY DCT   SA30209530210960+63000000+000000000+61061169+004809667FL135     1 6ISVIG    6NIDGI   
AWY DCT   SA30209260210960+62434982+000000000+61061169+004809667FL135     1 6INGAL    6NIDGI   
AWY DCT   SA30209490210960+62000000+000000000+61061169+004809667FL135     1 6IPTON    6NIDGI   
AWY DCT   SA30214570210960+61214428+000000000+61061169+004809667FL135     1 6VALDI    6NIDGI   
AWY DCT   SA30211970210550+59992012+000015003+60036251+003980834FL135     1 6PEPIN    6MODNI   
AWY DCT   SA30213030210280+63330833+012052499+60839863+006085249FL135     1 6SOLKA    6LUNUR   
AWY DCT   SA30211770210280+62319653+012262203+60839863+006085249FL135     1 6OSKOK    6LUNUR   
AWY DCT   SA30207860210280+61675873+012216725+60839863+006085249FL135     1 6EGAGO    6LUNUR   
AWY DCT   SA30207860206570+61675873+012216725+59072308+006022721FL135     1 6EGAGO    6BADAB   
AWY DCT   SA30215140206570+61499748+012667910+59072308+006022721FL135     1 6XELVI    6BADAB   
AWY DCT   SA30212810206570+60733784+012395507+59072308+006022721FL135     1 6ROVPA    6BADAB   
AWY DCT   SA30208310206570+60012711+012392347+59072308+006022721FL135     1 6ESEBA    6BADAB   
AWY DCT   SA30206230206570+57675175+008802146+59072308+006022721FL135     1 6AMSEV    6BADAB   
AWY DCT   SA30212360206570+57057110+007607319+59072308+006022721FL135     1 6RAMUD    6BADAB   
AWY DCT   SA30210100206570+57000000+007227316+59072308+006022721FL135     1 6LINVI    6BADAB   
AWY DCT   SA30209550206130+57000000+005507432+59390945+004969471FL135     1 6KARLI    6ALUVA   
AWY DCT   SA30211950206130+57109901+004836330+59390945+004969471FL135     1 6PENUN    6ALUVA   
AWY DCT   SA30211120206130+57569946+004136917+59390945+004969471FL135     1 6NIVUN    6ALUVA   
AWY DCT   SA30206120206130+57907539+003608356+59390945+004969471FL135     1 6ALOTI    6ALUVA   
AWY DCT   SA10208650207420+62210640+007378639+57000000+006697827FL135     1 6GIGIR    6DANKO   
AWY DCT   SA10208650210100+62210640+007378639+57000000+007227316FL135     1 6GIGIR    6LINVI   
AWY DCT   SA30208650212360+62210640+007378639+57057110+007607319FL135     1 6GIGIR    6RAMUD   
AWY DCT   SA10208650209710+62210640+007378639+57559700+008574142FL135     1 6GIGIR    6KOVIK   
AWY DCT   SA10208650212410+62210640+007378639+57289593+008049481FL135     1 6GIGIR    6RASVI   
AWY DCT   SA30208650206230+62210640+007378639+57675175+008802146FL135     1 6GIGIR    6AMSEV   
AWY DCT   SA10208650210900+62210640+007378639+57887943+009228278FL135     1 6GIGIR    6NERDO   
AWY DCT   SA10208650212530+62210640+007378639+57991524+009438616FL135     1 6GIGIR    6RETKA   
AWY DCT   SA30208650211080+62210640+007378639+58078518+009616783FL135     1 6GIGIR    6NIROD   
AWY DCT   SA30208650207030+62210640+007378639+58160618+009786191FL135     1 6GIGIR    6BINRO   
AWY DCT   SA10208650206400+62210640+007378639+58334419+010148983FL135     1 6GIGIR    6ARTOR   
AWY DCT   SA30208650212500+62210640+007378639+58805946+010608141FL135     1 6GIGIR    6REPKU   
AWY DCT   SA10208650207110+62210640+007378639+58906548+010718483FL135     1 6GIGIR    6BOMGU   
AWY DCT   SA10208650210420+62210640+007378639+60177776+012534722FL135     1 6GIGIR    6MASEV   
AWY DCT   SA10208650212700+62210640+007378639+60512726+012606663FL135     1 6GIGIR    6ROGED   
AWY DCT   SA10208650212810+62210640+007378639+60733784+012395507FL135     1 6GIGIR    6ROVPA   
AWY DCT   SA10208650213200+62210640+007378639+61151390+012719442FL135     1 6GIGIR    6SUVAR   
AWY DCT   SA30208880209260+63383083+009725388+62434982+000000000FL135     1 6GOGOX    6INGAL   
AWY DCT   SA30208880214110+63383083+009725388+63236805+004233044FL135     1 6GOGOX    6UMBOR   
AWY DCT   SA30208880210630+63383083+009725388+63359833+004356233FL135     1 6GOGOX    6MORIG   
AWY DCT   SA30208880210020+63383083+009725388+63555260+004553157FL135     1 6GOGOX    6LEPTI   
AWY DCT   SA30208880211150+63383083+009725388+63717026+004718808FL135     1 6GOGOX    6NOMGA   
AWY DCT   SA30208410213770+63000000+011640860+59891144+012020006FL135     1 6EVNEN    6TUMGU   
AWY DCT   SA30206850209530+58657944+007253191+63000000+000000000FL135     1 6BEDIK    6ISVIG   
AWY DCT   SA30206850209260+58657944+007253191+62434982+000000000FL135     1 6BEDIK    6INGAL   
AWY DCT   SA30206850209490+58657944+007253191+62000000+000000000FL135     1 6BEDIK    6IPTON   
AWY DCT   SA10206850214570+58657944+007253191+61214428+000000000FL135     1 6BEDIK    6VALDI   
AWY DCT   SA10206850211730+58657944+007253191+59638264+000669067FL135     1 6BEDIK    6ORVIK   
AWY DCT   SA10206850209630+58657944+007253191+58390121+002828928FL135     1 6BEDIK    6KLONN   
AWY DCT   SA30210100212650+57000000+007227316+58414806+006527360FL135     1 6LINVI    6RIVEX   
AWY DCT   SA30211120205880+57569946+004136917+60323612+009383333FL135     1 6NIVUN    6ADOPI   
AWY DCT   SA30213800205880+63000000+003066083+60323612+009383333FL135     1 6TUPUV    6ADOPI   
AWY DCT   SA30209530205880+63000000+000000000+60323612+009383333FL135     1 6ISVIG    6ADOPI   
AWY DCT   SA30209260205880+62434982+000000000+60323612+009383333FL135     1 6INGAL    6ADOPI   
AWY DCT   SA30209490205880+62000000+000000000+60323612+009383333FL135     1 6IPTON    6ADOPI   
AWY DCT   SA30214570205880+61214428+000000000+60323612+009383333FL135     1 6VALDI    6ADOPI   
AWY DCT   SA30208990205880+61000000+000000000+60323612+009383333FL135     1 6GUNPA    6ADOPI   
AWY DCT   SA30211730211780+59638264+000669067+59157074+007500000FL135     1 6ORVIK    6OSKOM   
AWY DCT   SA30209630212170+58390121+002828928+58847256+009042256FL135     1 6KLONN    6PIPEX   
AWY DCT   SA30211120212170+57569946+004136917+58847256+009042256FL135     1 6NIVUN    6PIPEX   
AWY DCT   SA30210520212170+57000000+006455695+58847256+009042256FL135     1 6MITSI    6PIPEX   
AWY DCT   SA30207420212170+57000000+006697827+58847256+009042256FL135     1 6DANKO    6PIPEX   
AWY DCT   SA30212410212170+57289593+008049481+58847256+009042256FL135     1 6RASVI    6PIPEX   
AWY DCT   SA30206230212170+57675175+008802146+58847256+009042256FL135     1 6AMSEV    6PIPEX   
AWY DCT   SA30211380207860+59682610+006609083+61675873+012216725FL135     1 6ODINU    6EGAGO   
AWY DCT   SA30211380215140+59682610+006609083+61499748+012667910FL135     1 6ODINU    6XELVI   
AWY DCT   SA30211380212810+59682610+006609083+60733784+012395507FL135     1 6ODINU    6ROVPA   
AWY DCT   SA30211380212700+59682610+006609083+60512726+012606663FL135     1 6ODINU    6ROGED   
AWY DCT   SA30211380210420+59682610+006609083+60177776+012534722FL135     1 6ODINU    6MASEV   
AWY DCT   SA30214310215190+59101612+006866167+59717842+011936705FL135     1 6UPLEV    6XIDMI   
AWY DCT   SA30214310207110+59101612+006866167+58906548+010718483FL135     1 6UPLEV    6BOMGU   
AWY DCT   SA30214310212500+59101612+006866167+58805946+010608141FL135     1 6UPLEV    6REPKU   
AWY DCT   SA30212020212530+58497055+006807750+57991524+009438616FL135     1 6PEVEB    6RETKA   
AWY DCT   SA30212020210900+58497055+006807750+57887943+009228278FL135     1 6PEVEB    6NERDO   
AWY DCT   SA30212020206230+58497055+006807750+57675175+008802146FL135     1 6PEVEB    6AMSEV   
AWY DCT   SA30207050209710+58346584+006246082+57559700+008574142FL135     1 6BIVKI    6KOVIK   
AWY DCT   SA30207050212360+58346584+006246082+57057110+007607319FL135     1 6BIVKI    6RAMUD   
AWY DCT   SA30207050210100+58346584+006246082+57000000+007227316FL135     1 6BIVKI    6LINVI   
AWY DCT   SA30207050210520+58346584+006246082+57000000+006455695FL135     1 6BIVKI    6MITSI   
AWY DCT   SA30212850210520+58210167+005525945+57000000+006455695FL135     1 6RUMOG    6MITSI   
AWY DCT   SA30212850209550+58210167+005525945+57000000+005507432FL135     1 6RUMOG    6KARLI   
AWY DCT   SA30212850206530+58210167+005525945+57000000+005000000FL135     1 6RUMOG    6ATNAK   
AWY DCT   SA30209910209630+58632805+004440694+58390121+002828928FL135     1 6LAPOT    6KLONN   
AWY DCT   SA30209910211120+58632805+004440694+57569946+004136917FL135     1 6LAPOT    6NIVUN   
AWY DCT   SA31994720206230+58875011+005640070+57675175+008802146FL135     1 4ZOL      6AMSEV   
AWY DCT   SA31994720209710+58875011+005640070+57559700+008574142FL135     1 4ZOL      6KOVIK   
AWY DCT   SA31994720212410+58875011+005640070+57289593+008049481FL135     1 4ZOL      6RASVI   
AWY DCT   SA31994720212360+58875011+005640070+57057110+007607319FL135     1 4ZOL      6RAMUD   
AWY DCT   SA31994720210520+58875011+005640070+57000000+006455695FL135     1 4ZOL      6MITSI   
AWY DCT   SA30206890206530+59637772+005158964+57000000+005000000FL135     1 6BEGOD    6ATNAK   
AWY DCT   SA30206890211120+59637772+005158964+57569946+004136917FL135     1 6BEGOD    6NIVUN   
AWY DCT   SA30206890206120+59637772+005158964+57907539+003608356FL135     1 6BEGOD    6ALOTI   
AWY DCT   SA30206890209630+59637772+005158964+58390121+002828928FL135     1 6BEGOD    6KLONN   
AWY DCT   SA30213440215190+60010529+006350527+59717842+011936705FL135     1 6TINIG    6XIDMI   
AWY DCT   SA30213440207110+60010529+006350527+58906548+010718483FL135     1 6TINIG    6BOMGU   
AWY DCT   SA30213440212500+60010529+006350527+58805946+010608141FL135     1 6TINIG    6REPKU   
AWY DCT   SA30211610212710+61070389+005171306+63000000+002000000FL135     1 6OLDAS    6ROGLO   
AWY DCT   SA30211610209530+61070389+005171306+63000000+000000000FL135     1 6OLDAS    6ISVIG   
AWY DCT   SA30211610209260+61070389+005171306+62434982+000000000FL135     1 6OLDAS    6INGAL   
AWY DCT   SA30211610209490+61070389+005171306+62000000+000000000FL135     1 6OLDAS    6IPTON   
AWY DCT   SA30208250209630+59876335+004074222+58390121+002828928FL135     1 6EPOTU    6KLONN   
AWY DCT   SA30208250211970+59876335+004074222+59992012+000015003FL135     1 6EPOTU    6PEPIN   
AWY DCT   SA30208250206950+59876335+004074222+59035828+001738942FL135     1 6EPOTU    6BEREP   
AWY DCT   SA30213540214570+59041668+009000000+61214428+000000000FL135     1 6TITUX    6VALDI   
AWY DCT   SA30213540208990+59041668+009000000+61000000+000000000FL135     1 6TITUX    6GUNPA   
AWY DCT   SA30213540211970+59041668+009000000+59992012+000015003FL135     1 6TITUX    6PEPIN   
AWY DCT   SA30213540211730+59041668+009000000+59638264+000669067FL135     1 6TITUX    6ORVIK   
AWY DCT   SA30213540209630+59041668+009000000+58390121+002828928FL135     1 6TITUX    6KLONN   
AWY DCT   SA30213540206120+59041668+009000000+57907539+003608356FL135     1 6TITUX    6ALOTI   
AWY DCT   SA30213540211120+59041668+009000000+57569946+004136917FL135     1 6TITUX    6NIVUN   
AWY DCT   SA30210310211120+58713657+009460450+57569946+004136917FL135     1 6LUTOT    6NIVUN   
AWY DCT   SA30210310210520+58713657+009460450+57000000+006455695FL135     1 6LUTOT    6MITSI   
AWY DCT   SA30210310207420+58713657+009460450+57000000+006697827FL135     1 6LUTOT    6DANKO   
AWY DCT   SA30210310212410+58713657+009460450+57289593+008049481FL135     1 6LUTOT    6RASVI   
AWY DCT   SA30214730211080+58583332+009908959+58078518+009616783FL135     1 6VATIT    6NIROD   
AWY DCT   SA30214730207030+58583332+009908959+58160618+009786191FL135     1 6VATIT    6BINRO   
AWY DCT   SA30208420214110+60816765+009936533+63236805+004233044FL135     1 6EVTOG    6UMBOR   
AWY DCT   SA30208420207840+60816765+009936533+63000000+003717092FL135     1 6EVTOG    6EDURA   
AWY DCT   SA30208420209530+60816765+009936533+63000000+000000000FL135     1 6EVTOG    6ISVIG   
AWY DCT   SA30208420209260+60816765+009936533+62434982+000000000FL135     1 6EVTOG    6INGAL   
AWY DCT   SA30206520209260+60146095+009800695+62434982+000000000FL135     1 6ATLAP    6INGAL   
AWY DCT   SA30206520209490+60146095+009800695+62000000+000000000FL135     1 6ATLAP    6IPTON   
AWY DCT   SA30206520214570+60146095+009800695+61214428+000000000FL135     1 6ATLAP    6VALDI   
AWY DCT   SA30206520208990+60146095+009800695+61000000+000000000FL135     1 6ATLAP    6GUNPA   
AWY DCT   SA30206520211970+60146095+009800695+59992012+000015003FL135     1 6ATLAP    6PEPIN   
AWY DCT   SA30206520206950+60146095+009800695+59035828+001738942FL135     1 6ATLAP    6BEREP   
AWY DCT   SA30206520209630+60146095+009800695+58390121+002828928FL135     1 6ATLAP    6KLONN   
AWY DCT   SA30206520206120+60146095+009800695+57907539+003608356FL135     1 6ATLAP    6ALOTI   
AWY DCT   SA30206520211120+60146095+009800695+57569946+004136917FL135     1 6ATLAP    6NIVUN   
AWY DCT   SA31994560210520+59169109+010259266+57000000+006455695FL135     1 4TOR      6MITSI   
AWY DCT   SA31994560207420+59169109+010259266+57000000+006697827FL135     1 4TOR      6DANKO   
AWY DCT   SA31994560210100+59169109+010259266+57000000+007227316FL135     1 4TOR      6LINVI   
AWY DCT   SA31994560212410+59169109+010259266+57289593+008049481FL135     1 4TOR      6RASVI   
AWY DCT   SA31994560211080+59169109+010259266+58078518+009616783FL135     1 4TOR      6NIROD   
AWY DCT   SA31994560207030+59169109+010259266+58160618+009786191FL135     1 4TOR      6BINRO   
AWY DCT   SA31994560206400+59169109+010259266+58334419+010148983FL135     1 4TOR      6ARTOR   
AWY DCT   SA31994720209550+58875011+005640070+57000000+005507432FL135     1 4ZOL      6KARLI   
AWY DCT   SA31994720207420+58875011+005640070+57000000+006697827FL135     1 4ZOL      6DANKO   
AWY DCT   SA31994720210100+58875011+005640070+57000000+007227316FL135     1 4ZOL      6LINVI   
AWY DCT   SA10206160210280+67875000+016441389+60839863+006085249FL135     1 6AMIMO    6LUNUR   
AWY DCT   SA10209372066290+60970779+005849333+69161369+017815858FL135     1 6INTUM    5SJA     
AWY DCT   SA10209372066340+60970779+005849333+66290237+013768831FL135     1 6INTUM    5STM     
AWY DCT   SA10211382066340+59682610+006609083+66290237+013768831FL135     1 6ODINU    5STM     
AWY DCT   SA10211382066290+59682610+006609083+69161369+017815858FL135     1 6ODINU    5SJA     
AWY DCT   SA10206160213510+67875000+016441389+58948647+008311614FL135     1 6AMIMO    6TIPSO   
AWY DCT   SA10213512066290+58948647+008311614+69161369+017815858FL135     1 6TIPSO    5SJA     
AWY DCT   SA10213512066341+58948647+008311614+66290237+013768831FL135     1 6TIPSO    5STM     
AWY DCT   SA10213510211701+58948647+008311614+69019669+012806836FL135     1 6TIPSO    6OMEXA   
AWY DCT   SA10212420208620+69951881+022003143+67794205+015354450FL135     1 6RATUL    6GEPTU   
AWY DCT   SA10206160212421+67875000+016441389+69951881+022003143FL135     1 6AMIMO    6RATUL   
AWY DCT   SA10211800208520+69666664+022745800+69172501+021796110FL135     1 6OSLAT    6GAPRO   
AWY DCT   SA30222420223801+58027943+020414667+57336945+022636945FL095     1 6RASEL    6LAPSA   
AWY DCT   SA30220690223801+57672779+020210832+57336945+022636945FL095     1 6DEREX    6LAPSA   
AWY DCT   SA30224030221021+57063057+022305555+57165001+019924722FL095     1 6TENSI    6EVONA   
AWY DCT   SA30224060223490+56719723+022461944+56531666+018876667FL095     1 6VALED    6VEDEN   
AWY DCT   SA30224060224090+56719723+022461944+56297779+018898334FL095     1 6VALED    6ADAXA   
AWY DCT   SA30224060224320+56719723+022461944+56146111+020082222FL095     1 6VALED    6GARSO   
AWY DCT   SA30224060224640+56719723+022461944+56090279+020495555FL095     1 6VALED    6RONUS   
AWY DCT   SA30223490223920+56531666+018876667+56902500+022379167FL095     1 6VEDEN    6ORVIX   
AWY DCT   SA30224090223920+56297779+018898334+56902500+022379167FL095     1 6ADAXA    6ORVIX   
AWY DCT   SA30224320223920+56146111+020082222+56902500+022379167FL095     1 6GARSO    6ORVIX   
AWY DCT   SA30224640223920+56090279+020495555+56902500+022379167FL095     1 6RONUS    6ORVIX   
AWY DCT   SA30223990184921+57900002+024299444+59799446+024452499FL095     1 6SOKVA    6DOBAN   
AWY DCT   SA30223990184771+57900002+024299444+59904167+025251667FL095     1 6SOKVA    6BALTI   
AWY DCT   SA30223990185921+57900002+024299444+59896946+025584999FL095     1 6SOKVA    6MOHNI   
AWY DCT   SA30224070184371+57550278+024725833+58289444+027376110FL095     1 6VANAG    6TITOV   
AWY DCT   SA30223600648120+57105831+025254167+57380280+027685833FL095     1 6AMOLI    6LATLA   
AWY DCT   SA30223910223600+56751667+027901666+57105831+025254167FL095     1 6OPOKA    6AMOLI   
AWY DCT   SA30223910223630+56751667+027901666+56853889+025546667FL095     1 6OPOKA    6BARVA   
AWY DCT   SA30223690224051+55812778+026978056+56479446+025171667FL095     1 6DUBIN    6TUSAS   
AWY DCT   SA30223980223750+56575558+025267221+56360001+028200000FL095     1 6SAKTA    6IGORO   
AWY DCT   SA30874640184540+60309723+024422222+60297501+023981388FL095     1 6VAGIP    6ADIVO   
AWY DCT   SA30185090184670+60481388+024775556+60249443+026399166FL095     1 6ENUTO    6ARVEP   
AWY DCT   SA30184710184920+60234722+024423889+59799446+024452499FL095     1 6ASTIV    6DOBAN   
AWY DCT   SA30185090185530+60481388+024775556+60710835+025794166FL095     1 6ENUTO    6IDEPI   
AWY DCT   SA30874640185740+60309723+024422222+60190556+023937221FL095     1 6VAGIP    6KUVEM   
AWY DCT   SA30185090186000+60481388+024775556+60742500+024485555FL095     1 6ENUTO    6NEPEK   
AWY DCT   SA30874600186110+60193611+024278610+60083611+023893611FL095     1 6RILBO    6NUNTO   
AWY DCT   SA30184710186520+60234722+024423889+59885834+024896694     FL1001 6ASTIV    6RENKU   
AWY DCT   SA30185090186860+60481388+024775556+60821110+024824722FL095     1 6ENUTO    6TEVRU   
AWY DCT   SA30187280184540+60508331+024811389+60297501+023981388FL095     1 6VETUD    6ADIVO   
AWY DCT   SA30187050184540+60464722+024765556+60297501+023981388FL095     1 6UNURU    6ADIVO   
AWY DCT   SA30186590184540+60273335+024585277+60297501+023981388FL095     1 6RIPVI    6ADIVO   
AWY DCT   SA30185150184540+60308334+024578332+60297501+023981388FL095     1 6ERSAV    6ADIVO   
AWY DCT   SA30185000184670+60313889+025495832+60249443+026399166FL095     1 6ELPEN    6ARVEP   
AWY DCT   SA30874570184670+60290001+025454721+60249443+026399166FL095     1 6NUTRU    6ARVEP   
AWY DCT   SA30185540184670+60400833+025052499+60249443+026399166FL095     1 6IDMOP    6ARVEP   
AWY DCT   SA30185000184920+60313889+025495832+59799446+024452499FL095     1 6ELPEN    6DOBAN   
AWY DCT   SA30185380184920+60190834+024561945+59799446+024452499FL095     1 6GIRLA    6DOBAN   
AWY DCT   SA30874650184920+60225834+024557500+59799446+024452499FL095     1 6VAMRA    6DOBAN   
AWY DCT   SA30874680185530+60442780+025227222+60710835+025794166FL095     1 6XOMRI    6IDEPI   
AWY DCT   SA30874570185530+60290001+025454721+60710835+025794166FL095     1 6NUTRU    6IDEPI   
AWY DCT   SA30185540185530+60400833+025052499+60710835+025794166FL095     1 6IDMOP    6IDEPI   
AWY DCT   SA30187280185740+60508331+024811389+60190556+023937221FL095     1 6VETUD    6KUVEM   
AWY DCT   SA30187050185740+60464722+024765556+60190556+023937221FL095     1 6UNURU    6KUVEM   
AWY DCT   SA30186590185740+60273335+024585277+60190556+023937221FL095     1 6RIPVI    6KUVEM   
AWY DCT   SA30185150185740+60308334+024578332+60190556+023937221FL095     1 6ERSAV    6KUVEM   
AWY DCT   SA30874510186000+60505833+025131666+60742500+024485555FL095     1 6LULAB    6NEPEK   
AWY DCT   SA30187050186000+60464722+024765556+60742500+024485555FL095     1 6UNURU    6NEPEK   
AWY DCT   SA30186590186000+60273335+024585277+60742500+024485555FL095     1 6RIPVI    6NEPEK   
AWY DCT   SA30186500186000+60427223+024864444+60742500+024485555FL095     1 6REDBO    6NEPEK   
AWY DCT   SA30187280186110+60508331+024811389+60083611+023893611FL095     1 6VETUD    6NUNTO   
AWY DCT   SA30187050186110+60464722+024765556+60083611+023893611FL095     1 6UNURU    6NUNTO   
AWY DCT   SA30186590186110+60273335+024585277+60083611+023893611FL095     1 6RIPVI    6NUNTO   
AWY DCT   SA30185150186110+60308334+024578332+60083611+023893611FL095     1 6ERSAV    6NUNTO   
AWY DCT   SA30874510186860+60505833+025131666+60821110+024824722FL095     1 6LULAB    6TEVRU   
AWY DCT   SA30187050186860+60464722+024765556+60821110+024824722FL095     1 6UNURU    6TEVRU   
AWY DCT   SA30186590186860+60273335+024585277+60821110+024824722FL095     1 6RIPVI    6TEVRU   
AWY DCT   SA30186500186860+60427223+024864444+60821110+024824722FL095     1 6REDBO    6TEVRU   
AWY DCT   SA30185000186520+60313889+025495832+59885834+024896694     FL1001 6ELPEN    6RENKU   
AWY DCT   SA30185380186520+60190834+024561945+59885834+024896694     FL1001 6GIRLA    6RENKU   
AWY DCT   SA30874650186520+60225834+024557500+59885834+024896694     FL1001 6VAMRA    6RENKU   
AWY DCT   SA10208660205650+62000000+011485307+68542679+011828663FL135     1 6GIGNI    6ABGUN   
AWY DCT   SA10208660211700+62000000+011485307+69019669+012806836FL135     1 6GIGNI    6OMEXA   
AWY DCT   SA10205650205760+68542679+011828663+62000000+011940256FL135     1 6ABGUN    6ABUNO   
AWY DCT   SA30183890184091+58942501+025576944+57830002+027559722FL095     1 6GONOS    6NOTAR   
AWY DCT   SA30184010220690+59082222+023834446+57672779+020210832FL095     1 6LONSA    6DEREX   
AWY DCT   SA30184180221941+59249168+023475833+58904972+020941249FL095     1 6OSMUR    6NEBSI   
AWY DCT   SA30184180222001+59249168+023475833+58627724+020771778FL095     1 6OSMUR    6NEREN   
AWY DCT   SA10208670209581+64034308+013793861+64568611+013233056FL195FL2851 6GIKAV    6KEKEL   
AWY DCT   SA10209580211131+64568611+013233056+64462585+014113888FL195FL2851 6KEKEL    6NOGBO   
AWY DCT   SA10186450222190+59991112+021387777+59933056+019462221FL095     1 6POGOK    6OGLOB   
AWY DCT   SA10212280210290+68497780+019098611+69090401+018267353FL135     1 6POBEL    6LURAP   
AWY DCT   SA30212110212671+69323647+019743803+68791115+020324722FL135     1 6PIGAX    6RIXEM   
AWY DCT   SA30212110206961+69323647+019743803+70622299+019010564FL135     1 6PIGAX    6BETMA   
AWY DCT   SA30212110209661+69323647+019743803+70556831+018545000FL135     1 6PIGAX    6KOMUX   
AWY DCT   SA10213000214571+60774220+007273928+61214428+000000000FL135     1 6SOBDU    6VALDI   
AWY DCT   SA10213000209491+60774220+007273928+62000000+000000000FL135     1 6SOBDU    6IPTON   
AWY DCT   SA10213000209261+60774220+007273928+62434982+000000000FL135     1 6SOBDU    6INGAL   
AWY DCT   SA10213000209531+60774220+007273928+63000000+000000000FL135     1 6SOBDU    6ISVIG   
AWY DCT   SA10213000212711+60774220+007273928+63000000+002000000FL135     1 6SOBDU    6ROGLO   
AWY DCT   SA30224320186011+56146111+020082222+66108329+025124166FL095     1 6GARSO    6NEPIX   
AWY DCT   SA30224320186531+56146111+020082222+66076111+025531667FL095     1 6GARSO    6RENVI   
AWY DCT   SA30223990221541+57900002+024299444+63538612+021036666FL095     1 6SOKVA    6LAMPI   
AWY DCT   SA30223990221271+57900002+024299444+62830555+020010833FL095     1 6SOKVA    6IRGAL   
AWY DCT   SA30223990223251+57900002+024299444+61761944+019540277FL095     1 6SOKVA    6TOGMI   
AWY DCT   SA30223990220611+57900002+024299444+62415001+019824167FL095     1 6SOKVA    6BODRI   
AWY DCT   SA10206500211930+68451248+015802595+66636107+015676111FL135     1 6ASTOX    6PENAX   
AWY DCT   SA30186470186650+60858334+028338333+60860832+027023056FL095     1 6RATLA    6ROKVI   
AWY DCT   SA30184080223950+58808887+024969999+56298889+024031667FL095     1 6NITSO    6ROLAV   
AWY DCT   SA10212150206950+68323334+015460000+59035828+001738942FL135     1 6PIKOX    6BEREP   
AWY DCT   SA10214360211120+68039154+015833406+57569946+004136917FL135     1 6URUXA    6NIVUN   
AWY DCT   SA10212670210010+68791115+020324722+69732925+020000000FL135     1 6RIXEM    6LENSA   
AWY DCT   SA30224640184330+56090279+020495555+58971668+024068611FL095     1 6RONUS    6SULUN   
AWY DCT   SA30184010224640+59082222+023834446+56090279+020495555FL095     1 6LONSA    6RONUS   
AWY DCT   SA30184010224320+59082222+023834446+56146111+020082222FL095     1 6LONSA    6GARSO   
AWY DCT   SA30224190187120+56363056+023426389+61092499+023849445FL095     1 6BERIL    6UVEMO   
AWY DCT   SA30187060224191+60185001+022559444+56363056+023426389FL095     1 6UPAPU    6BERIL   
AWY DCT   SA30187060224681+60185001+022559444+54213055+025195833FL095     1 6UPAPU    6SOGBI   
AWY DCT   SA30187060224301+60185001+022559444+56369068+024630466FL095     1 6UPAPU    6ERIVA   
AWY DCT   SA30187060223691+60185001+022559444+55812778+026978056FL095     1 6UPAPU    6DUBIN   
AWY DCT   SA30187060184091+60185001+022559444+57830002+027559722FL095     1 6UPAPU    6NOTAR   
AWY DCT   SA30187060650931+60185001+022559444+56038891+027821388FL095     1 6UPAPU    6NIGBA   
AWY DCT   SA30185070222080+60214443+021711111+59318611+020431667FL095     1 6EMPOM    6NISIX   
AWY DCT   SA30185800221700+60343056+021463888+59640278+019876388FL095     1 6LIVLU    6LUPET   
AWY DCT   SA30185800222590+60343056+021463888+59749722+019724166FL095     1 6LIVLU    6RUNGA   
AWY DCT   SA30185800222190+60343056+021463888+59933056+019462221FL095     1 6LIVLU    6OGLOB   
AWY DCT   SA30186290222400+60474998+021367778+59981388+019392499FL095     1 6OTKIL    6POKAS   
AWY DCT   SA30186290221011+60474998+021367778+60252220+019111944FL095     1 6OTKIL    6EVLAN   
AWY DCT   SA30186040221541+60774166+022133611+63538612+021036666FL095     1 6NIRPU    6LAMPI   
AWY DCT   SA30186040223471+60774166+022133611+63418610+020574167FL095     1 6NIRPU    6VALAK   
AWY DCT   SA30186040220611+60774166+022133611+62415001+019824167FL095     1 6NIRPU    6BODRI   
AWY DCT   SA30222500186290+59970833+019408056+60474998+021367778FL095     1 6RIKUM    6OTKIL   
AWY DCT   SA30187060186381+60185001+022559444+59511112+023141944FL095     1 6UPAPU    6PETOT   
AWY DCT   SA30224470220691+56374722+021944166+57672779+020210832FL095     1 6LITPA    6DEREX   
AWY DCT   SA30224470221021+56374722+021944166+57165001+019924722FL095     1 6LITPA    6EVONA   
AWY DCT   SA30184130224320+58849998+024322778+56146111+020082222FL095     1 6ORTAX    6GARSO   
AWY DCT   SA10220610187150+62415001+019824167+60849998+022613332FL285     1 6BODRI    6UXADA   
AWY DCT   SA10221270187150+62830555+020010833+60849998+022613332FL285     1 6IRGAL    6UXADA   
AWY DCT   SA10223250187150+61761944+019540277+60849998+022613332FL285     1 6TOGMI    6UXADA   
AWY DCT   SA30223110185480+64553886+022737777+61619999+025295278FL095     1 6SUTEV    6IBOSU   
AWY DCT   SA30223870223681+57688057+021455278+56826668+027468055FL095     1 6MILTA    6DOLUN   
