
AWY DCT   SA30210790215131+65557770+014508472+65657104+006887321FL135     0 6NEBUR    6XELRU   
AWY DCT   SA30208670215131+64034308+013793861+65657104+006887321FL135     0 6GIKAV    6XELRU   
AWY DCT   SA10185770222400+59974998+026111667+59981388+019392499FL285     1 6LEDUN    6POKAS   
AWY DCT   SA30224300222001+56369068+024630466+58627724+020771778FL095     1 6ERIVA    6NEREN   
AWY DCT   SA30224650221041+56073891+021093610+56871387+019566667FL095     1 6RUCAV    6GELDA   
AWY DCT   SA10222080185680+59318611+020431667+62666668+031375278FL285     1 6NISIX    6KOKAT   
AWY DCT   SA30224320184390+56146111+020082222+58788612+027171943FL095     1 6GARSO    6TOMPA   
AWY DCT   SA30223910221040+56751667+027901666+56871387+019566667FL095     1 6OPOKA    6GELDA   
AWY DCT   SA30221040648120+56871387+019566667+57380280+027685833FL095     1 6GELDA    6LATLA   
AWY DCT   SA30221040223750+56871387+019566667+56360001+028200000FL095     1 6GELDA    6IGORO   
AWY DCT   SA30221040184390+56871387+019566667+58788612+027171943FL095     1 6GELDA    6TOMPA   
AWY DCT   SA30221040224321+56871387+019566667+56146111+020082222FL095     1 6GELDA    6GARSO   
AWY DCT   SA30220690184390+57672779+020210832+58788612+027171943FL095     1 6DEREX    6TOMPA   
AWY DCT   SA30187340222590+63365833+025380277+59749722+019724166FL095     1 6XEVLO    6RUNGA   
AWY DCT   SA30187340222190+63365833+025380277+59933056+019462221FL095     1 6XEVLO    6OGLOB   
AWY DCT   SA30187340222400+63365833+025380277+59981388+019392499FL095     1 6XEVLO    6POKAS   
AWY DCT   SA30187340221011+63365833+025380277+60252220+019111944FL095     1 6XEVLO    6EVLAN   
AWY DCT   SA30184500221290+63582500+025391389+60468613+019175832FL095     1 6ABOXU    6KELAS   
AWY DCT   SA30184500220471+63582500+025391389+61362499+019415832FL095     1 6ABOXU    6BAKLA   
AWY DCT   SA30184930220611+63723331+025398889+62415001+019824167FL095     1 6DODEP    6BODRI   
AWY DCT   SA30184930221271+63723331+025398889+62830555+020010833FL095     1 6DODEP    6IRGAL   
AWY DCT   SA30224320187341+56146111+020082222+63365833+025380277FL095     1 6GARSO    6XEVLO   
AWY DCT   SA30224400187341+56212776+019573333+63365833+025380277FL095     1 6KEDUX    6XEVLO   
AWY DCT   SA30222500187340+59970833+019408056+63365833+025380277FL095     1 6RIKUM    6XEVLO   
AWY DCT   SA30220820187340+60044445+019301666+63365833+025380277FL095     1 6DODAM    6XEVLO   
AWY DCT   SA11994560211121+59169109+010259266+57569946+004136917FL195     1 4TOR      6NIVUN   
AWY DCT   SA11994560209631+59169109+010259266+58390121+002828928FL195     1 4TOR      6KLONN   
AWY DCT   SA11994560211731+59169109+010259266+59638264+000669067FL195     1 4TOR      6ORVIK   
AWY DCT   SA11994560208991+59169109+010259266+61000000+000000000FL195     1 4TOR      6GUNPA   
AWY DCT   SA11994560214571+59169109+010259266+61214428+000000000FL195     1 4TOR      6VALDI   
AWY DCT   SA30223470220610+63418610+020574167+62415001+019824167FL095     1 6VALAK    6BODRI   
AWY DCT   SA30223990184390+57900002+024299444+58788612+027171943FL095     1 6SOKVA    6TOMPA   
AWY DCT   SA30221940184390+58904972+020941249+58788612+027171943FL095     1 6NEBSI    6TOMPA   
AWY DCT   SA30222000184390+58627724+020771778+58788612+027171943FL095     1 6NEREN    6TOMPA   
AWY DCT   SA30221020184390+57165001+019924722+58788612+027171943FL095     1 6EVONA    6TOMPA   
AWY DCT   SA30223610184390+56382778+022612777+58788612+027171943FL095     1 6ASKOR    6TOMPA   
AWY DCT   SA30224300184390+56369068+024630466+58788612+027171943FL095     1 6ERIVA    6TOMPA   
AWY DCT   SA30224460184390+56138889+025571388+58788612+027171943FL095     1 6LISGO    6TOMPA   
AWY DCT   SA30184790220591+63949444+026550277+65592781+024153888FL095     1 6BAVMO    6BEXUL   
AWY DCT   SA30184790220861+63949444+026550277+65251662+023727500FL095     1 6BAVMO    6EKMIK   
AWY DCT   SA30184790223111+63949444+026550277+64553886+022737777FL095     1 6BAVMO    6SUTEV   
AWY DCT   SA30184580220470+62648335+029838611+61362499+019415832FL095     1 6AGIVU    6BAKLA   
AWY DCT   SA30184580221290+62648335+029838611+60468613+019175832FL095     1 6AGIVU    6KELAS   
AWY DCT   SA30184580221010+62648335+029838611+60252220+019111944FL095     1 6AGIVU    6EVLAN   
AWY DCT   SA30184580222400+62648335+029838611+59981388+019392499FL095     1 6AGIVU    6POKAS   
AWY DCT   SA30184580222190+62648335+029838611+59933056+019462221FL095     1 6AGIVU    6OGLOB   
AWY DCT   SA30184580222590+62648335+029838611+59749722+019724166FL095     1 6AGIVU    6RUNGA   
AWY DCT   SA30184580221700+62648335+029838611+59640278+019876388FL095     1 6AGIVU    6LUPET   
AWY DCT   SA10184580222080+62648335+029838611+59318611+020431667FL285     1 6AGIVU    6NISIX   
AWY DCT   SA10184580221460+62648335+029838611+59182777+020676111FL285     1 6AGIVU    6KOSKA   
AWY DCT   SA10184580222000+62648335+029838611+58627724+020771778FL285     1 6AGIVU    6NEREN   
AWY DCT   SA10184580220690+62648335+029838611+57672779+020210832FL285     1 6AGIVU    6DEREX   
AWY DCT   SA10184580224320+62648335+029838611+56146111+020082222FL285     1 6AGIVU    6GARSO   
AWY DCT   SA10184580224400+62648335+029838611+56212776+019573333FL285     1 6AGIVU    6KEDUX   
AWY DCT   SA30184020221940+59454166+027446388+58904972+020941249FL095     1 6LUKUN    6NEBSI   
AWY DCT   SA30184270224300+59338333+027490278+56369068+024630466FL095     1 6RESMO    6ERIVA   
AWY DCT   SA30184270221020+59338333+027490278+57165001+019924722FL095     1 6RESMO    6EVONA   
AWY DCT   SA30184270220690+59338333+027490278+57672779+020210832FL095     1 6RESMO    6DEREX   
AWY DCT   SA30184020222000+59454166+027446388+58627724+020771778FL095     1 6LUKUN    6NEREN   
AWY DCT   SA30184020222080+59454166+027446388+59318611+020431667FL095     1 6LUKUN    6NISIX   
AWY DCT   SA10184020221700+59454166+027446388+59640278+019876388FL285     1 6LUKUN    6LUPET   
AWY DCT   SA10184020222190+59454166+027446388+59933056+019462221FL285     1 6LUKUN    6OGLOB   
AWY DCT   SA10184020221010+59454166+027446388+60252220+019111944FL285     1 6LUKUN    6EVLAN   
AWY DCT   SA10224340186380+56371387+023755556+59511112+023141944FL095     1 6GUNTA    6PETOT   
AWY DCT   SA10224340223860+56371387+023755556+57899445+023914722FL095     1 6GUNTA    6LUTAL   
AWY DCT   SA10223910224190+56751667+027901666+56363056+023426389FL095     1 6OPOKA    6BERIL   
AWY DCT   SA30223610648120+56382778+022612777+57380280+027685833FL095     1 6ASKOR    6LATLA   
AWY DCT   SA30224460223750+56138889+025571388+56360001+028200000FL095     1 6LISGO    6IGORO   
AWY DCT   SA30224190184370+56363056+023426389+58289444+027376110FL095     1 6BERIL    6TITOV   
AWY DCT   SA30223760184370+56369446+024958610+58289444+027376110FL095     1 6IRBEX    6TITOV   
AWY DCT   SA30223840184370+56175278+025158611+58289444+027376110FL095     1 6LUNIT    6TITOV   
AWY DCT   SA10185690220691+62421665+031108333+57672779+020210832FL285     1 6KOMEK    6DEREX   
AWY DCT   SA10185690222001+62421665+031108333+58627724+020771778FL285     1 6KOMEK    6NEREN   
AWY DCT   SA10185690221460+62421665+031108333+59182777+020676111FL285     1 6KOMEK    6KOSKA   
AWY DCT   SA10185690222081+62421665+031108333+59318611+020431667FL285     1 6KOMEK    6NISIX   
AWY DCT   SA30185690221700+62421665+031108333+59640278+019876388FL095     1 6KOMEK    6LUPET   
AWY DCT   SA30185690222590+62421665+031108333+59749722+019724166FL095     1 6KOMEK    6RUNGA   
AWY DCT   SA30185690222190+62421665+031108333+59933056+019462221FL095     1 6KOMEK    6OGLOB   
AWY DCT   SA30185690221011+62421665+031108333+60252220+019111944FL095     1 6KOMEK    6EVLAN   
AWY DCT   SA30185690221290+62421665+031108333+60468613+019175832FL095     1 6KOMEK    6KELAS   
AWY DCT   SA30185690220471+62421665+031108333+61362499+019415832FL095     1 6KOMEK    6BAKLA   
AWY DCT   SA30185690223251+62421665+031108333+61761944+019540277FL095     1 6KOMEK    6TOGMI   
AWY DCT   SA30185690220611+62421665+031108333+62415001+019824167FL095     1 6KOMEK    6BODRI   
AWY DCT   SA30185690221271+62421665+031108333+62830555+020010833FL095     1 6KOMEK    6IRGAL   
AWY DCT   SA30185690223471+62421665+031108333+63418610+020574167FL095     1 6KOMEK    6VALAK   
AWY DCT   SA30185690223111+62421665+031108333+64553886+022737777FL095     1 6KOMEK    6SUTEV   
AWY DCT   SA30185690220861+62421665+031108333+65251662+023727500FL095     1 6KOMEK    6EKMIK   
AWY DCT   SA30185690220591+62421665+031108333+65592781+024153888FL095     1 6KOMEK    6BEXUL   
AWY DCT   SA30185650187351+68503334+028458332+65940558+024076667FL095     1 6KELEK    6XONTU   
AWY DCT   SA30185650221841+68503334+028458332+66174721+023819444FL095     1 6KELEK    6MISMO   
AWY DCT   SA30221730185651+66735275+023892221+68503334+028458332FL095     1 6MAGON    6KELEK   
AWY DCT   SA30185650185970+68503334+028458332+67034721+023716945FL095     1 6KELEK    6NEBET   
AWY DCT   SA30223340185651+67690559+023495277+68503334+028458332FL095     1 6TUVLU    6KELEK   
AWY DCT   SA30208180185651+69330925+025752811+68503334+028458332FL095     1 6ENEXI    6KELEK   
AWY DCT   SA10208180212111+69330925+025752811+69323647+019743803FL135     1 6ENEXI    6PIGAX   
AWY DCT   SA30212800185970+69797218+028530832+67034721+023716945FL095     1 6ROVAN    6NEBET   
AWY DCT   SA30212800221841+69797218+028530832+66174721+023819444FL095     1 6ROVAN    6MISMO   
AWY DCT   SA30212950185970+69574448+029237777+67034721+023716945FL095     1 6SIVNU    6NEBET   
AWY DCT   SA30212950223341+69574448+029237777+67690559+023495277FL095     1 6SIVNU    6TUVLU   
AWY DCT   SA10211130209491+64462585+014113888+62000000+000000000FL195     1 6NOGBO    6IPTON   
AWY DCT   SA10208810208671+67038810+009059413+64034308+013793861FL195     1 6GISOX    6GIKAV   
AWY DCT   SA10214110210420+63236805+004233044+60177776+012534722FL195     1 6UMBOR    6MASEV   
AWY DCT   SA10209530210420+63000000+000000000+60177776+012534722FL195     1 6ISVIG    6MASEV   
AWY DCT   SA10209260210420+62434982+000000000+60177776+012534722FL195     1 6INGAL    6MASEV   
AWY DCT   SA10209490210420+62000000+000000000+60177776+012534722FL195     1 6IPTON    6MASEV   
AWY DCT   SA10214570210420+61214428+000000000+60177776+012534722FL195     1 6VALDI    6MASEV   
AWY DCT   SA10208990210420+61000000+000000000+60177776+012534722FL195     1 6GUNPA    6MASEV   
AWY DCT   SA10211970210420+59992012+000015003+60177776+012534722FL195     1 6PEPIN    6MASEV   
AWY DCT   SA10209630210420+58390121+002828928+60177776+012534722FL195     1 6KLONN    6MASEV   
AWY DCT   SA10223190206120+62937222+012125278+57907539+003608356FL195     1 6TIGBA    6ALOTI   
AWY DCT   SA10223190206950+62937222+012125278+59035828+001738942FL195     1 6TIGBA    6BEREP   
AWY DCT   SA10223190211970+62937222+012125278+59992012+000015003FL195     1 6TIGBA    6PEPIN   
AWY DCT   SA10223190209260+62937222+012125278+62434982+000000000FL195     1 6TIGBA    6INGAL   
AWY DCT   SA10223190210020+62937222+012125278+63555260+004553157FL195     1 6TIGBA    6LEPTI   
AWY DCT   SA10211700213050+69019669+012806836+63349167+011805000FL195     1 6OMEXA    6SOMUB   
AWY DCT   SA10211220213770+68097191+010961311+59891144+012020006FL195     1 6NORVA    6TUMGU   
AWY DCT   SA10212590215141+58793289+002154953+61499748+012667910FL195     1 6RIGVU    6XELVI   
AWY DCT   SA10212590211771+58793289+002154953+62319653+012262203FL195     1 6RIGVU    6OSKOK   
AWY DCT   SA10210790208791+65557770+014508472+64386322+005427061FL195     1 6NEBUR    6GIPOD   
AWY DCT   SA10211930208811+66636107+015676111+67038810+009059413FL195     1 6PENAX    6GISOX   
AWY DCT   SA10212670211711+68791115+020324722+70000000+015000000FL195     1 6RIXEM    6ORTEN   
AWY DCT   SA10208700206961+68027496+017101110+70622299+019010564FL195     1 6GILEN    6BETMA   
AWY DCT   SA10212190206161+71333336+026863561+67875000+016441389FL195     1 6PIPUL    6AMIMO   
AWY DCT   SA10211750209961+70671951+030908128+68814468+017712139FL195     1 6OSBEB    6LAVNA   
AWY DCT   SA10211750213251+70671951+030908128+66039726+007441133FL195     1 6OSBEB    6TABEV   
AWY DCT   SA10211750208811+70671951+030908128+67038810+009059413FL195     1 6OSBEB    6GISOX   
AWY DCT   SA10211750211221+70671951+030908128+68097191+010961311FL195     1 6OSBEB    6NORVA   
AWY DCT   SA10214660213691+70259010+031542919+71333336+027352058FL195     1 6VARID    6TOPLO   
AWY DCT   SA10214650206721+69421944+030027778+71297241+024639011FL195     1 6VANOS    6BARUX   
AWY DCT   SA10212950209411+69574448+029237777+70069031+031241350FL195     1 6SIVNU    6IPLIL   
AWY DCT   SA10214520209411+69751663+028795278+70069031+031241350FL195     1 6VADLA    6IPLIL   
AWY DCT   SA10213460206961+69791664+026227777+70622299+019010564FL195     1 6TINOS    6BETMA   
AWY DCT   SA10213460211711+69791664+026227777+70000000+015000000FL195     1 6TINOS    6ORTEN   
AWY DCT   SA10213460211221+69791664+026227777+68097191+010961311FL195     1 6TINOS    6NORVA   
AWY DCT   SA10213460211701+69791664+026227777+69019669+012806836FL195     1 6TINOS    6OMEXA   
AWY DCT   SA10208180206961+69330925+025752811+70622299+019010564FL195     1 6ENEXI    6BETMA   
AWY DCT   SA10208180211701+69330925+025752811+69019669+012806836FL195     1 6ENEXI    6OMEXA   
AWY DCT   SA10208180211711+69330925+025752811+70000000+015000000FL195     1 6ENEXI    6ORTEN   
AWY DCT   SA10208520211751+69172501+021796110+70671951+030908128FL195     1 6GAPRO    6OSBEB   
AWY DCT   SA10208520206271+69172501+021796110+71333336+027597499FL195     1 6GAPRO    6ANETI   
AWY DCT   SA10212280206961+68497780+019098611+70622299+019010564FL195     1 6POBEL    6BETMA   
AWY DCT   SA10212280209661+68497780+019098611+70556831+018545000FL195     1 6POBEL    6KOMUX   
AWY DCT   SA10210500211711+66935867+016090494+70000000+015000000FL195     1 6MIMKI    6ORTEN   
AWY DCT   SA10210500211701+66935867+016090494+69019669+012806836FL195     1 6MIMKI    6OMEXA   
AWY DCT   SA10210500211221+66935867+016090494+68097191+010961311FL195     1 6MIMKI    6NORVA   
AWY DCT   SA10211930211701+66636107+015676111+69019669+012806836FL195     1 6PENAX    6OMEXA   
AWY DCT   SA10211930211221+66636107+015676111+68097191+010961311FL195     1 6PENAX    6NORVA   
AWY DCT   SA10210790211701+65557770+014508472+69019669+012806836FL195     1 6NEBUR    6OMEXA   
AWY DCT   SA10210790211221+65557770+014508472+68097191+010961311FL195     1 6NEBUR    6NORVA   
AWY DCT   SA10210790208811+65557770+014508472+67038810+009059413FL195     1 6NEBUR    6GISOX   
AWY DCT   SA10210790213251+65557770+014508472+66039726+007441133FL195     1 6NEBUR    6TABEV   
AWY DCT   SA10213030211151+63330833+012052499+63717026+004718808FL195     1 6SOLKA    6NOMGA   
AWY DCT   SA10213030209261+63330833+012052499+62434982+000000000FL195     1 6SOLKA    6INGAL   
AWY DCT   SA10213030209491+63330833+012052499+62000000+000000000FL195     1 6SOLKA    6IPTON   
AWY DCT   SA10213030206951+63330833+012052499+59035828+001738942FL195     1 6SOLKA    6BEREP   
AWY DCT   SA10213030213251+63330833+012052499+66039726+007441133FL195     1 6SOLKA    6TABEV   
AWY DCT   SA10213030208791+63330833+012052499+64386322+005427061FL195     1 6SOLKA    6GIPOD   
AWY DCT   SA10223190213250+62937222+012125278+66039726+007441133FL195     1 6TIGBA    6TABEV   
AWY DCT   SA10223190208790+62937222+012125278+64386322+005427061FL195     1 6TIGBA    6GIPOD   
AWY DCT   SA10223190205590+62937222+012125278+64265625+005298170FL195     1 6TIGBA    6ABADA   
AWY DCT   SA10223190211150+62937222+012125278+63717026+004718808FL195     1 6TIGBA    6NOMGA   
AWY DCT   SA10211640206951+62434246+012181469+59035828+001738942FL195     1 6OLGUV    6BEREP   
AWY DCT   SA10211640209261+62434246+012181469+62434982+000000000FL195     1 6OLGUV    6INGAL   
AWY DCT   SA10211640210631+62434246+012181469+63359833+004356233FL195     1 6OLGUV    6MORIG   
AWY DCT   SA10211640214111+62434246+012181469+63236805+004233044FL195     1 6OLGUV    6UMBOR   
AWY DCT   SA10211640209531+62434246+012181469+63000000+000000000FL195     1 6OLGUV    6ISVIG   
AWY DCT   SA10211770213251+62319653+012262203+66039726+007441133FL195     1 6OSKOK    6TABEV   
AWY DCT   SA10211770208791+62319653+012262203+64386322+005427061FL195     1 6OSKOK    6GIPOD   
AWY DCT   SA10211770205591+62319653+012262203+64265625+005298170FL195     1 6OSKOK    6ABADA   
AWY DCT   SA10211770211151+62319653+012262203+63717026+004718808FL195     1 6OSKOK    6NOMGA   
AWY DCT   SA10211770210021+62319653+012262203+63555260+004553157FL195     1 6OSKOK    6LEPTI   
AWY DCT   SA10211770210631+62319653+012262203+63359833+004356233FL195     1 6OSKOK    6MORIG   
AWY DCT   SA10211770214111+62319653+012262203+63236805+004233044FL195     1 6OSKOK    6UMBOR   
AWY DCT   SA10211770209261+62319653+012262203+62434982+000000000FL195     1 6OSKOK    6INGAL   
AWY DCT   SA10211770209491+62319653+012262203+62000000+000000000FL195     1 6OSKOK    6IPTON   
AWY DCT   SA10211770211971+62319653+012262203+59992012+000015003FL195     1 6OSKOK    6PEPIN   
AWY DCT   SA10211770206951+62319653+012262203+59035828+001738942FL195     1 6OSKOK    6BEREP   
AWY DCT   SA10211770211121+62319653+012262203+57569946+004136917FL195     1 6OSKOK    6NIVUN   
AWY DCT   SA10211770209631+62319653+012262203+58390121+002828928FL195     1 6OSKOK    6KLONN   
AWY DCT   SA10211770206121+62319653+012262203+57907539+003608356FL195     1 6OSKOK    6ALOTI   
AWY DCT   SA10207860209531+61675873+012216725+63000000+000000000FL195     1 6EGAGO    6ISVIG   
AWY DCT   SA10207860209261+61675873+012216725+62434982+000000000FL195     1 6EGAGO    6INGAL   
AWY DCT   SA10207860209491+61675873+012216725+62000000+000000000FL195     1 6EGAGO    6IPTON   
AWY DCT   SA10207860214571+61675873+012216725+61214428+000000000FL195     1 6EGAGO    6VALDI   
AWY DCT   SA10207860211971+61675873+012216725+59992012+000015003FL195     1 6EGAGO    6PEPIN   
AWY DCT   SA10207860206951+61675873+012216725+59035828+001738942FL195     1 6EGAGO    6BEREP   
AWY DCT   SA10207860209631+61675873+012216725+58390121+002828928FL195     1 6EGAGO    6KLONN   
AWY DCT   SA10207860206121+61675873+012216725+57907539+003608356FL195     1 6EGAGO    6ALOTI   
AWY DCT   SA10207860211121+61675873+012216725+57569946+004136917FL195     1 6EGAGO    6NIVUN   
AWY DCT   SA10215140211971+61499748+012667910+59992012+000015003FL195     1 6XELVI    6PEPIN   
AWY DCT   SA10215140206951+61499748+012667910+59035828+001738942FL195     1 6XELVI    6BEREP   
AWY DCT   SA10215140209631+61499748+012667910+58390121+002828928FL195     1 6XELVI    6KLONN   
AWY DCT   SA10215140206121+61499748+012667910+57907539+003608356FL195     1 6XELVI    6ALOTI   
AWY DCT   SA10215140211121+61499748+012667910+57569946+004136917FL195     1 6XELVI    6NIVUN   
AWY DCT   SA10213200208791+61151390+012719442+64386322+005427061FL195     1 6SUVAR    6GIPOD   
AWY DCT   SA10213200205591+61151390+012719442+64265625+005298170FL195     1 6SUVAR    6ABADA   
AWY DCT   SA10213200211151+61151390+012719442+63717026+004718808FL195     1 6SUVAR    6NOMGA   
AWY DCT   SA10213200210021+61151390+012719442+63555260+004553157FL195     1 6SUVAR    6LEPTI   
AWY DCT   SA10213200210631+61151390+012719442+63359833+004356233FL195     1 6SUVAR    6MORIG   
AWY DCT   SA10213200214111+61151390+012719442+63236805+004233044FL195     1 6SUVAR    6UMBOR   
AWY DCT   SA10213200209531+61151390+012719442+63000000+000000000FL195     1 6SUVAR    6ISVIG   
AWY DCT   SA10213200209261+61151390+012719442+62434982+000000000FL195     1 6SUVAR    6INGAL   
AWY DCT   SA10213200209491+61151390+012719442+62000000+000000000FL195     1 6SUVAR    6IPTON   
AWY DCT   SA10212810210631+60733784+012395507+63359833+004356233FL195     1 6ROVPA    6MORIG   
AWY DCT   SA10212810214111+60733784+012395507+63236805+004233044FL195     1 6ROVPA    6UMBOR   
AWY DCT   SA10212810209531+60733784+012395507+63000000+000000000FL195     1 6ROVPA    6ISVIG   
AWY DCT   SA10212810209491+60733784+012395507+62000000+000000000FL195     1 6ROVPA    6IPTON   
AWY DCT   SA10212810214571+60733784+012395507+61214428+000000000FL195     1 6ROVPA    6VALDI   
AWY DCT   SA10212810211971+60733784+012395507+59992012+000015003FL195     1 6ROVPA    6PEPIN   
AWY DCT   SA10212810206951+60733784+012395507+59035828+001738942FL195     1 6ROVPA    6BEREP   
AWY DCT   SA10212810209631+60733784+012395507+58390121+002828928FL195     1 6ROVPA    6KLONN   
AWY DCT   SA10212810211121+60733784+012395507+57569946+004136917FL195     1 6ROVPA    6NIVUN   
AWY DCT   SA10212700210631+60512726+012606663+63359833+004356233FL195     1 6ROGED    6MORIG   
AWY DCT   SA10212700214111+60512726+012606663+63236805+004233044FL195     1 6ROGED    6UMBOR   
AWY DCT   SA10212700209531+60512726+012606663+63000000+000000000FL195     1 6ROGED    6ISVIG   
AWY DCT   SA10212700209491+60512726+012606663+62000000+000000000FL195     1 6ROGED    6IPTON   
AWY DCT   SA10212700214571+60512726+012606663+61214428+000000000FL195     1 6ROGED    6VALDI   
AWY DCT   SA10212700208991+60512726+012606663+61000000+000000000FL195     1 6ROGED    6GUNPA   
AWY DCT   SA10212700211971+60512726+012606663+59992012+000015003FL195     1 6ROGED    6PEPIN   
AWY DCT   SA10212700209631+60512726+012606663+58390121+002828928FL195     1 6ROGED    6KLONN   
AWY DCT   SA10212700206121+60512726+012606663+57907539+003608356FL195     1 6ROGED    6ALOTI   
AWY DCT   SA10212700211121+60512726+012606663+57569946+004136917FL195     1 6ROGED    6NIVUN   
AWY DCT   SA10208310209490+60012711+012392347+62000000+000000000FL195     1 6ESEBA    6IPTON   
AWY DCT   SA10208310214570+60012711+012392347+61214428+000000000FL195     1 6ESEBA    6VALDI   
AWY DCT   SA10208310208990+60012711+012392347+61000000+000000000FL195     1 6ESEBA    6GUNPA   
AWY DCT   SA10208310211970+60012711+012392347+59992012+000015003FL195     1 6ESEBA    6PEPIN   
AWY DCT   SA10208310206950+60012711+012392347+59035828+001738942FL195     1 6ESEBA    6BEREP   
AWY DCT   SA10208310209630+60012711+012392347+58390121+002828928FL195     1 6ESEBA    6KLONN   
AWY DCT   SA10215190209531+59717842+011936705+63000000+000000000FL195     1 6XIDMI    6ISVIG   
AWY DCT   SA10215190209261+59717842+011936705+62434982+000000000FL195     1 6XIDMI    6INGAL   
AWY DCT   SA10215190209491+59717842+011936705+62000000+000000000FL195     1 6XIDMI    6IPTON   
AWY DCT   SA10215190214571+59717842+011936705+61214428+000000000FL195     1 6XIDMI    6VALDI   
AWY DCT   SA10215190208991+59717842+011936705+61000000+000000000FL195     1 6XIDMI    6GUNPA   
AWY DCT   SA10215190211971+59717842+011936705+59992012+000015003FL195     1 6XIDMI    6PEPIN   
AWY DCT   SA10211120215191+57569946+004136917+59717842+011936705FL195     1 6NIVUN    6XIDMI   
AWY DCT   SA10209630215191+58390121+002828928+59717842+011936705FL195     1 6KLONN    6XIDMI   
AWY DCT   SA10212470211700+59108891+011349445+69019669+012806836FL195     1 6REGMA    6OMEXA   
AWY DCT   SA10212470211220+59108891+011349445+68097191+010961311FL195     1 6REGMA    6NORVA   
AWY DCT   SA10212470208810+59108891+011349445+67038810+009059413FL195     1 6REGMA    6GISOX   
AWY DCT   SA10212470213250+59108891+011349445+66039726+007441133FL195     1 6REGMA    6TABEV   
AWY DCT   SA10207110210631+58906548+010718483+63359833+004356233FL195     1 6BOMGU    6MORIG   
AWY DCT   SA10207110214111+58906548+010718483+63236805+004233044FL195     1 6BOMGU    6UMBOR   
AWY DCT   SA10207110207841+58906548+010718483+63000000+003717092FL195     1 6BOMGU    6EDURA   
AWY DCT   SA10207110213801+58906548+010718483+63000000+003066083FL195     1 6BOMGU    6TUPUV   
AWY DCT   SA10207110209531+58906548+010718483+63000000+000000000FL195     1 6BOMGU    6ISVIG   
AWY DCT   SA10207110209261+58906548+010718483+62434982+000000000FL195     1 6BOMGU    6INGAL   
AWY DCT   SA10207110209491+58906548+010718483+62000000+000000000FL195     1 6BOMGU    6IPTON   
AWY DCT   SA10212500214111+58805946+010608141+63236805+004233044FL195     1 6REPKU    6UMBOR   
AWY DCT   SA10212500207841+58805946+010608141+63000000+003717092FL195     1 6REPKU    6EDURA   
AWY DCT   SA10212500213801+58805946+010608141+63000000+003066083FL195     1 6REPKU    6TUPUV   
AWY DCT   SA10212500209531+58805946+010608141+63000000+000000000FL195     1 6REPKU    6ISVIG   
AWY DCT   SA10212500209261+58805946+010608141+62434982+000000000FL195     1 6REPKU    6INGAL   
AWY DCT   SA10212500209491+58805946+010608141+62000000+000000000FL195     1 6REPKU    6IPTON   
AWY DCT   SA10212500214571+58805946+010608141+61214428+000000000FL195     1 6REPKU    6VALDI   
AWY DCT   SA10212500208991+58805946+010608141+61000000+000000000FL195     1 6REPKU    6GUNPA   
AWY DCT   SA10212500211731+58805946+010608141+59638264+000669067FL195     1 6REPKU    6ORVIK   
AWY DCT   SA10212500209631+58805946+010608141+58390121+002828928FL195     1 6REPKU    6KLONN   
AWY DCT   SA10206400207861+58334419+010148983+61675873+012216725FL195     1 6ARTOR    6EGAGO   
AWY DCT   SA10206400211711+58334419+010148983+70000000+015000000FL195     1 6ARTOR    6ORTEN   
AWY DCT   SA10206400211701+58334419+010148983+69019669+012806836FL195     1 6ARTOR    6OMEXA   
AWY DCT   SA10206400211221+58334419+010148983+68097191+010961311FL195     1 6ARTOR    6NORVA   
AWY DCT   SA10206400208811+58334419+010148983+67038810+009059413FL195     1 6ARTOR    6GISOX   
AWY DCT   SA10206400213251+58334419+010148983+66039726+007441133FL195     1 6ARTOR    6TABEV   
AWY DCT   SA10206400208791+58334419+010148983+64386322+005427061FL195     1 6ARTOR    6GIPOD   
AWY DCT   SA10206400205591+58334419+010148983+64265625+005298170FL195     1 6ARTOR    6ABADA   
AWY DCT   SA10206400211151+58334419+010148983+63717026+004718808FL195     1 6ARTOR    6NOMGA   
AWY DCT   SA10206400210021+58334419+010148983+63555260+004553157FL195     1 6ARTOR    6LEPTI   
AWY DCT   SA10206400210631+58334419+010148983+63359833+004356233FL195     1 6ARTOR    6MORIG   
AWY DCT   SA10206400214111+58334419+010148983+63236805+004233044FL195     1 6ARTOR    6UMBOR   
AWY DCT   SA10206400207841+58334419+010148983+63000000+003717092FL195     1 6ARTOR    6EDURA   
AWY DCT   SA10206400213801+58334419+010148983+63000000+003066083FL195     1 6ARTOR    6TUPUV   
AWY DCT   SA10206400212711+58334419+010148983+63000000+002000000FL195     1 6ARTOR    6ROGLO   
AWY DCT   SA10211080212701+58078518+009616783+60512726+012606663FL195     1 6NIROD    6ROGED   
AWY DCT   SA10211080212811+58078518+009616783+60733784+012395507FL195     1 6NIROD    6ROVPA   
AWY DCT   SA10211080215141+58078518+009616783+61499748+012667910FL195     1 6NIROD    6XELVI   
AWY DCT   SA10211080207861+58078518+009616783+61675873+012216725FL195     1 6NIROD    6EGAGO   
AWY DCT   SA10211080211771+58078518+009616783+62319653+012262203FL195     1 6NIROD    6OSKOK   
AWY DCT   SA10211080211711+58078518+009616783+70000000+015000000FL195     1 6NIROD    6ORTEN   
AWY DCT   SA10211080211701+58078518+009616783+69019669+012806836FL195     1 6NIROD    6OMEXA   
AWY DCT   SA10211080211221+58078518+009616783+68097191+010961311FL195     1 6NIROD    6NORVA   
AWY DCT   SA10211080208811+58078518+009616783+67038810+009059413FL195     1 6NIROD    6GISOX   
AWY DCT   SA10211080213251+58078518+009616783+66039726+007441133FL195     1 6NIROD    6TABEV   
AWY DCT   SA10212530208811+57991524+009438616+67038810+009059413FL195     1 6RETKA    6GISOX   
AWY DCT   SA10212530213251+57991524+009438616+66039726+007441133FL195     1 6RETKA    6TABEV   
AWY DCT   SA10212530208791+57991524+009438616+64386322+005427061FL195     1 6RETKA    6GIPOD   
AWY DCT   SA10212530205591+57991524+009438616+64265625+005298170FL195     1 6RETKA    6ABADA   
AWY DCT   SA10212530211151+57991524+009438616+63717026+004718808FL195     1 6RETKA    6NOMGA   
AWY DCT   SA10212530210021+57991524+009438616+63555260+004553157FL195     1 6RETKA    6LEPTI   
AWY DCT   SA10212530210631+57991524+009438616+63359833+004356233FL195     1 6RETKA    6MORIG   
AWY DCT   SA10212530214111+57991524+009438616+63236805+004233044FL195     1 6RETKA    6UMBOR   
AWY DCT   SA10212530207841+57991524+009438616+63000000+003717092FL195     1 6RETKA    6EDURA   
AWY DCT   SA10212530213801+57991524+009438616+63000000+003066083FL195     1 6RETKA    6TUPUV   
AWY DCT   SA10212530212711+57991524+009438616+63000000+002000000FL195     1 6RETKA    6ROGLO   
AWY DCT   SA10212530209531+57991524+009438616+63000000+000000000FL195     1 6RETKA    6ISVIG   
AWY DCT   SA10212530209261+57991524+009438616+62434982+000000000FL195     1 6RETKA    6INGAL   
AWY DCT   SA10212530209491+57991524+009438616+62000000+000000000FL195     1 6RETKA    6IPTON   
AWY DCT   SA10210900212701+57887943+009228278+60512726+012606663FL195     1 6NERDO    6ROGED   
AWY DCT   SA10210900212811+57887943+009228278+60733784+012395507FL195     1 6NERDO    6ROVPA   
AWY DCT   SA10210900207861+57887943+009228278+61675873+012216725FL195     1 6NERDO    6EGAGO   
AWY DCT   SA10210900211771+57887943+009228278+62319653+012262203FL195     1 6NERDO    6OSKOK   
AWY DCT   SA10210900211701+57887943+009228278+69019669+012806836FL195     1 6NERDO    6OMEXA   
AWY DCT   SA10210900211221+57887943+009228278+68097191+010961311FL195     1 6NERDO    6NORVA   
AWY DCT   SA10210900208811+57887943+009228278+67038810+009059413FL195     1 6NERDO    6GISOX   
AWY DCT   SA10210900213251+57887943+009228278+66039726+007441133FL195     1 6NERDO    6TABEV   
AWY DCT   SA10210900208791+57887943+009228278+64386322+005427061FL195     1 6NERDO    6GIPOD   
AWY DCT   SA10210900205591+57887943+009228278+64265625+005298170FL195     1 6NERDO    6ABADA   
AWY DCT   SA10210900211151+57887943+009228278+63717026+004718808FL195     1 6NERDO    6NOMGA   
AWY DCT   SA10210900210021+57887943+009228278+63555260+004553157FL195     1 6NERDO    6LEPTI   
AWY DCT   SA10210900210631+57887943+009228278+63359833+004356233FL195     1 6NERDO    6MORIG   
AWY DCT   SA10210900214111+57887943+009228278+63236805+004233044FL195     1 6NERDO    6UMBOR   
AWY DCT   SA10210900207841+57887943+009228278+63000000+003717092FL195     1 6NERDO    6EDURA   
AWY DCT   SA10210900213801+57887943+009228278+63000000+003066083FL195     1 6NERDO    6TUPUV   
AWY DCT   SA10210900212711+57887943+009228278+63000000+002000000FL195     1 6NERDO    6ROGLO   
AWY DCT   SA10210900209531+57887943+009228278+63000000+000000000FL195     1 6NERDO    6ISVIG   
AWY DCT   SA10210900209261+57887943+009228278+62434982+000000000FL195     1 6NERDO    6INGAL   
AWY DCT   SA10210900209491+57887943+009228278+62000000+000000000FL195     1 6NERDO    6IPTON   
AWY DCT   SA10206230212701+57675175+008802146+60512726+012606663FL195     1 6AMSEV    6ROGED   
AWY DCT   SA10206230212811+57675175+008802146+60733784+012395507FL195     1 6AMSEV    6ROVPA   
AWY DCT   SA10206230207861+57675175+008802146+61675873+012216725FL195     1 6AMSEV    6EGAGO   
AWY DCT   SA10206230211771+57675175+008802146+62319653+012262203FL195     1 6AMSEV    6OSKOK   
AWY DCT   SA10206230211701+57675175+008802146+69019669+012806836FL195     1 6AMSEV    6OMEXA   
AWY DCT   SA10206230211221+57675175+008802146+68097191+010961311FL195     1 6AMSEV    6NORVA   
AWY DCT   SA10206230208811+57675175+008802146+67038810+009059413FL195     1 6AMSEV    6GISOX   
AWY DCT   SA10206230213251+57675175+008802146+66039726+007441133FL195     1 6AMSEV    6TABEV   
AWY DCT   SA10206230208791+57675175+008802146+64386322+005427061FL195     1 6AMSEV    6GIPOD   
AWY DCT   SA10206230205591+57675175+008802146+64265625+005298170FL195     1 6AMSEV    6ABADA   
AWY DCT   SA10206230211151+57675175+008802146+63717026+004718808FL195     1 6AMSEV    6NOMGA   
AWY DCT   SA10206230210021+57675175+008802146+63555260+004553157FL195     1 6AMSEV    6LEPTI   
AWY DCT   SA10206230210631+57675175+008802146+63359833+004356233FL195     1 6AMSEV    6MORIG   
AWY DCT   SA10206230214111+57675175+008802146+63236805+004233044FL195     1 6AMSEV    6UMBOR   
AWY DCT   SA10206230207841+57675175+008802146+63000000+003717092FL195     1 6AMSEV    6EDURA   
AWY DCT   SA10206230213801+57675175+008802146+63000000+003066083FL195     1 6AMSEV    6TUPUV   
AWY DCT   SA10206230212711+57675175+008802146+63000000+002000000FL195     1 6AMSEV    6ROGLO   
AWY DCT   SA10206230211581+57675175+008802146+63000000+001277742FL195     1 6AMSEV    6OKRUB   
AWY DCT   SA10206230209531+57675175+008802146+63000000+000000000FL195     1 6AMSEV    6ISVIG   
AWY DCT   SA10206230209261+57675175+008802146+62434982+000000000FL195     1 6AMSEV    6INGAL   
AWY DCT   SA10206230209491+57675175+008802146+62000000+000000000FL195     1 6AMSEV    6IPTON   
AWY DCT   SA10206230214571+57675175+008802146+61214428+000000000FL195     1 6AMSEV    6VALDI   
AWY DCT   SA10206230208991+57675175+008802146+61000000+000000000FL195     1 6AMSEV    6GUNPA   
AWY DCT   SA10206230211731+57675175+008802146+59638264+000669067FL195     1 6AMSEV    6ORVIK   
AWY DCT   SA10209710207841+57559700+008574142+63000000+003717092FL195     1 6KOVIK    6EDURA   
AWY DCT   SA10209710213801+57559700+008574142+63000000+003066083FL195     1 6KOVIK    6TUPUV   
AWY DCT   SA10209710212711+57559700+008574142+63000000+002000000FL195     1 6KOVIK    6ROGLO   
AWY DCT   SA10209710211581+57559700+008574142+63000000+001277742FL195     1 6KOVIK    6OKRUB   
AWY DCT   SA10209710209531+57559700+008574142+63000000+000000000FL195     1 6KOVIK    6ISVIG   
AWY DCT   SA10209710209261+57559700+008574142+62434982+000000000FL195     1 6KOVIK    6INGAL   
AWY DCT   SA10209710209491+57559700+008574142+62000000+000000000FL195     1 6KOVIK    6IPTON   
AWY DCT   SA10209710214571+57559700+008574142+61214428+000000000FL195     1 6KOVIK    6VALDI   
AWY DCT   SA10209710208991+57559700+008574142+61000000+000000000FL195     1 6KOVIK    6GUNPA   
AWY DCT   SA10209710211731+57559700+008574142+59638264+000669067FL195     1 6KOVIK    6ORVIK   
AWY DCT   SA10212410212701+57289593+008049481+60512726+012606663FL195     1 6RASVI    6ROGED   
AWY DCT   SA10212410212811+57289593+008049481+60733784+012395507FL195     1 6RASVI    6ROVPA   
AWY DCT   SA10212410215141+57289593+008049481+61499748+012667910FL195     1 6RASVI    6XELVI   
AWY DCT   SA10212410207861+57289593+008049481+61675873+012216725FL195     1 6RASVI    6EGAGO   
AWY DCT   SA10212410211771+57289593+008049481+62319653+012262203FL195     1 6RASVI    6OSKOK   
AWY DCT   SA10212410211701+57289593+008049481+69019669+012806836FL195     1 6RASVI    6OMEXA   
AWY DCT   SA10212410211221+57289593+008049481+68097191+010961311FL195     1 6RASVI    6NORVA   
AWY DCT   SA10212410208811+57289593+008049481+67038810+009059413FL195     1 6RASVI    6GISOX   
AWY DCT   SA10212410213251+57289593+008049481+66039726+007441133FL195     1 6RASVI    6TABEV   
AWY DCT   SA10212410208791+57289593+008049481+64386322+005427061FL195     1 6RASVI    6GIPOD   
AWY DCT   SA10212410205591+57289593+008049481+64265625+005298170FL195     1 6RASVI    6ABADA   
AWY DCT   SA10212410211151+57289593+008049481+63717026+004718808FL195     1 6RASVI    6NOMGA   
AWY DCT   SA10212410210021+57289593+008049481+63555260+004553157FL195     1 6RASVI    6LEPTI   
AWY DCT   SA10212410210631+57289593+008049481+63359833+004356233FL195     1 6RASVI    6MORIG   
AWY DCT   SA10212410214111+57289593+008049481+63236805+004233044FL195     1 6RASVI    6UMBOR   
AWY DCT   SA10212410207841+57289593+008049481+63000000+003717092FL195     1 6RASVI    6EDURA   
AWY DCT   SA10212410213801+57289593+008049481+63000000+003066083FL195     1 6RASVI    6TUPUV   
AWY DCT   SA10212410212711+57289593+008049481+63000000+002000000FL195     1 6RASVI    6ROGLO   
AWY DCT   SA10212410211581+57289593+008049481+63000000+001277742FL195     1 6RASVI    6OKRUB   
AWY DCT   SA10212410209531+57289593+008049481+63000000+000000000FL195     1 6RASVI    6ISVIG   
AWY DCT   SA10212410209261+57289593+008049481+62434982+000000000FL195     1 6RASVI    6INGAL   
AWY DCT   SA10212410209491+57289593+008049481+62000000+000000000FL195     1 6RASVI    6IPTON   
AWY DCT   SA10212410214571+57289593+008049481+61214428+000000000FL195     1 6RASVI    6VALDI   
AWY DCT   SA10212410208991+57289593+008049481+61000000+000000000FL195     1 6RASVI    6GUNPA   
AWY DCT   SA10212410206951+57289593+008049481+59035828+001738942FL195     1 6RASVI    6BEREP   
AWY DCT   SA10209550206951+57000000+005507432+59035828+001738942FL195     1 6KARLI    6BEREP   
AWY DCT   SA10209550208991+57000000+005507432+61000000+000000000FL195     1 6KARLI    6GUNPA   
AWY DCT   SA10209550214571+57000000+005507432+61214428+000000000FL195     1 6KARLI    6VALDI   
AWY DCT   SA10209550209491+57000000+005507432+62000000+000000000FL195     1 6KARLI    6IPTON   
AWY DCT   SA10209550209261+57000000+005507432+62434982+000000000FL195     1 6KARLI    6INGAL   
AWY DCT   SA10209550209531+57000000+005507432+63000000+000000000FL195     1 6KARLI    6ISVIG   
AWY DCT   SA10209550211581+57000000+005507432+63000000+001277742FL195     1 6KARLI    6OKRUB   
AWY DCT   SA10209550212711+57000000+005507432+63000000+002000000FL195     1 6KARLI    6ROGLO   
AWY DCT   SA10209550213801+57000000+005507432+63000000+003066083FL195     1 6KARLI    6TUPUV   
AWY DCT   SA10209550207841+57000000+005507432+63000000+003717092FL195     1 6KARLI    6EDURA   
AWY DCT   SA10209550211221+57000000+005507432+68097191+010961311FL195     1 6KARLI    6NORVA   
AWY DCT   SA10209550208811+57000000+005507432+67038810+009059413FL195     1 6KARLI    6GISOX   
AWY DCT   SA10209550211701+57000000+005507432+69019669+012806836FL195     1 6KARLI    6OMEXA   
AWY DCT   SA10210520206951+57000000+006455695+59035828+001738942FL195     1 6MITSI    6BEREP   
AWY DCT   SA10210520208991+57000000+006455695+61000000+000000000FL195     1 6MITSI    6GUNPA   
AWY DCT   SA10210520214571+57000000+006455695+61214428+000000000FL195     1 6MITSI    6VALDI   
AWY DCT   SA10210520209491+57000000+006455695+62000000+000000000FL195     1 6MITSI    6IPTON   
AWY DCT   SA10210520209261+57000000+006455695+62434982+000000000FL195     1 6MITSI    6INGAL   
AWY DCT   SA10210520209531+57000000+006455695+63000000+000000000FL195     1 6MITSI    6ISVIG   
AWY DCT   SA10210520211581+57000000+006455695+63000000+001277742FL195     1 6MITSI    6OKRUB   
AWY DCT   SA10210520212711+57000000+006455695+63000000+002000000FL195     1 6MITSI    6ROGLO   
AWY DCT   SA10210520213801+57000000+006455695+63000000+003066083FL195     1 6MITSI    6TUPUV   
AWY DCT   SA10210520207841+57000000+006455695+63000000+003717092FL195     1 6MITSI    6EDURA   
AWY DCT   SA10210520211221+57000000+006455695+68097191+010961311FL195     1 6MITSI    6NORVA   
AWY DCT   SA10210520208811+57000000+006455695+67038810+009059413FL195     1 6MITSI    6GISOX   
AWY DCT   SA10210520211771+57000000+006455695+62319653+012262203FL195     1 6MITSI    6OSKOK   
AWY DCT   SA10210520207861+57000000+006455695+61675873+012216725FL195     1 6MITSI    6EGAGO   
AWY DCT   SA10210520215141+57000000+006455695+61499748+012667910FL195     1 6MITSI    6XELVI   
AWY DCT   SA10210520212811+57000000+006455695+60733784+012395507FL195     1 6MITSI    6ROVPA   
AWY DCT   SA10210520212701+57000000+006455695+60512726+012606663FL195     1 6MITSI    6ROGED   
AWY DCT   SA10207420206951+57000000+006697827+59035828+001738942FL195     1 6DANKO    6BEREP   
AWY DCT   SA10207420208991+57000000+006697827+61000000+000000000FL195     1 6DANKO    6GUNPA   
AWY DCT   SA10207420214571+57000000+006697827+61214428+000000000FL195     1 6DANKO    6VALDI   
AWY DCT   SA10207420209491+57000000+006697827+62000000+000000000FL195     1 6DANKO    6IPTON   
AWY DCT   SA10207420209261+57000000+006697827+62434982+000000000FL195     1 6DANKO    6INGAL   
AWY DCT   SA10207420209531+57000000+006697827+63000000+000000000FL195     1 6DANKO    6ISVIG   
AWY DCT   SA10207420211581+57000000+006697827+63000000+001277742FL195     1 6DANKO    6OKRUB   
AWY DCT   SA10207420212711+57000000+006697827+63000000+002000000FL195     1 6DANKO    6ROGLO   
AWY DCT   SA10207420213801+57000000+006697827+63000000+003066083FL195     1 6DANKO    6TUPUV   
AWY DCT   SA10207420207841+57000000+006697827+63000000+003717092FL195     1 6DANKO    6EDURA   
AWY DCT   SA10207420208811+57000000+006697827+67038810+009059413FL195     1 6DANKO    6GISOX   
AWY DCT   SA10207420211221+57000000+006697827+68097191+010961311FL195     1 6DANKO    6NORVA   
AWY DCT   SA10207420211701+57000000+006697827+69019669+012806836FL195     1 6DANKO    6OMEXA   
AWY DCT   SA10207420211771+57000000+006697827+62319653+012262203FL195     1 6DANKO    6OSKOK   
AWY DCT   SA10207420207861+57000000+006697827+61675873+012216725FL195     1 6DANKO    6EGAGO   
AWY DCT   SA10207420215141+57000000+006697827+61499748+012667910FL195     1 6DANKO    6XELVI   
AWY DCT   SA10207420212811+57000000+006697827+60733784+012395507FL195     1 6DANKO    6ROVPA   
AWY DCT   SA10207420212701+57000000+006697827+60512726+012606663FL195     1 6DANKO    6ROGED   
AWY DCT   SA10210100206951+57000000+007227316+59035828+001738942FL195     1 6LINVI    6BEREP   
AWY DCT   SA10210100208991+57000000+007227316+61000000+000000000FL195     1 6LINVI    6GUNPA   
AWY DCT   SA10210100214571+57000000+007227316+61214428+000000000FL195     1 6LINVI    6VALDI   
AWY DCT   SA10210100209491+57000000+007227316+62000000+000000000FL195     1 6LINVI    6IPTON   
AWY DCT   SA10210100209261+57000000+007227316+62434982+000000000FL195     1 6LINVI    6INGAL   
AWY DCT   SA10210100209531+57000000+007227316+63000000+000000000FL195     1 6LINVI    6ISVIG   
AWY DCT   SA10210100211581+57000000+007227316+63000000+001277742FL195     1 6LINVI    6OKRUB   
AWY DCT   SA10210100212711+57000000+007227316+63000000+002000000FL195     1 6LINVI    6ROGLO   
AWY DCT   SA10210100213801+57000000+007227316+63000000+003066083FL195     1 6LINVI    6TUPUV   
AWY DCT   SA10210100207841+57000000+007227316+63000000+003717092FL195     1 6LINVI    6EDURA   
AWY DCT   SA10210100211771+57000000+007227316+62319653+012262203FL195     1 6LINVI    6OSKOK   
AWY DCT   SA10210100207861+57000000+007227316+61675873+012216725FL195     1 6LINVI    6EGAGO   
AWY DCT   SA10210100215141+57000000+007227316+61499748+012667910FL195     1 6LINVI    6XELVI   
AWY DCT   SA10210100212811+57000000+007227316+60733784+012395507FL195     1 6LINVI    6ROVPA   
AWY DCT   SA10210100212701+57000000+007227316+60512726+012606663FL195     1 6LINVI    6ROGED   
AWY DCT   SA10212360206951+57057110+007607319+59035828+001738942FL195     1 6RAMUD    6BEREP   
AWY DCT   SA10212360208991+57057110+007607319+61000000+000000000FL195     1 6RAMUD    6GUNPA   
AWY DCT   SA10212360214571+57057110+007607319+61214428+000000000FL195     1 6RAMUD    6VALDI   
AWY DCT   SA10212360209491+57057110+007607319+62000000+000000000FL195     1 6RAMUD    6IPTON   
AWY DCT   SA10212360209261+57057110+007607319+62434982+000000000FL195     1 6RAMUD    6INGAL   
AWY DCT   SA10212360209531+57057110+007607319+63000000+000000000FL195     1 6RAMUD    6ISVIG   
AWY DCT   SA10212360211581+57057110+007607319+63000000+001277742FL195     1 6RAMUD    6OKRUB   
AWY DCT   SA10212360212711+57057110+007607319+63000000+002000000FL195     1 6RAMUD    6ROGLO   
AWY DCT   SA10212360213801+57057110+007607319+63000000+003066083FL195     1 6RAMUD    6TUPUV   
AWY DCT   SA10212360207841+57057110+007607319+63000000+003717092FL195     1 6RAMUD    6EDURA   
AWY DCT   SA10212360214111+57057110+007607319+63236805+004233044FL195     1 6RAMUD    6UMBOR   
AWY DCT   SA10212360211771+57057110+007607319+62319653+012262203FL195     1 6RAMUD    6OSKOK   
AWY DCT   SA10212360207861+57057110+007607319+61675873+012216725FL195     1 6RAMUD    6EGAGO   
AWY DCT   SA30223250185671+61761944+019540277+61799999+030083332FL095     1 6TOGMI    6KETOL   
AWY DCT   SA30220610185671+62415001+019824167+61799999+030083332FL095     1 6BODRI    6KETOL   
AWY DCT   SA30221270185671+62830555+020010833+61799999+030083332FL095     1 6IRGAL    6KETOL   
AWY DCT   SA30223470185671+63418610+020574167+61799999+030083332FL095     1 6VALAK    6KETOL   
AWY DCT   SA30221540185671+63538612+021036666+61799999+030083332FL095     1 6LAMPI    6KETOL   
AWY DCT   SA30185670223111+61799999+030083332+64553886+022737777FL095     1 6KETOL    6SUTEV   
AWY DCT   SA30185670220471+61799999+030083332+61362499+019415832FL095     1 6KETOL    6BAKLA   
AWY DCT   SA30185670221290+61799999+030083332+60468613+019175832FL095     1 6KETOL    6KELAS   
AWY DCT   SA30185670221011+61799999+030083332+60252220+019111944FL095     1 6KETOL    6EVLAN   
AWY DCT   SA30185670222190+61799999+030083332+59933056+019462221FL095     1 6KETOL    6OGLOB   
AWY DCT   SA10185670222590+61799999+030083332+59749722+019724166FL285     1 6KETOL    6RUNGA   
AWY DCT   SA10185670221700+61799999+030083332+59640278+019876388FL285     1 6KETOL    6LUPET   
AWY DCT   SA30186470220591+60858334+028338333+65592781+024153888FL095     1 6RATLA    6BEXUL   
AWY DCT   SA30186470220861+60858334+028338333+65251662+023727500FL095     1 6RATLA    6EKMIK   
AWY DCT   SA30186470223111+60858334+028338333+64553886+022737777FL095     1 6RATLA    6SUTEV   
AWY DCT   SA30186470221541+60858334+028338333+63538612+021036666FL095     1 6RATLA    6LAMPI   
AWY DCT   SA30186470223471+60858334+028338333+63418610+020574167FL095     1 6RATLA    6VALAK   
AWY DCT   SA30186470221271+60858334+028338333+62830555+020010833FL095     1 6RATLA    6IRGAL   
AWY DCT   SA30186470220611+60858334+028338333+62415001+019824167FL095     1 6RATLA    6BODRI   
AWY DCT   SA30186470223251+60858334+028338333+61761944+019540277FL095     1 6RATLA    6TOGMI   
AWY DCT   SA30186470220471+60858334+028338333+61362499+019415832FL095     1 6RATLA    6BAKLA   
AWY DCT   SA10186470221290+60858334+028338333+60468613+019175832FL285     1 6RATLA    6KELAS   
AWY DCT   SA10186470221011+60858334+028338333+60252220+019111944FL285     1 6RATLA    6EVLAN   
AWY DCT   SA10186470222190+60858334+028338333+59933056+019462221FL285     1 6RATLA    6OGLOB   
AWY DCT   SA10186470222590+60858334+028338333+59749722+019724166FL285     1 6RATLA    6RUNGA   
AWY DCT   SA10186470221700+60858334+028338333+59640278+019876388FL285     1 6RATLA    6LUPET   
AWY DCT   SA10186470222080+60858334+028338333+59318611+020431667FL285     1 6RATLA    6NISIX   
AWY DCT   SA10186470221460+60858334+028338333+59182777+020676111FL285     1 6RATLA    6KOSKA   
AWY DCT   SA10186470222001+60858334+028338333+58627724+020771778FL285     1 6RATLA    6NEREN   
AWY DCT   SA10186470220691+60858334+028338333+57672779+020210832FL285     1 6RATLA    6DEREX   
AWY DCT   SA10185770220611+59974998+026111667+62415001+019824167FL285     1 6LEDUN    6BODRI   
AWY DCT   SA10185770223251+59974998+026111667+61761944+019540277FL285     1 6LEDUN    6TOGMI   
AWY DCT   SA10185770220471+59974998+026111667+61362499+019415832FL285     1 6LEDUN    6BAKLA   
AWY DCT   SA10185770221290+59974998+026111667+60468613+019175832FL285     1 6LEDUN    6KELAS   
AWY DCT   SA10185770221010+59974998+026111667+60252220+019111944FL285     1 6LEDUN    6EVLAN   
AWY DCT   SA10185770222191+59974998+026111667+59933056+019462221FL285     1 6LEDUN    6OGLOB   
AWY DCT   SA10185770222590+59974998+026111667+59749722+019724166FL285     1 6LEDUN    6RUNGA   
AWY DCT   SA10184090221541+57830002+027559722+63538612+021036666FL285     1 6NOTAR    6LAMPI   
AWY DCT   SA10184090223471+57830002+027559722+63418610+020574167FL285     1 6NOTAR    6VALAK   
AWY DCT   SA10184090223251+57830002+027559722+61761944+019540277FL285     1 6NOTAR    6TOGMI   
AWY DCT   SA30184090221011+57830002+027559722+60252220+019111944FL095     1 6NOTAR    6EVLAN   
AWY DCT   SA30184090221700+57830002+027559722+59640278+019876388FL095     1 6NOTAR    6LUPET   
AWY DCT   SA30184090221941+57830002+027559722+58904972+020941249FL095     1 6NOTAR    6NEBSI   
AWY DCT   SA30184090222001+57830002+027559722+58627724+020771778FL095     1 6NOTAR    6NEREN   
AWY DCT   SA30223910220690+56751667+027901666+57672779+020210832FL095     1 6OPOKA    6DEREX   
AWY DCT   SA30223910221020+56751667+027901666+57165001+019924722FL095     1 6OPOKA    6EVONA   
AWY DCT   SA30223910223490+56751667+027901666+56531666+018876667FL095     1 6OPOKA    6VEDEN   
AWY DCT   SA30223910224090+56751667+027901666+56297779+018898334FL095     1 6OPOKA    6ADAXA   
AWY DCT   SA30223910223760+56751667+027901666+56369446+024958610FL095     1 6OPOKA    6IRBEX   
AWY DCT   SA30223910224460+56751667+027901666+56138889+025571388FL095     1 6OPOKA    6LISGO   
AWY DCT   SA30650930223251+56038891+027821388+61761944+019540277FL095     1 6NIGBA    6TOGMI   
AWY DCT   SA30650930221941+56038891+027821388+58904972+020941249FL095     1 6NIGBA    6NEBSI   
AWY DCT   SA10650990223110+55784721+027566389+64553886+022737777FL285     1 6OKNOD    6SUTEV   
AWY DCT   SA10650990221540+55784721+027566389+63538612+021036666FL285     1 6OKNOD    6LAMPI   
AWY DCT   SA10650990223470+55784721+027566389+63418610+020574167FL285     1 6OKNOD    6VALAK   
AWY DCT   SA30223690222421+55812778+026978056+58027943+020414667FL095     1 6DUBIN    6RASEL   
AWY DCT   SA30223690220471+55812778+026978056+61362499+019415832FL095     1 6DUBIN    6BAKLA   
AWY DCT   SA30223690223251+55812778+026978056+61761944+019540277FL095     1 6DUBIN    6TOGMI   
AWY DCT   SA30223690220611+55812778+026978056+62415001+019824167FL095     1 6DUBIN    6BODRI   
AWY DCT   SA10223690223471+55812778+026978056+63418610+020574167FL285     1 6DUBIN    6VALAK   
AWY DCT   SA10223690221541+55812778+026978056+63538612+021036666FL285     1 6DUBIN    6LAMPI   
AWY DCT   SA10223690223111+55812778+026978056+64553886+022737777FL285     1 6DUBIN    6SUTEV   
AWY DCT   SA30223690648120+55812778+026978056+57380280+027685833FL095     1 6DUBIN    6LATLA   
AWY DCT   SA30223690184370+55812778+026978056+58289444+027376110FL095     1 6DUBIN    6TITOV   
AWY DCT   SA30224460648120+56138889+025571388+57380280+027685833FL095     1 6LISGO    6LATLA   
AWY DCT   SA30224460184370+56138889+025571388+58289444+027376110FL095     1 6LISGO    6TITOV   
AWY DCT   SA10223840223111+56175278+025158611+64553886+022737777FL285     1 6LUNIT    6SUTEV   
AWY DCT   SA30224300184370+56369068+024630466+58289444+027376110FL095     1 6ERIVA    6TITOV   
AWY DCT   SA30224300221541+56369068+024630466+63538612+021036666FL095     1 6ERIVA    6LAMPI   
AWY DCT   SA30224300223471+56369068+024630466+63418610+020574167FL095     1 6ERIVA    6VALAK   
AWY DCT   SA30224300223251+56369068+024630466+61761944+019540277FL095     1 6ERIVA    6TOGMI   
AWY DCT   SA30224300221941+56369068+024630466+58904972+020941249FL095     1 6ERIVA    6NEBSI   
AWY DCT   SA30224810221961+56280277+024516389+58304443+020578611FL095     1 6URIDO    6NEKET   
AWY DCT   SA30224810222421+56280277+024516389+58027943+020414667FL095     1 6URIDO    6RASEL   
AWY DCT   SA30224810220691+56280277+024516389+57672779+020210832FL095     1 6URIDO    6DEREX   
AWY DCT   SA30223950648120+56298889+024031667+57380280+027685833FL095     1 6ROLAV    6LATLA   
AWY DCT   SA30223950184370+56298889+024031667+58289444+027376110FL095     1 6ROLAV    6TITOV   
AWY DCT   SA10224340212800+56371387+023755556+69797218+028530832FL285     1 6GUNTA    6ROVAN   
AWY DCT   SA30223610184370+56382778+022612777+58289444+027376110FL095     1 6ASKOR    6TITOV   
AWY DCT   SA30224490221961+56422501+022161943+58304443+020578611FL095     1 6MIRMA    6NEKET   
AWY DCT   SA30224490222421+56422501+022161943+58027943+020414667FL095     1 6MIRMA    6RASEL   
AWY DCT   SA30224270221021+56325001+021608055+57165001+019924722FL095     1 6EKLIN    6EVONA   
AWY DCT   SA30224270221041+56325001+021608055+56871387+019566667FL095     1 6EKLIN    6GELDA   
AWY DCT   SA30224270223491+56325001+021608055+56531666+018876667FL095     1 6EKLIN    6VEDEN   
AWY DCT   SA30224650221021+56073891+021093610+57165001+019924722FL095     1 6RUCAV    6EVONA   
AWY DCT   SA30224740221041+56067223+020747777+56871387+019566667FL095     1 6TIRIN    6GELDA   
AWY DCT   SA30224740223491+56067223+020747777+56531666+018876667FL095     1 6TIRIN    6VEDEN   
AWY DCT   SA30224320648120+56146111+020082222+57380280+027685833FL095     1 6GARSO    6LATLA   
AWY DCT   SA30224320184370+56146111+020082222+58289444+027376110FL095     1 6GARSO    6TITOV   
AWY DCT   SA10224400185680+56212776+019573333+62666668+031375278FL285     1 6KEDUX    6KOKAT   
AWY DCT   SA10224400185691+56212776+019573333+62421665+031108333FL285     1 6KEDUX    6KOMEK   
AWY DCT   SA30224860221041+56249722+019284999+56871387+019566667FL095     1 6VAGVO    6GELDA   
AWY DCT   SA30224090648120+56297779+018898334+57380280+027685833FL095     1 6ADAXA    6LATLA   
AWY DCT   SA30224090184370+56297779+018898334+58289444+027376110FL095     1 6ADAXA    6TITOV   
AWY DCT   SA30223490223750+56531666+018876667+56360001+028200000FL095     1 6VEDEN    6IGORO   
AWY DCT   SA30223490648120+56531666+018876667+57380280+027685833FL095     1 6VEDEN    6LATLA   
AWY DCT   SA30223490184370+56531666+018876667+58289444+027376110FL095     1 6VEDEN    6TITOV   
AWY DCT   SA30221020223750+57165001+019924722+56360001+028200000FL095     1 6EVONA    6IGORO   
AWY DCT   SA30221020648120+57165001+019924722+57380280+027685833FL095     1 6EVONA    6LATLA   
AWY DCT   SA10221020185690+57165001+019924722+62421665+031108333FL285     1 6EVONA    6KOMEK   
AWY DCT   SA10221020185680+57165001+019924722+62666668+031375278FL285     1 6EVONA    6KOKAT   
AWY DCT   SA30220690223750+57672779+020210832+56360001+028200000FL095     1 6DEREX    6IGORO   
AWY DCT   SA30222420224470+58027943+020414667+56374722+021944166FL095     1 6RASEL    6LITPA   
AWY DCT   SA30222420224191+58027943+020414667+56363056+023426389FL095     1 6RASEL    6BERIL   
AWY DCT   SA30221960224191+58304443+020578611+56363056+023426389FL095     1 6NEKET    6BERIL   
AWY DCT   SA30221940223750+58904972+020941249+56360001+028200000FL095     1 6NEBSI    6IGORO   
AWY DCT   SA10220310186470+59047779+020915834+60858334+028338333FL285     1 6ALAMI    6RATLA   
AWY DCT   SA10220310185670+59047779+020915834+61799999+030083332FL285     1 6ALAMI    6KETOL   
AWY DCT   SA10220310185690+59047779+020915834+62421665+031108333FL285     1 6ALAMI    6KOMEK   
AWY DCT   SA10222500186470+59970833+019408056+60858334+028338333FL285     1 6RIKUM    6RATLA   
AWY DCT   SA30222500185670+59970833+019408056+61799999+030083332FL095     1 6RIKUM    6KETOL   
AWY DCT   SA30222500185690+59970833+019408056+62421665+031108333FL095     1 6RIKUM    6KOMEK   
AWY DCT   SA30222500185680+59970833+019408056+62666668+031375278FL095     1 6RIKUM    6KOKAT   
AWY DCT   SA30220820185690+60044445+019301666+62421665+031108333FL095     1 6DODAM    6KOMEK   
AWY DCT   SA30220820185680+60044445+019301666+62666668+031375278FL095     1 6DODAM    6KOKAT   
AWY DCT   SA30220820185650+60044445+019301666+68503334+028458332FL095     1 6DODAM    6KELEK   
AWY DCT   SA10223250185560+61761944+019540277+60171665+026946388FL285     1 6TOGMI    6INLOG   
AWY DCT   SA10223250186190+61761944+019540277+60233334+027475000FL285     1 6TOGMI    6OLEMA   
AWY DCT   SA10221010185560+60252220+019111944+60171665+026946388FL285     1 6EVLAN    6INLOG   
AWY DCT   SA10221010186480+60252220+019111944+60237778+026535833FL285     1 6EVLAN    6RATMU   
AWY DCT   SA30221010185680+60252220+019111944+62666668+031375278FL095     1 6EVLAN    6KOKAT   
AWY DCT   SA30183810184090+59115276+026037500+57830002+027559722FL095     1 6BIRSI    6NOTAR   
AWY DCT   SA30183890184441+58942501+025576944+57853889+025916111FL095     1 6GONOS    6VALGA   
AWY DCT   SA30183890183871+58942501+025576944+57575001+026388332FL095     1 6GONOS    6GATVA   
AWY DCT   SA30184010222001+59082222+023834446+58627724+020771778FL095     1 6LONSA    6NEREN   
AWY DCT   SA30184080184440+58808887+024969999+57853889+025916111FL095     1 6NITSO    6VALGA   
AWY DCT   SA30184080223670+58808887+024969999+58010555+024983610FL095     1 6NITSO    6DOLAT   
AWY DCT   SA30184130223860+58849998+024322778+57899445+023914722FL095     1 6ORTAX    6LUTAL   
AWY DCT   SA10220310185680+59047779+020915834+62666668+031375278FL285     1 6ALAMI    6KOKAT   
AWY DCT   SA10213350208181+70917450+021254213+69330925+025752811FL195     1 6TETNI    6ENEXI   
AWY DCT   SA10208040213461+70215050+016295839+69791664+026227777FL195     1 6ELRES    6TINOS   
AWY DCT   SA10208040208181+70215050+016295839+69330925+025752811FL195     1 6ELRES    6ENEXI   
AWY DCT   SA10208040212671+70215050+016295839+68791115+020324722FL195     1 6ELRES    6RIXEM   
AWY DCT   SA10214960211751+69488449+013822875+70671951+030908128FL195     1 6VIBON    6OSBEB   
AWY DCT   SA10214960208181+69488449+013822875+69330925+025752811FL195     1 6VIBON    6ENEXI   
AWY DCT   SA10214960212111+69488449+013822875+69323647+019743803FL195     1 6VIBON    6PIGAX   
AWY DCT   SA10214960211931+69488449+013822875+66636107+015676111FL195     1 6VIBON    6PENAX   
AWY DCT   SA10212110208041+69323647+019743803+70215050+016295839FL195     1 6PIGAX    6ELRES   
AWY DCT   SA10212110211711+69323647+019743803+70000000+015000000FL195     1 6PIGAX    6ORTEN   
AWY DCT   SA10205650211931+68542679+011828663+66636107+015676111FL195     1 6ABGUN    6PENAX   
AWY DCT   SA10205650210501+68542679+011828663+66935867+016090494FL195     1 6ABGUN    6MIMKI   
AWY DCT   SA10214350211931+67745018+010304922+66636107+015676111FL195     1 6URUDO    6PENAX   
AWY DCT   SA10214350210501+67745018+010304922+66935867+016090494FL195     1 6URUDO    6MIMKI   
AWY DCT   SA10211500211931+67422295+009724435+66636107+015676111FL195     1 6OGPAR    6PENAX   
AWY DCT   SA10211500210791+67422295+009724435+65557770+014508472FL195     1 6OGPAR    6NEBUR   
AWY DCT   SA10210790208961+65557770+014508472+66769028+008606782FL195     1 6NEBUR    6GUBNO   
AWY DCT   SA10210790205841+65557770+014508472+66462929+008107536FL195     1 6NEBUR    6ADKAS   
AWY DCT   SA10211130208791+64462585+014113888+64386322+005427061FL195     1 6NOGBO    6GIPOD   
AWY DCT   SA10205650213770+68542679+011828663+59891144+012020006FL135     1 6ABGUN    6TUMGU   
AWY DCT   SA10214370211711+66257499+015395000+70000000+015000000FL195     1 6USIKI    6ORTEN   
AWY DCT   SA10210790214961+65557770+014508472+69488449+013822875FL195     1 6NEBUR    6VIBON   
AWY DCT   SA30224640184370+56090279+020495555+58289444+027376110FL095     1 6RONUS    6TITOV   
AWY DCT   SA30184270223760+59338333+027490278+56369446+024958610FL095     1 6RESMO    6IRBEX   
AWY DCT   SA30184270224460+59338333+027490278+56138889+025571388FL095     1 6RESMO    6LISGO   
AWY DCT   SA30223610220691+56382778+022612777+57672779+020210832FL095     1 6ASKOR    6DEREX   
AWY DCT   SA10184090220471+57830002+027559722+61362499+019415832FL285     1 6NOTAR    6BAKLA   
