
AWY DCT   SA11992260189171+55313412-004783857+54883335-005158888          1 4TRN      6BLACA   
AWY DCT   YY12020770427091+43557056-006007082+42276501-005772194FL245     1 4VES      6OMESI   
AWY DCT   YY10422810423800+39024387-001263000+39805332-001211666     FL4601 6ASTRO    6CATON   
AWY DCT   YY10429180422700+37250557-003277694+37579750-003024194FL265     1 6UNTOS    6ARPEX   
AWY DCT   YY10428170429441+37415638-002854361+37392223-003630861FL245     1 6ROLAS    6VIBAS   
AWY DCT   YY10427860428170+36720028-004134139+37415638-002854361FL245     1 6RAKOR    6ROLAS   
AWY DCT   YY10422322020820+35833336-006028333+36239334-005975500FL075     1 6ADKIM    4VJF     
AWY DCT   YY10427480464851+37036694-007383333+36833336-007383333FL245     1 6PESAS    6PIREN   
AWY DCT   YY10427480427130+37036694-007383333+37246723-006760000FL245     1 6PESAS    6ONUBA   
AWY DCT   YY12020722020560+39969444-004337472+40853863-003246639FL195     1 4TLD      4RBO     
AWY DCT   YY10425310425281+44835220-006919722+43653111-007865583FL245     1 6KORUL    6KORAV   
AWY DCT   YY12020652020771+42926861-008425389+43557056-006007082FL245     1 4STG      4VES     
AWY DCT   YY10427502020651+42678917-012000000+42926861-008425389FL195     1 6PETEK    4STG     
AWY DCT   YY10428062020651+42283054-010816194+42926861-008425389FL195     1 6RIPEL    4STG     
AWY DCT   YY10429632020651+42023888-010067972+42926861-008425389FL245     1 6XERES    4STG     
AWY DCT   YY10424112020651+41925694-009362000+42926861-008425389FL245     1 6DEMOS    4STG     
AWY DCT   YY10424110425680+41925694-009362000+42852806-007296028FL245     1 6DEMOS    6LOMDA   
AWY DCT   YY10422380428271+41872890-008926694+43213001-007357555FL245     1 6AGADO    6ROXER   
AWY DCT   YY10422380425681+41872890-008926694+42852806-007296028FL245     1 6AGADO    6LOMDA   
AWY DCT   YY10464830428271+41851112-008597778+43213001-007357555FL245     1 6PINEK    6ROXER   
AWY DCT   YY10464830425681+41851112-008597778+42852806-007296028FL245     1 6PINEK    6LOMDA   
AWY DCT   YY10422822020770+44505360-004947527+43557056-006007082FL245     1 6ATLEN    4VES     
AWY DCT   YY10425732020771+44658749-005836638+43557056-006007082FL245     1 6LOTEE    4VES     
AWY DCT   YY10425730426301+44658749-005836638+43498859-007596471FL245     1 6LOTEE    6MEGAT   
AWY DCT   YY10428260463210+42741859-005856417+41700558-006621944FL245     1 6ROVAK    6BATAX   
AWY DCT   YY10423300462970+42796555-006538556+41751110-007236111FL245     1 6BISMU    6ABUPI   
AWY DCT   YY10428040424540+43322388-008366889+42616528-007783695FL245     1 6RIMTU    6ELTEP   
AWY DCT   YY10427870424900+41936611-007116361+41721443-006323667FL245     1 6RALUS    6GODIV   
AWY DCT   YY10422900425090+44412498-004436111+42275639-007094250FL245     1 6BAKUP    6INSID   
AWY DCT   YY10422820425090+44505360-004947527+42275639-007094250FL245     1 6ATLEN    6INSID   
AWY DCT   YY10422750425730+42515919-008491889+44658749-005836638FL245     1 6ASDEB    6LOTEE   
AWY DCT   YY10425310424540+44835220-006919722+42616528-007783695FL245     1 6KORUL    6ELTEP   
AWY DCT   YY10422750425310+42515919-008491889+44835220-006919722FL245     1 6ASDEB    6KORUL   
AWY DCT   YY10423090424540+45000000-009000000+42616528-007783695FL315     1 6BEGAS    6ELTEP   
AWY DCT   YY10423090428040+45000000-009000000+43322388-008366889FL245FL3151 6BEGAS    6RIMTU   
AWY DCT   YY10422750423090+42515919-008491889+45000000-009000000FL245     1 6ASDEB    6BEGAS   
AWY DCT   YY10425730424540+44658749-005836638+42616528-007783695FL245     1 6LOTEE    6ELTEP   
AWY DCT   YY12081330463831+38159248-007921721+38000000-009817500FL245     1 5BJA      6GANSU   
AWY DCT   YY12081330463291+38159248-007921721+38544998-010000000FL245     1 5BJA      6BUSEN   
AWY DCT   YY12081330464171+38159248-007921721+36976391-008701666FL245     1 5BJA      6IXOLI   
AWY DCT   YY12081330463871+38159248-007921721+36764446-008005832FL245     1 5BJA      6GIMAL   
AWY DCT   YY10463582081331+38665001-007918611+38159248-007921721FL245     1 6EVURA    5BJA     
AWY DCT   YY10463532081331+37416668-007614721+38159248-007921721FL245     1 6ERTIS    5BJA     
AWY DCT   YY10464282081331+38037498-007222777+38159248-007921721FL245     1 6LASIB    5BJA     
AWY DCT   YY10465510463871+37597221-007949999+36764446-008005832FL245     1 6XAPAS    6GIMAL   
AWY DCT   YY10465160463871+38292778-008220000+36764446-008005832FL245     1 6SOTEX    6GIMAL   
AWY DCT   YY10464050427721+40001945-008301944+39330082-007302583FL245     1 6INBOM    6PORTA   
AWY DCT   YY10462930465241+40722778-008431111+40416668-009591111FL245     1 6ABLEG    6TERVA   
AWY DCT   YY10462930464261+40722778-008431111+39205833-010965000FL245     1 6ABLEG    6LAMDI   
AWY DCT   YY10462930463291+40722778-008431111+38544998-010000000FL245     1 6ABLEG    6BUSEN   
AWY DCT   YY10462930464051+40722778-008431111+40001945-008301944FL245     1 6ABLEG    6INBOM   
AWY DCT   YY10464410464261+40691944-008616110+39205833-010965000FL245     1 6MANIK    6LAMDI   
AWY DCT   YY10464410463291+40691944-008616110+38544998-010000000FL245     1 6MANIK    6BUSEN   
AWY DCT   YY10464800427721+40881947-008114999+39330082-007302583FL245     1 6PESUL    6PORTA   
AWY DCT   YY10464050464801+40001945-008301944+40881947-008114999FL245     1 6INBOM    6PESUL   
AWY DCT   YY10465510465161+37597221-007949999+38292778-008220000FL245     1 6XAPAS    6SOTEX   
AWY DCT   YY10464280465511+38037498-007222777+37597221-007949999FL245     1 6LASIB    6XAPAS   
AWY DCT   YY10464280427721+38037498-007222777+39330082-007302583FL245     1 6LASIB    6PORTA   
AWY DCT   YY10423000463461+40583500-006302444+41521111-007673056FL245     1 6BARDI    6ELGIX   
AWY DCT   YY10422660463460+41173279-006282332+41521111-007673056FL245     1 6ARDID    6ELGIX   
AWY DCT   YY10422330463461+41483002-006280000+41521111-007673056FL245     1 6ADORO    6ELGIX   
AWY DCT   YY10463210463460+41700558-006621944+41521111-007673056FL245     1 6BATAX    6ELGIX   
AWY DCT   YY10462970463460+41751110-007236111+41521111-007673056FL245     1 6ABUPI    6ELGIX   
AWY DCT   YY10465200248910+32225555-016457500+32000000-014801111FL245     1 6TABOM    6LEPRU   
AWY DCT   YY10465200246370+32225555-016457500+31421446-016032888FL245     1 6TABOM    6BIMBO   
AWY DCT   YY10465200247210+32225555-016457500+31406944-016556917FL245     1 6TABOM    6ORTIS   
AWY DCT   YY10464580247130+32365276-017353056+31682917-017457000FL245     1 6NIDUL    6NELSO   
AWY DCT   YY10464580462911+32365276-017353056+32331111-018130277FL245     1 6NIDUL    6ABALO   
AWY DCT   YY10464590462911+33348610-016873611+32331111-018130277FL245     1 6NIKAV    6ABALO   
AWY DCT   YY10464590464131+33348610-016873611+33924999-018069166FL245     1 6NIKAV    6IRKID   
AWY DCT   YY10464590464551+33348610-016873611+35520557-016234443FL245     1 6NIKAV    6NAVIX   
AWY DCT   YY10463310249190+33418610-015658332+33000000-014123333FL245     1 6DEGUN    6NIPRI   
AWY DCT   YY10463310249290+33418610-015658332+34000000-013427222FL245     1 6DEGUN    6OGDOR   
AWY DCT   YY10463310248240+33418610-015658332+35000000-012711667FL245     1 6DEGUN    6ASGAM   
AWY DCT   YY10463310465170+33418610-015658332+35546391-012312500FL245     1 6DEGUN    6SUBAL   
AWY DCT   YY10463310464530+33418610-015658332+36056389-012558055FL245     1 6DEGUN    6NARTA   
AWY DCT   YY10463310465450+33418610-015658332+36772499-013675277FL245     1 6DEGUN    6VERAM   
AWY DCT   YY10463310464540+33418610-015658332+36325558-012973334FL245     1 6DEGUN    6NASAS   
AWY DCT   YY10464970249291+33556946-015781389+34000000-013427222FL245     1 6RAKUN    6OGDOR   
AWY DCT   YY10464970248241+33556946-015781389+35000000-012711667FL245     1 6RAKUN    6ASGAM   
AWY DCT   YY10464970465171+33556946-015781389+35546391-012312500FL245     1 6RAKUN    6SUBAL   
AWY DCT   YY10464970464531+33556946-015781389+36056389-012558055FL245     1 6RAKUN    6NARTA   
AWY DCT   YY10464970464541+33556946-015781389+36325558-012973334FL245     1 6RAKUN    6NASAS   
AWY DCT   YY10464970465451+33556946-015781389+36772499-013675277FL245     1 6RAKUN    6VERAM   
AWY DCT   YY10464970464631+33556946-015781389+36657223-014245833FL245     1 6RAKUN    6OBESA   
AWY DCT   YY10464970464421+33556946-015781389+36194443-015390277FL245     1 6RAKUN    6MANOX   
AWY DCT   YY10464970464551+33556946-015781389+35520557-016234443FL245     1 6RAKUN    6NAVIX   
AWY DCT   YY10464310249291+33667500-015949722+34000000-013427222FL245     1 6LIDRO    6OGDOR   
AWY DCT   YY10464310248241+33667500-015949722+35000000-012711667FL245     1 6LIDRO    6ASGAM   
AWY DCT   YY10464310465171+33667500-015949722+35546391-012312500FL245     1 6LIDRO    6SUBAL   
AWY DCT   YY10464310464531+33667500-015949722+36056389-012558055FL245     1 6LIDRO    6NARTA   
AWY DCT   YY10464310464541+33667500-015949722+36325558-012973334FL245     1 6LIDRO    6NASAS   
AWY DCT   YY10464310465451+33667500-015949722+36772499-013675277FL245     1 6LIDRO    6VERAM   
AWY DCT   YY10464310464631+33667500-015949722+36657223-014245833FL245     1 6LIDRO    6OBESA   
AWY DCT   YY10464310464421+33667500-015949722+36194443-015390277FL245     1 6LIDRO    6MANOX   
AWY DCT   YY10464310464551+33667500-015949722+35520557-016234443FL245     1 6LIDRO    6NAVIX   
AWY DCT   YY10463070463871+35966667-007883334+36764446-008005832FL245     1 6AMSEL    6GIMAL   
AWY DCT   YY10464740463871+35966667-008314166+36764446-008005832FL245     1 6OSLAD    6GIMAL   
AWY DCT   YY10249620463871+35966667-009372011+36764446-008005832FL245     1 6TAKAV    6GIMAL   
AWY DCT   YY10463200463871+35966667-010023332+36764446-008005832FL245     1 6BAROK    6GIMAL   
AWY DCT   YY10463250463871+35966667-011448332+36764446-008005832FL245     1 6BEXAL    6GIMAL   
AWY DCT   YY10464530463871+36056389-012558055+36764446-008005832FL245     1 6NARTA    6GIMAL   
AWY DCT   YY10465350464671+38179443-010000000+37497501-008383889FL245     1 6UNPOT    6ODEMI   
AWY DCT   YY10463290464671+38544998-010000000+37497501-008383889FL245     1 6BUSEN    6ODEMI   
AWY DCT   YY10465160464671+38292778-008220000+37497501-008383889FL245     1 6SOTEX    6ODEMI   
AWY DCT   YY10464850463871+36833336-007383333+36764446-008005832FL245     1 6PIREN    6GIMAL   
AWY DCT   YY10427170463871+36026669-007383333+36764446-008005832FL245     1 6ORTOP    6GIMAL   
AWY DCT   YY10463070464171+35966667-007883334+36976391-008701666FL245     1 6AMSEL    6IXOLI   
AWY DCT   YY10464740464171+35966667-008314166+36976391-008701666FL245     1 6OSLAD    6IXOLI   
AWY DCT   YY10463030464170+35966667-008949999+36976391-008701666FL245     1 6AKUDA    6IXOLI   
AWY DCT   YY10249620464171+35966667-009372011+36976391-008701666FL245     1 6TAKAV    6IXOLI   
AWY DCT   YY10463200464171+35966667-010023332+36976391-008701666FL245     1 6BAROK    6IXOLI   
AWY DCT   YY10463250464171+35966667-011448332+36976391-008701666FL245     1 6BEXAL    6IXOLI   
AWY DCT   YY10464530464171+36056389-012558055+36976391-008701666FL245     1 6NARTA    6IXOLI   
AWY DCT   YY10464540464171+36325558-012973334+36976391-008701666FL245     1 6NASAS    6IXOLI   
AWY DCT   YY10465350465161+38179443-010000000+38292778-008220000FL245     1 6UNPOT    6SOTEX   
AWY DCT   YY10463290465161+38544998-010000000+38292778-008220000FL245     1 6BUSEN    6SOTEX   
AWY DCT   YY10465490465161+40031113-008536110+38292778-008220000FL245     1 6XAMAX    6SOTEX   
AWY DCT   YY10464050465161+40001945-008301944+38292778-008220000FL245     1 6INBOM    6SOTEX   
AWY DCT   YY10424550465161+39219444-007223332+38292778-008220000FL245     1 6ELVAR    6SOTEX   
AWY DCT   YY10422800464050+41815140-008081193+40001945-008301944FL245     1 6ASPOR    6INBOM   
AWY DCT   YY10463830464531+38000000-009817500+36056389-012558055FL245     1 6GANSU    6NARTA   
AWY DCT   YY10463830464541+38000000-009817500+36325558-012973334FL245     1 6GANSU    6NASAS   
AWY DCT   YY10463290465451+38544998-010000000+36772499-013675277FL245     1 6BUSEN    6VERAM   
AWY DCT   YY10463290464371+38544998-010000000+37000000-015000000FL245     1 6BUSEN    6LUTAK   
AWY DCT   YY10463290464231+38544998-010000000+38000000-015000000FL245     1 6BUSEN    6KOMUT   
AWY DCT   YY10463290463981+38544998-010000000+39000000-015000000FL245     1 6BUSEN    6GUNTI   
AWY DCT   YY10463290427971+38544998-010000000+43000000-013000000FL245     1 6BUSEN    6RETEN   
AWY DCT   YY10463290427501+38544998-010000000+42678917-012000000FL245     1 6BUSEN    6PETEK   
AWY DCT   YY10463290428061+38544998-010000000+42283054-010816194FL245     1 6BUSEN    6RIPEL   
AWY DCT   YY10464050429631+40001945-008301944+42023888-010067972FL245     1 6INBOM    6XERES   
AWY DCT   YY10464050424111+40001945-008301944+41925694-009362000FL245     1 6INBOM    6DEMOS   
AWY DCT   YY10464050422381+40001945-008301944+41872890-008926694FL245     1 6INBOM    6AGADO   
AWY DCT   YY10464050464831+40001945-008301944+41851112-008597778FL245     1 6INBOM    6PINEK   
AWY DCT   YY10464050463160+40001945-008301944+41730556-006981667FL245     1 6INBOM    6BALNO   
AWY DCT   YY10464150422331+39654999-008016667+41483002-006280000FL245     1 6IXIDA    6ADORO   
AWY DCT   YY10464150429031+39654999-008016667+40990780-006288610FL245     1 6IXIDA    6TOSDI   
AWY DCT   YY10464150423001+39654999-008016667+40583500-006302444FL245     1 6IXIDA    6BARDI   
AWY DCT   YY10464010429190+39278332-008016667+39859806-006393305FL245     1 6IDBID    6UREDI   
AWY DCT   YY10464010427010+39278332-008016667+39801666-006400528FL245     1 6IDBID    6OGERO   
AWY DCT   YY10423000464011+40583500-006302444+39278332-008016667FL245     1 6BARDI    6IDBID   
AWY DCT   YY10422310464010+40017666-006373639+39278332-008016667FL245     1 6ADINO    6IDBID   
AWY DCT   YY12019750464010+39524502-006434721+39278332-008016667FL245     1 4CCS      6IDBID   
AWY DCT   YY10423000463591+40583500-006302444+38904446-008016667FL245     1 6BARDI    6EXONA   
AWY DCT   YY10422310463590+40017666-006373639+38904446-008016667FL245     1 6ADINO    6EXONA   
AWY DCT   YY12019750463590+39524502-006434721+38904446-008016667FL245     1 4CCS      6EXONA   
AWY DCT   YY10427500465491+42678917-012000000+40031113-008536110FL245     1 6PETEK    6XAMAX   
AWY DCT   YY10428060465491+42283054-010816194+40031113-008536110FL245     1 6RIPEL    6XAMAX   
AWY DCT   YY10429630465491+42023888-010067972+40031113-008536110FL245     1 6XERES    6XAMAX   
AWY DCT   YY10424110465491+41925694-009362000+40031113-008536110FL245     1 6DEMOS    6XAMAX   
AWY DCT   YY10422380465491+41872890-008926694+40031113-008536110FL245     1 6AGADO    6XAMAX   
AWY DCT   YY10464830465491+41851112-008597778+40031113-008536110FL245     1 6PINEK    6XAMAX   
AWY DCT   YY10465040465490+41823612-008199443+40031113-008536110FL245     1 6RITUS    6XAMAX   
AWY DCT   YY10463540464050+41789165-007730000+40001945-008301944FL245     1 6ETAKA    6INBOM   
AWY DCT   YY10462970464050+41751110-007236111+40001945-008301944FL245     1 6ABUPI    6INBOM   
AWY DCT   YY10463210464050+41700558-006621944+40001945-008301944FL245     1 6BATAX    6INBOM   
AWY DCT   YY10422330464051+41483002-006280000+40001945-008301944FL245     1 6ADORO    6INBOM   
AWY DCT   YY10422660464050+41173279-006282332+40001945-008301944FL245     1 6ARDID    6INBOM   
AWY DCT   YY10423000464051+40583500-006302444+40001945-008301944FL245     1 6BARDI    6INBOM   
AWY DCT   YY10426840463801+37245861-007428500+38275555-008543055FL245     1 6NIRAK    6GAIOS   
AWY DCT   YY10426370463801+37128807-007383333+38275555-008543055FL245     1 6MINTA    6GAIOS   
AWY DCT   YY10429090463801+37076111-007383333+38275555-008543055FL245     1 6TUPIX    6GAIOS   
AWY DCT   YY10463800427480+38275555-008543055+37036694-007383333FL245     1 6GAIOS    6PESAS   
AWY DCT   YY10464850463801+36833336-007383333+38275555-008543055FL245     1 6PIREN    6GAIOS   
AWY DCT   YY10427170465291+36026669-007383333+38073334-008879166FL245     1 6ORTOP    6TROIA   
AWY DCT   YY10463070465291+35966667-007883334+38073334-008879166FL245     1 6AMSEL    6TROIA   
AWY DCT   YY10464740465291+35966667-008314166+38073334-008879166FL245     1 6OSLAD    6TROIA   
AWY DCT   YY10249620464521+35966667-009372011+38000000-009334445FL245     1 6TAKAV    6NAKOS   
AWY DCT   YY10463200464521+35966667-010023332+38000000-009334445FL245     1 6BAROK    6NAKOS   
AWY DCT   YY10463250464321+35966667-011448332+38000000-009590832FL245     1 6BEXAL    6LIGRA   
AWY DCT   YY10464540464321+36325558-012973334+38000000-009590832FL245     1 6NASAS    6LIGRA   
AWY DCT   YY10465450465351+36772499-013675277+38179443-010000000FL245     1 6VERAM    6UNPOT   
AWY DCT   YY10464370465351+37000000-015000000+38179443-010000000FL245     1 6LUTAK    6UNPOT   
AWY DCT   YY10463520463291+40000000-015000000+38544998-010000000FL245     1 6ERPES    6BUSEN   
AWY DCT   YY10463330463291+41000000-015000000+38544998-010000000FL245     1 6DETOX    6BUSEN   
AWY DCT   YY10463180463291+42000000-015000000+38544998-010000000FL245     1 6BANAL    6BUSEN   
AWY DCT   YY10463100463291+42500000-014000000+38544998-010000000FL245     1 6ARMED    6BUSEN   
AWY DCT   YY10464380462911+32161945-017085277+32331111-018130277FL245     1 6MADAT    6ABALO   
AWY DCT   YY10464380247130+32161945-017085277+31682917-017457000FL245     1 6MADAT    6NELSO   
AWY DCT   YY10464380247210+32161945-017085277+31406944-016556917FL245     1 6MADAT    6ORTIS   
AWY DCT   YY10464380246371+32161945-017085277+31421446-016032888FL245     1 6MADAT    6BIMBO   
AWY DCT   YY10246370464190+31421446-016032888+32449165-016227222FL245     1 6BIMBO    6KEKOS   
AWY DCT   YY10248910464190+32000000-014801111+32449165-016227222FL245     1 6LEPRU    6KEKOS   
AWY DCT   YY10249190464190+33000000-014123333+32449165-016227222FL245     1 6NIPRI    6KEKOS   
AWY DCT   YY10463310464630+33418610-015658332+36657223-014245833FL245     1 6DEGUN    6OBESA   
AWY DCT   YY10464580464131+32365276-017353056+33924999-018069166FL245     1 6NIDUL    6IRKID   
AWY DCT   YY12026390249191+33090415-016350639+33000000-014123333FL245     1 4SNT      6NIPRI   
AWY DCT   YY12026390249291+33090415-016350639+34000000-013427222FL245     1 4SNT      6OGDOR   
AWY DCT   YY12026390248241+33090415-016350639+35000000-012711667FL245     1 4SNT      6ASGAM   
AWY DCT   YY12026390465171+33090415-016350639+35546391-012312500FL245     1 4SNT      6SUBAL   
AWY DCT   YY12026390464531+33090415-016350639+36056389-012558055FL245     1 4SNT      6NARTA   
AWY DCT   YY12026390464541+33090415-016350639+36325558-012973334FL245     1 4SNT      6NASAS   
AWY DCT   YY12026390465451+33090415-016350639+36772499-013675277FL245     1 4SNT      6VERAM   
AWY DCT   YY12026390464631+33090415-016350639+36657223-014245833FL245     1 4SNT      6OBESA   
AWY DCT   YY12026390464421+33090415-016350639+36194443-015390277FL245     1 4SNT      6MANOX   
AWY DCT   YY12026390464551+33090415-016350639+35520557-016234443FL245     1 4SNT      6NAVIX   
AWY DCT   YY10462980462911+32867012-016635541+32331111-018130277FL245     1 6ABUSU    6ABALO   
AWY DCT   YY10462980247130+32867012-016635541+31682917-017457000FL245     1 6ABUSU    6NELSO   
AWY DCT   YY10462980247210+32867012-016635541+31406944-016556917FL245     1 6ABUSU    6ORTIS   
AWY DCT   YY10462980246370+32867012-016635541+31421446-016032888FL245     1 6ABUSU    6BIMBO   
AWY DCT   YY10464150463160+39654999-008016667+41730556-006981667FL245     1 6IXIDA    6BALNO   
AWY DCT   YY10463800464281+38275555-008543055+38037498-007222777FL245     1 6GAIOS    6LASIB   
AWY DCT   YY10465290464851+38073334-008879166+36833336-007383333FL245     1 6TROIA    6PIREN   
AWY DCT   YY10464520463251+38000000-009334445+35966667-011448332FL245     1 6NAKOS    6BEXAL   
AWY DCT   YY10463830465451+38000000-009817500+36772499-013675277FL245     1 6GANSU    6VERAM   
AWY DCT   YY10463290464541+38544998-010000000+36325558-012973334FL245     1 6BUSEN    6NASAS   
AWY DCT   YY10463590427010+38904446-008016667+39801666-006400528FL245     1 6EXONA    6OGERO   
AWY DCT   YY10463590429190+38904446-008016667+39859806-006393305FL245     1 6EXONA    6UREDI   
AWY DCT   YY10464280463591+38037498-007222777+38904446-008016667FL245     1 6LASIB    6EXONA   
AWY DCT   YY10464540465351+36325558-012973334+38179443-010000000FL245     1 6NASAS    6UNPOT   
AWY DCT   YY10463040427721+38088612-007614445+39330082-007302583FL245     1 6ALAGU    6PORTA   
AWY DCT   YY10463040464051+38088612-007614445+40001945-008301944FL245     1 6ALAGU    6INBOM   
AWY DCT   YY10463580427721+38665001-007918611+39330082-007302583FL245     1 6EVURA    6PORTA   
AWY DCT   YY10463580464151+38665001-007918611+39654999-008016667FL245     1 6EVURA    6IXIDA   
AWY DCT   YY10463580464051+38665001-007918611+40001945-008301944FL245     1 6EVURA    6INBOM   
AWY DCT   YY10463580465491+38665001-007918611+40031113-008536110FL245     1 6EVURA    6XAMAX   
AWY DCT   YY10465160427721+38292778-008220000+39330082-007302583FL245     1 6SOTEX    6PORTA   
AWY DCT   YY10465510427721+37597221-007949999+39330082-007302583FL245     1 6XAPAS    6PORTA   
AWY DCT   YY10465510463581+37597221-007949999+38665001-007918611FL245     1 6XAPAS    6EVURA   
AWY DCT   YY10464440463581+37416668-007841111+38665001-007918611FL245     1 6MARIM    6EVURA   
AWY DCT   YY10463240463160+41358612-007777222+41730556-006981667FL245     1 6BELDU    6BALNO   
AWY DCT   YY10463240422331+41358612-007777222+41483002-006280000FL245     1 6BELDU    6ADORO   
AWY DCT   YY10463240429030+41358612-007777222+40990780-006288610FL245     1 6BELDU    6TOSDI   
AWY DCT   YY10463240423001+41358612-007777222+40583500-006302444FL245     1 6BELDU    6BARDI   
AWY DCT   YY10464800423001+40881947-008114999+40583500-006302444FL245     1 6PESUL    6BARDI   
AWY DCT   YY10464800429190+40881947-008114999+39859806-006393305FL245     1 6PESUL    6UREDI   
AWY DCT   YY10464800427010+40881947-008114999+39801666-006400528FL245     1 6PESUL    6OGERO   
AWY DCT   YY10464410464051+40691944-008616110+40001945-008301944FL245     1 6MANIK    6INBOM   
AWY DCT   YY10464410465491+40691944-008616110+40031113-008536110FL245     1 6MANIK    6XAMAX   
AWY DCT   YY10464300429631+41003334-009129444+42023888-010067972FL245     1 6LAVPA    6XERES   
AWY DCT   YY10464300428061+41003334-009129444+42283054-010816194FL245     1 6LAVPA    6RIPEL   
AWY DCT   YY10464300427501+41003334-009129444+42678917-012000000FL245     1 6LAVPA    6PETEK   
AWY DCT   YY10464300427971+41003334-009129444+43000000-013000000FL245     1 6LAVPA    6RETEN   
AWY DCT   YY10465280424111+41454445-008981110+41925694-009362000FL245     1 6TOVBA    6DEMOS   
AWY DCT   YY10465280429631+41454445-008981110+42023888-010067972FL245     1 6TOVBA    6XERES   
AWY DCT   YY10465280428061+41454445-008981110+42283054-010816194FL245     1 6TOVBA    6RIPEL   
AWY DCT   YY10465280427501+41454445-008981110+42678917-012000000FL245     1 6TOVBA    6PETEK   
AWY DCT   YY10465280427971+41454445-008981110+43000000-013000000FL245     1 6TOVBA    6RETEN   
AWY DCT   YY10465450464261+36772499-013675277+39205833-010965000FL245     1 6VERAM    6LAMDI   
AWY DCT   YY10464540464261+36325558-012973334+39205833-010965000FL245     1 6NASAS    6LAMDI   
AWY DCT   YY10464530464261+36056389-012558055+39205833-010965000FL245     1 6NARTA    6LAMDI   
AWY DCT   YY10464530463291+36056389-012558055+38544998-010000000FL245     1 6NARTA    6BUSEN   
AWY DCT   YY10464300463101+41003334-009129444+42500000-014000000FL245     1 6LAVPA    6ARMED   
AWY DCT   YY10464300463181+41003334-009129444+42000000-015000000FL245     1 6LAVPA    6BANAL   
AWY DCT   YY10464300463331+41003334-009129444+41000000-015000000FL245     1 6LAVPA    6DETOX   
AWY DCT   YY10465240463331+40416668-009591111+41000000-015000000FL245     1 6TERVA    6DETOX   
AWY DCT   YY10465240463521+40416668-009591111+40000000-015000000FL245     1 6TERVA    6ERPES   
AWY DCT   YY10465240463981+40416668-009591111+39000000-015000000FL245     1 6TERVA    6GUNTI   
AWY DCT   YY10465240464261+40416668-009591111+39205833-010965000FL245     1 6TERVA    6LAMDI   
AWY DCT   YY10464260464231+39205833-010965000+38000000-015000000FL245     1 6LAMDI    6KOMUT   
AWY DCT   YY10464260464371+39205833-010965000+37000000-015000000FL245     1 6LAMDI    6LUTAK   
AWY DCT   YY10465160463581+38292778-008220000+38665001-007918611FL245     1 6SOTEX    6EVURA   
AWY DCT   YY10463040463581+38088612-007614445+38665001-007918611FL245     1 6ALAGU    6EVURA   
AWY DCT   YY10464370464300+37000000-015000000+41003334-009129444FL095FL6601 6LUTAK    6LAVPA   
AWY DCT   YY10465280464370+41454445-008981110+37000000-015000000FL195FL6601 6TOVBA    6LUTAK   
AWY DCT   YY10464410463250+40691944-008616110+35966667-011448332FL195FL6601 6MANIK    6BEXAL   
AWY DCT   SA10464550463290+35520557-016234443+38544998-010000000FL055FL6601 6NAVIX    6BUSEN   
AWY DCT   YY10464970462930+33556946-015781389+40722778-008431111FL195FL6601 6RAKUN    6ABLEG   
AWY DCT   YY10465280463980+41454445-008981110+39000000-015000000FL195FL6601 6TOVBA    6GUNTI   
AWY DCT   YY10465280464230+41454445-008981110+38000000-015000000FL195FL6601 6TOVBA    6KOMUT   
AWY DCT   YY10465280464310+41454445-008981110+33667500-015949722FL195FL6601 6TOVBA    6LIDRO   
AWY DCT   YY10465280247130+41454445-008981110+31682917-017457000FL195FL6601 6TOVBA    6NELSO   
AWY DCT   YY10465280464360+41454445-008981110+40899723-009281110FL055FL6601 6TOVBA    6LULAS   
AWY DCT   SA10246421999161+26138889-014643889+27142851-013217952FL195     1 6CABOJ    4LAY     
AWY DCT   SA10246290246381+20916668-018000000+25000000-016358806FL195     1 6AMDIB    6BIPET   
AWY DCT   SA10246590246291+21338278-018678777+20916668-018000000FL195FL3051 6ETIBA    6AMDIB   
AWY DCT   SA10246840246591+22081362-019590028+21338278-018678777FL195FL3051 6ISOKA    6ETIBA   
AWY DCT   SA10247720246841+23066778-020836360+22081362-019590028FL195FL3051 6USOTI    6ISOKA   
AWY DCT   SA10247720247191+23066778-020836360+24638361-022480028FL195FL3051 6USOTI    6NORED   
AWY DCT   SA10464100247191+28000000-025000000+24638361-022480028FL195FL3051 6INSAD    6NORED   
AWY DCT   SA10464160247191+27000000-025000000+24638361-022480028FL195FL3051 6IXIKU    6NORED   
AWY DCT   SA10464240247191+26000000-025000000+24638361-022480028FL195FL3051 6KUXOV    6NORED   
AWY DCT   SA10464200247341+30000000-020000000+28256056-020000000FL195     1 6KETID    6ROSTA   
AWY DCT   SA10464810247341+30000000-023000000+28256056-020000000FL195     1 6PIBIL    6ROSTA   
AWY DCT   SA10246291999380+20916668-018000000+18091583-015948278FL195     1 6AMDIB    4KC      
AWY DCT   SA10246881998660+31300833-015301667+28077084-015428999FL285     1 6KONBA    4GDV     
AWY DCT   SA10464750247341+30000000-022000000+28256056-020000000FL195     1 6OSLEV    6ROSTA   
AWY DCT   SA10247150247341+30000000-021000000+28256056-020000000FL195     1 6NEXUX    6ROSTA   
AWY DCT   SA10465030247341+30000000-024000000+28256056-020000000FL195     1 6RIPOD    6ROSTA   
AWY DCT   SA10464100247341+28000000-025000000+28256056-020000000FL195     1 6INSAD    6ROSTA   
AWY DCT   SA10463910247341+29000000-025000000+28256056-020000000FL195     1 6GOBEG    6ROSTA   
AWY DCT   YY10422372019810+40512333-002064277+40867306-001298056FL195     1 6ADUXO    4CMA     
AWY DCT   SA20196810195940+53288055+000031944+55038334-001698333FL175FL2451 6OTBED    6NATEB   
AWY DCT   YY10426410422670+38449444-000013722+39538639+000298722FL195     1 6MITOS    6ARGOR   
AWY DCT   YY10422670424400+39538639+000298722+40708721+001231778FL195     1 6ARGOR    6EBROX   
AWY DCT   YY10000000000001+39665680-008492650+40583500-006302444FL245     0 01 4FTM   06BAR    
AWY DCT   YY10000000000000+39665680-008492650+40990780-006288610FL245     0 01 4FTM   06TOS    
AWY DCT   YY10000000000001+39665680-008492650+41483002-006280000FL245     0 01 4FTM   06ADO    
AWY DCT   YY10000000000000+39665680-008492650+41730556-006981667FL245     0 01 4FTM   06BAL    
AWY DCT   YY10000000000001+39665680-008492650+41851112-008597778FL245     0 01 4FTM   06PIN    
AWY DCT   YY10000000000001+39665680-008492650+41872890-008926693FL245     0 01 4FTM   06AGA    
AWY DCT   YY10000000000001+39665680-008492650+41925694-009362000FL245     0 01 4FTM   06DEM    
AWY DCT   YY10000000000001+39665680-008492650+42023888-010067972FL245     0 01 4FTM   06XER    
AWY DCT   YY10000000000001+38424274-009185771+37245861-007428500FL245     0 01 2ESP   06NIR    
AWY DCT   YY10000000000001+38424274-009185771+37128807-007383333FL245     0 01 2ESP   06MIN    
AWY DCT   YY10000000000001+38424274-009185771+37076111-007383333FL245     0 01 2ESP   06TUP    
AWY DCT   YY10000000000000+38424274-009185771+37036694-007383333FL245     0 01 2ESP   06PES    
AWY DCT   YY10000000000001+38424274-009185771+36833336-007383333FL245     0 01 2ESP   06PIR    
AWY DCT   YY10000000000001+38424274-009185771+36026669-007383333FL245     0 01 2ESP   06ORT    
AWY DCT   YY10000000000001+38424274-009185771+35966667-007883334FL245     0 01 2ESP   06AMS    
AWY DCT   YY10000000000001+38424274-009185771+35966667-008314166FL245     0 01 2ESP   06OSL    
AWY DCT   YY10000000000000+35966667-008949996+38424274-009185771FL245     0 01 6AKU   02ESP    
AWY DCT   YY10000000000001+38424274-009185771+35966667-009372011FL245     0 01 2ESP   06TAK    
AWY DCT   YY10000000000001+38424274-009185771+35966667-010023325FL245     0 01 2ESP   06BAR    
AWY DCT   YY10000000000001+38424274-009185771+35966667-011448329FL245     0 01 2ESP   06BEX    
AWY DCT   YY10000000000001+38424274-009185771+36056389-012558054FL245     0 01 2ESP   06NAR    
AWY DCT   YY10000000000001+38424274-009185771+36325558-012973334FL245     0 01 2ESP   06NAS    
AWY DCT   YY10000000000001+38424274-009185771+36772499-013675272FL245     0 01 2ESP   06VER    
AWY DCT   YY10000000000001+38424274-009185771+38544998-010000000FL245     0 01 2ESP   06BUS    
