
AWY DCT   YY10425310422800+44835220-006919722+41815140-008081193FL245FL4601 6KORUL    6ASPOR   
AWY DCT   SA11992170196700+58206947-006183046+57051945-005294722     FL2451 4STN      6ORSUM   
AWY DCT   SA11992170188790+58206947-006183046+60605000-009409999     FL2451 4STN      6BARKU   
AWY DCT   SA11992240191300+55499146-003352833+56196667-003685555FL245     1 4TLA      6GRICE   
AWY DCT   YY10424110443171+41925694-009362000+44983055-007885000FL245     1 6DEMOS    6SOSOV   
AWY DCT   YY10425032020771+44500000-013000000+43557056-006007082FL245     1 6HIDRA    4VES     
AWY DCT   YY10425032020651+44500000-013000000+42926861-008425389FL245     1 6HIDRA    4STG     
AWY DCT   YY10425262020771+44000000-013000000+43557056-006007082FL245     1 6KOPAS    4VES     
AWY DCT   YY10425262020651+44000000-013000000+42926861-008425389FL245     1 6KOPAS    4STG     
AWY DCT   YY10426542020771+43500000-013000000+43557056-006007082FL245     1 6MUDOS    4VES     
AWY DCT   YY10426542020651+43500000-013000000+42926861-008425389FL195     1 6MUDOS    4STG     
AWY DCT   YY10427972020771+43000000-013000000+43557056-006007082FL245     1 6RETEN    4VES     
AWY DCT   YY10427972020651+43000000-013000000+42926861-008425389FL195     1 6RETEN    4STG     
AWY DCT   YY10425312020771+44835220-006919722+43557056-006007082FL245     1 6KORUL    4VES     
AWY DCT   YY10423092020771+45000000-009000000+43557056-006007082FL245     1 6BEGAS    4VES     
AWY DCT   YY10423092020651+45000000-009000000+42926861-008425389FL245     1 6BEGAS    4STG     
AWY DCT   YY10424262020651+45000000-010000000+42926861-008425389FL245     1 6DIXIS    4STG     
AWY DCT   YY10423202020651+45000000-011000000+42926861-008425389FL245     1 6BERUX    4STG     
AWY DCT   YY10427592020651+45000000-012000000+42926861-008425389FL245     1 6PITAX    4STG     
AWY DCT   YY10427342020651+45000000-013000000+42926861-008425389FL245     1 6PASAS    4STG     
AWY DCT   YY10427342020771+45000000-013000000+43557056-006007082FL245     1 6PASAS    4VES     
AWY DCT   YY10425310422381+44835220-006919722+41872890-008926694FL245     1 6KORUL    6AGADO   
AWY DCT   YY10425730422380+44658749-005836638+41872890-008926694FL245     1 6LOTEE    6AGADO   
AWY DCT   YY10422820462970+44505360-004947527+41751110-007236111FL245     1 6ATLEN    6ABUPI   
AWY DCT   YY10422900462970+44412498-004436111+41751110-007236111FL245     1 6BAKUP    6ABUPI   
AWY DCT   YY10422900463210+44412498-004436111+41700558-006621944FL245     1 6BAKUP    6BATAX   
AWY DCT   YY10463160425730+41730556-006981667+44658749-005836638FL315     1 6BALNO    6LOTEE   
AWY DCT   YY10423090424111+45000000-009000000+41925694-009362000FL245     1 6BEGAS    6DEMOS   
AWY DCT   YY10423090464831+45000000-009000000+41851112-008597778FL245     1 6BEGAS    6PINEK   
AWY DCT   YY10423090428061+45000000-009000000+42283054-010816194FL245     1 6BEGAS    6RIPEL   
AWY DCT   YY10423090429631+45000000-009000000+42023888-010067972FL245     1 6BEGAS    6XERES   
AWY DCT   YY10423200425261+45000000-011000000+44000000-013000000FL245     1 6BERUX    6KOPAS   
AWY DCT   YY10423200426541+45000000-011000000+43500000-013000000FL245     1 6BERUX    6MUDOS   
AWY DCT   YY10423200427501+45000000-011000000+42678917-012000000FL245     1 6BERUX    6PETEK   
AWY DCT   YY10423200428061+45000000-011000000+42283054-010816194FL245     1 6BERUX    6RIPEL   
AWY DCT   YY10425310424111+44835220-006919722+41925694-009362000FL245     1 6KORUL    6DEMOS   
AWY DCT   YY10424260427501+45000000-010000000+42678917-012000000FL245     1 6DIXIS    6PETEK   
AWY DCT   YY10424260428061+45000000-010000000+42283054-010816194FL245     1 6DIXIS    6RIPEL   
AWY DCT   YY10424260429631+45000000-010000000+42023888-010067972FL245     1 6DIXIS    6XERES   
AWY DCT   YY10427590425031+45000000-012000000+44500000-013000000FL245     1 6PITAX    6HIDRA   
AWY DCT   YY10427590425261+45000000-012000000+44000000-013000000FL245     1 6PITAX    6KOPAS   
AWY DCT   YY10425310427501+44835220-006919722+42678917-012000000FL245     1 6KORUL    6PETEK   
AWY DCT   YY10425310428061+44835220-006919722+42283054-010816194FL245     1 6KORUL    6RIPEL   
AWY DCT   YY10425310429631+44835220-006919722+42023888-010067972FL245     1 6KORUL    6XERES   
AWY DCT   YY10425730462970+44658749-005836638+41751110-007236111FL245     1 6LOTEE    6ABUPI   
AWY DCT   YY10425730463210+44658749-005836638+41700558-006621944FL245     1 6LOTEE    6BATAX   
AWY DCT   YY10425730427501+44658749-005836638+42678917-012000000FL245     1 6LOTEE    6PETEK   
AWY DCT   YY10425730464831+44658749-005836638+41851112-008597778FL245     1 6LOTEE    6PINEK   
AWY DCT   YY10464830425310+41851112-008597778+44835220-006919722FL245     1 6PINEK    6KORUL   
AWY DCT   YY10422380423091+41872890-008926694+45000000-009000000FL245     1 6AGADO    6BEGAS   
AWY DCT   YY10424110425730+41925694-009362000+44658749-005836638FL245     1 6DEMOS    6LOTEE   
AWY DCT   YY10425542020771+43504139-004873445+43557056-006007082FL245     1 6LASKU    4VES     
AWY DCT   YY10424122020651+41830139-006216610+42926861-008425389FL245     1 6DESAT    4STG     
AWY DCT   YY10422350425260+44346638-008814444+44000000-013000000FL245FL4601 6ADROX    6KOPAS   
AWY DCT   YY10422350426540+44346638-008814444+43500000-013000000FL245FL4601 6ADROX    6MUDOS   
AWY DCT   YY10425310422350+44835220-006919722+44346638-008814444FL245FL4601 6KORUL    6ADROX   
AWY DCT   YY10422660249620+41173279-006282332+35966667-009372011FL245     1 6ARDID    6TAKAV   
AWY DCT   YY10422660465140+41173279-006282332+36500000-010000000FL245     1 6ARDID    6SONAP   
AWY DCT   YY10422660463250+41173279-006282332+35966667-011448332FL245     1 6ARDID    6BEXAL   
AWY DCT   YY10422660464530+41173279-006282332+36056389-012558055FL245     1 6ARDID    6NARTA   
AWY DCT   YY10422660464540+41173279-006282332+36325558-012973334FL245     1 6ARDID    6NASAS   
AWY DCT   YY10422660465450+41173279-006282332+36772499-013675277FL245     1 6ARDID    6VERAM   
AWY DCT   YY10463530464741+37416668-007614721+35966667-008314166FL245     1 6ERTIS    6OSLAD   
AWY DCT   YY10463530463071+37416668-007614721+35966667-007883334FL245     1 6ERTIS    6AMSEL   
AWY DCT   YY10427720463531+39330082-007302583+37416668-007614721FL245     1 6PORTA    6ERTIS   
AWY DCT   YY10422330249621+41483002-006280000+35966667-009372011FL245     1 6ADORO    6TAKAV   
AWY DCT   YY10422330465141+41483002-006280000+36500000-010000000FL245     1 6ADORO    6SONAP   
AWY DCT   YY10422330464541+41483002-006280000+36325558-012973334FL245     1 6ADORO    6NASAS   
AWY DCT   YY10422330465451+41483002-006280000+36772499-013675277FL245     1 6ADORO    6VERAM   
AWY DCT   YY10422330463251+41483002-006280000+35966667-011448332FL245     1 6ADORO    6BEXAL   
AWY DCT   YY10422330464531+41483002-006280000+36056389-012558055FL245     1 6ADORO    6NARTA   
AWY DCT   YY10422380422331+41872890-008926694+41483002-006280000FL245     1 6AGADO    6ADORO   
AWY DCT   YY10422660422380+41173279-006282332+41872890-008926694FL245     1 6ARDID    6AGADO   
AWY DCT   YY10422380429031+41872890-008926694+40990780-006288610FL245     1 6AGADO    6TOSDI   
AWY DCT   YY10422380423001+41872890-008926694+40583500-006302444FL245     1 6AGADO    6BARDI   
AWY DCT   YY10422310422380+40017666-006373639+41872890-008926694FL245     1 6ADINO    6AGADO   
AWY DCT   YY10422380429190+41872890-008926694+39859806-006393305FL245     1 6AGADO    6UREDI   
AWY DCT   YY10422380427010+41872890-008926694+39801666-006400528FL245     1 6AGADO    6OGERO   
AWY DCT   YY12019750422380+39524502-006434721+41872890-008926694FL245     1 4CCS      6AGADO   
AWY DCT   YY10422380464281+41872890-008926694+38037498-007222777FL245     1 6AGADO    6LASIB   
AWY DCT   YY10422380427171+41872890-008926694+36026669-007383333FL245     1 6AGADO    6ORTOP   
AWY DCT   YY10422380249621+41872890-008926694+35966667-009372011FL245     1 6AGADO    6TAKAV   
AWY DCT   YY10422380465141+41872890-008926694+36500000-010000000FL245     1 6AGADO    6SONAP   
AWY DCT   YY10422380464531+41872890-008926694+36056389-012558055FL245     1 6AGADO    6NARTA   
AWY DCT   YY10422380464541+41872890-008926694+36325558-012973334FL245     1 6AGADO    6NASAS   
AWY DCT   YY10422380465451+41872890-008926694+36772499-013675277FL245     1 6AGADO    6VERAM   
AWY DCT   YY10422380464631+41872890-008926694+36657223-014245833FL245     1 6AGADO    6OBESA   
AWY DCT   YY10424110429031+41925694-009362000+40990780-006288610FL245     1 6DEMOS    6TOSDI   
AWY DCT   YY10424110423001+41925694-009362000+40583500-006302444FL245     1 6DEMOS    6BARDI   
AWY DCT   YY10422310424110+40017666-006373639+41925694-009362000FL245     1 6ADINO    6DEMOS   
AWY DCT   YY10424110429190+41925694-009362000+39859806-006393305FL245     1 6DEMOS    6UREDI   
AWY DCT   YY10424110427010+41925694-009362000+39801666-006400528FL245     1 6DEMOS    6OGERO   
AWY DCT   YY12019750424110+39524502-006434721+41925694-009362000FL245     1 4CCS      6DEMOS   
AWY DCT   YY10424110464281+41925694-009362000+38037498-007222777FL245     1 6DEMOS    6LASIB   
AWY DCT   YY10424110427171+41925694-009362000+36026669-007383333FL245     1 6DEMOS    6ORTOP   
AWY DCT   YY10424110249621+41925694-009362000+35966667-009372011FL245     1 6DEMOS    6TAKAV   
AWY DCT   YY10424110465141+41925694-009362000+36500000-010000000FL245     1 6DEMOS    6SONAP   
AWY DCT   YY10424110464531+41925694-009362000+36056389-012558055FL245     1 6DEMOS    6NARTA   
AWY DCT   YY10424110464541+41925694-009362000+36325558-012973334FL245     1 6DEMOS    6NASAS   
AWY DCT   YY10424110464631+41925694-009362000+36657223-014245833FL245     1 6DEMOS    6OBESA   
AWY DCT   YY10424110465451+41925694-009362000+36772499-013675277FL245     1 6DEMOS    6VERAM   
AWY DCT   YY10429630429030+42023888-010067972+40990780-006288610FL245     1 6XERES    6TOSDI   
AWY DCT   YY10429630423001+42023888-010067972+40583500-006302444FL245     1 6XERES    6BARDI   
AWY DCT   YY10422310429630+40017666-006373639+42023888-010067972FL245     1 6ADINO    6XERES   
AWY DCT   YY10429630429190+42023888-010067972+39859806-006393305FL245     1 6XERES    6UREDI   
AWY DCT   YY10429630427010+42023888-010067972+39801666-006400528FL245     1 6XERES    6OGERO   
AWY DCT   YY12019750429630+39524502-006434721+42023888-010067972FL245     1 4CCS      6XERES   
AWY DCT   YY10429630464281+42023888-010067972+38037498-007222777FL245     1 6XERES    6LASIB   
AWY DCT   YY10429630427171+42023888-010067972+36026669-007383333FL245     1 6XERES    6ORTOP   
AWY DCT   YY10429630249621+42023888-010067972+35966667-009372011FL245     1 6XERES    6TAKAV   
AWY DCT   YY10429630465141+42023888-010067972+36500000-010000000FL245     1 6XERES    6SONAP   
AWY DCT   YY10429630464531+42023888-010067972+36056389-012558055FL245     1 6XERES    6NARTA   
AWY DCT   YY10429630464541+42023888-010067972+36325558-012973334FL245     1 6XERES    6NASAS   
AWY DCT   YY10429630465451+42023888-010067972+36772499-013675277FL245     1 6XERES    6VERAM   
AWY DCT   YY10429630464631+42023888-010067972+36657223-014245833FL245     1 6XERES    6OBESA   
AWY DCT   YY10422310428060+40017666-006373639+42283054-010816194FL245     1 6ADINO    6RIPEL   
AWY DCT   YY10428060429190+42283054-010816194+39859806-006393305FL245     1 6RIPEL    6UREDI   
AWY DCT   YY10428060427010+42283054-010816194+39801666-006400528FL245     1 6RIPEL    6OGERO   
AWY DCT   YY12019750428060+39524502-006434721+42283054-010816194FL245     1 4CCS      6RIPEL   
AWY DCT   YY10428060464281+42283054-010816194+38037498-007222777FL245     1 6RIPEL    6LASIB   
AWY DCT   YY10428060426841+42283054-010816194+37245861-007428500FL245     1 6RIPEL    6NIRAK   
AWY DCT   YY10428060426371+42283054-010816194+37128807-007383333FL245     1 6RIPEL    6MINTA   
AWY DCT   YY10428060429091+42283054-010816194+37076111-007383333FL245     1 6RIPEL    6TUPIX   
AWY DCT   YY10428060427480+42283054-010816194+37036694-007383333FL245     1 6RIPEL    6PESAS   
AWY DCT   YY10428060464851+42283054-010816194+36833336-007383333FL245     1 6RIPEL    6PIREN   
AWY DCT   YY10428060427171+42283054-010816194+36026669-007383333FL245     1 6RIPEL    6ORTOP   
AWY DCT   YY10428060249621+42283054-010816194+35966667-009372011FL245     1 6RIPEL    6TAKAV   
AWY DCT   YY10465140463201+36500000-010000000+35966667-010023332FL245     1 6SONAP    6BAROK   
AWY DCT   YY10428060465141+42283054-010816194+36500000-010000000FL245     1 6RIPEL    6SONAP   
AWY DCT   YY10428060464531+42283054-010816194+36056389-012558055FL245     1 6RIPEL    6NARTA   
AWY DCT   YY10428060464541+42283054-010816194+36325558-012973334FL245     1 6RIPEL    6NASAS   
AWY DCT   YY10428060465451+42283054-010816194+36772499-013675277FL245     1 6RIPEL    6VERAM   
AWY DCT   YY10428060464631+42283054-010816194+36657223-014245833FL245     1 6RIPEL    6OBESA   
AWY DCT   YY10422310427500+40017666-006373639+42678917-012000000FL245     1 6ADINO    6PETEK   
AWY DCT   YY10427500429190+42678917-012000000+39859806-006393305FL245     1 6PETEK    6UREDI   
AWY DCT   YY10427500427010+42678917-012000000+39801666-006400528FL245     1 6PETEK    6OGERO   
AWY DCT   YY12019750427500+39524502-006434721+42678917-012000000FL245     1 4CCS      6PETEK   
AWY DCT   YY10427500464281+42678917-012000000+38037498-007222777FL245     1 6PETEK    6LASIB   
AWY DCT   YY10427500426841+42678917-012000000+37245861-007428500FL245     1 6PETEK    6NIRAK   
AWY DCT   YY10427500426371+42678917-012000000+37128807-007383333FL245     1 6PETEK    6MINTA   
AWY DCT   YY10427500429091+42678917-012000000+37076111-007383333FL245     1 6PETEK    6TUPIX   
AWY DCT   YY10427500427480+42678917-012000000+37036694-007383333FL245     1 6PETEK    6PESAS   
AWY DCT   YY10427500464851+42678917-012000000+36833336-007383333FL245     1 6PETEK    6PIREN   
AWY DCT   YY10427500427171+42678917-012000000+36026669-007383333FL245     1 6PETEK    6ORTOP   
AWY DCT   YY10427500249621+42678917-012000000+35966667-009372011FL245     1 6PETEK    6TAKAV   
AWY DCT   YY10427500465141+42678917-012000000+36500000-010000000FL245     1 6PETEK    6SONAP   
AWY DCT   YY10427500464531+42678917-012000000+36056389-012558055FL245     1 6PETEK    6NARTA   
AWY DCT   YY10427500464541+42678917-012000000+36325558-012973334FL245     1 6PETEK    6NASAS   
AWY DCT   YY10427500465451+42678917-012000000+36772499-013675277FL245     1 6PETEK    6VERAM   
AWY DCT   YY10427500464631+42678917-012000000+36657223-014245833FL245     1 6PETEK    6OBESA   
AWY DCT   YY12019750427970+39524502-006434721+43000000-013000000FL245     1 4CCS      6RETEN   
AWY DCT   YY10427970426841+43000000-013000000+37245861-007428500FL245     1 6RETEN    6NIRAK   
AWY DCT   YY10427970464851+43000000-013000000+36833336-007383333FL245     1 6RETEN    6PIREN   
AWY DCT   YY10427970465141+43000000-013000000+36500000-010000000FL245     1 6RETEN    6SONAP   
AWY DCT   YY10427970464531+43000000-013000000+36056389-012558055FL245     1 6RETEN    6NARTA   
AWY DCT   YY10427970464541+43000000-013000000+36325558-012973334FL245     1 6RETEN    6NASAS   
AWY DCT   YY10427970465451+43000000-013000000+36772499-013675277FL245     1 6RETEN    6VERAM   
AWY DCT   YY10427970464631+43000000-013000000+36657223-014245833FL245     1 6RETEN    6OBESA   
AWY DCT   YY10422310427970+40017666-006373639+43000000-013000000FL245     1 6ADINO    6RETEN   
AWY DCT   YY10427970429190+43000000-013000000+39859806-006393305FL245     1 6RETEN    6UREDI   
AWY DCT   YY10427970427010+43000000-013000000+39801666-006400528FL245     1 6RETEN    6OGERO   
AWY DCT   YY10427500463071+42678917-012000000+35966667-007883334FL245     1 6PETEK    6AMSEL   
AWY DCT   YY10428060463071+42283054-010816194+35966667-007883334FL245     1 6RIPEL    6AMSEL   
AWY DCT   YY10429630463071+42023888-010067972+35966667-007883334FL245     1 6XERES    6AMSEL   
AWY DCT   YY10424110463071+41925694-009362000+35966667-007883334FL245     1 6DEMOS    6AMSEL   
AWY DCT   YY10422380463071+41872890-008926694+35966667-007883334FL245     1 6AGADO    6AMSEL   
AWY DCT   YY10427500464741+42678917-012000000+35966667-008314166FL245     1 6PETEK    6OSLAD   
AWY DCT   YY10428060464741+42283054-010816194+35966667-008314166FL245     1 6RIPEL    6OSLAD   
AWY DCT   YY10429630464741+42023888-010067972+35966667-008314166FL245     1 6XERES    6OSLAD   
AWY DCT   YY10424110464741+41925694-009362000+35966667-008314166FL245     1 6DEMOS    6OSLAD   
AWY DCT   YY10422380464741+41872890-008926694+35966667-008314166FL245     1 6AGADO    6OSLAD   
AWY DCT   YY10463030422380+35966667-008949999+41872890-008926694FL245     1 6AKUDA    6AGADO   
AWY DCT   YY10463030424110+35966667-008949999+41925694-009362000FL245     1 6AKUDA    6DEMOS   
AWY DCT   YY10463030429630+35966667-008949999+42023888-010067972FL245     1 6AKUDA    6XERES   
AWY DCT   YY10463030428061+35966667-008949999+42283054-010816194FL245     1 6AKUDA    6RIPEL   
AWY DCT   YY10463030427500+35966667-008949999+42678917-012000000FL245     1 6AKUDA    6PETEK   
AWY DCT   YY10427500463201+42678917-012000000+35966667-010023332FL245     1 6PETEK    6BAROK   
AWY DCT   YY10422380463251+41872890-008926694+35966667-011448332FL245     1 6AGADO    6BEXAL   
AWY DCT   YY10424110463251+41925694-009362000+35966667-011448332FL245     1 6DEMOS    6BEXAL   
AWY DCT   YY10429630463251+42023888-010067972+35966667-011448332FL245     1 6XERES    6BEXAL   
AWY DCT   YY10428060463251+42283054-010816194+35966667-011448332FL245     1 6RIPEL    6BEXAL   
AWY DCT   YY10427500463251+42678917-012000000+35966667-011448332FL245     1 6PETEK    6BEXAL   
AWY DCT   YY10427970463251+43000000-013000000+35966667-011448332FL245     1 6RETEN    6BEXAL   
AWY DCT   YY10427970463201+43000000-013000000+35966667-010023332FL245     1 6RETEN    6BAROK   
AWY DCT   YY10463030427971+35966667-008949999+43000000-013000000FL245     1 6AKUDA    6RETEN   
AWY DCT   YY10427970464741+43000000-013000000+35966667-008314166FL245     1 6RETEN    6OSLAD   
AWY DCT   YY10427970463071+43000000-013000000+35966667-007883334FL245     1 6RETEN    6AMSEL   
AWY DCT   YY10427970427171+43000000-013000000+36026669-007383333FL245     1 6RETEN    6ORTOP   
AWY DCT   YY10427970427480+43000000-013000000+37036694-007383333FL245     1 6RETEN    6PESAS   
AWY DCT   YY10427970429091+43000000-013000000+37076111-007383333FL245     1 6RETEN    6TUPIX   
AWY DCT   YY10427970426371+43000000-013000000+37128807-007383333FL245     1 6RETEN    6MINTA   
AWY DCT   YY10427970464281+43000000-013000000+38037498-007222777FL245     1 6RETEN    6LASIB   
AWY DCT   YY10422660463100+41173279-006282332+42500000-014000000FL245     1 6ARDID    6ARMED   
AWY DCT   YY10463100429030+42500000-014000000+40990780-006288610FL245     1 6ARMED    6TOSDI   
AWY DCT   YY10463100423001+42500000-014000000+40583500-006302444FL245     1 6ARMED    6BARDI   
AWY DCT   YY10422310463100+40017666-006373639+42500000-014000000FL245     1 6ADINO    6ARMED   
AWY DCT   YY10463100429190+42500000-014000000+39859806-006393305FL245     1 6ARMED    6UREDI   
AWY DCT   YY10463100427010+42500000-014000000+39801666-006400528FL245     1 6ARMED    6OGERO   
AWY DCT   YY12019750463100+39524502-006434721+42500000-014000000FL245     1 4CCS      6ARMED   
AWY DCT   YY10463100464281+42500000-014000000+38037498-007222777FL245     1 6ARMED    6LASIB   
AWY DCT   YY10463100426841+42500000-014000000+37245861-007428500FL245     1 6ARMED    6NIRAK   
AWY DCT   YY10463100426371+42500000-014000000+37128807-007383333FL245     1 6ARMED    6MINTA   
AWY DCT   YY10463100429091+42500000-014000000+37076111-007383333FL245     1 6ARMED    6TUPIX   
AWY DCT   YY10463100427480+42500000-014000000+37036694-007383333FL245     1 6ARMED    6PESAS   
AWY DCT   YY10463100464851+42500000-014000000+36833336-007383333FL245     1 6ARMED    6PIREN   
AWY DCT   YY10463100427171+42500000-014000000+36026669-007383333FL245     1 6ARMED    6ORTOP   
AWY DCT   YY10463100463071+42500000-014000000+35966667-007883334FL245     1 6ARMED    6AMSEL   
AWY DCT   YY10463100464741+42500000-014000000+35966667-008314166FL245     1 6ARMED    6OSLAD   
AWY DCT   YY10463100463201+42500000-014000000+35966667-010023332FL245     1 6ARMED    6BAROK   
AWY DCT   YY10463100463251+42500000-014000000+35966667-011448332FL245     1 6ARMED    6BEXAL   
AWY DCT   YY10463100464531+42500000-014000000+36056389-012558055FL245     1 6ARMED    6NARTA   
AWY DCT   YY10463100464541+42500000-014000000+36325558-012973334FL245     1 6ARMED    6NASAS   
AWY DCT   YY10463100465451+42500000-014000000+36772499-013675277FL245     1 6ARMED    6VERAM   
AWY DCT   YY10463100464631+42500000-014000000+36657223-014245833FL245     1 6ARMED    6OBESA   
AWY DCT   YY12019750463180+39524502-006434721+42000000-015000000FL245     1 4CCS      6BANAL   
AWY DCT   YY10463180426841+42000000-015000000+37245861-007428500FL245     1 6BANAL    6NIRAK   
AWY DCT   YY10463180464851+42000000-015000000+36833336-007383333FL245     1 6BANAL    6PIREN   
AWY DCT   YY10463180465141+42000000-015000000+36500000-010000000FL245     1 6BANAL    6SONAP   
AWY DCT   YY10463180464531+42000000-015000000+36056389-012558055FL245     1 6BANAL    6NARTA   
AWY DCT   YY10463180464541+42000000-015000000+36325558-012973334FL245     1 6BANAL    6NASAS   
AWY DCT   YY10463180465451+42000000-015000000+36772499-013675277FL245     1 6BANAL    6VERAM   
AWY DCT   YY10463180464631+42000000-015000000+36657223-014245833FL245     1 6BANAL    6OBESA   
AWY DCT   YY10463330463101+41000000-015000000+42500000-014000000FL245     1 6DETOX    6ARMED   
AWY DCT   YY10463330464831+41000000-015000000+41851112-008597778FL245     1 6DETOX    6PINEK   
AWY DCT   YY10465040463330+41823612-008199443+41000000-015000000FL245     1 6RITUS    6DETOX   
AWY DCT   YY10463330463160+41000000-015000000+41730556-006981667FL245     1 6DETOX    6BALNO   
AWY DCT   YY12019750463330+39524502-006434721+41000000-015000000FL245     1 4CCS      6DETOX   
AWY DCT   YY10463330426841+41000000-015000000+37245861-007428500FL245     1 6DETOX    6NIRAK   
AWY DCT   YY10463330464851+41000000-015000000+36833336-007383333FL245     1 6DETOX    6PIREN   
AWY DCT   YY10463330465141+41000000-015000000+36500000-010000000FL245     1 6DETOX    6SONAP   
AWY DCT   YY10463330464531+41000000-015000000+36056389-012558055FL245     1 6DETOX    6NARTA   
AWY DCT   YY10463330464541+41000000-015000000+36325558-012973334FL245     1 6DETOX    6NASAS   
AWY DCT   YY10463330465451+41000000-015000000+36772499-013675277FL245     1 6DETOX    6VERAM   
AWY DCT   YY10463330464631+41000000-015000000+36657223-014245833FL245     1 6DETOX    6OBESA   
AWY DCT   YY10463520463101+40000000-015000000+42500000-014000000FL245     1 6ERPES    6ARMED   
AWY DCT   YY10463520464831+40000000-015000000+41851112-008597778FL245     1 6ERPES    6PINEK   
AWY DCT   YY10465040463520+41823612-008199443+40000000-015000000FL245     1 6RITUS    6ERPES   
AWY DCT   YY10463520463160+40000000-015000000+41730556-006981667FL245     1 6ERPES    6BALNO   
AWY DCT   YY12019750463520+39524502-006434721+40000000-015000000FL245     1 4CCS      6ERPES   
AWY DCT   YY10463520426841+40000000-015000000+37245861-007428500FL245     1 6ERPES    6NIRAK   
AWY DCT   YY10463520464851+40000000-015000000+36833336-007383333FL245     1 6ERPES    6PIREN   
AWY DCT   YY10463520465141+40000000-015000000+36500000-010000000FL245     1 6ERPES    6SONAP   
AWY DCT   YY10463520464531+40000000-015000000+36056389-012558055FL245     1 6ERPES    6NARTA   
AWY DCT   YY10463520464541+40000000-015000000+36325558-012973334FL245     1 6ERPES    6NASAS   
AWY DCT   YY10463520465451+40000000-015000000+36772499-013675277FL245     1 6ERPES    6VERAM   
AWY DCT   YY10463520464631+40000000-015000000+36657223-014245833FL245     1 6ERPES    6OBESA   
AWY DCT   YY10463980463101+39000000-015000000+42500000-014000000FL245     1 6GUNTI    6ARMED   
AWY DCT   YY10463980464831+39000000-015000000+41851112-008597778FL245     1 6GUNTI    6PINEK   
AWY DCT   YY10465040463980+41823612-008199443+39000000-015000000FL245     1 6RITUS    6GUNTI   
AWY DCT   YY10463980463160+39000000-015000000+41730556-006981667FL245     1 6GUNTI    6BALNO   
AWY DCT   YY12019750463980+39524502-006434721+39000000-015000000FL245     1 4CCS      6GUNTI   
AWY DCT   YY10463980426841+39000000-015000000+37245861-007428500FL245     1 6GUNTI    6NIRAK   
AWY DCT   YY10463980464851+39000000-015000000+36833336-007383333FL245     1 6GUNTI    6PIREN   
AWY DCT   YY10463980465141+39000000-015000000+36500000-010000000FL245     1 6GUNTI    6SONAP   
AWY DCT   YY10463980465451+39000000-015000000+36772499-013675277FL245     1 6GUNTI    6VERAM   
AWY DCT   YY10463980464631+39000000-015000000+36657223-014245833FL245     1 6GUNTI    6OBESA   
AWY DCT   YY10464230463101+38000000-015000000+42500000-014000000FL245     1 6KOMUT    6ARMED   
AWY DCT   YY10465040464230+41823612-008199443+38000000-015000000FL245     1 6RITUS    6KOMUT   
AWY DCT   YY10464230463160+38000000-015000000+41730556-006981667FL245     1 6KOMUT    6BALNO   
AWY DCT   YY10464230463210+38000000-015000000+41700558-006621944FL245     1 6KOMUT    6BATAX   
AWY DCT   YY12019750464230+39524502-006434721+38000000-015000000FL245     1 4CCS      6KOMUT   
AWY DCT   YY10464230426841+38000000-015000000+37245861-007428500FL245     1 6KOMUT    6NIRAK   
AWY DCT   YY10464230464851+38000000-015000000+36833336-007383333FL245     1 6KOMUT    6PIREN   
AWY DCT   YY10464230465141+38000000-015000000+36500000-010000000FL245     1 6KOMUT    6SONAP   
AWY DCT   YY10464230465451+38000000-015000000+36772499-013675277FL245     1 6KOMUT    6VERAM   
AWY DCT   YY10464230464631+38000000-015000000+36657223-014245833FL245     1 6KOMUT    6OBESA   
AWY DCT   YY10464370463101+37000000-015000000+42500000-014000000FL245     1 6LUTAK    6ARMED   
AWY DCT   YY10465040464370+41823612-008199443+37000000-015000000FL245     1 6RITUS    6LUTAK   
AWY DCT   YY10464370463160+37000000-015000000+41730556-006981667FL245     1 6LUTAK    6BALNO   
AWY DCT   YY12019750464370+39524502-006434721+37000000-015000000FL245     1 4CCS      6LUTAK   
AWY DCT   YY10464370426841+37000000-015000000+37245861-007428500FL245     1 6LUTAK    6NIRAK   
AWY DCT   YY10464370464851+37000000-015000000+36833336-007383333FL245     1 6LUTAK    6PIREN   
AWY DCT   YY10427170465141+36026669-007383333+36500000-010000000FL245     1 6ORTOP    6SONAP   
AWY DCT   YY10465140463071+36500000-010000000+35966667-007883334FL245     1 6SONAP    6AMSEL   
AWY DCT   YY10465140464741+36500000-010000000+35966667-008314166FL245     1 6SONAP    6OSLAD   
AWY DCT   YY10463030465140+35966667-008949999+36500000-010000000FL245     1 6AKUDA    6SONAP   
AWY DCT   YY10465140249621+36500000-010000000+35966667-009372011FL245     1 6SONAP    6TAKAV   
AWY DCT   YY10465450465141+36772499-013675277+36500000-010000000FL245     1 6VERAM    6SONAP   
AWY DCT   YY10465450463201+36772499-013675277+35966667-010023332FL245     1 6VERAM    6BAROK   
AWY DCT   YY10465450463251+36772499-013675277+35966667-011448332FL245     1 6VERAM    6BEXAL   
AWY DCT   YY10464370465451+37000000-015000000+36772499-013675277FL245     1 6LUTAK    6VERAM   
AWY DCT   YY10464370464631+37000000-015000000+36657223-014245833FL245     1 6LUTAK    6OBESA   
AWY DCT   YY10246370464631+31421446-016032888+36657223-014245833FL245     1 6BIMBO    6OBESA   
AWY DCT   YY10464630248911+36657223-014245833+32000000-014801111FL245     1 6OBESA    6LEPRU   
AWY DCT   YY10464630247211+36657223-014245833+31406944-016556917FL245     1 6OBESA    6ORTIS   
AWY DCT   YY10464630247131+36657223-014245833+31682917-017457000FL245     1 6OBESA    6NELSO   
AWY DCT   YY10464630462911+36657223-014245833+32331111-018130277FL245     1 6OBESA    6ABALO   
AWY DCT   YY10464630464131+36657223-014245833+33924999-018069166FL245     1 6OBESA    6IRKID   
AWY DCT   YY10464630464551+36657223-014245833+35520557-016234443FL245     1 6OBESA    6NAVIX   
AWY DCT   YY10464630464421+36657223-014245833+36194443-015390277FL245     1 6OBESA    6MANOX   
AWY DCT   YY10465170464631+35546391-012312500+36657223-014245833FL245     1 6SUBAL    6OBESA   
AWY DCT   YY10465170465451+35546391-012312500+36772499-013675277FL245     1 6SUBAL    6VERAM   
AWY DCT   YY10465170464541+35546391-012312500+36325558-012973334FL245     1 6SUBAL    6NASAS   
AWY DCT   YY10248240464631+35000000-012711667+36657223-014245833FL245     1 6ASGAM    6OBESA   
AWY DCT   YY10248240465451+35000000-012711667+36772499-013675277FL245     1 6ASGAM    6VERAM   
AWY DCT   YY10248240464541+35000000-012711667+36325558-012973334FL245     1 6ASGAM    6NASAS   
AWY DCT   YY10249290464541+34000000-013427222+36325558-012973334FL245     1 6OGDOR    6NASAS   
AWY DCT   YY10249290465451+34000000-013427222+36772499-013675277FL245     1 6OGDOR    6VERAM   
AWY DCT   YY10249290464631+34000000-013427222+36657223-014245833FL245     1 6OGDOR    6OBESA   
AWY DCT   YY10249190464631+33000000-014123333+36657223-014245833FL245     1 6NIPRI    6OBESA   
AWY DCT   YY10249190465451+33000000-014123333+36772499-013675277FL245     1 6NIPRI    6VERAM   
AWY DCT   YY10249190464541+33000000-014123333+36325558-012973334FL245     1 6NIPRI    6NASAS   
AWY DCT   YY10248910465451+32000000-014801111+36772499-013675277FL245     1 6LEPRU    6VERAM   
AWY DCT   YY10248910464531+32000000-014801111+36056389-012558055FL245     1 6LEPRU    6NARTA   
AWY DCT   YY10246370465450+31421446-016032888+36772499-013675277FL245     1 6BIMBO    6VERAM   
AWY DCT   YY10246370465170+31421446-016032888+35546391-012312500FL245     1 6BIMBO    6SUBAL   
AWY DCT   YY10246370248240+31421446-016032888+35000000-012711667FL245     1 6BIMBO    6ASGAM   
AWY DCT   YY10246370249290+31421446-016032888+34000000-013427222FL245     1 6BIMBO    6OGDOR   
AWY DCT   YY10246370249190+31421446-016032888+33000000-014123333FL245     1 6BIMBO    6NIPRI   
AWY DCT   YY10246370248910+31421446-016032888+32000000-014801111FL245     1 6BIMBO    6LEPRU   
AWY DCT   YY10246370247130+31421446-016032888+31682917-017457000FL245     1 6BIMBO    6NELSO   
AWY DCT   YY10462910248911+32331111-018130277+32000000-014801111FL245     1 6ABALO    6LEPRU   
AWY DCT   YY10462910249191+32331111-018130277+33000000-014123333FL245     1 6ABALO    6NIPRI   
AWY DCT   YY10462910249291+32331111-018130277+34000000-013427222FL245     1 6ABALO    6OGDOR   
AWY DCT   YY10462910248241+32331111-018130277+35000000-012711667FL245     1 6ABALO    6ASGAM   
AWY DCT   YY10462910465171+32331111-018130277+35546391-012312500FL245     1 6ABALO    6SUBAL   
AWY DCT   YY10462910464531+32331111-018130277+36056389-012558055FL245     1 6ABALO    6NARTA   
AWY DCT   YY10462910465451+32331111-018130277+36772499-013675277FL245     1 6ABALO    6VERAM   
AWY DCT   YY10464130462911+33924999-018069166+32331111-018130277FL245     1 6IRKID    6ABALO   
AWY DCT   YY10464130248911+33924999-018069166+32000000-014801111FL245     1 6IRKID    6LEPRU   
AWY DCT   YY10464130249191+33924999-018069166+33000000-014123333FL245     1 6IRKID    6NIPRI   
AWY DCT   YY10464130249291+33924999-018069166+34000000-013427222FL245     1 6IRKID    6OGDOR   
AWY DCT   YY10464130248241+33924999-018069166+35000000-012711667FL245     1 6IRKID    6ASGAM   
AWY DCT   YY10464130465171+33924999-018069166+35546391-012312500FL245     1 6IRKID    6SUBAL   
AWY DCT   YY10464130464531+33924999-018069166+36056389-012558055FL245     1 6IRKID    6NARTA   
AWY DCT   YY10464130464541+33924999-018069166+36325558-012973334FL245     1 6IRKID    6NASAS   
AWY DCT   YY10464550462911+35520557-016234443+32331111-018130277FL245     1 6NAVIX    6ABALO   
AWY DCT   YY10464550248911+35520557-016234443+32000000-014801111FL245     1 6NAVIX    6LEPRU   
AWY DCT   YY10464550249191+35520557-016234443+33000000-014123333FL245     1 6NAVIX    6NIPRI   
AWY DCT   YY10464550249291+35520557-016234443+34000000-013427222FL245     1 6NAVIX    6OGDOR   
AWY DCT   YY10464550248241+35520557-016234443+35000000-012711667FL245     1 6NAVIX    6ASGAM   
AWY DCT   YY10464550465171+35520557-016234443+35546391-012312500FL245     1 6NAVIX    6SUBAL   
AWY DCT   YY10464550464531+35520557-016234443+36056389-012558055FL245     1 6NAVIX    6NARTA   
AWY DCT   YY10464420462911+36194443-015390277+32331111-018130277FL245     1 6MANOX    6ABALO   
AWY DCT   YY10464420247130+36194443-015390277+31682917-017457000FL245     1 6MANOX    6NELSO   
AWY DCT   YY10464420247210+36194443-015390277+31406944-016556917FL245     1 6MANOX    6ORTIS   
AWY DCT   YY10246370464420+31421446-016032888+36194443-015390277FL245     1 6BIMBO    6MANOX   
AWY DCT   YY10464420248911+36194443-015390277+32000000-014801111FL245     1 6MANOX    6LEPRU   
AWY DCT   YY10464420249191+36194443-015390277+33000000-014123333FL245     1 6MANOX    6NIPRI   
AWY DCT   YY10464420249291+36194443-015390277+34000000-013427222FL245     1 6MANOX    6OGDOR   
AWY DCT   YY10464420248241+36194443-015390277+35000000-012711667FL245     1 6MANOX    6ASGAM   
AWY DCT   YY10464420465171+36194443-015390277+35546391-012312500FL245     1 6MANOX    6SUBAL   
AWY DCT   YY10464420464531+36194443-015390277+36056389-012558055FL245     1 6MANOX    6NARTA   
AWY DCT   YY10464420465451+36194443-015390277+36772499-013675277FL245     1 6MANOX    6VERAM   
AWY DCT   YY10464370429631+37000000-015000000+42023888-010067972FL245     1 6LUTAK    6XERES   
AWY DCT   YY10464370428061+37000000-015000000+42283054-010816194FL245     1 6LUTAK    6RIPEL   
AWY DCT   YY10464370427501+37000000-015000000+42678917-012000000FL245     1 6LUTAK    6PETEK   
AWY DCT   YY10462970464370+41751110-007236111+37000000-015000000FL245     1 6ABUPI    6LUTAK   
AWY DCT   YY10462970464230+41751110-007236111+38000000-015000000FL245     1 6ABUPI    6KOMUT   
AWY DCT   YY10462970463980+41751110-007236111+39000000-015000000FL245     1 6ABUPI    6GUNTI   
AWY DCT   YY10462970463520+41751110-007236111+40000000-015000000FL245     1 6ABUPI    6ERPES   
AWY DCT   YY10462970463330+41751110-007236111+41000000-015000000FL245     1 6ABUPI    6DETOX   
AWY DCT   YY10463180422331+42000000-015000000+41483002-006280000FL245     1 6BANAL    6ADORO   
AWY DCT   YY10463330422331+41000000-015000000+41483002-006280000FL245     1 6DETOX    6ADORO   
AWY DCT   YY10463520422331+40000000-015000000+41483002-006280000FL245     1 6ERPES    6ADORO   
AWY DCT   YY10463980422331+39000000-015000000+41483002-006280000FL245     1 6GUNTI    6ADORO   
AWY DCT   YY10464230422331+38000000-015000000+41483002-006280000FL245     1 6KOMUT    6ADORO   
AWY DCT   YY10464370422331+37000000-015000000+41483002-006280000FL245     1 6LUTAK    6ADORO   
AWY DCT   YY10464370464831+37000000-015000000+41851112-008597778FL245     1 6LUTAK    6PINEK   
AWY DCT   YY10464230464831+38000000-015000000+41851112-008597778FL245     1 6KOMUT    6PINEK   
AWY DCT   YY10463210464370+41700558-006621944+37000000-015000000FL245     1 6BATAX    6LUTAK   
AWY DCT   YY10463210463980+41700558-006621944+39000000-015000000FL245     1 6BATAX    6GUNTI   
AWY DCT   YY10463210463520+41700558-006621944+40000000-015000000FL245     1 6BATAX    6ERPES   
AWY DCT   YY10463210463330+41700558-006621944+41000000-015000000FL245     1 6BATAX    6DETOX   
AWY DCT   YY10422660464370+41173279-006282332+37000000-015000000FL245     1 6ARDID    6LUTAK   
AWY DCT   YY10422660464230+41173279-006282332+38000000-015000000FL245     1 6ARDID    6KOMUT   
AWY DCT   YY10422660463980+41173279-006282332+39000000-015000000FL245     1 6ARDID    6GUNTI   
AWY DCT   YY10422660463520+41173279-006282332+40000000-015000000FL245     1 6ARDID    6ERPES   
AWY DCT   YY10422660463330+41173279-006282332+41000000-015000000FL245     1 6ARDID    6DETOX   
AWY DCT   YY10422660463180+41173279-006282332+42000000-015000000FL245     1 6ARDID    6BANAL   
AWY DCT   YY10464370429030+37000000-015000000+40990780-006288610FL245     1 6LUTAK    6TOSDI   
AWY DCT   YY10464230429030+38000000-015000000+40990780-006288610FL245     1 6KOMUT    6TOSDI   
AWY DCT   YY10463980429030+39000000-015000000+40990780-006288610FL245     1 6GUNTI    6TOSDI   
AWY DCT   YY10463520429030+40000000-015000000+40990780-006288610FL245     1 6ERPES    6TOSDI   
AWY DCT   YY10463330429030+41000000-015000000+40990780-006288610FL245     1 6DETOX    6TOSDI   
AWY DCT   YY10463180429030+42000000-015000000+40990780-006288610FL245     1 6BANAL    6TOSDI   
AWY DCT   YY10464370423001+37000000-015000000+40583500-006302444FL245     1 6LUTAK    6BARDI   
AWY DCT   YY10464230423001+38000000-015000000+40583500-006302444FL245     1 6KOMUT    6BARDI   
AWY DCT   YY10463980423001+39000000-015000000+40583500-006302444FL245     1 6GUNTI    6BARDI   
AWY DCT   YY10463520423001+40000000-015000000+40583500-006302444FL245     1 6ERPES    6BARDI   
AWY DCT   YY10463330423001+41000000-015000000+40583500-006302444FL245     1 6DETOX    6BARDI   
AWY DCT   YY10463180423001+42000000-015000000+40583500-006302444FL245     1 6BANAL    6BARDI   
AWY DCT   YY10422310464370+40017666-006373639+37000000-015000000FL245     1 6ADINO    6LUTAK   
AWY DCT   YY10422310464230+40017666-006373639+38000000-015000000FL245     1 6ADINO    6KOMUT   
AWY DCT   YY10422310463980+40017666-006373639+39000000-015000000FL245     1 6ADINO    6GUNTI   
AWY DCT   YY10422310463520+40017666-006373639+40000000-015000000FL245     1 6ADINO    6ERPES   
AWY DCT   YY10422310463330+40017666-006373639+41000000-015000000FL245     1 6ADINO    6DETOX   
AWY DCT   YY10422310463180+40017666-006373639+42000000-015000000FL245     1 6ADINO    6BANAL   
AWY DCT   YY10464370429190+37000000-015000000+39859806-006393305FL245     1 6LUTAK    6UREDI   
AWY DCT   YY10464230429190+38000000-015000000+39859806-006393305FL245     1 6KOMUT    6UREDI   
AWY DCT   YY10463980429190+39000000-015000000+39859806-006393305FL245     1 6GUNTI    6UREDI   
AWY DCT   YY10463520429190+40000000-015000000+39859806-006393305FL245     1 6ERPES    6UREDI   
AWY DCT   YY10463330429190+41000000-015000000+39859806-006393305FL245     1 6DETOX    6UREDI   
AWY DCT   YY10463180429190+42000000-015000000+39859806-006393305FL245     1 6BANAL    6UREDI   
AWY DCT   YY10463180427010+42000000-015000000+39801666-006400528FL245     1 6BANAL    6OGERO   
AWY DCT   YY10463330427010+41000000-015000000+39801666-006400528FL245     1 6DETOX    6OGERO   
AWY DCT   YY10463520427010+40000000-015000000+39801666-006400528FL245     1 6ERPES    6OGERO   
AWY DCT   YY10463980427010+39000000-015000000+39801666-006400528FL245     1 6GUNTI    6OGERO   
AWY DCT   YY10464230427010+38000000-015000000+39801666-006400528FL245     1 6KOMUT    6OGERO   
AWY DCT   YY10464370427010+37000000-015000000+39801666-006400528FL245     1 6LUTAK    6OGERO   
AWY DCT   YY10246370464550+31421446-016032888+35520557-016234443FL245     1 6BIMBO    6NAVIX   
AWY DCT   YY10246370464130+31421446-016032888+33924999-018069166FL245     1 6BIMBO    6IRKID   
AWY DCT   YY10246370462910+31421446-016032888+32331111-018130277FL245     1 6BIMBO    6ABALO   
AWY DCT   YY10464550247210+35520557-016234443+31406944-016556917FL245     1 6NAVIX    6ORTIS   
AWY DCT   YY10464130247210+33924999-018069166+31406944-016556917FL245     1 6IRKID    6ORTIS   
AWY DCT   YY10464550247130+35520557-016234443+31682917-017457000FL245     1 6NAVIX    6NELSO   
AWY DCT   YY10464130247130+33924999-018069166+31682917-017457000FL245     1 6IRKID    6NELSO   
AWY DCT   YY10464370427480+37000000-015000000+37036694-007383333FL245     1 6LUTAK    6PESAS   
AWY DCT   YY10464370429091+37000000-015000000+37076111-007383333FL245     1 6LUTAK    6TUPIX   
AWY DCT   YY10464370426371+37000000-015000000+37128807-007383333FL245     1 6LUTAK    6MINTA   
AWY DCT   YY10464370464281+37000000-015000000+38037498-007222777FL245     1 6LUTAK    6LASIB   
AWY DCT   YY10464230463251+38000000-015000000+35966667-011448332FL245     1 6KOMUT    6BEXAL   
AWY DCT   YY10464230463201+38000000-015000000+35966667-010023332FL245     1 6KOMUT    6BAROK   
AWY DCT   YY10464230427480+38000000-015000000+37036694-007383333FL245     1 6KOMUT    6PESAS   
AWY DCT   YY10464230429091+38000000-015000000+37076111-007383333FL245     1 6KOMUT    6TUPIX   
AWY DCT   YY10464230426371+38000000-015000000+37128807-007383333FL245     1 6KOMUT    6MINTA   
AWY DCT   YY10464230464281+38000000-015000000+38037498-007222777FL245     1 6KOMUT    6LASIB   
AWY DCT   YY10463540464370+41789165-007730000+37000000-015000000FL245     1 6ETAKA    6LUTAK   
AWY DCT   YY10464370422381+37000000-015000000+41872890-008926694FL245     1 6LUTAK    6AGADO   
AWY DCT   YY10464370424111+37000000-015000000+41925694-009362000FL245     1 6LUTAK    6DEMOS   
AWY DCT   YY10464370427971+37000000-015000000+43000000-013000000FL245     1 6LUTAK    6RETEN   
AWY DCT   YY10463540464230+41789165-007730000+38000000-015000000FL245     1 6ETAKA    6KOMUT   
AWY DCT   YY10464230422381+38000000-015000000+41872890-008926694FL245     1 6KOMUT    6AGADO   
AWY DCT   YY10464230424111+38000000-015000000+41925694-009362000FL245     1 6KOMUT    6DEMOS   
AWY DCT   YY10464230429631+38000000-015000000+42023888-010067972FL245     1 6KOMUT    6XERES   
AWY DCT   YY10464230428061+38000000-015000000+42283054-010816194FL245     1 6KOMUT    6RIPEL   
AWY DCT   YY10464230427501+38000000-015000000+42678917-012000000FL245     1 6KOMUT    6PETEK   
AWY DCT   YY10464230427971+38000000-015000000+43000000-013000000FL245     1 6KOMUT    6RETEN   
AWY DCT   YY10463180463251+42000000-015000000+35966667-011448332FL245     1 6BANAL    6BEXAL   
AWY DCT   YY10463180463201+42000000-015000000+35966667-010023332FL245     1 6BANAL    6BAROK   
AWY DCT   YY10463330463251+41000000-015000000+35966667-011448332FL245     1 6DETOX    6BEXAL   
AWY DCT   YY10463330463201+41000000-015000000+35966667-010023332FL245     1 6DETOX    6BAROK   
AWY DCT   YY10463520463251+40000000-015000000+35966667-011448332FL245     1 6ERPES    6BEXAL   
AWY DCT   YY10463520463201+40000000-015000000+35966667-010023332FL245     1 6ERPES    6BAROK   
AWY DCT   YY10463980463251+39000000-015000000+35966667-011448332FL245     1 6GUNTI    6BEXAL   
AWY DCT   YY10463980463201+39000000-015000000+35966667-010023332FL245     1 6GUNTI    6BAROK   
AWY DCT   YY10463980427480+39000000-015000000+37036694-007383333FL245     1 6GUNTI    6PESAS   
AWY DCT   YY10463980429091+39000000-015000000+37076111-007383333FL245     1 6GUNTI    6TUPIX   
AWY DCT   YY10463980426371+39000000-015000000+37128807-007383333FL245     1 6GUNTI    6MINTA   
AWY DCT   YY10463980464281+39000000-015000000+38037498-007222777FL245     1 6GUNTI    6LASIB   
AWY DCT   YY10463540463980+41789165-007730000+39000000-015000000FL245     1 6ETAKA    6GUNTI   
AWY DCT   YY10463980422381+39000000-015000000+41872890-008926694FL245     1 6GUNTI    6AGADO   
AWY DCT   YY10463980424111+39000000-015000000+41925694-009362000FL245     1 6GUNTI    6DEMOS   
AWY DCT   YY10463980429631+39000000-015000000+42023888-010067972FL245     1 6GUNTI    6XERES   
AWY DCT   YY10463980428061+39000000-015000000+42283054-010816194FL245     1 6GUNTI    6RIPEL   
AWY DCT   YY10463980427501+39000000-015000000+42678917-012000000FL245     1 6GUNTI    6PETEK   
AWY DCT   YY10463980427971+39000000-015000000+43000000-013000000FL245     1 6GUNTI    6RETEN   
AWY DCT   YY10463520427171+40000000-015000000+36026669-007383333FL245     1 6ERPES    6ORTOP   
AWY DCT   YY10463520427480+40000000-015000000+37036694-007383333FL245     1 6ERPES    6PESAS   
AWY DCT   YY10463520429091+40000000-015000000+37076111-007383333FL245     1 6ERPES    6TUPIX   
AWY DCT   YY10463520426371+40000000-015000000+37128807-007383333FL245     1 6ERPES    6MINTA   
AWY DCT   YY10463520464281+40000000-015000000+38037498-007222777FL245     1 6ERPES    6LASIB   
AWY DCT   YY10463540463520+41789165-007730000+40000000-015000000FL245     1 6ETAKA    6ERPES   
AWY DCT   YY10463520422381+40000000-015000000+41872890-008926694FL245     1 6ERPES    6AGADO   
AWY DCT   YY10463520424111+40000000-015000000+41925694-009362000FL245     1 6ERPES    6DEMOS   
AWY DCT   YY10463520429631+40000000-015000000+42023888-010067972FL245     1 6ERPES    6XERES   
AWY DCT   YY10463520428061+40000000-015000000+42283054-010816194FL245     1 6ERPES    6RIPEL   
AWY DCT   YY10463520427501+40000000-015000000+42678917-012000000FL245     1 6ERPES    6PETEK   
AWY DCT   YY10463520427971+40000000-015000000+43000000-013000000FL245     1 6ERPES    6RETEN   
AWY DCT   YY10463330464741+41000000-015000000+35966667-008314166FL245     1 6DETOX    6OSLAD   
AWY DCT   YY10463330463071+41000000-015000000+35966667-007883334FL245     1 6DETOX    6AMSEL   
AWY DCT   YY10463330427171+41000000-015000000+36026669-007383333FL245     1 6DETOX    6ORTOP   
AWY DCT   YY10463330427480+41000000-015000000+37036694-007383333FL245     1 6DETOX    6PESAS   
AWY DCT   YY10463330429091+41000000-015000000+37076111-007383333FL245     1 6DETOX    6TUPIX   
AWY DCT   YY10463330426371+41000000-015000000+37128807-007383333FL245     1 6DETOX    6MINTA   
AWY DCT   YY10463330464281+41000000-015000000+38037498-007222777FL245     1 6DETOX    6LASIB   
AWY DCT   YY10463540463330+41789165-007730000+41000000-015000000FL245     1 6ETAKA    6DETOX   
AWY DCT   YY10463330422381+41000000-015000000+41872890-008926694FL245     1 6DETOX    6AGADO   
AWY DCT   YY10463330424111+41000000-015000000+41925694-009362000FL245     1 6DETOX    6DEMOS   
AWY DCT   YY10463330429631+41000000-015000000+42023888-010067972FL245     1 6DETOX    6XERES   
AWY DCT   YY10463330428061+41000000-015000000+42283054-010816194FL245     1 6DETOX    6RIPEL   
AWY DCT   YY10463330427501+41000000-015000000+42678917-012000000FL245     1 6DETOX    6PETEK   
AWY DCT   YY10463330427971+41000000-015000000+43000000-013000000FL245     1 6DETOX    6RETEN   
AWY DCT   YY10463180464741+42000000-015000000+35966667-008314166FL245     1 6BANAL    6OSLAD   
AWY DCT   YY10463180463071+42000000-015000000+35966667-007883334FL245     1 6BANAL    6AMSEL   
AWY DCT   YY10463180427171+42000000-015000000+36026669-007383333FL245     1 6BANAL    6ORTOP   
AWY DCT   YY10463180427480+42000000-015000000+37036694-007383333FL245     1 6BANAL    6PESAS   
AWY DCT   YY10463180429091+42000000-015000000+37076111-007383333FL245     1 6BANAL    6TUPIX   
AWY DCT   YY10463180426371+42000000-015000000+37128807-007383333FL245     1 6BANAL    6MINTA   
AWY DCT   YY10463180464281+42000000-015000000+38037498-007222777FL245     1 6BANAL    6LASIB   
AWY DCT   YY10463180429631+42000000-015000000+42023888-010067972FL245     1 6BANAL    6XERES   
AWY DCT   YY10463180428061+42000000-015000000+42283054-010816194FL245     1 6BANAL    6RIPEL   
AWY DCT   YY10463180427501+42000000-015000000+42678917-012000000FL245     1 6BANAL    6PETEK   
AWY DCT   YY10246370464530+31421446-016032888+36056389-012558055FL245     1 6BIMBO    6NARTA   
AWY DCT   YY10462910464541+32331111-018130277+36325558-012973334FL245     1 6ABALO    6NASAS   
AWY DCT   YY10464550464541+35520557-016234443+36325558-012973334FL245     1 6NAVIX    6NASAS   
AWY DCT   YY10464420464541+36194443-015390277+36325558-012973334FL245     1 6MANOX    6NASAS   
AWY DCT   YY10464130465451+33924999-018069166+36772499-013675277FL245     1 6IRKID    6VERAM   
AWY DCT   YY10465170464531+35546391-012312500+36056389-012558055FL245     1 6SUBAL    6NARTA   
AWY DCT   YY10248240464531+35000000-012711667+36056389-012558055FL245     1 6ASGAM    6NARTA   
AWY DCT   YY10249290464531+34000000-013427222+36056389-012558055FL245     1 6OGDOR    6NARTA   
AWY DCT   YY10249190464531+33000000-014123333+36056389-012558055FL245     1 6NIPRI    6NARTA   
AWY DCT   YY10248910464541+32000000-014801111+36325558-012973334FL245     1 6LEPRU    6NASAS   
AWY DCT   YY10246370464540+31421446-016032888+36325558-012973334FL245     1 6BIMBO    6NASAS   
AWY DCT   YY10464550465451+35520557-016234443+36772499-013675277FL245     1 6NAVIX    6VERAM   
AWY DCT   YY10462970463070+41751110-007236111+35966667-007883334FL245     1 6ABUPI    6AMSEL   
AWY DCT   YY10464830463071+41851112-008597778+35966667-007883334FL245     1 6PINEK    6AMSEL   
AWY DCT   YY10464830464741+41851112-008597778+35966667-008314166FL245     1 6PINEK    6OSLAD   
AWY DCT   YY10463030464830+35966667-008949999+41851112-008597778FL245     1 6AKUDA    6PINEK   
AWY DCT   YY10464830463251+41851112-008597778+35966667-011448332FL245     1 6PINEK    6BEXAL   
AWY DCT   YY10462970464740+41751110-007236111+35966667-008314166FL245     1 6ABUPI    6OSLAD   
AWY DCT   YY10462970463250+41751110-007236111+35966667-011448332FL245     1 6ABUPI    6BEXAL   
AWY DCT   YY10463540463070+41789165-007730000+35966667-007883334FL245     1 6ETAKA    6AMSEL   
AWY DCT   YY10463540464740+41789165-007730000+35966667-008314166FL245     1 6ETAKA    6OSLAD   
AWY DCT   YY10463540463250+41789165-007730000+35966667-011448332FL245     1 6ETAKA    6BEXAL   
AWY DCT   YY10464830464541+41851112-008597778+36325558-012973334FL245     1 6PINEK    6NASAS   
AWY DCT   YY10464830464531+41851112-008597778+36056389-012558055FL245     1 6PINEK    6NARTA   
AWY DCT   YY10464830465451+41851112-008597778+36772499-013675277FL245     1 6PINEK    6VERAM   
AWY DCT   YY10464830464631+41851112-008597778+36657223-014245833FL245     1 6PINEK    6OBESA   
AWY DCT   YY10464830465141+41851112-008597778+36500000-010000000FL245     1 6PINEK    6SONAP   
AWY DCT   YY10464830249621+41851112-008597778+35966667-009372011FL245     1 6PINEK    6TAKAV   
AWY DCT   YY10464830427171+41851112-008597778+36026669-007383333FL245     1 6PINEK    6ORTOP   
AWY DCT   YY10464830463531+41851112-008597778+37416668-007614721FL245     1 6PINEK    6ERTIS   
AWY DCT   YY10463530426841+37416668-007614721+37245861-007428500FL245     1 6ERTIS    6NIRAK   
AWY DCT   YY10463530426371+37416668-007614721+37128807-007383333FL245     1 6ERTIS    6MINTA   
AWY DCT   YY10463530429091+37416668-007614721+37076111-007383333FL245     1 6ERTIS    6TUPIX   
AWY DCT   YY10463530464851+37416668-007614721+36833336-007383333FL245     1 6ERTIS    6PIREN   
AWY DCT   YY10463530427480+37416668-007614721+37036694-007383333FL245     1 6ERTIS    6PESAS   
AWY DCT   YY10464830464281+41851112-008597778+38037498-007222777FL245     1 6PINEK    6LASIB   
AWY DCT   YY12019750464830+39524502-006434721+41851112-008597778FL245     1 4CCS      6PINEK   
AWY DCT   YY10464830427010+41851112-008597778+39801666-006400528FL245     1 6PINEK    6OGERO   
AWY DCT   YY10464830429190+41851112-008597778+39859806-006393305FL245     1 6PINEK    6UREDI   
AWY DCT   YY10422310464830+40017666-006373639+41851112-008597778FL245     1 6ADINO    6PINEK   
AWY DCT   YY10464830423001+41851112-008597778+40583500-006302444FL245     1 6PINEK    6BARDI   
AWY DCT   YY10464830429030+41851112-008597778+40990780-006288610FL245     1 6PINEK    6TOSDI   
AWY DCT   YY10422660464830+41173279-006282332+41851112-008597778FL245     1 6ARDID    6PINEK   
AWY DCT   YY10464830422331+41851112-008597778+41483002-006280000FL245     1 6PINEK    6ADORO   
AWY DCT   YY10465040464630+41823612-008199443+36657223-014245833FL245     1 6RITUS    6OBESA   
AWY DCT   YY10465040465450+41823612-008199443+36772499-013675277FL245     1 6RITUS    6VERAM   
AWY DCT   YY10465040464540+41823612-008199443+36325558-012973334FL245     1 6RITUS    6NASAS   
AWY DCT   YY10465040464530+41823612-008199443+36056389-012558055FL245     1 6RITUS    6NARTA   
AWY DCT   YY10465040463250+41823612-008199443+35966667-011448332FL245     1 6RITUS    6BEXAL   
AWY DCT   YY10465040465140+41823612-008199443+36500000-010000000FL245     1 6RITUS    6SONAP   
AWY DCT   YY10465040249620+41823612-008199443+35966667-009372011FL245     1 6RITUS    6TAKAV   
AWY DCT   YY10465040464740+41823612-008199443+35966667-008314166FL245     1 6RITUS    6OSLAD   
AWY DCT   YY10465040463070+41823612-008199443+35966667-007883334FL245     1 6RITUS    6AMSEL   
AWY DCT   YY10465040463530+41823612-008199443+37416668-007614721FL245     1 6RITUS    6ERTIS   
AWY DCT   YY10463530427170+37416668-007614721+36026669-007383333FL245     1 6ERTIS    6ORTOP   
AWY DCT   YY10465040464280+41823612-008199443+38037498-007222777FL245     1 6RITUS    6LASIB   
AWY DCT   YY10465040427010+41823612-008199443+39801666-006400528FL245     1 6RITUS    6OGERO   
AWY DCT   YY10465040429190+41823612-008199443+39859806-006393305FL245     1 6RITUS    6UREDI   
AWY DCT   YY10465040423000+41823612-008199443+40583500-006302444FL245     1 6RITUS    6BARDI   
AWY DCT   YY10465040429030+41823612-008199443+40990780-006288610FL245     1 6RITUS    6TOSDI   
AWY DCT   YY10465040422330+41823612-008199443+41483002-006280000FL245     1 6RITUS    6ADORO   
AWY DCT   YY10463540464630+41789165-007730000+36657223-014245833FL245     1 6ETAKA    6OBESA   
AWY DCT   YY10463540465450+41789165-007730000+36772499-013675277FL245     1 6ETAKA    6VERAM   
AWY DCT   YY10463540464540+41789165-007730000+36325558-012973334FL245     1 6ETAKA    6NASAS   
AWY DCT   YY10463540464530+41789165-007730000+36056389-012558055FL245     1 6ETAKA    6NARTA   
AWY DCT   YY10463540465140+41789165-007730000+36500000-010000000FL245     1 6ETAKA    6SONAP   
AWY DCT   YY10463540249620+41789165-007730000+35966667-009372011FL245     1 6ETAKA    6TAKAV   
AWY DCT   YY10463540463530+41789165-007730000+37416668-007614721FL245     1 6ETAKA    6ERTIS   
AWY DCT   YY10463540427010+41789165-007730000+39801666-006400528FL245     1 6ETAKA    6OGERO   
AWY DCT   YY10463540429190+41789165-007730000+39859806-006393305FL245     1 6ETAKA    6UREDI   
AWY DCT   YY10463540423000+41789165-007730000+40583500-006302444FL245     1 6ETAKA    6BARDI   
AWY DCT   YY10463540429030+41789165-007730000+40990780-006288610FL245     1 6ETAKA    6TOSDI   
AWY DCT   YY10463540422330+41789165-007730000+41483002-006280000FL245     1 6ETAKA    6ADORO   
AWY DCT   YY10462970464630+41751110-007236111+36657223-014245833FL245     1 6ABUPI    6OBESA   
AWY DCT   YY10462970465450+41751110-007236111+36772499-013675277FL245     1 6ABUPI    6VERAM   
AWY DCT   YY10462970464540+41751110-007236111+36325558-012973334FL245     1 6ABUPI    6NASAS   
AWY DCT   YY10462970464530+41751110-007236111+36056389-012558055FL245     1 6ABUPI    6NARTA   
AWY DCT   YY10462970465140+41751110-007236111+36500000-010000000FL245     1 6ABUPI    6SONAP   
AWY DCT   YY10462970249620+41751110-007236111+35966667-009372011FL245     1 6ABUPI    6TAKAV   
AWY DCT   YY10462970427010+41751110-007236111+39801666-006400528FL245     1 6ABUPI    6OGERO   
AWY DCT   YY10462970429190+41751110-007236111+39859806-006393305FL245     1 6ABUPI    6UREDI   
AWY DCT   YY10462970423000+41751110-007236111+40583500-006302444FL245     1 6ABUPI    6BARDI   
AWY DCT   YY10462970429030+41751110-007236111+40990780-006288610FL245     1 6ABUPI    6TOSDI   
AWY DCT   YY10462970422330+41751110-007236111+41483002-006280000FL245     1 6ABUPI    6ADORO   
AWY DCT   YY10422380463531+41872890-008926694+37416668-007614721FL245     1 6AGADO    6ERTIS   
AWY DCT   YY10424110463531+41925694-009362000+37416668-007614721FL245     1 6DEMOS    6ERTIS   
AWY DCT   YY10465450429030+36772499-013675277+40990780-006288610FL245     1 6VERAM    6TOSDI   
AWY DCT   YY10464540429030+36325558-012973334+40990780-006288610FL245     1 6NASAS    6TOSDI   
AWY DCT   YY10464530429030+36056389-012558055+40990780-006288610FL245     1 6NARTA    6TOSDI   
AWY DCT   YY10463250429030+35966667-011448332+40990780-006288610FL245     1 6BEXAL    6TOSDI   
AWY DCT   YY10465140429030+36500000-010000000+40990780-006288610FL245     1 6SONAP    6TOSDI   
AWY DCT   YY10249620427720+35966667-009372011+39330082-007302583FL245     1 6TAKAV    6PORTA   
AWY DCT   YY10463030427720+35966667-008949999+39330082-007302583FL245     1 6AKUDA    6PORTA   
AWY DCT   YY10423000465451+40583500-006302444+36772499-013675277FL245     1 6BARDI    6VERAM   
AWY DCT   YY10423000464541+40583500-006302444+36325558-012973334FL245     1 6BARDI    6NASAS   
AWY DCT   YY10423000464531+40583500-006302444+36056389-012558055FL245     1 6BARDI    6NARTA   
AWY DCT   YY10423000463251+40583500-006302444+35966667-011448332FL245     1 6BARDI    6BEXAL   
AWY DCT   YY10423000465141+40583500-006302444+36500000-010000000FL245     1 6BARDI    6SONAP   
AWY DCT   YY10422310465450+40017666-006373639+36772499-013675277FL245     1 6ADINO    6VERAM   
AWY DCT   YY10422310464540+40017666-006373639+36325558-012973334FL245     1 6ADINO    6NASAS   
AWY DCT   YY10422310464530+40017666-006373639+36056389-012558055FL245     1 6ADINO    6NARTA   
AWY DCT   YY10422310463250+40017666-006373639+35966667-011448332FL245     1 6ADINO    6BEXAL   
AWY DCT   YY10465450429190+36772499-013675277+39859806-006393305FL245     1 6VERAM    6UREDI   
AWY DCT   YY10465450427010+36772499-013675277+39801666-006400528FL245     1 6VERAM    6OGERO   
AWY DCT   YY10464540429190+36325558-012973334+39859806-006393305FL245     1 6NASAS    6UREDI   
AWY DCT   YY10464540427010+36325558-012973334+39801666-006400528FL245     1 6NASAS    6OGERO   
AWY DCT   YY10427720429190+39330082-007302583+39859806-006393305FL245     1 6PORTA    6UREDI   
AWY DCT   YY10427720427010+39330082-007302583+39801666-006400528FL245     1 6PORTA    6OGERO   
AWY DCT   YY12019750427720+39524502-006434721+39330082-007302583FL245     1 4CCS      6PORTA   
AWY DCT   YY10464280464541+38037498-007222777+36325558-012973334FL245     1 6LASIB    6NASAS   
AWY DCT   YY10464280464531+38037498-007222777+36056389-012558055FL245     1 6LASIB    6NARTA   
AWY DCT   YY10464280465451+38037498-007222777+36772499-013675277FL245     1 6LASIB    6VERAM   
AWY DCT   YY10464280463201+38037498-007222777+35966667-010023332FL245     1 6LASIB    6BAROK   
AWY DCT   YY10464280463251+38037498-007222777+35966667-011448332FL245     1 6LASIB    6BEXAL   
AWY DCT   YY10464280249621+38037498-007222777+35966667-009372011FL245     1 6LASIB    6TAKAV   
AWY DCT   YY10463030464280+35966667-008949999+38037498-007222777FL245     1 6AKUDA    6LASIB   
AWY DCT   YY10426840465451+37245861-007428500+36772499-013675277FL245     1 6NIRAK    6VERAM   
AWY DCT   YY10426840464541+37245861-007428500+36325558-012973334FL245     1 6NIRAK    6NASAS   
AWY DCT   YY10426840464531+37245861-007428500+36056389-012558055FL245     1 6NIRAK    6NARTA   
AWY DCT   YY10426840463251+37245861-007428500+35966667-011448332FL245     1 6NIRAK    6BEXAL   
AWY DCT   YY10426840463201+37245861-007428500+35966667-010023332FL245     1 6NIRAK    6BAROK   
AWY DCT   YY10426840249621+37245861-007428500+35966667-009372011FL245     1 6NIRAK    6TAKAV   
AWY DCT   YY10463030426840+35966667-008949999+37245861-007428500FL245     1 6AKUDA    6NIRAK   
AWY DCT   YY10426840464741+37245861-007428500+35966667-008314166FL245     1 6NIRAK    6OSLAD   
AWY DCT   YY10426840463071+37245861-007428500+35966667-007883334FL245     1 6NIRAK    6AMSEL   
AWY DCT   YY10426370465451+37128807-007383333+36772499-013675277FL245     1 6MINTA    6VERAM   
AWY DCT   YY10426370464541+37128807-007383333+36325558-012973334FL245     1 6MINTA    6NASAS   
AWY DCT   YY10426370464531+37128807-007383333+36056389-012558055FL245     1 6MINTA    6NARTA   
AWY DCT   YY10426370463251+37128807-007383333+35966667-011448332FL245     1 6MINTA    6BEXAL   
AWY DCT   YY10426370463201+37128807-007383333+35966667-010023332FL245     1 6MINTA    6BAROK   
AWY DCT   YY10426370249621+37128807-007383333+35966667-009372011FL245     1 6MINTA    6TAKAV   
AWY DCT   YY10426370464741+37128807-007383333+35966667-008314166FL245     1 6MINTA    6OSLAD   
AWY DCT   YY10426370463071+37128807-007383333+35966667-007883334FL245     1 6MINTA    6AMSEL   
AWY DCT   YY10463030426370+35966667-008949999+37128807-007383333FL245     1 6AKUDA    6MINTA   
AWY DCT   YY10463030429090+35966667-008949999+37076111-007383333FL245     1 6AKUDA    6TUPIX   
AWY DCT   YY10429090465451+37076111-007383333+36772499-013675277FL245     1 6TUPIX    6VERAM   
AWY DCT   YY10429090464541+37076111-007383333+36325558-012973334FL245     1 6TUPIX    6NASAS   
AWY DCT   YY10429090464531+37076111-007383333+36056389-012558055FL245     1 6TUPIX    6NARTA   
AWY DCT   YY10429090463251+37076111-007383333+35966667-011448332FL245     1 6TUPIX    6BEXAL   
AWY DCT   YY10429090463201+37076111-007383333+35966667-010023332FL245     1 6TUPIX    6BAROK   
AWY DCT   YY10429090249621+37076111-007383333+35966667-009372011FL245     1 6TUPIX    6TAKAV   
AWY DCT   YY10429090464741+37076111-007383333+35966667-008314166FL245     1 6TUPIX    6OSLAD   
AWY DCT   YY10429090463071+37076111-007383333+35966667-007883334FL245     1 6TUPIX    6AMSEL   
AWY DCT   YY10465450427480+36772499-013675277+37036694-007383333FL245     1 6VERAM    6PESAS   
AWY DCT   YY10464540427480+36325558-012973334+37036694-007383333FL245     1 6NASAS    6PESAS   
AWY DCT   YY10464530427480+36056389-012558055+37036694-007383333FL245     1 6NARTA    6PESAS   
AWY DCT   YY10463250427480+35966667-011448332+37036694-007383333FL245     1 6BEXAL    6PESAS   
AWY DCT   YY10463200427480+35966667-010023332+37036694-007383333FL245     1 6BAROK    6PESAS   
AWY DCT   YY10249620427480+35966667-009372011+37036694-007383333FL245     1 6TAKAV    6PESAS   
AWY DCT   YY10463030427480+35966667-008949999+37036694-007383333FL245     1 6AKUDA    6PESAS   
AWY DCT   YY10464740427480+35966667-008314166+37036694-007383333FL245     1 6OSLAD    6PESAS   
AWY DCT   YY10463070427480+35966667-007883334+37036694-007383333FL245     1 6AMSEL    6PESAS   
AWY DCT   YY10464850464541+36833336-007383333+36325558-012973334FL245     1 6PIREN    6NASAS   
AWY DCT   YY10464850464531+36833336-007383333+36056389-012558055FL245     1 6PIREN    6NARTA   
AWY DCT   YY10464850463251+36833336-007383333+35966667-011448332FL245     1 6PIREN    6BEXAL   
AWY DCT   YY10464850463201+36833336-007383333+35966667-010023332FL245     1 6PIREN    6BAROK   
AWY DCT   YY10464850249621+36833336-007383333+35966667-009372011FL245     1 6PIREN    6TAKAV   
AWY DCT   YY10464850464741+36833336-007383333+35966667-008314166FL245     1 6PIREN    6OSLAD   
AWY DCT   YY10464850463071+36833336-007383333+35966667-007883334FL245     1 6PIREN    6AMSEL   
AWY DCT   YY10463030464850+35966667-008949999+36833336-007383333FL245     1 6AKUDA    6PIREN   
AWY DCT   YY10464530464321+36056389-012558055+38000000-009590832FL245     1 6NARTA    6LIGRA   
AWY DCT   YY10464230465351+38000000-015000000+38179443-010000000FL245     1 6KOMUT    6UNPOT   
AWY DCT   YY10463980465351+39000000-015000000+38179443-010000000FL245     1 6GUNTI    6UNPOT   
AWY DCT   YY10464530427171+36056389-012558055+36026669-007383333FL245     1 6NARTA    6ORTOP   
AWY DCT   YY10464280462941+38037498-007222777+39821667-007654167FL245     1 6LASIB    6ABRAT   
AWY DCT   YY10463210462940+41700558-006621944+39821667-007654167FL245     1 6BATAX    6ABRAT   
AWY DCT   YY10462940463160+39821667-007654167+41730556-006981667FL245     1 6ABRAT    6BALNO   
AWY DCT   YY10462970462940+41751110-007236111+39821667-007654167FL245     1 6ABUPI    6ABRAT   
AWY DCT   YY10463540462940+41789165-007730000+39821667-007654167FL245     1 6ETAKA    6ABRAT   
AWY DCT   YY10465040462940+41823612-008199443+39821667-007654167FL245     1 6RITUS    6ABRAT   
AWY DCT   YY10463530462941+37416668-007614721+39821667-007654167FL245     1 6ERTIS    6ABRAT   
AWY DCT   YY10464830462941+41851112-008597778+39821667-007654167FL245     1 6PINEK    6ABRAT   
AWY DCT   YY10462940463581+39821667-007654167+38665001-007918611FL245     1 6ABRAT    6EVURA   
AWY DCT   YY10422310462940+40017666-006373639+39821667-007654167FL245     1 6ADINO    6ABRAT   
AWY DCT   YY10463580463251+38665001-007918611+35966667-011448332FL245     1 6EVURA    6BEXAL   
AWY DCT   YY10463580464531+38665001-007918611+36056389-012558055FL245     1 6EVURA    6NARTA   
AWY DCT   YY10463580464541+38665001-007918611+36325558-012973334FL245     1 6EVURA    6NASAS   
AWY DCT   YY10463580465451+38665001-007918611+36772499-013675277FL245     1 6EVURA    6VERAM   
AWY DCT   YY10423000462941+40583500-006302444+39821667-007654167FL245     1 6BARDI    6ABRAT   
AWY DCT   YY10462940429030+39821667-007654167+40990780-006288610FL245     1 6ABRAT    6TOSDI   
AWY DCT   YY10422660463150+41173279-006282332+41040279-007083889FL245     1 6ARDID    6BABEX   
AWY DCT   YY10422330463151+41483002-006280000+41040279-007083889FL245     1 6ADORO    6BABEX   
AWY DCT   YY10463150462941+41040279-007083889+39821667-007654167FL245     1 6BABEX    6ABRAT   
AWY DCT   YY10463150429030+41040279-007083889+40990780-006288610FL245     1 6BABEX    6TOSDI   
AWY DCT   YY10464370463250+37000000-015000000+35966667-011448332FL195FL6601 6LUTAK    6BEXAL   
AWY DCT   SA10464240247341+26000000-025000000+28256056-020000000FL195     1 6KUXOV    6ROSTA   
AWY DCT   SA10464270247341+25000000-025000000+28256056-020000000FL195     1 6LAPTU    6ROSTA   
AWY DCT   SA10247340247760+28256056-020000000+23600000-024416667FL195     1 6ROSTA    6XIGLU   
AWY DCT   SA10246880247341+31300833-015301667+28256056-020000000FL285     1 6KONBA    6ROSTA   
AWY DCT   SA10464200464241+30000000-020000000+26000000-025000000FL195     1 6KETID    6KUXOV   
AWY DCT   SA10247150464271+30000000-021000000+25000000-025000000FL195     1 6NEXUX    6LAPTU   
AWY DCT   SA10247150464241+30000000-021000000+26000000-025000000FL195     1 6NEXUX    6KUXOV   
AWY DCT   SA10247150464161+30000000-021000000+27000000-025000000FL195     1 6NEXUX    6IXIKU   
AWY DCT   SA10247150464101+30000000-021000000+28000000-025000000FL195     1 6NEXUX    6INSAD   
AWY DCT   SA10247150463911+30000000-021000000+29000000-025000000FL195     1 6NEXUX    6GOBEG   
AWY DCT   SA10464750464271+30000000-022000000+25000000-025000000FL195     1 6OSLEV    6LAPTU   
AWY DCT   SA10464750464241+30000000-022000000+26000000-025000000FL195     1 6OSLEV    6KUXOV   
AWY DCT   SA10464750464161+30000000-022000000+27000000-025000000FL195     1 6OSLEV    6IXIKU   
AWY DCT   SA10464750464101+30000000-022000000+28000000-025000000FL195     1 6OSLEV    6INSAD   
AWY DCT   SA10464750463911+30000000-022000000+29000000-025000000FL195     1 6OSLEV    6GOBEG   
AWY DCT   SA10464810464271+30000000-023000000+25000000-025000000FL195     1 6PIBIL    6LAPTU   
AWY DCT   SA10464810464241+30000000-023000000+26000000-025000000FL195     1 6PIBIL    6KUXOV   
AWY DCT   SA10464810464161+30000000-023000000+27000000-025000000FL195     1 6PIBIL    6IXIKU   
AWY DCT   SA10464810464101+30000000-023000000+28000000-025000000FL195     1 6PIBIL    6INSAD   
AWY DCT   SA10464810463911+30000000-023000000+29000000-025000000FL195     1 6PIBIL    6GOBEG   
AWY DCT   SA10465030464271+30000000-024000000+25000000-025000000FL195     1 6RIPOD    6LAPTU   
AWY DCT   SA10465030464241+30000000-024000000+26000000-025000000FL195     1 6RIPOD    6KUXOV   
AWY DCT   SA10465030464161+30000000-024000000+27000000-025000000FL195     1 6RIPOD    6IXIKU   
AWY DCT   SA10465030464101+30000000-024000000+28000000-025000000FL195     1 6RIPOD    6INSAD   
AWY DCT   SA10465030463911+30000000-024000000+29000000-025000000FL195     1 6RIPOD    6GOBEG   
AWY DCT   SA10464200464271+30000000-020000000+25000000-025000000FL195     1 6KETID    6LAPTU   
AWY DCT   SA10464200464161+30000000-020000000+27000000-025000000FL195     1 6KETID    6IXIKU   
AWY DCT   SA10464200464101+30000000-020000000+28000000-025000000FL195     1 6KETID    6INSAD   
AWY DCT   SA10464200463911+30000000-020000000+29000000-025000000FL195     1 6KETID    6GOBEG   
AWY DCT   SA10464160247341+27000000-025000000+28256056-020000000FL195     1 6IXIKU    6ROSTA   
