
AWY DCT   SA11990500190600+54661144-006229908+54278889-007392777          1 4BEL      6ERNAN   
AWY DCT   SA11990500202401+54661144-006229908+54189167-006906389          1 4BEL      6DEGOS   
AWY DCT   SA11990500196430+54661144-006229908+54144444-005593332          1 4BEL      6NUMPI   
AWY DCT   SA10191280189171+54594723-005598055+54883335-005158888FL255     1 6GOTNA    6BLACA   
AWY DCT   SA10195580196041+54155834-004354167+54490002-005302777FL255     1 6MASOP    6NELBO   
AWY DCT   SA10197270195581+53960278-003825556+54155834-004354167FL255     1 6REMSI    6MASOP   
AWY DCT   SA10196040203051+54490002-005302777+53965027-005742138FL235     1 6NELBO    6NIMAT   
AWY DCT   SA10197270196041+53960278-003825556+54490002-005302777FL255     1 6REMSI    6NELBO   
AWY DCT   SA10203260189171+54028805-006066222+54883335-005158888FL255     1 6ROTEV    6BLACA   
AWY DCT   SA10203260191281+54028805-006066222+54594723-005598055FL255     1 6ROTEV    6GOTNA   
AWY DCT   SA10203051992850+53965027-005742138+53499390-006307110          1 6NIMAT    4DUB     
AWY DCT   SA10202291992850+53680000-005500000+53499390-006307110          1 6BAGSO    4DUB     
AWY DCT   SA10202900195241+52397251-008275972+51000000-008000000          1 6LUNIG    6LESLU   
AWY DCT   SA10202900195221+52397251-008275972+51240002-007568056          1 6LUNIG    6LEDGO   
AWY DCT   SA10202900202591+52397251-008275972+51782223-006563333          1 6LUNIG    6EVRIN   
AWY DCT   SA10202180202301+52503334-007646667+52241669-005680277          1 6ABAGU    6BAKUR   
AWY DCT   SA10202180203291+52503334-007646667+52158611-005842222          1 6ABAGU    6SLANY   
AWY DCT   SA10202182065461+52503334-007646667+52188999-007083333          1 6ABAGU    5WTD     
AWY DCT   SA10203420195301+52873554-008151444+53063915-005500000          1 6TOMTO    6LIPGO   
AWY DCT   SA10203421992851+52873554-008151444+53499390-006307110          1 6TOMTO    4DUB     
AWY DCT   SA10202440203101+52936890-008197583+53780277-007294611          1 6DIGAN    6OLAPO   
AWY DCT   SA10202960198151+53113388-009392666+56000000-014000000          1 6MOMIN    6SOVED   
AWY DCT   SA10202960188911+53113388-009392666+56500000-014000000          1 6MOMIN    6BEGID   
AWY DCT   SA10202960194661+53113388-009392666+56950001-014000000          1 6MOMIN    6KESIX   
AWY DCT   SA10195300203381+53063915-005500000+52589169-008125166          1 6LIPGO    6TIPUR   
AWY DCT   SA10203510203380+52554443-005500000+52589169-008125166          1 6VATRY    6TIPUR   
AWY DCT   SA10203382065461+52589169-008125166+52188999-007083333          1 6TIPUR    5WTD     
AWY DCT   SA10203381992851+52589169-008125166+53499390-006307110          1 6TIPUR    4DUB     
AWY DCT   SA10202811992831+52228638-008664583+51840611-008494270          1 6KURUM    4CRK     
AWY DCT   SA10202810202371+52228638-008664583+51135834-008909999          1 6KURUM    6BIBLA   
AWY DCT   SA10202390202371+52374916-009543556+51135834-008909999          1 6BUNON    6BIBLA   
AWY DCT   SA10202390203491+52374916-009543556+51209167-010724721          1 6BUNON    6UNLID   
AWY DCT   SA10202390202661+52374916-009543556+51000000-012000000          1 6BUNON    6GIPER   
AWY DCT   SA10202910202531+52542110-009702028+51000000-014000000          1 6LUPOR    6ELSOX   
AWY DCT   SA10202910202831+52542110-009702028+51500000-014000000          1 6LUPOR    6LEKVA   
AWY DCT   SA10202910203521+52542110-009702028+52000000-014000000          1 6LUPOR    6XETBO   
AWY DCT   SA10202910203231+52542110-009702028+52500000-014000000          1 6LUPOR    6RILED   
AWY DCT   SA10202910202681+52542110-009702028+53000000-014000000          1 6LUPOR    6GISTI   
AWY DCT   SA10203480202681+52805111-009729945+53000000-014000000          1 6UNBEG    6GISTI   
AWY DCT   SA10203480203111+52805111-009729945+53500000-014000000          1 6UNBEG    6OLGON   
AWY DCT   SA10203480202361+52805111-009729945+54000000-014000000          1 6UNBEG    6BEXET   
AWY DCT   SA10202570194831+53014862-009567583+54500000-014000000          1 6ERABI    6KOKIB   
AWY DCT   SA10202570196141+53014862-009567583+55000000-014000000          1 6ERABI    6NETKI   
AWY DCT   SA10202570195781+53014862-009567583+55500000-014000000          1 6ERABI    6MOGLO   
AWY DCT   SA10202570198151+53014862-009567583+56000000-014000000          1 6ERABI    6SOVED   
AWY DCT   SA10202570188911+53014862-009567583+56500000-014000000          1 6ERABI    6BEGID   
AWY DCT   SA10202570194661+53014862-009567583+56950001-014000000          1 6ERABI    6KESIX   
AWY DCT   SA10202570203211+53014862-009567583+54466667-010116666          1 6ERABI    6REVNU   
AWY DCT   SA10202961992821+53113388-009392666+53908028-008820111          1 6MOMIN    4CON     
AWY DCT   SA10202960203211+53113388-009392666+54466667-010116666          1 6MOMIN    6REVNU   
AWY DCT   SA10202960202951+53113388-009392666+54613609-009506388          1 6MOMIN    6MOLAK   
AWY DCT   SA10202442065461+52936890-008197583+52188999-007083333          1 6DIGAN    5WTD     
AWY DCT   SA10203510202440+52554443-005500000+52936890-008197583          1 6VATRY    6DIGAN   
AWY DCT   SA10202440195301+52936890-008197583+53063915-005500000          1 6DIGAN    6LIPGO   
AWY DCT   SA10202441992851+52936890-008197583+53499390-006307110          1 6DIGAN    4DUB     
AWY DCT   SA10203220203101+53057720-008345778+53780277-007294611          1 6RIKUL    6OLAPO   
AWY DCT   SA10202241992821+53155529-008579471+53908028-008820111          1 6AGINI    4CON     
AWY DCT   SA10202240203061+53155529-008579471+54452499-008402777          1 6AGINI    6NIPIT   
AWY DCT   SA10202240190601+53155529-008579471+54278889-007392777          1 6AGINI    6ERNAN   
AWY DCT   SA10202240203101+53155529-008579471+53780277-007294611          1 6AGINI    6OLAPO   
AWY DCT   SA10203160202811+53199581-007333333+52228638-008664583          1 6PELIG    6KURUM   
AWY DCT   SA11992850202811+53499390-006307110+52228638-008664583          1 4DUB      6KURUM   
AWY DCT   SA11992850203161+53499390-006307110+53199581-007333333          1 4DUB      6PELIG   
AWY DCT   SA10903310203171+52478806-005795582+52399055-005756667          1 6ABIDO    6PESIT   
AWY DCT   SA10202770202840+53483807-005639332+53480083-005500000          1 6KISHA    6LIFFY   
AWY DCT   SA10203161993011+53199581-007333333+52721012-008885213          1 6PELIG    4SHA     
AWY DCT   SA10203321993021+53996666-006993472+54279388-008600111          1 6SUROX    9SLG     
AWY DCT   SA10203321992821+53996666-006993472+53908028-008820111          1 6SUROX    4CON     
AWY DCT   SA10203320203061+53996666-006993472+54452499-008402777          1 6SUROX    6NIPIT   
AWY DCT   SA10203320190601+53996666-006993472+54278889-007392777          1 6SUROX    6ERNAN   
AWY DCT   SA10202741993011+53597584-007391277+52721012-008885213          1 6INKUR    4SHA     
AWY DCT   SA10202741992821+53597584-007391277+53908028-008820111          1 6INKUR    4CON     
AWY DCT   SA10203122065461+52723083-006778999+52188999-007083333          1 6OLONO    5WTD     
AWY DCT   SA10203170203291+52399055-005756667+52158611-005842222          1 6PESIT    6SLANY   
AWY DCT   SA10202340202591+52526722-006263750+51782223-006563333          1 6BEPAN    6EVRIN   
AWY DCT   SA10202340202331+52526722-006263750+51952778-006239167          1 6BEPAN    6BANBA   
AWY DCT   SA10202340203291+52526722-006263750+52158611-005842222          1 6BEPAN    6SLANY   
AWY DCT   SA10203170202301+52399055-005756667+52241669-005680277          1 6PESIT    6BAKUR   
AWY DCT   SA10203101992821+53780277-007294611+53908028-008820111          1 6OLAPO    4CON     
AWY DCT   SA10203100203061+53780277-007294611+54452499-008402777          1 6OLAPO    6NIPIT   
AWY DCT   SA10203100190601+53780277-007294611+54278889-007392777          1 6OLAPO    6ERNAN   
AWY DCT   SA10203151993011+53049416-007270222+52721012-008885213          1 6OSGAR    4SHA     
AWY DCT   SA10203152065391+53049416-007270222+52182167-009524499          1 6OSGAR    5KER     
AWY DCT   SA10203151992831+53049416-007270222+51840611-008494270          1 6OSGAR    4CRK     
AWY DCT   SA11992830203331+51840611-008494270+52824360-006930360          1 4CRK      6SUTEX   
AWY DCT   SA12065460203331+52188999-007083333+52824360-006930360          1 5WTD      6SUTEX   
AWY DCT   SA10202380202591+52622749-006630055+51782223-006563333          1 6BUNED    6EVRIN   
AWY DCT   SA10202380202331+52622749-006630055+51952778-006239167          1 6BUNED    6BANBA   
AWY DCT   SA10202380203291+52622749-006630055+52158611-005842222          1 6BUNED    6SLANY   
AWY DCT   SA10202380202301+52622749-006630055+52241669-005680277          1 6BUNED    6BAKUR   
AWY DCT   SA12065460188911+52188999-007083333+56500000-014000000          1 5WTD      6BEGID   
AWY DCT   SA12065460198151+52188999-007083333+56000000-014000000          1 5WTD      6SOVED   
AWY DCT   SA12065460195781+52188999-007083333+55500000-014000000          1 5WTD      6MOGLO   
AWY DCT   SA12065460196141+52188999-007083333+55000000-014000000          1 5WTD      6NETKI   
AWY DCT   SA12065460194831+52188999-007083333+54500000-014000000          1 5WTD      6KOKIB   
AWY DCT   SA12065460202361+52188999-007083333+54000000-014000000          1 5WTD      6BEXET   
AWY DCT   SA12065460203111+52188999-007083333+53500000-014000000          1 5WTD      6OLGON   
AWY DCT   SA12065460202681+52188999-007083333+53000000-014000000          1 5WTD      6GISTI   
AWY DCT   SA12065460203231+52188999-007083333+52500000-014000000          1 5WTD      6RILED   
AWY DCT   SA12065460203521+52188999-007083333+52000000-014000000          1 5WTD      6XETBO   
AWY DCT   SA12065460202831+52188999-007083333+51500000-014000000          1 5WTD      6LEKVA   
AWY DCT   SA12065460202531+52188999-007083333+51000000-014000000          1 5WTD      6ELSOX   
AWY DCT   SA12065460203491+52188999-007083333+51209167-010724721          1 5WTD      6UNLID   
AWY DCT   SA12065460202371+52188999-007083333+51135834-008909999          1 5WTD      6BIBLA   
AWY DCT   SA10203512065460+52554443-005500000+52188999-007083333          1 6VATRY    5WTD     
AWY DCT   SA12065460202840+52188999-007083333+53480083-005500000          1 5WTD      6LIFFY   
AWY DCT   SA12065460203260+52188999-007083333+54028805-006066222          1 5WTD      6ROTEV   
AWY DCT   SA12065460202321+52188999-007083333+54141251-006651111          1 5WTD      6BAMLI   
AWY DCT   SA12065460202401+52188999-007083333+54189167-006906389          1 5WTD      6DEGOS   
AWY DCT   SA12065460190601+52188999-007083333+54278889-007392777          1 5WTD      6ERNAN   
AWY DCT   SA12065460203061+52188999-007083333+54452499-008402777          1 5WTD      6NIPIT   
AWY DCT   SA12065460202951+52188999-007083333+54613609-009506388          1 5WTD      6MOLAK   
AWY DCT   SA12065460203211+52188999-007083333+54466667-010116666          1 5WTD      6REVNU   
AWY DCT   SA11992830194661+51840611-008494270+56950001-014000000          1 4CRK      6KESIX   
AWY DCT   SA11992830188911+51840611-008494270+56500000-014000000          1 4CRK      6BEGID   
AWY DCT   SA11992830198151+51840611-008494270+56000000-014000000          1 4CRK      6SOVED   
AWY DCT   SA11992830195781+51840611-008494270+55500000-014000000          1 4CRK      6MOGLO   
AWY DCT   SA11992830196141+51840611-008494270+55000000-014000000          1 4CRK      6NETKI   
AWY DCT   SA11992830194831+51840611-008494270+54500000-014000000          1 4CRK      6KOKIB   
AWY DCT   SA11992830202361+51840611-008494270+54000000-014000000          1 4CRK      6BEXET   
AWY DCT   SA11992830203111+51840611-008494270+53500000-014000000          1 4CRK      6OLGON   
AWY DCT   SA11992830202681+51840611-008494270+53000000-014000000          1 4CRK      6GISTI   
AWY DCT   SA11992830203231+51840611-008494270+52500000-014000000          1 4CRK      6RILED   
AWY DCT   SA11992830203521+51840611-008494270+52000000-014000000          1 4CRK      6XETBO   
AWY DCT   SA11992830202831+51840611-008494270+51500000-014000000          1 4CRK      6LEKVA   
AWY DCT   SA11992830202531+51840611-008494270+51000000-014000000          1 4CRK      6ELSOX   
AWY DCT   SA11992830202661+51840611-008494270+51000000-012000000          1 4CRK      6GIPER   
AWY DCT   SA11992830203491+51840611-008494270+51209167-010724721          1 4CRK      6UNLID   
AWY DCT   SA11992830202371+51840611-008494270+51135834-008909999          1 4CRK      6BIBLA   
AWY DCT   SA10203511992830+52554443-005500000+51840611-008494270          1 6VATRY    4CRK     
AWY DCT   SA11992830202430+51840611-008494270+53280277-005500000          1 4CRK      6DEXEN   
AWY DCT   SA11992830202840+51840611-008494270+53480083-005500000          1 4CRK      6LIFFY   
AWY DCT   SA10203051992830+53965027-005742138+51840611-008494270          1 6NIMAT    4CRK     
AWY DCT   SA11992830203260+51840611-008494270+54028805-006066222          1 4CRK      6ROTEV   
AWY DCT   SA11992830203030+51840611-008494270+54068333-006269833          1 4CRK      6NEVRI   
AWY DCT   SA11992830202321+51840611-008494270+54141251-006651111          1 4CRK      6BAMLI   
AWY DCT   SA11992830202401+51840611-008494270+54189167-006906389          1 4CRK      6DEGOS   
AWY DCT   SA11992830190601+51840611-008494270+54278889-007392777          1 4CRK      6ERNAN   
AWY DCT   SA11992830203061+51840611-008494270+54452499-008402777          1 4CRK      6NIPIT   
AWY DCT   SA11992830202951+51840611-008494270+54613609-009506388          1 4CRK      6MOLAK   
AWY DCT   SA11992830203211+51840611-008494270+54466667-010116666          1 4CRK      6REVNU   
AWY DCT   SA12065390194661+52182167-009524499+56950001-014000000          1 5KER      6KESIX   
AWY DCT   SA12065390188911+52182167-009524499+56500000-014000000          1 5KER      6BEGID   
AWY DCT   SA12065390198151+52182167-009524499+56000000-014000000          1 5KER      6SOVED   
AWY DCT   SA12065390195781+52182167-009524499+55500000-014000000          1 5KER      6MOGLO   
AWY DCT   SA12065390196141+52182167-009524499+55000000-014000000          1 5KER      6NETKI   
AWY DCT   SA12065390194831+52182167-009524499+54500000-014000000          1 5KER      6KOKIB   
AWY DCT   SA12065390202361+52182167-009524499+54000000-014000000          1 5KER      6BEXET   
AWY DCT   SA12065390203111+52182167-009524499+53500000-014000000          1 5KER      6OLGON   
AWY DCT   SA12065390202681+52182167-009524499+53000000-014000000          1 5KER      6GISTI   
AWY DCT   SA12065390203231+52182167-009524499+52500000-014000000          1 5KER      6RILED   
AWY DCT   SA12065390203521+52182167-009524499+52000000-014000000          1 5KER      6XETBO   
AWY DCT   SA12065390202831+52182167-009524499+51500000-014000000          1 5KER      6LEKVA   
AWY DCT   SA12065390202531+52182167-009524499+51000000-014000000          1 5KER      6ELSOX   
AWY DCT   SA12065390203491+52182167-009524499+51209167-010724721          1 5KER      6UNLID   
AWY DCT   SA12065390202371+52182167-009524499+51135834-008909999          1 5KER      6BIBLA   
AWY DCT   SA12065390202941+52182167-009524499+51000000-008500000          1 5KER      6MAPAG   
AWY DCT   SA12065390202591+52182167-009524499+51782223-006563333          1 5KER      6EVRIN   
AWY DCT   SA12065390203291+52182167-009524499+52158611-005842222          1 5KER      6SLANY   
AWY DCT   SA10203512065390+52554443-005500000+52182167-009524499          1 6VATRY    5KER     
AWY DCT   SA12065390202430+52182167-009524499+53280277-005500000          1 5KER      6DEXEN   
AWY DCT   SA10203052065390+53965027-005742138+52182167-009524499          1 6NIMAT    5KER     
AWY DCT   SA12065390203260+52182167-009524499+54028805-006066222          1 5KER      6ROTEV   
AWY DCT   SA12065390203030+52182167-009524499+54068333-006269833          1 5KER      6NEVRI   
AWY DCT   SA12065390202321+52182167-009524499+54141251-006651111          1 5KER      6BAMLI   
AWY DCT   SA12065390190601+52182167-009524499+54278889-007392777          1 5KER      6ERNAN   
AWY DCT   SA12065390203061+52182167-009524499+54452499-008402777          1 5KER      6NIPIT   
AWY DCT   SA12065390202951+52182167-009524499+54613609-009506388          1 5KER      6MOLAK   
AWY DCT   SA12065390203211+52182167-009524499+54466667-010116666          1 5KER      6REVNU   
AWY DCT   SA11993010194661+52721012-008885213+56950001-014000000          1 4SHA      6KESIX   
AWY DCT   SA11993010188911+52721012-008885213+56500000-014000000          1 4SHA      6BEGID   
AWY DCT   SA11993010198151+52721012-008885213+56000000-014000000          1 4SHA      6SOVED   
AWY DCT   SA11993010195781+52721012-008885213+55500000-014000000          1 4SHA      6MOGLO   
AWY DCT   SA11993010196141+52721012-008885213+55000000-014000000          1 4SHA      6NETKI   
AWY DCT   SA11993010194831+52721012-008885213+54500000-014000000          1 4SHA      6KOKIB   
AWY DCT   SA11993010202361+52721012-008885213+54000000-014000000          1 4SHA      6BEXET   
AWY DCT   SA11993010203111+52721012-008885213+53500000-014000000          1 4SHA      6OLGON   
AWY DCT   SA11993010202681+52721012-008885213+53000000-014000000          1 4SHA      6GISTI   
AWY DCT   SA11993010203231+52721012-008885213+52500000-014000000          1 4SHA      6RILED   
AWY DCT   SA11993010203521+52721012-008885213+52000000-014000000          1 4SHA      6XETBO   
AWY DCT   SA11993010202831+52721012-008885213+51500000-014000000          1 4SHA      6LEKVA   
AWY DCT   SA11993010202531+52721012-008885213+51000000-014000000          1 4SHA      6ELSOX   
AWY DCT   SA11993010203491+52721012-008885213+51209167-010724721          1 4SHA      6UNLID   
AWY DCT   SA11993010202371+52721012-008885213+51135834-008909999          1 4SHA      6BIBLA   
AWY DCT   SA10203511993010+52554443-005500000+52721012-008885213          1 6VATRY    4SHA     
AWY DCT   SA10203051993010+53965027-005742138+52721012-008885213          1 6NIMAT    4SHA     
AWY DCT   SA11993010203260+52721012-008885213+54028805-006066222          1 4SHA      6ROTEV   
AWY DCT   SA11993010203030+52721012-008885213+54068333-006269833          1 4SHA      6NEVRI   
AWY DCT   SA11993010202321+52721012-008885213+54141251-006651111          1 4SHA      6BAMLI   
AWY DCT   SA11993010202401+52721012-008885213+54189167-006906389          1 4SHA      6DEGOS   
AWY DCT   SA11993010190601+52721012-008885213+54278889-007392777          1 4SHA      6ERNAN   
AWY DCT   SA11993010203061+52721012-008885213+54452499-008402777          1 4SHA      6NIPIT   
AWY DCT   SA11993010202951+52721012-008885213+54613609-009506388          1 4SHA      6MOLAK   
AWY DCT   SA11993010203211+52721012-008885213+54466667-010116666          1 4SHA      6REVNU   
AWY DCT   SA10202291992820+53680000-005500000+53908028-008820111          1 6BAGSO    4CON     
AWY DCT   SA11992820202840+53908028-008820111+53480083-005500000          1 4CON      6LIFFY   
AWY DCT   SA11992820202430+53908028-008820111+53280277-005500000          1 4CON      6DEXEN   
AWY DCT   SA11992820195301+53908028-008820111+53063915-005500000          1 4CON      6LIPGO   
AWY DCT   SA11992820202301+53908028-008820111+52241669-005680277          1 4CON      6BAKUR   
AWY DCT   SA11992820203291+53908028-008820111+52158611-005842222          1 4CON      6SLANY   
AWY DCT   SA11992820202591+53908028-008820111+51782223-006563333          1 4CON      6EVRIN   
AWY DCT   SA11992820203070+53908028-008820111+51619167-006869721          1 4CON      6NORLA   
AWY DCT   SA11992820195221+53908028-008820111+51240002-007568056          1 4CON      6LEDGO   
AWY DCT   SA11992820202661+53908028-008820111+51000000-012000000          1 4CON      6GIPER   
AWY DCT   SA11992820202941+53908028-008820111+51000000-008500000          1 4CON      6MAPAG   
AWY DCT   SA11992820195241+53908028-008820111+51000000-008000000          1 4CON      6LESLU   
AWY DCT   SA11993020202951+54279388-008600111+54613609-009506388          1 9SLG      6MOLAK   
AWY DCT   SA11993020203061+54279388-008600111+54452499-008402777          1 9SLG      6NIPIT   
AWY DCT   SA11993020190601+54279388-008600111+54278889-007392777          1 9SLG      6ERNAN   
AWY DCT   SA11993020202401+54279388-008600111+54189167-006906389          1 9SLG      6DEGOS   
AWY DCT   SA11993020202321+54279388-008600111+54141251-006651111          1 9SLG      6BAMLI   
AWY DCT   SA11993020203030+54279388-008600111+54068333-006269833          1 9SLG      6NEVRI   
AWY DCT   SA11993020203260+54279388-008600111+54028805-006066222          1 9SLG      6ROTEV   
AWY DCT   SA10203051993020+53965027-005742138+54279388-008600111          1 6NIMAT    9SLG     
AWY DCT   SA10202291993020+53680000-005500000+54279388-008600111          1 6BAGSO    9SLG     
AWY DCT   SA11993020202840+54279388-008600111+53480083-005500000          1 9SLG      6LIFFY   
AWY DCT   SA11993020202430+54279388-008600111+53280277-005500000          1 9SLG      6DEXEN   
AWY DCT   SA11993020195301+54279388-008600111+53063915-005500000          1 9SLG      6LIPGO   
AWY DCT   SA10203511993020+52554443-005500000+54279388-008600111          1 6VATRY    9SLG     
AWY DCT   SA11993020202301+54279388-008600111+52241669-005680277          1 9SLG      6BAKUR   
AWY DCT   SA11993020203291+54279388-008600111+52158611-005842222          1 9SLG      6SLANY   
AWY DCT   SA11993020202331+54279388-008600111+51952778-006239167          1 9SLG      6BANBA   
AWY DCT   SA11993020202591+54279388-008600111+51782223-006563333          1 9SLG      6EVRIN   
AWY DCT   SA11993020203070+54279388-008600111+51619167-006869721          1 9SLG      6NORLA   
AWY DCT   SA11993020195221+54279388-008600111+51240002-007568056          1 9SLG      6LEDGO   
AWY DCT   SA11993020195241+54279388-008600111+51000000-008000000          1 9SLG      6LESLU   
AWY DCT   SA11993020202941+54279388-008600111+51000000-008500000          1 9SLG      6MAPAG   
AWY DCT   SA11993020202371+54279388-008600111+51135834-008909999          1 9SLG      6BIBLA   
AWY DCT   SA11993020203491+54279388-008600111+51209167-010724721          1 9SLG      6UNLID   
AWY DCT   SA11993020202661+54279388-008600111+51000000-012000000          1 9SLG      6GIPER   
AWY DCT   SA11993020202531+54279388-008600111+51000000-014000000          1 9SLG      6ELSOX   
AWY DCT   SA11993020202831+54279388-008600111+51500000-014000000          1 9SLG      6LEKVA   
AWY DCT   SA11993020203521+54279388-008600111+52000000-014000000          1 9SLG      6XETBO   
AWY DCT   SA11993020203231+54279388-008600111+52500000-014000000          1 9SLG      6RILED   
AWY DCT   SA11993020202681+54279388-008600111+53000000-014000000          1 9SLG      6GISTI   
AWY DCT   SA11993020203111+54279388-008600111+53500000-014000000          1 9SLG      6OLGON   
AWY DCT   SA11993020202361+54279388-008600111+54000000-014000000          1 9SLG      6BEXET   
AWY DCT   SA11993020194831+54279388-008600111+54500000-014000000          1 9SLG      6KOKIB   
AWY DCT   SA11993020203211+54279388-008600111+54466667-010116666          1 9SLG      6REVNU   
AWY DCT   SA10190470202371+49000000-009000000+51135834-008909999          1 6EMPER    6BIBLA   
AWY DCT   SA10190470203491+49000000-009000000+51209167-010724721          1 6EMPER    6UNLID   
AWY DCT   SA10190470202661+49000000-009000000+51000000-012000000          1 6EMPER    6GIPER   
AWY DCT   SA10190700202371+49000000-010000000+51135834-008909999          1 6EVBAK    6BIBLA   
AWY DCT   SA10190700203491+49000000-010000000+51209167-010724721          1 6EVBAK    6UNLID   
AWY DCT   SA10190700202661+49000000-010000000+51000000-012000000          1 6EVBAK    6GIPER   
AWY DCT   SA10191320202371+49052776-011768333+51135834-008909999          1 6GUNSO    6BIBLA   
AWY DCT   SA10191320203491+49052776-011768333+51209167-010724721          1 6GUNSO    6UNLID   
AWY DCT   SA10191320202661+49052776-011768333+51000000-012000000          1 6GUNSO    6GIPER   
AWY DCT   SA10196100202371+49000000-014000000+51135834-008909999          1 6NERTU    6BIBLA   
AWY DCT   SA10196100203491+49000000-014000000+51209167-010724721          1 6NERTU    6UNLID   
AWY DCT   SA10196100202661+49000000-014000000+51000000-012000000          1 6NERTU    6GIPER   
AWY DCT   SA10189130202661+49500000-014000000+51000000-012000000          1 6BIMGO    6GIPER   
AWY DCT   SA10189130203491+49500000-014000000+51209167-010724721          1 6BIMGO    6UNLID   
AWY DCT   SA10189130202371+49500000-014000000+51135834-008909999          1 6BIMGO    6BIBLA   
AWY DCT   SA10188570202371+50000000-014000000+51135834-008909999          1 6ATSUR    6BIBLA   
AWY DCT   SA10188570203491+50000000-014000000+51209167-010724721          1 6ATSUR    6UNLID   
AWY DCT   SA10188570202661+50000000-014000000+51000000-012000000          1 6ATSUR    6GIPER   
AWY DCT   SA10190530202661+50500000-014000000+51000000-012000000          1 6EPUNA    6GIPER   
AWY DCT   SA10190530203491+50500000-014000000+51209167-010724721          1 6EPUNA    6UNLID   
AWY DCT   SA10190530202371+50500000-014000000+51135834-008909999          1 6EPUNA    6BIBLA   
AWY DCT   SA10202530202661+51000000-014000000+51000000-012000000          1 6ELSOX    6GIPER   
AWY DCT   SA10202530203491+51000000-014000000+51209167-010724721          1 6ELSOX    6UNLID   
AWY DCT   SA10202530202371+51000000-014000000+51135834-008909999          1 6ELSOX    6BIBLA   
AWY DCT   SA11992820203211+53908028-008820111+54466667-010116666          1 4CON      6REVNU   
AWY DCT   SA11992820202951+53908028-008820111+54613609-009506388          1 4CON      6MOLAK   
AWY DCT   SA11992820203061+53908028-008820111+54452499-008402777          1 4CON      6NIPIT   
AWY DCT   SA11992820190601+53908028-008820111+54278889-007392777          1 4CON      6ERNAN   
AWY DCT   SA11992820202401+53908028-008820111+54189167-006906389          1 4CON      6DEGOS   
AWY DCT   SA11992820202321+53908028-008820111+54141251-006651111          1 4CON      6BAMLI   
AWY DCT   SA11992820203030+53908028-008820111+54068333-006269833          1 4CON      6NEVRI   
AWY DCT   SA11992820203260+53908028-008820111+54028805-006066222          1 4CON      6ROTEV   
AWY DCT   SA10203051992820+53965027-005742138+53908028-008820111          1 6NIMAT    4CON     
AWY DCT   SA10203511992820+52554443-005500000+53908028-008820111          1 6VATRY    4CON     
AWY DCT   SA11992820202331+53908028-008820111+51952778-006239167          1 4CON      6BANBA   
AWY DCT   SA11992820202371+53908028-008820111+51135834-008909999          1 4CON      6BIBLA   
AWY DCT   SA11992820203491+53908028-008820111+51209167-010724721          1 4CON      6UNLID   
AWY DCT   SA11992820202531+53908028-008820111+51000000-014000000          1 4CON      6ELSOX   
AWY DCT   SA11992820202831+53908028-008820111+51500000-014000000          1 4CON      6LEKVA   
AWY DCT   SA11992820203521+53908028-008820111+52000000-014000000          1 4CON      6XETBO   
AWY DCT   SA11992820203231+53908028-008820111+52500000-014000000          1 4CON      6RILED   
AWY DCT   SA11992820202681+53908028-008820111+53000000-014000000          1 4CON      6GISTI   
AWY DCT   SA11992820203111+53908028-008820111+53500000-014000000          1 4CON      6OLGON   
AWY DCT   SA11992820202361+53908028-008820111+54000000-014000000          1 4CON      6BEXET   
AWY DCT   SA11992820194831+53908028-008820111+54500000-014000000          1 4CON      6KOKIB   
AWY DCT   SA11992820196141+53908028-008820111+55000000-014000000          1 4CON      6NETKI   
AWY DCT   SA11992820195781+53908028-008820111+55500000-014000000          1 4CON      6MOGLO   
AWY DCT   SA12065460203030+52188999-007083333+54068333-006269833          1 5WTD      6NEVRI   
AWY DCT   SA10203052065460+53965027-005742138+52188999-007083333          1 6NIMAT    5WTD     
AWY DCT   SA12065460195301+52188999-007083333+53063915-005500000          1 5WTD      6LIPGO   
AWY DCT   SA12065460202430+52188999-007083333+53280277-005500000          1 5WTD      6DEXEN   
AWY DCT   SA10202292065460+53680000-005500000+52188999-007083333          1 6BAGSO    5WTD     
AWY DCT   SA12065460202661+52188999-007083333+51000000-012000000          1 5WTD      6GIPER   
AWY DCT   SA12065460202941+52188999-007083333+51000000-008500000          1 5WTD      6MAPAG   
AWY DCT   SA12065460195241+52188999-007083333+51000000-008000000          1 5WTD      6LESLU   
AWY DCT   SA12065460195221+52188999-007083333+51240002-007568056          1 5WTD      6LEDGO   
AWY DCT   SA12065460203070+52188999-007083333+51619167-006869721          1 5WTD      6NORLA   
AWY DCT   SA12065460202591+52188999-007083333+51782223-006563333          1 5WTD      6EVRIN   
AWY DCT   SA12065460202331+52188999-007083333+51952778-006239167          1 5WTD      6BANBA   
AWY DCT   SA12065460203291+52188999-007083333+52158611-005842222          1 5WTD      6SLANY   
AWY DCT   SA12065460202301+52188999-007083333+52241669-005680277          1 5WTD      6BAKUR   
AWY DCT   SA11992830202301+51840611-008494270+52241669-005680277          1 4CRK      6BAKUR   
AWY DCT   SA11992830195301+51840611-008494270+53063915-005500000          1 4CRK      6LIPGO   
AWY DCT   SA10202291992830+53680000-005500000+51840611-008494270          1 6BAGSO    4CRK     
AWY DCT   SA12065390202401+52182167-009524499+54189167-006906389          1 5KER      6DEGOS   
AWY DCT   SA10202292065390+53680000-005500000+52182167-009524499          1 6BAGSO    5KER     
AWY DCT   SA12065390202840+52182167-009524499+53480083-005500000          1 5KER      6LIFFY   
AWY DCT   SA12065390195301+52182167-009524499+53063915-005500000          1 5KER      6LIPGO   
AWY DCT   SA12065390202301+52182167-009524499+52241669-005680277          1 5KER      6BAKUR   
AWY DCT   SA12065390202331+52182167-009524499+51952778-006239167          1 5KER      6BANBA   
AWY DCT   SA12065390203070+52182167-009524499+51619167-006869721          1 5KER      6NORLA   
AWY DCT   SA12065390195221+52182167-009524499+51240002-007568056          1 5KER      6LEDGO   
AWY DCT   SA12065390195241+52182167-009524499+51000000-008000000          1 5KER      6LESLU   
AWY DCT   SA12065390202661+52182167-009524499+51000000-012000000          1 5KER      6GIPER   
AWY DCT   SA11993010195301+52721012-008885213+53063915-005500000          1 4SHA      6LIPGO   
AWY DCT   SA11993010203291+52721012-008885213+52158611-005842222          1 4SHA      6SLANY   
AWY DCT   SA11993010203070+52721012-008885213+51619167-006869721          1 4SHA      6NORLA   
AWY DCT   SA11993010202661+52721012-008885213+51000000-012000000          1 4SHA      6GIPER   
AWY DCT   SA11993010202941+52721012-008885213+51000000-008500000          1 4SHA      6MAPAG   
AWY DCT   SA11993010195241+52721012-008885213+51000000-008000000          1 4SHA      6LESLU   
AWY DCT   SA11993010195221+52721012-008885213+51240002-007568056          1 4SHA      6LEDGO   
AWY DCT   SA11993010202591+52721012-008885213+51782223-006563333          1 4SHA      6EVRIN   
AWY DCT   SA11993010202331+52721012-008885213+51952778-006239167          1 4SHA      6BANBA   
AWY DCT   SA11993010202301+52721012-008885213+52241669-005680277          1 4SHA      6BAKUR   
AWY DCT   SA11993010202430+52721012-008885213+53280277-005500000          1 4SHA      6DEXEN   
AWY DCT   SA11993010202840+52721012-008885213+53480083-005500000          1 4SHA      6LIFFY   
AWY DCT   SA11992830203291+51840611-008494270+52158611-005842222          1 4CRK      6SLANY   
AWY DCT   SA11992830202331+51840611-008494270+51952778-006239167          1 4CRK      6BANBA   
AWY DCT   SA11992830202591+51840611-008494270+51782223-006563333          1 4CRK      6EVRIN   
AWY DCT   SA11992830203070+51840611-008494270+51619167-006869721          1 4CRK      6NORLA   
AWY DCT   SA11992830195221+51840611-008494270+51240002-007568056          1 4CRK      6LEDGO   
AWY DCT   SA11992830195241+51840611-008494270+51000000-008000000          1 4CRK      6LESLU   
AWY DCT   SA11992830202941+51840611-008494270+51000000-008500000          1 4CRK      6MAPAG   
AWY DCT   SA10202291993010+53680000-005500000+52721012-008885213          1 6BAGSO    4SHA     
AWY DCT   SA10202370203311+51135834-008909999+51427528-008562666          1 6BIBLA    6SOVIX   
AWY DCT   SA10202940203311+51000000-008500000+51427528-008562666          1 6MAPAG    6SOVIX   
AWY DCT   SA10195240203131+51000000-008000000+51270805-008299361          1 6LESLU    6ORTOM   
AWY DCT   SA10195240202581+51000000-008000000+51562027-008060221          1 6LESLU    6ERTER   
AWY DCT   SA10195220202581+51240002-007568056+51562027-008060221          1 6LEDGO    6ERTER   
AWY DCT   SA10195220202541+51240002-007568056+51753696-007835000          1 6LEDGO    6ELTIG   
AWY DCT   SA10202590202701+51782223-006563333+51823891-007820027          1 6EVRIN    6GOTEM   
AWY DCT   SA10202590203501+51782223-006563333+51878639-007821750          1 6EVRIN    6VAPAL   
AWY DCT   SA10202330203501+51952778-006239167+51878639-007821750          1 6BANBA    6VAPAL   
AWY DCT   SA12065460203391+52188999-007083333+52134666-008013167          1 5WTD      6TISMO   
AWY DCT   SA12065390202811+52182167-009524499+52228638-008664583          1 5KER      6KURUM   
AWY DCT   SA10202811993011+52228638-008664583+52721012-008885213          1 6KURUM    4SHA     
AWY DCT   SA10202811992821+52228638-008664583+53908028-008820111          1 6KURUM    4CON     
AWY DCT   SA11992850202840+53499390-006307110+53480083-005500000          1 4DUB      6LIFFY   
AWY DCT   SA11992850202430+53499390-006307110+53280277-005500000          1 4DUB      6DEXEN   
AWY DCT   SA11992850203260+53499390-006307110+54028805-006066222          1 4DUB      6ROTEV   
AWY DCT   SA11992850203030+53499390-006307110+54068333-006269833          1 4DUB      6NEVRI   
AWY DCT   SA11992850195301+53499390-006307110+53063915-005500000          1 4DUB      6LIPGO   
AWY DCT   SA12065460203501+52188999-007083333+51878639-007821750          1 5WTD      6VAPAL   
AWY DCT   SA10203130202941+51270805-008299361+51000000-008500000          1 6ORTOM    6MAPAG   
AWY DCT   SA10203391992851+52134666-008013167+53499390-006307110          1 6TISMO    4DUB     
AWY DCT   SA10203100203391+53780277-007294611+52134666-008013167          1 6OLAPO    6TISMO   
AWY DCT   SA10203100202811+53780277-007294611+52228638-008664583          1 6OLAPO    6KURUM   
AWY DCT   SA10203100202401+53780277-007294611+54189167-006906389          1 6OLAPO    6DEGOS   
AWY DCT   SA10203100202321+53780277-007294611+54141251-006651111          1 6OLAPO    6BAMLI   
AWY DCT   SA10190470202400+49000000-009000000+54189167-006906389FL245FL6601 6EMPER    6DEGOS   
AWY DCT   SA10191320202400+49052776-011768333+54189167-006906389FL245FL6601 6GUNSO    6DEGOS   
AWY DCT   SA30195940188691+55038334-001698333+56496944-001951944FL105     1 6NATEB    6BALID   
AWY DCT   SA10201040196810+53100891+003303508+53288055+000031944FL245     1 6MIMVA    6OTBED   
AWY DCT   SA20198460195940+54028889+000246389+55038334-001698333FL105FL2451 6TENDO    6NATEB   
AWY DCT   SA30198462065100+54028889+000246389+54560520-001333639FL105     1 6TENDO    5TD      
AWY DCT   SA10194190195770+51805557-000419445+52308334-000269167FL245     1 6HEMEL    6MOGLI   
AWY DCT   SA10188250190990+51662498-002678333+51563889-001710000FL245     1 6ALVIN    6GAVGO   
AWY DCT   SA30195320196430+54525002-006090000+54144444-005593332          1 6LISBO    6NUMPI   
AWY DCT   SA20197430197260+56408054+000776945+56174721+003500000     FL2451 6RIVOT    6REKNA   
AWY DCT   SA20197431990461+56408054+000776945+57310452-002267208     FL2451 6RIVOT    4ADN     
AWY DCT   SA20194431991930+50395279-006323332+50136284-005636932     FL2451 6INSUN    4LND     
AWY DCT   SA20194430189201+50395279-006323332+50998055-007204721FL195FL2451 6INSUN    6BOGMI   
AWY DCT   SA31990670197790+52180141-001113789+52540279-001356945FL075     1 4DTY      6SAPCO   
AWY DCT   SA32065141990670+51852921-000962409+52180141-001113789FL075     1 5WCO      4DTY     
AWY DCT   SA31992090195060+53698215-000103736+52118660+001210125     FL2851 4OTR      6LAPRA   
AWY DCT   SA10194960196410+54238888-002981111+53029446-002303889FL245     1 6LAKEY    6NUGRA   
AWY DCT   SA20189490196410+53626945-002538888+53029446-002303889FL195FL2451 6CROFT    6NUGRA   
AWY DCT   SA20189380196410+53774166-002643889+53029446-002303889FL195FL2451 6CALDA    6NUGRA   
AWY DCT   SA20197450195940+55459167-001020556+55038334-001698333     FL2451 6ROBEM    6NATEB   
AWY DCT   SA20197430206120+56408054+000776945+57907539+003608356     FL2451 6RIVOT    6ALOTI   
AWY DCT   SA10198780198960+51713055+001082778+51459167+000118889FL245     1 6TRIPO    6UMBUR   
AWY DCT   SA11992120892760+55907513-002206336+55717194-003138536FL245     1 4SAB      6TARTN   
AWY DCT   SA30195850191310+51893890-002436111+52393890-001928889          1 6MOSUN    6GROVE   
AWY DCT   SA11992031990680+51053951-000625003+51162621+001359089FL245     1 4MID      4DVR     
AWY DCT   SA10194990189830+51301945-003017499+50574165-003463888FL245     1 6LAMAT    6DAWLY   
AWY DCT   SA11990750188970+50855217-000756736+50451389+000010278FL245     1 4GWC      6BENBO   
AWY DCT   SA11990671990630+52180141-001113789+51491573-001219692FL245     1 4DTY      4CPT     
AWY DCT   SA31990630197110+51491573-001219692+51527222-002081111          1 4CPT      6POMAX   
AWY DCT   SA10189380189880+53774166-002643889+53527222-001892778FL245     1 6CALDA    6DESIG   
AWY DCT   SA10196440191310+51610001-003283611+52393890-001928889FL165     1 6NUMPO    6GROVE   
AWY DCT   SA10195850196970+51893890-002436111+51709446-002942222FL245     1 6MOSUN    6PERUP   
AWY DCT   SA10195851990781+51893890-002436111+52356678-001663725FL165     1 6MOSUN    4HON     
AWY DCT   SA30195850189971+51893890-002436111+51776943-003259167          1 6MOSUN    6DIKAS   
AWY DCT   SA10188750198040+52335556+001505278+52084999+001811667FL245     1 6BANEM    6SONDO   
AWY DCT   SA30189990194630+51755554-001677500+51520557-001455000          1 6DILAX    6KENET   
AWY DCT   SA30188720189990+51876991-001616636+51755554-001677500          1 6BAMBO    6DILAX   
AWY DCT   SA22065141990570+51852921-000962409+51749737-000106736FL105FL2451 5WCO      4BPK     
AWY DCT   SA10198250196310+54380001-003286389+53076668-002882777FL245     1 6SUBUK    6NOKIN   
AWY DCT   SA31990750189210+50855217-000756736+50701946-000251666          1 4GWC      6BOGNA   
AWY DCT   SA31990540189370+51989769+000061908+51942223-000552222          1 4BKY      6BUZAD   
AWY DCT   SA31990540189360+51989769+000061908+52092777+000067778          1 4BKY      6BUSTA   
AWY DCT   SA30189360195380+52092777+000067778+52013889-000052778          1 6BUSTA    6LOREL   
AWY DCT   SA30194630188720+51520557-001455000+51876991-001616636          1 6KENET    6BAMBO   
AWY DCT   SA31992101992020+53743767-002103328+53357025-002262289          1 4POL      4MCT     
AWY DCT   SA31992020195330+53357025-002262289+53143333-002199167          1 4MCT      6LISTO   
AWY DCT   SA10195940188170+55038334-001698333+55121944-001949167FL245     1 6NATEB    6AGPED   
AWY DCT   SA30196050188830+53863335-002184721+53470554-002428056          1 6NELSA    6BARTN   
AWY DCT   SA10189381992020+53774166-002643889+53357025-002262289FL245     1 6CALDA    4MCT     
AWY DCT   SA11990630194120+51491573-001219692+51112778-001130833FL245     1 4CPT      6HANKY   
AWY DCT   SA10190072064560+51869720-002929167+51381443-002717545FL245     1 6DOBEM    5BRI     
AWY DCT   SA10190072064620+51869720-002929167+51393379-003337908FL245     1 6DOBEM    5CDF     
AWY DCT   SA10191012064530+50749722-002518611+50777672-001842486FL245     1 6GIBSO    5BIA     
AWY DCT   SA31990670188760+52180141-001113789+52357777-000232500          1 4DTY      6BANTO   
AWY DCT   SA10189970195520+51776943-003259167+51592499-002061667FL245     1 6DIKAS    6MALBY   
AWY DCT   SA20195330196870+53143333-002199167+52746666-001719445     FL1951 6LISTO    6PEDIG   
AWY DCT   SA10189491992020+53626945-002538888+53357025-002262289          1 6CROFT    4MCT     
AWY DCT   SA30196240198960+51596111+000634445+51459167+000118889          1 6NILON    6UMBUR   
AWY DCT   SA10195930195000+53206390-000861111+53308056-000682222FL285     1 6NAPEX    6LAMIX   
AWY DCT   SA30189210194130+50701946-000251666+50471111+000491111FL155     1 6BOGNA    6HARDY   
AWY DCT   SA11992211990461+59878757-001286533+57310452-002267208FL245     1 4SUM      4ADN     
AWY DCT   SA30190610195850+51691666-002945555+51893890-002436111          1 6ERNOK    6MOSUN   
AWY DCT   SA30194171990750+51005280-000984445+50855217-000756736          1 6HAZEL    4GWC     
AWY DCT   SA21991980194850+50999687+000878661+51130764+002000000     FL2451 4LYD      6KONAN   
AWY DCT   SA21991980886010+50999687+000878661+50911621+000446647     FL1551 4LYD      6LARCK   
AWY DCT   SA30188050197710+50641388-001174722+50777653-001024157          1 6ABSAV    6RUDMO   
AWY DCT   SA30194590188050+50520557-001333333+50641388-001174722          1 6KATHY    6ABSAV   
AWY DCT   SA20198140190580+50779446+001466667+50877949+001326933     FL1951 6SOVAT    6ERKEX   
AWY DCT   SA30197711990750+50777653-001024157+50855217-000756736          1 6RUDMO    4GWC     
AWY DCT   SA10000000202661+53301083-008941741+51000000-012000000          1 5CRN      6GIPER   
AWY DCT   SA10000000202941+53301083-008941741+51000000-008500000          1 5CRN      6MAPAG   
AWY DCT   SA10000000195241+53301083-008941741+51000000-008000000          1 5CRN      6LESLU   
AWY DCT   SA10000000195221+53301083-008941741+51240002-007568056          1 5CRN      6LEDGO   
AWY DCT   SA10000000203070+53301083-008941741+51619167-006869721          1 5CRN      6NORLA   
AWY DCT   SA10000000202331+53301083-008941741+51952778-006239167          1 5CRN      6BANBA   
AWY DCT   SA10000000202301+53301083-008941741+52241669-005680277          1 5CRN      6BAKUR   
AWY DCT   SA10000000203291+53301083-008941741+52158611-005842222          1 5CRN      6SLANY   
AWY DCT   SA10000000202591+53301083-008941741+51782223-006563333          1 5CRN      6EVRIN   
AWY DCT   SA10000000202371+53301083-008941741+51135834-008909999          1 5CRN      6BIBLA   
AWY DCT   SA10000000203491+53301083-008941741+51209167-010724721          1 5CRN      6UNLID   
AWY DCT   SA10000000202531+53301083-008941741+51000000-014000000          1 5CRN      6ELSOX   
AWY DCT   SA10000000202831+53301083-008941741+51500000-014000000          1 5CRN      6LEKVA   
AWY DCT   SA10000000203521+53301083-008941741+52000000-014000000          1 5CRN      6XETBO   
AWY DCT   SA10000000203231+53301083-008941741+52500000-014000000          1 5CRN      6RILED   
AWY DCT   SA10000000202681+53301083-008941741+53000000-014000000          1 5CRN      6GISTI   
AWY DCT   SA10000000203111+53301083-008941741+53500000-014000000          1 5CRN      6OLGON   
AWY DCT   SA10000000202361+53301083-008941741+54000000-014000000          1 5CRN      6BEXET   
AWY DCT   SA10000000194831+53301083-008941741+54500000-014000000          1 5CRN      6KOKIB   
AWY DCT   SA10000000196141+53301083-008941741+55000000-014000000          1 5CRN      6NETKI   
AWY DCT   SA10000000195781+53301083-008941741+55500000-014000000          1 5CRN      6MOGLO   
AWY DCT   SA10000000198151+53301083-008941741+56000000-014000000          1 5CRN      6SOVED   
AWY DCT   SA10000000188911+53301083-008941741+56500000-014000000          1 5CRN      6BEGID   
AWY DCT   SA10000000194661+53301083-008941741+56950001-014000000          1 5CRN      6KESIX   
AWY DCT   SA10203160000001+53199581-007333333+53301029-008942194          1 6PELIG    9CRN     
AWY DCT   SA10202740000001+53597584-007391277+53301029-008942194          1 6INKUR    9CRN     
AWY DCT   SA10203100000001+53780277-007294611+53301029-008942194          1 6OLAPO    9CRN     
AWY DCT   SA10203150000001+53049416-007270222+53301029-008942194          1 6OSGAR    9CRN     
AWY DCT   SA10000000203211+53301029-008942194+54466667-010116666          1 9CRN      6REVNU   
AWY DCT   SA10000000202951+53301029-008942194+54613609-009506388          1 9CRN      6MOLAK   
AWY DCT   SA10000000203061+53301029-008942194+54452499-008402777          1 9CRN      6NIPIT   
AWY DCT   SA10000000190601+53301029-008942194+54278889-007392777          1 9CRN      6ERNAN   
AWY DCT   SA10000000202401+53301029-008942194+54189167-006906389          1 9CRN      6DEGOS   
AWY DCT   SA10000000202321+53301029-008942194+54141251-006651111          1 9CRN      6BAMLI   
AWY DCT   SA10000000203030+53301029-008942194+54068333-006269833          1 9CRN      6NEVRI   
AWY DCT   SA10000000203260+53301029-008942194+54028805-006066222          1 9CRN      6ROTEV   
AWY DCT   SA10203050000000+53965027-005742138+53301029-008942194          1 6NIMAT    9CRN     
AWY DCT   SA10202290000000+53680000-005500000+53301029-008942194          1 6BAGSO    9CRN     
AWY DCT   SA10000000202840+53301029-008942194+53480083-005500000          1 9CRN      6LIFFY   
AWY DCT   SA10000000202430+53301029-008942194+53280277-005500000          1 9CRN      6DEXEN   
AWY DCT   SA10195300000001+53063915-005500000+53301029-008942194          1 6LIPGO    9CRN     
AWY DCT   SA10203510000000+52554443-005500000+53301029-008942194          1 6VATRY    9CRN     
AWY DCT   SA10202810000001+52228638-008664583+53301029-008942194          1 6KURUM    9CRN     
