
AWY DCT   SA10188960189320+53887779-003489722+52758331+002800555FL365     1 6BELOX    6BUKUT   
AWY DCT   SA31992320188740+58458817-003100369+59433334-003952778          1 4WIK      6BAMRA   
AWY DCT   SA10198871990731+55973335-007526389+55870502-004445725     FL6601 6TUXOS    4GOW     
AWY DCT   SA10190850196171+56369167-003463610+56695278-004544722     FL6601 6FINDO    6NEVIS   
AWY DCT   SA10190851992230+56369167-003463610+56493210-006875588FL245FL6601 6FINDO    4TIR     
AWY DCT   SA10191071992240+56924999-009500000+55499146-003352833FL105     1 6GINGA    4TLA     
AWY DCT   SA10195450189301+55239445-010000000+56236389-005841111          1 6LUTOV    6BRUCE   
AWY DCT   SA10189300188271+56236389-005841111+56264446-010000000          1 6BRUCE    6AMLAD   
AWY DCT   SA10190850188271+56369167-003463610+56264446-010000000FL255     1 6FINDO    6AMLAD   
AWY DCT   SA11992240188271+55499146-003352833+56264446-010000000          1 4TLA      6AMLAD   
AWY DCT   SA11990730188271+55870502-004445725+56264446-010000000          1 4GOW      6AMLAD   
AWY DCT   SA11991990188271+55430023-005650414+56264446-010000000          1 9MAC      6AMLAD   
AWY DCT   SA11990500188271+54661144-006229908+56264446-010000000          1 4BEL      6AMLAD   
AWY DCT   SA10190600188271+54278889-007392777+56264446-010000000          1 6ERNAN    6AMLAD   
AWY DCT   SA10194610188271+53905277-004364167+56264446-010000000          1 6KELLY    6AMLAD   
AWY DCT   SA10188270198120+56264446-010000000+53815556-004508333FL255     1 6AMLAD    6SOSIM   
AWY DCT   SA10188270195510+56264446-010000000+53974998-004874445FL255     1 6AMLAD    6MAKUX   
AWY DCT   SA10190600188380+54278889-007392777+55823055-010000000          1 6ERNAN    6APSOV   
AWY DCT   SA10194610188380+53905277-004364167+55823055-010000000          1 6KELLY    6APSOV   
AWY DCT   SA10195451990501+55239445-010000000+54661144-006229908          1 6LUTOV    4BEL     
AWY DCT   SA10195450190601+55239445-010000000+54278889-007392777          1 6LUTOV    6ERNAN   
AWY DCT   SA10195451990731+55239445-010000000+55870502-004445725          1 6LUTOV    4GOW     
AWY DCT   SA10195450194611+55239445-010000000+53905277-004364167          1 6LUTOV    6KELLY   
AWY DCT   SA11991990195451+55430023-005650414+55239445-010000000          1 9MAC      6LUTOV   
AWY DCT   SA10195450198120+55239445-010000000+53815556-004508333          1 6LUTOV    6SOSIM   
AWY DCT   SA10195450195510+55239445-010000000+53974998-004874445          1 6LUTOV    6MAKUX   
AWY DCT   SA10203030188270+54068333-006269833+56264446-010000000          1 6NEVRI    6AMLAD   
AWY DCT   SA10203030188380+54068333-006269833+55823055-010000000          1 6NEVRI    6APSOV   
AWY DCT   SA10203030195450+54068333-006269833+55239445-010000000          1 6NEVRI    6LUTOV   
AWY DCT   SA11990500188181+54661144-006229908+59964443-009500000          1 4BEL      6AKIVO   
AWY DCT   SA10188180190600+59964443-009500000+54278889-007392777          1 6AKIVO    6ERNAN   
AWY DCT   SA10191071990730+56924999-009500000+55870502-004445725          1 6GINGA    4GOW     
AWY DCT   SA10188740190540+59433334-003952778+58000000-010000000          1 6BAMRA    6ERAKA   
AWY DCT   SA11992171990501+58206947-006183046+54661144-006229908          1 4STN      4BEL     
AWY DCT   SA11990500188710+54661144-006229908+59000000-010000000          1 4BEL      6BALIX   
AWY DCT   SA11990500190540+54661144-006229908+58000000-010000000          1 4BEL      6ERAKA   
AWY DCT   SA11990500191250+54661144-006229908+57000000-010000000          1 4BEL      6GOMUP   
AWY DCT   SA10194291990501+56500000-010000000+54661144-006229908          1 6IBROD    4BEL     
AWY DCT   SA10195701990501+56000000-010000000+54661144-006229908          1 6MIMKU    4BEL     
AWY DCT   SA10194891990501+55500000-010000000+54661144-006229908          1 6KUGUR    4BEL     
AWY DCT   SA10196201990501+55000000-010000000+54661144-006229908          1 6NIBOG    4BEL     
AWY DCT   SA10202951990501+54613609-009506388+54661144-006229908          1 6MOLAK    4BEL     
AWY DCT   SA11990510188180+57477936-007365300+59964443-009500000          1 4BEN      6AKIVO   
AWY DCT   SA11990510196251+57477936-007365300+58855556-009500000          1 4BEN      6NINEX   
AWY DCT   SA10189301992231+56236389-005841111+56493210-006875588FL105     1 6BRUCE    4TIR     
AWY DCT   SA10189300188710+56236389-005841111+59000000-010000000          1 6BRUCE    6BALIX   
AWY DCT   SA10189300190540+56236389-005841111+58000000-010000000          1 6BRUCE    6ERAKA   
AWY DCT   SA10189300191250+56236389-005841111+57000000-010000000          1 6BRUCE    6GOMUP   
AWY DCT   SA10189300194291+56236389-005841111+56500000-010000000          1 6BRUCE    6IBROD   
AWY DCT   SA10189300195701+56236389-005841111+56000000-010000000          1 6BRUCE    6MIMKU   
AWY DCT   SA10194890189301+55500000-010000000+56236389-005841111          1 6KUGUR    6BRUCE   
AWY DCT   SA10196200189301+55000000-010000000+56236389-005841111          1 6NIBOG    6BRUCE   
AWY DCT   SA11991990202401+55430023-005650414+54189167-006906389          1 9MAC      6DEGOS   
AWY DCT   SA11992260202401+55313412-004783857+54189167-006906389          1 4TRN      6DEGOS   
AWY DCT   SA11991990190601+55430023-005650414+54278889-007392777          1 9MAC      6ERNAN   
AWY DCT   SA11992170190601+58206947-006183046+54278889-007392777          1 4STN      6ERNAN   
AWY DCT   SA10190600188560+54278889-007392777+60000000-010000000          1 6ERNAN    6ATSIX   
AWY DCT   SA10190600188710+54278889-007392777+59000000-010000000          1 6ERNAN    6BALIX   
AWY DCT   SA10190600190540+54278889-007392777+58000000-010000000          1 6ERNAN    6ERAKA   
AWY DCT   SA10195700190601+56000000-010000000+54278889-007392777          1 6MIMKU    6ERNAN   
AWY DCT   SA10194890190601+55500000-010000000+54278889-007392777          1 6KUGUR    6ERNAN   
AWY DCT   SA10196200190601+55000000-010000000+54278889-007392777          1 6NIBOG    6ERNAN   
AWY DCT   SA10190681992170+57891945-009500000+58206947-006183046FL255     1 6ETSOM    4STN     
AWY DCT   SA10190680188740+57891945-009500000+59433334-003952778FL255     1 6ETSOM    6BAMRA   
AWY DCT   SA10190680199140+57891945-009500000+57453056-003627222FL255     1 6ETSOM    6VADNO   
AWY DCT   SA10190680197730+57891945-009500000+57369167-004898611FL255     1 6ETSOM    6RUGID   
AWY DCT   SA10190680190850+57891945-009500000+56369167-003463610FL255     1 6ETSOM    6FINDO   
AWY DCT   SA10190681990730+57891945-009500000+55870502-004445725FL255     1 6ETSOM    4GOW     
AWY DCT   SA10190681991990+57891945-009500000+55430023-005650414FL255     1 6ETSOM    9MAC     
AWY DCT   SA10190681990650+57891945-009500000+54721912-003340639FL255     1 6ETSOM    9DCS     
AWY DCT   SA10190681990500+57891945-009500000+54661144-006229908FL255     1 6ETSOM    4BEL     
AWY DCT   SA10190680190600+57891945-009500000+54278889-007392777FL255     1 6ETSOM    6ERNAN   
AWY DCT   SA10190680189300+57891945-009500000+56236389-005841111FL255     1 6ETSOM    6BRUCE   
AWY DCT   SA10190850190540+56369167-003463610+58000000-010000000FL255     1 6FINDO    6ERAKA   
AWY DCT   SA10190850191250+56369167-003463610+57000000-010000000FL255     1 6FINDO    6GOMUP   
AWY DCT   SA10190850194291+56369167-003463610+56500000-010000000FL255     1 6FINDO    6IBROD   
AWY DCT   SA10191070189300+56924999-009500000+56236389-005841111          1 6GINGA    6BRUCE   
AWY DCT   SA10191070190850+56924999-009500000+56369167-003463610FL105     1 6GINGA    6FINDO   
AWY DCT   SA10191071991990+56924999-009500000+55430023-005650414          1 6GINGA    9MAC     
AWY DCT   SA10191071990650+56924999-009500000+54721912-003340639          1 6GINGA    9DCS     
AWY DCT   SA10191070197270+56924999-009500000+53960278-003825556FL255     1 6GINGA    6REMSI   
AWY DCT   SA10191070194610+56924999-009500000+53905277-004364167FL255     1 6GINGA    6KELLY   
AWY DCT   SA10191070198120+56924999-009500000+53815556-004508333FL255     1 6GINGA    6SOSIM   
AWY DCT   SA10191070195510+56924999-009500000+53974998-004874445FL255     1 6GINGA    6MAKUX   
AWY DCT   SA10191071990501+56924999-009500000+54661144-006229908          1 6GINGA    4BEL     
AWY DCT   SA10191070190600+56924999-009500000+54278889-007392777          1 6GINGA    6ERNAN   
AWY DCT   SA10191070202950+56924999-009500000+54613609-009506388          1 6GINGA    6MOLAK   
AWY DCT   SA11990730188710+55870502-004445725+59000000-010000000          1 4GOW      6BALIX   
AWY DCT   SA11990730190540+55870502-004445725+58000000-010000000          1 4GOW      6ERAKA   
AWY DCT   SA11990730191250+55870502-004445725+57000000-010000000          1 4GOW      6GOMUP   
AWY DCT   SA10194291990731+56500000-010000000+55870502-004445725          1 6IBROD    4GOW     
AWY DCT   SA11990731990510+55870502-004445725+57477936-007365300          1 4GOW      4BEN     
AWY DCT   SA11990730189301+55870502-004445725+56236389-005841111FL195     1 4GOW      6BRUCE   
AWY DCT   SA10195701990731+56000000-010000000+55870502-004445725          1 6MIMKU    4GOW     
AWY DCT   SA10194891990731+55500000-010000000+55870502-004445725          1 6KUGUR    4GOW     
AWY DCT   SA10196201990731+55000000-010000000+55870502-004445725          1 6NIBOG    4GOW     
AWY DCT   SA11991990194291+55430023-005650414+56500000-010000000          1 9MAC      6IBROD   
AWY DCT   SA11992240194291+55499146-003352833+56500000-010000000          1 4TLA      6IBROD   
AWY DCT   SA10197270194291+53960278-003825556+56500000-010000000          1 6REMSI    6IBROD   
AWY DCT   SA10194290198120+56500000-010000000+53815556-004508333          1 6IBROD    6SOSIM   
AWY DCT   SA10194290195510+56500000-010000000+53974998-004874445          1 6IBROD    6MAKUX   
AWY DCT   SA10194610191250+53905277-004364167+57000000-010000000          1 6KELLY    6GOMUP   
AWY DCT   SA10194610194291+53905277-004364167+56500000-010000000          1 6KELLY    6IBROD   
AWY DCT   SA10195700194611+56000000-010000000+53905277-004364167          1 6MIMKU    6KELLY   
AWY DCT   SA10194890194611+55500000-010000000+53905277-004364167          1 6KUGUR    6KELLY   
AWY DCT   SA10196200194611+55000000-010000000+53905277-004364167          1 6NIBOG    6KELLY   
AWY DCT   SA10194610202950+53905277-004364167+54613609-009506388          1 6KELLY    6MOLAK   
AWY DCT   SA11991990194891+55430023-005650414+55500000-010000000          1 9MAC      6KUGUR   
AWY DCT   SA10194890195510+55500000-010000000+53974998-004874445          1 6KUGUR    6MAKUX   
AWY DCT   SA10194890198120+55500000-010000000+53815556-004508333          1 6KUGUR    6SOSIM   
AWY DCT   SA10197270194891+53960278-003825556+55500000-010000000          1 6REMSI    6KUGUR   
AWY DCT   SA11991990188710+55430023-005650414+59000000-010000000          1 9MAC      6BALIX   
AWY DCT   SA11991990190540+55430023-005650414+58000000-010000000          1 9MAC      6ERAKA   
AWY DCT   SA11991990191250+55430023-005650414+57000000-010000000          1 9MAC      6GOMUP   
AWY DCT   SA10195701991991+56000000-010000000+55430023-005650414          1 6MIMKU    9MAC     
AWY DCT   SA10196201991991+55000000-010000000+55430023-005650414          1 6NIBOG    9MAC     
AWY DCT   SA10202951991991+54613609-009506388+55430023-005650414          1 6MOLAK    9MAC     
AWY DCT   SA10203061991991+54452499-008402777+55430023-005650414          1 6NIPIT    9MAC     
AWY DCT   SA10195700190850+56000000-010000000+56369167-003463610          1 6MIMKU    6FINDO   
AWY DCT   SA11992240195701+55499146-003352833+56000000-010000000          1 4TLA      6MIMKU   
AWY DCT   SA10197270195701+53960278-003825556+56000000-010000000          1 6REMSI    6MIMKU   
AWY DCT   SA10195700198120+56000000-010000000+53815556-004508333          1 6MIMKU    6SOSIM   
AWY DCT   SA10195700195510+56000000-010000000+53974998-004874445          1 6MIMKU    6MAKUX   
AWY DCT   SA10202950191250+54613609-009506388+57000000-010000000          1 6MOLAK    6GOMUP   
AWY DCT   SA10202950196200+54613609-009506388+55000000-010000000          1 6MOLAK    6NIBOG   
AWY DCT   SA10203030188560+54068333-006269833+60000000-010000000          1 6NEVRI    6ATSIX   
AWY DCT   SA10203030188710+54068333-006269833+59000000-010000000          1 6NEVRI    6BALIX   
AWY DCT   SA10203030190540+54068333-006269833+58000000-010000000          1 6NEVRI    6ERAKA   
AWY DCT   SA10203030191250+54068333-006269833+57000000-010000000          1 6NEVRI    6GOMUP   
AWY DCT   SA10203030195700+54068333-006269833+56000000-010000000FL255     1 6NEVRI    6MIMKU   
AWY DCT   SA10203030194890+54068333-006269833+55500000-010000000          1 6NEVRI    6KUGUR   
AWY DCT   SA10203030196200+54068333-006269833+55000000-010000000FL255     1 6NEVRI    6NIBOG   
AWY DCT   SA10197270196201+53960278-003825556+55000000-010000000          1 6REMSI    6NIBOG   
AWY DCT   SA10196200198120+55000000-010000000+53815556-004508333          1 6NIBOG    6SOSIM   
AWY DCT   SA10196200195510+55000000-010000000+53974998-004874445          1 6NIBOG    6MAKUX   
AWY DCT   SA10196250189300+58855556-009500000+56236389-005841111          1 6NINEX    6BRUCE   
AWY DCT   SA10196251990730+58855556-009500000+55870502-004445725          1 6NINEX    4GOW     
AWY DCT   SA10196251991990+58855556-009500000+55430023-005650414          1 6NINEX    9MAC     
AWY DCT   SA10196251990650+58855556-009500000+54721912-003340639          1 6NINEX    9DCS     
AWY DCT   SA10196251990500+58855556-009500000+54661144-006229908          1 6NINEX    4BEL     
AWY DCT   SA10196250190600+58855556-009500000+54278889-007392777          1 6NINEX    6ERNAN   
AWY DCT   SA10203060189301+54452499-008402777+56236389-005841111          1 6NIPIT    6BRUCE   
AWY DCT   SA10203061992171+54452499-008402777+58206947-006183046          1 6NIPIT    4STN     
AWY DCT   SA10197270191250+53960278-003825556+57000000-010000000FL255     1 6REMSI    6GOMUP   
AWY DCT   SA10197270202950+53960278-003825556+54613609-009506388FL255     1 6REMSI    6MOLAK   
AWY DCT   SA10197730190540+57369167-004898611+58000000-010000000FL255     1 6RUGID    6ERAKA   
AWY DCT   SA11992170190540+58206947-006183046+58000000-010000000          1 4STN      6ERAKA   
AWY DCT   SA11992240191250+55499146-003352833+57000000-010000000FL255     1 4TLA      6GOMUP   
AWY DCT   SA10199140190540+57453056-003627222+58000000-010000000FL255     1 6VADNO    6ERAKA   
AWY DCT   SA10190540190680+58000000-010000000+57891945-009500000          1 6ERAKA    6ETSOM   
AWY DCT   SA11992170196251+58206947-006183046+58855556-009500000     FL2451 4STN      6NINEX   
AWY DCT   SA11992170188181+58206947-006183046+59964443-009500000     FL2451 4STN      6AKIVO   
AWY DCT   SA10191250191070+57000000-010000000+56924999-009500000          1 6GOMUP    6GINGA   
AWY DCT   SA10188791990511+60605000-009409999+57477936-007365300          1 6BARKU    4BEN     
AWY DCT   SA11990500198710+54661144-006229908+56760555-006469721     FL2451 4BEL      6TOBMO   
AWY DCT   SA11990510198711+57477936-007365300+56760555-006469721     FL2451 4BEN      6TOBMO   
AWY DCT   SA11990510189301+57477936-007365300+56236389-005841111FL245     1 4BEN      6BRUCE   
AWY DCT   SA10190130191071+55719166-007695556+56924999-009500000FL195FL6601 6DONIB    6GINGA   
AWY DCT   SA11992230191071+56493210-006875588+56924999-009500000     FL2451 4TIR      6GINGA   
AWY DCT   SA11991990196121+55430023-005650414+54229443-007123333FL105FL2451 9MAC      6NESON   
AWY DCT   SA11992170892301+58206947-006183046+56062778-004579999          1 4STN      6LOMON   
AWY DCT   SA11992240190880+55499146-003352833+56142776-004382222          1 4TLA      6FOYLE   
AWY DCT   SA11992241992121+55499146-003352833+55907513-002206336FL245     1 4TLA      4SAB     
AWY DCT   SA10198950188211+54028889-000485278+55447224-001565000     FL2451 6UMBEL    6ALASO   
AWY DCT   SA10198290190540+57332500-007085000+58000000-010000000     FL6601 6SUPIT    6ERAKA   
AWY DCT   SA10198291990501+57332500-007085000+54661144-006229908     FL6601 6SUPIT    4BEL     
AWY DCT   SA10188140188330+58500000-010000000+58373711-009500000     FL6601 6ADODO    6AMTAP   
AWY DCT   SA10188331990500+58373711-009500000+54661144-006229908     FL6601 6AMTAP    4BEL     
AWY DCT   SA10190670190740+57500000-010000000+57408516-009500000     FL6601 6ETILO    6EVNAL   
AWY DCT   SA10188331992170+58373711-009500000+58206947-006183046     FL6601 6AMTAP    4STN     
AWY DCT   SA10188331990730+58373711-009500000+55870502-004445725     FL6601 6AMTAP    4GOW     
AWY DCT   SA11992170190670+58206947-006183046+57500000-010000000     FL6601 4STN      6ETILO   
AWY DCT   SA10190741990730+57408516-009500000+55870502-004445725     FL6601 6EVNAL    4GOW     
AWY DCT   SA11992170188140+58206947-006183046+58500000-010000000     FL6601 4STN      6ADODO   
AWY DCT   SA10188330190600+58373711-009500000+54278889-007392777     FL6601 6AMTAP    6ERNAN   
AWY DCT   SA10190741990500+57408516-009500000+54661144-006229908     FL6601 6EVNAL    4BEL     
AWY DCT   SA10190740190600+57408516-009500000+54278889-007392777     FL6601 6EVNAL    6ERNAN   
AWY DCT   SA10190600188140+54278889-007392777+58500000-010000000     FL6601 6ERNAN    6ADODO   
AWY DCT   SA11991990188140+55430023-005650414+58500000-010000000     FL6601 9MAC      6ADODO   
AWY DCT   SA11990500188140+54661144-006229908+58500000-010000000     FL6601 4BEL      6ADODO   
AWY DCT   SA11990500190670+54661144-006229908+57500000-010000000     FL6601 4BEL      6ETILO   
AWY DCT   SA10189300188140+56236389-005841111+58500000-010000000     FL6601 6BRUCE    6ADODO   
AWY DCT   SA10189300190670+56236389-005841111+57500000-010000000     FL6601 6BRUCE    6ETILO   
AWY DCT   SA10190741992170+57408516-009500000+58206947-006183046     FL6601 6EVNAL    4STN     
AWY DCT   SA10190600190670+54278889-007392777+57500000-010000000     FL6601 6ERNAN    6ETILO   
AWY DCT   SA11991990190670+55430023-005650414+57500000-010000000     FL6601 9MAC      6ETILO   
AWY DCT   SA10189300188560+56236389-005841111+60000000-010000000     FL6601 6BRUCE    6ATSIX   
AWY DCT   SA10188180189300+59964443-009500000+56236389-005841111     FL6601 6AKIVO    6BRUCE   
AWY DCT   SA10189300188791+56236389-005841111+60605000-009409999     FL6601 6BRUCE    6BARKU   
AWY DCT   SA10188330188740+58373711-009500000+59433334-003952778     FL6601 6AMTAP    6BAMRA   
AWY DCT   SA10188330189300+58373711-009500000+56236389-005841111     FL6601 6AMTAP    6BRUCE   
AWY DCT   SA10188331990650+58373711-009500000+54721912-003340639     FL6601 6AMTAP    9DCS     
AWY DCT   SA10188331991990+58373711-009500000+55430023-005650414     FL6601 6AMTAP    9MAC     
AWY DCT   SA10188330196700+58373711-009500000+57051945-005294722     FL6601 6AMTAP    6ORSUM   
AWY DCT   SA10188330197730+58373711-009500000+57369167-004898611     FL6601 6AMTAP    6RUGID   
AWY DCT   SA10188330199140+58373711-009500000+57453056-003627222     FL6601 6AMTAP    6VADNO   
AWY DCT   SA10188740188140+59433334-003952778+58500000-010000000     FL6601 6BAMRA    6ADODO   
AWY DCT   SA10188740190670+59433334-003952778+57500000-010000000     FL6601 6BAMRA    6ETILO   
AWY DCT   SA10190740188740+57408516-009500000+59433334-003952778     FL6601 6EVNAL    6BAMRA   
AWY DCT   SA10190741990650+57408516-009500000+54721912-003340639     FL6601 6EVNAL    9DCS     
AWY DCT   SA10190740190850+57408516-009500000+56369167-003463610     FL6601 6EVNAL    6FINDO   
AWY DCT   SA10190741991990+57408516-009500000+55430023-005650414     FL6601 6EVNAL    9MAC     
AWY DCT   SA10190740197730+57408516-009500000+57369167-004898611     FL6601 6EVNAL    6RUGID   
AWY DCT   SA10190850190670+56369167-003463610+57500000-010000000     FL6601 6FINDO    6ETILO   
AWY DCT   SA11990730188140+55870502-004445725+58500000-010000000     FL6601 4GOW      6ADODO   
AWY DCT   SA11990730190670+55870502-004445725+57500000-010000000     FL6601 4GOW      6ETILO   
AWY DCT   SA10198871991990+55973335-007526389+55430023-005650414     FL6601 6TUXOS    9MAC     
AWY DCT   SA10196700188140+57051945-005294722+58500000-010000000     FL6601 6ORSUM    6ADODO   
AWY DCT   SA10197730188140+57369167-004898611+58500000-010000000     FL6601 6RUGID    6ADODO   
AWY DCT   SA10197730190670+57369167-004898611+57500000-010000000     FL6601 6RUGID    6ETILO   
AWY DCT   SA10199140188140+57453056-003627222+58500000-010000000     FL6601 6VADNO    6ADODO   
AWY DCT   SA10190851992230+56369167-003463610+56493210-006875588FL245FL6601 6FINDO    4TIR     
AWY DCT   SA11992240188380+55499146-003352833+55823055-010000000          1 4TLA      6APSOV   
AWY DCT   SA11992240188271+55499146-003352833+56264446-010000000          1 4TLA      6AMLAD   
AWY DCT   SA11991990188380+55430023-005650414+55823055-010000000          1 9MAC      6APSOV   
AWY DCT   SA11991990188271+55430023-005650414+56264446-010000000          1 9MAC      6AMLAD   
AWY DCT   SA10195450189301+55239445-010000000+56236389-005841111          1 6LUTOV    6BRUCE   
AWY DCT   SA10194610188271+53905277-004364167+56264446-010000000          1 6KELLY    6AMLAD   
AWY DCT   SA10198871990731+55973335-007526389+55870502-004445725     FL6601 6TUXOS    4GOW     
AWY DCT   SA11990500188271+54661144-006229908+56264446-010000000          1 4BEL      6AMLAD   
AWY DCT   SA10189300188271+56236389-005841111+56264446-010000000          1 6BRUCE    6AMLAD   
AWY DCT   SA10190600188271+54278889-007392777+56264446-010000000          1 6ERNAN    6AMLAD   
AWY DCT   SA10190850188271+56369167-003463610+56264446-010000000FL255     1 6FINDO    6AMLAD   
AWY DCT   SA11990730188271+55870502-004445725+56264446-010000000          1 4GOW      6AMLAD   
AWY DCT   SA10188270195510+56264446-010000000+53974998-004874445FL255     1 6AMLAD    6MAKUX   
AWY DCT   SA10188270198120+56264446-010000000+53815556-004508333FL255     1 6AMLAD    6SOSIM   
AWY DCT   SA11990500188380+54661144-006229908+55823055-010000000          1 4BEL      6APSOV   
AWY DCT   SA10189300188381+56236389-005841111+55823055-010000000          1 6BRUCE    6APSOV   
AWY DCT   SA11990730188380+55870502-004445725+55823055-010000000          1 4GOW      6APSOV   
AWY DCT   SA10191071992240+56924999-009500000+55499146-003352833FL105     1 6GINGA    4TLA     
AWY DCT   SA10190850196171+56369167-003463610+56695278-004544722     FL6601 6FINDO    6NEVIS   
AWY DCT   SA10202290191320+53680000-005500000+49052776-011768333          1 6BAGSO    6GUNSO   
AWY DCT   SA10202940444211+51000000-008500000+48576946-008000000          1 6MAPAG    6TULTA   
AWY DCT   SA10202940198371+51000000-008500000+49000000-008000000          1 6MAPAG    6TAKAS   
AWY DCT   SA10202940197191+51000000-008500000+49500000-008000000          1 6MAPAG    6RATKA   
AWY DCT   SA10202940190921+51000000-008500000+50000000-008000000          1 6MAPAG    6GAPLI   
AWY DCT   SA10202940195401+51000000-008500000+50366669-008000000          1 6MAPAG    6LULOX   
AWY DCT   SA10196100202941+49000000-014000000+51000000-008500000          1 6NERTU    6MAPAG   
AWY DCT   SA10203210196141+54466667-010116666+55000000-014000000          1 6REVNU    6NETKI   
AWY DCT   SA10203210195781+54466667-010116666+55500000-014000000          1 6REVNU    6MOGLO   
AWY DCT   SA10191320198371+49052776-011768333+49000000-008000000          1 6GUNSO    6TAKAS   
AWY DCT   SA10191320197191+49052776-011768333+49500000-008000000          1 6GUNSO    6RATKA   
AWY DCT   SA10191320190921+49052776-011768333+50000000-008000000          1 6GUNSO    6GAPLI   
AWY DCT   SA10191320195401+49052776-011768333+50366669-008000000          1 6GUNSO    6LULOX   
AWY DCT   SA10195220202941+51240002-007568056+51000000-008500000          1 6LEDGO    6MAPAG   
AWY DCT   SA10195830202940+51498611-007093610+51000000-008500000          1 6MOPAT    6MAPAG   
AWY DCT   SA10203070202940+51619167-006869721+51000000-008500000          1 6NORLA    6MAPAG   
AWY DCT   SA30202330202941+51952778-006239167+51000000-008500000          1 6BANBA    6MAPAG   
AWY DCT   SA10202940188890+51000000-008500000+49000000-015000000          1 6MAPAG    6BEDRA   
AWY DCT   SA10203290202941+52158611-005842222+51000000-008500000          1 6SLANY    6MAPAG   
AWY DCT   SA10202300202941+52241669-005680277+51000000-008500000          1 6BAKUR    6MAPAG   
AWY DCT   SA10202590202941+51782223-006563333+51000000-008500000          1 6EVRIN    6MAPAG   
AWY DCT   SA10195240202941+51000000-008000000+51000000-008500000          1 6LESLU    6MAPAG   
AWY DCT   SA30191250198151+57000000-010000000+56000000-014000000          1 6GOMUP    6SOVED   
AWY DCT   SA30191250196731+57000000-010000000+56806389-012801667          1 6GOMUP    6OSBOX   
AWY DCT   SA30191250196141+57000000-010000000+55000000-014000000          1 6GOMUP    6NETKI   
AWY DCT   SA30191250195781+57000000-010000000+55500000-014000000          1 6GOMUP    6MOGLO   
AWY DCT   SA30191250194831+57000000-010000000+54500000-014000000          1 6GOMUP    6KOKIB   
AWY DCT   SA10191250188911+57000000-010000000+56500000-014000000          1 6GOMUP    6BEGID   
AWY DCT   SA10202940190471+51000000-008500000+49000000-009000000          1 6MAPAG    6EMPER   
AWY DCT   SA10190700202941+49000000-010000000+51000000-008500000          1 6EVBAK    6MAPAG   
AWY DCT   SA10191320202941+49052776-011768333+51000000-008500000          1 6GUNSO    6MAPAG   
AWY DCT   SA10202360198400+54000000-014000000+48728611-010497221          1 6BEXET    6TAMEL   
AWY DCT   SA10194830198400+54500000-014000000+48728611-010497221          1 6KOKIB    6TAMEL   
AWY DCT   SA10196140198400+55000000-014000000+48728611-010497221          1 6NETKI    6TAMEL   
AWY DCT   SA10195780198400+55500000-014000000+48728611-010497221          1 6MOGLO    6TAMEL   
AWY DCT   SA10198150198400+56000000-014000000+48728611-010497221          1 6SOVED    6TAMEL   
AWY DCT   SA10188910198400+56500000-014000000+48728611-010497221          1 6BEGID    6TAMEL   
AWY DCT   SA10194660198400+56950001-014000000+48728611-010497221          1 6KESIX    6TAMEL   
AWY DCT   SA10196730202460+56806389-012801667+51000000-015000000          1 6OSBOX    6DINIM   
AWY DCT   SA10203210196731+54466667-010116666+56806389-012801667          1 6REVNU    6OSBOX   
AWY DCT   SA30195220190601+51240002-007568056+54278889-007392777          1 6LEDGO    6ERNAN   
AWY DCT   SA30195220202401+51240002-007568056+54189167-006906389          1 6LEDGO    6DEGOS   
AWY DCT   SA30195220203030+51240002-007568056+54068333-006269833          1 6LEDGO    6NEVRI   
AWY DCT   SA30195220203260+51240002-007568056+54028805-006066222          1 6LEDGO    6ROTEV   
AWY DCT   SA30190600203070+54278889-007392777+51619167-006869721          1 6ERNAN    6NORLA   
AWY DCT   SA30202400203070+54189167-006906389+51619167-006869721          1 6DEGOS    6NORLA   
AWY DCT   SA30202590190601+51782223-006563333+54278889-007392777          1 6EVRIN    6ERNAN   
AWY DCT   SA30202590202401+51782223-006563333+54189167-006906389          1 6EVRIN    6DEGOS   
AWY DCT   SA30202590203030+51782223-006563333+54068333-006269833          1 6EVRIN    6NEVRI   
AWY DCT   SA30202330190601+51952778-006239167+54278889-007392777          1 6BANBA    6ERNAN   
AWY DCT   SA30202330202401+51952778-006239167+54189167-006906389          1 6BANBA    6DEGOS   
AWY DCT   SA30202330203030+51952778-006239167+54068333-006269833          1 6BANBA    6NEVRI   
AWY DCT   SA30203290190601+52158611-005842222+54278889-007392777          1 6SLANY    6ERNAN   
AWY DCT   SA30203290202401+52158611-005842222+54189167-006906389          1 6SLANY    6DEGOS   
AWY DCT   SA30203290203030+52158611-005842222+54068333-006269833          1 6SLANY    6NEVRI   
AWY DCT   SA30203290203260+52158611-005842222+54028805-006066222          1 6SLANY    6ROTEV   
AWY DCT   SA30202300190601+52241669-005680277+54278889-007392777          1 6BAKUR    6ERNAN   
AWY DCT   SA30202300202401+52241669-005680277+54189167-006906389          1 6BAKUR    6DEGOS   
AWY DCT   SA30202300203030+52241669-005680277+54068333-006269833          1 6BAKUR    6NEVRI   
AWY DCT   SA10202290190600+53680000-005500000+54278889-007392777          1 6BAGSO    6ERNAN   
AWY DCT   SA10195300190601+53063915-005500000+54278889-007392777          1 6LIPGO    6ERNAN   
AWY DCT   SA10203510190600+52554443-005500000+54278889-007392777          1 6VATRY    6ERNAN   
AWY DCT   SA10202290203030+53680000-005500000+54068333-006269833          1 6BAGSO    6NEVRI   
AWY DCT   SA10190470202951+49000000-009000000+54613609-009506388          1 6EMPER    6MOLAK   
AWY DCT   SA10190470203061+49000000-009000000+54452499-008402777          1 6EMPER    6NIPIT   
AWY DCT   SA10190470190601+49000000-009000000+54278889-007392777          1 6EMPER    6ERNAN   
AWY DCT   SA10190470202321+49000000-009000000+54141251-006651111          1 6EMPER    6BAMLI   
AWY DCT   SA10190470195401+49000000-009000000+50366669-008000000          1 6EMPER    6LULOX   
AWY DCT   SA10190470190921+49000000-009000000+50000000-008000000          1 6EMPER    6GAPLI   
AWY DCT   SA10190470197191+49000000-009000000+49500000-008000000          1 6EMPER    6RATKA   
AWY DCT   SA10188570195100+50000000-014000000+48598331-009000000          1 6ATSUR    6LASNO   
AWY DCT   SA10190530195100+50500000-014000000+48598331-009000000          1 6EPUNA    6LASNO   
AWY DCT   SA10202530195100+51000000-014000000+48598331-009000000          1 6ELSOX    6LASNO   
AWY DCT   SA10202830195100+51500000-014000000+48598331-009000000          1 6LEKVA    6LASNO   
AWY DCT   SA10203520195100+52000000-014000000+48598331-009000000          1 6XETBO    6LASNO   
AWY DCT   SA10203230195100+52500000-014000000+48598331-009000000          1 6RILED    6LASNO   
AWY DCT   SA10202680195100+53000000-014000000+48598331-009000000          1 6GISTI    6LASNO   
AWY DCT   SA10203110195100+53500000-014000000+48598331-009000000          1 6OLGON    6LASNO   
AWY DCT   SA10202360195100+54000000-014000000+48598331-009000000          1 6BEXET    6LASNO   
AWY DCT   SA10194830195100+54500000-014000000+48598331-009000000          1 6KOKIB    6LASNO   
AWY DCT   SA10196140195100+55000000-014000000+48598331-009000000          1 6NETKI    6LASNO   
AWY DCT   SA10195780195100+55500000-014000000+48598331-009000000          1 6MOGLO    6LASNO   
AWY DCT   SA10198150195100+56000000-014000000+48598331-009000000          1 6SOVED    6LASNO   
AWY DCT   SA10188910195100+56500000-014000000+48598331-009000000          1 6BEGID    6LASNO   
AWY DCT   SA10194660195100+56950001-014000000+48598331-009000000          1 6KESIX    6LASNO   
AWY DCT   SA10190470194661+49000000-009000000+56950001-014000000          1 6EMPER    6KESIX   
AWY DCT   SA10190470188911+49000000-009000000+56500000-014000000          1 6EMPER    6BEGID   
AWY DCT   SA10190470198151+49000000-009000000+56000000-014000000          1 6EMPER    6SOVED   
AWY DCT   SA10190470195781+49000000-009000000+55500000-014000000          1 6EMPER    6MOGLO   
AWY DCT   SA10190470196141+49000000-009000000+55000000-014000000          1 6EMPER    6NETKI   
AWY DCT   SA10190470194831+49000000-009000000+54500000-014000000          1 6EMPER    6KOKIB   
AWY DCT   SA10190470202361+49000000-009000000+54000000-014000000          1 6EMPER    6BEXET   
AWY DCT   SA10190470203111+49000000-009000000+53500000-014000000          1 6EMPER    6OLGON   
AWY DCT   SA10190470202681+49000000-009000000+53000000-014000000          1 6EMPER    6GISTI   
AWY DCT   SA10190470203231+49000000-009000000+52500000-014000000          1 6EMPER    6RILED   
AWY DCT   SA10190470203521+49000000-009000000+52000000-014000000          1 6EMPER    6XETBO   
AWY DCT   SA10190470202831+49000000-009000000+51500000-014000000          1 6EMPER    6LEKVA   
AWY DCT   SA10190470202531+49000000-009000000+51000000-014000000          1 6EMPER    6ELSOX   
AWY DCT   SA10190470190531+49000000-009000000+50500000-014000000          1 6EMPER    6EPUNA   
AWY DCT   SA10190470188571+49000000-009000000+50000000-014000000          1 6EMPER    6ATSUR   
AWY DCT   SA10190470196731+49000000-009000000+56806389-012801667          1 6EMPER    6OSBOX   
AWY DCT   SA10195100190471+48598331-009000000+49000000-009000000          1 6LASNO    6EMPER   
AWY DCT   SA10196730196680+56806389-012801667+48838890-012000000          1 6OSBOX    6OMOKO   
AWY DCT   SA10196730198400+56806389-012801667+48728611-010497221          1 6OSBOX    6TAMEL   
AWY DCT   SA10196730444211+56806389-012801667+48576946-008000000          1 6OSBOX    6TULTA   
AWY DCT   SA10196730198371+56806389-012801667+49000000-008000000          1 6OSBOX    6TAKAS   
AWY DCT   SA10196730197191+56806389-012801667+49500000-008000000          1 6OSBOX    6RATKA   
AWY DCT   SA10196730190921+56806389-012801667+50000000-008000000          1 6OSBOX    6GAPLI   
AWY DCT   SA10196730195401+56806389-012801667+50366669-008000000          1 6OSBOX    6LULOX   
AWY DCT   SA10196730195241+56806389-012801667+51000000-008000000          1 6OSBOX    6LESLU   
AWY DCT   SA10196730196201+56806389-012801667+55000000-010000000          1 6OSBOX    6NIBOG   
AWY DCT   SA10196730195701+56806389-012801667+56000000-010000000          1 6OSBOX    6MIMKU   
AWY DCT   SA10196730194291+56806389-012801667+56500000-010000000          1 6OSBOX    6IBROD   
AWY DCT   SA10188160196731+57000000-013000000+56806389-012801667          1 6AGORI    6OSBOX   
AWY DCT   SA10444210189131+48576946-008000000+49500000-014000000          1 6TULTA    6BIMGO   
AWY DCT   SA10444210188571+48576946-008000000+50000000-014000000          1 6TULTA    6ATSUR   
AWY DCT   SA10444210190531+48576946-008000000+50500000-014000000          1 6TULTA    6EPUNA   
AWY DCT   SA10444210202531+48576946-008000000+51000000-014000000          1 6TULTA    6ELSOX   
AWY DCT   SA10444210202831+48576946-008000000+51500000-014000000          1 6TULTA    6LEKVA   
AWY DCT   SA10444210203521+48576946-008000000+52000000-014000000          1 6TULTA    6XETBO   
AWY DCT   SA10444210203231+48576946-008000000+52500000-014000000          1 6TULTA    6RILED   
AWY DCT   SA10444210202681+48576946-008000000+53000000-014000000          1 6TULTA    6GISTI   
AWY DCT   SA10198370196101+49000000-008000000+49000000-014000000          1 6TAKAS    6NERTU   
AWY DCT   SA10198370189131+49000000-008000000+49500000-014000000          1 6TAKAS    6BIMGO   
AWY DCT   SA10198370188571+49000000-008000000+50000000-014000000          1 6TAKAS    6ATSUR   
AWY DCT   SA10198370190531+49000000-008000000+50500000-014000000          1 6TAKAS    6EPUNA   
AWY DCT   SA10198370202531+49000000-008000000+51000000-014000000          1 6TAKAS    6ELSOX   
AWY DCT   SA10198370202831+49000000-008000000+51500000-014000000          1 6TAKAS    6LEKVA   
AWY DCT   SA10198370203521+49000000-008000000+52000000-014000000          1 6TAKAS    6XETBO   
AWY DCT   SA10198370203231+49000000-008000000+52500000-014000000          1 6TAKAS    6RILED   
AWY DCT   SA10198370202681+49000000-008000000+53000000-014000000          1 6TAKAS    6GISTI   
AWY DCT   SA10198370203111+49000000-008000000+53500000-014000000          1 6TAKAS    6OLGON   
AWY DCT   SA10197190196101+49500000-008000000+49000000-014000000          1 6RATKA    6NERTU   
AWY DCT   SA10197190189131+49500000-008000000+49500000-014000000          1 6RATKA    6BIMGO   
AWY DCT   SA10197190188571+49500000-008000000+50000000-014000000          1 6RATKA    6ATSUR   
AWY DCT   SA10197190190531+49500000-008000000+50500000-014000000          1 6RATKA    6EPUNA   
AWY DCT   SA10197190202531+49500000-008000000+51000000-014000000          1 6RATKA    6ELSOX   
AWY DCT   SA10197190202831+49500000-008000000+51500000-014000000          1 6RATKA    6LEKVA   
AWY DCT   SA10197190203521+49500000-008000000+52000000-014000000          1 6RATKA    6XETBO   
AWY DCT   SA10197190203231+49500000-008000000+52500000-014000000          1 6RATKA    6RILED   
AWY DCT   SA10197190202681+49500000-008000000+53000000-014000000          1 6RATKA    6GISTI   
AWY DCT   SA10197190203111+49500000-008000000+53500000-014000000          1 6RATKA    6OLGON   
AWY DCT   SA10197190202361+49500000-008000000+54000000-014000000          1 6RATKA    6BEXET   
AWY DCT   SA10190920196101+50000000-008000000+49000000-014000000          1 6GAPLI    6NERTU   
AWY DCT   SA10190920189131+50000000-008000000+49500000-014000000          1 6GAPLI    6BIMGO   
AWY DCT   SA10190920188571+50000000-008000000+50000000-014000000          1 6GAPLI    6ATSUR   
AWY DCT   SA10190920190531+50000000-008000000+50500000-014000000          1 6GAPLI    6EPUNA   
AWY DCT   SA10190920202531+50000000-008000000+51000000-014000000          1 6GAPLI    6ELSOX   
AWY DCT   SA10190920202831+50000000-008000000+51500000-014000000          1 6GAPLI    6LEKVA   
AWY DCT   SA10190920203521+50000000-008000000+52000000-014000000          1 6GAPLI    6XETBO   
AWY DCT   SA10190920203231+50000000-008000000+52500000-014000000          1 6GAPLI    6RILED   
AWY DCT   SA10190920202681+50000000-008000000+53000000-014000000          1 6GAPLI    6GISTI   
AWY DCT   SA10190920203111+50000000-008000000+53500000-014000000          1 6GAPLI    6OLGON   
AWY DCT   SA10190920202361+50000000-008000000+54000000-014000000          1 6GAPLI    6BEXET   
AWY DCT   SA10195400196101+50366669-008000000+49000000-014000000          1 6LULOX    6NERTU   
AWY DCT   SA10195400189131+50366669-008000000+49500000-014000000          1 6LULOX    6BIMGO   
AWY DCT   SA10195400188571+50366669-008000000+50000000-014000000          1 6LULOX    6ATSUR   
AWY DCT   SA10195400190531+50366669-008000000+50500000-014000000          1 6LULOX    6EPUNA   
AWY DCT   SA10195400202531+50366669-008000000+51000000-014000000          1 6LULOX    6ELSOX   
AWY DCT   SA10195400202831+50366669-008000000+51500000-014000000          1 6LULOX    6LEKVA   
AWY DCT   SA10195400203521+50366669-008000000+52000000-014000000          1 6LULOX    6XETBO   
AWY DCT   SA10195400203231+50366669-008000000+52500000-014000000          1 6LULOX    6RILED   
AWY DCT   SA10195400202681+50366669-008000000+53000000-014000000          1 6LULOX    6GISTI   
AWY DCT   SA10195400203111+50366669-008000000+53500000-014000000          1 6LULOX    6OLGON   
AWY DCT   SA10195400202361+50366669-008000000+54000000-014000000          1 6LULOX    6BEXET   
AWY DCT   SA10195240196101+51000000-008000000+49000000-014000000          1 6LESLU    6NERTU   
AWY DCT   SA10195240189131+51000000-008000000+49500000-014000000          1 6LESLU    6BIMGO   
AWY DCT   SA10195240188571+51000000-008000000+50000000-014000000          1 6LESLU    6ATSUR   
AWY DCT   SA10195240190531+51000000-008000000+50500000-014000000          1 6LESLU    6EPUNA   
AWY DCT   SA10195240202531+51000000-008000000+51000000-014000000          1 6LESLU    6ELSOX   
AWY DCT   SA10195240202831+51000000-008000000+51500000-014000000          1 6LESLU    6LEKVA   
AWY DCT   SA10195240203521+51000000-008000000+52000000-014000000          1 6LESLU    6XETBO   
AWY DCT   SA10195240203231+51000000-008000000+52500000-014000000          1 6LESLU    6RILED   
AWY DCT   SA10195240202681+51000000-008000000+53000000-014000000          1 6LESLU    6GISTI   
AWY DCT   SA10195240203111+51000000-008000000+53500000-014000000          1 6LESLU    6OLGON   
AWY DCT   SA10195240202361+51000000-008000000+54000000-014000000          1 6LESLU    6BEXET   
AWY DCT   SA10195240194831+51000000-008000000+54500000-014000000          1 6LESLU    6KOKIB   
AWY DCT   SA10195240196141+51000000-008000000+55000000-014000000          1 6LESLU    6NETKI   
AWY DCT   SA10195240195781+51000000-008000000+55500000-014000000          1 6LESLU    6MOGLO   
AWY DCT   SA10195240198151+51000000-008000000+56000000-014000000          1 6LESLU    6SOVED   
AWY DCT   SA10195240188911+51000000-008000000+56500000-014000000          1 6LESLU    6BEGID   
AWY DCT   SA10195240194661+51000000-008000000+56950001-014000000          1 6LESLU    6KESIX   
AWY DCT   SA10202590196101+51782223-006563333+49000000-014000000          1 6EVRIN    6NERTU   
AWY DCT   SA10202590189131+51782223-006563333+49500000-014000000          1 6EVRIN    6BIMGO   
AWY DCT   SA10202590188571+51782223-006563333+50000000-014000000          1 6EVRIN    6ATSUR   
AWY DCT   SA10202590190531+51782223-006563333+50500000-014000000          1 6EVRIN    6EPUNA   
AWY DCT   SA10202590202531+51782223-006563333+51000000-014000000          1 6EVRIN    6ELSOX   
AWY DCT   SA10202590202831+51782223-006563333+51500000-014000000          1 6EVRIN    6LEKVA   
AWY DCT   SA10202590203521+51782223-006563333+52000000-014000000          1 6EVRIN    6XETBO   
AWY DCT   SA10202590203231+51782223-006563333+52500000-014000000          1 6EVRIN    6RILED   
AWY DCT   SA10202590202681+51782223-006563333+53000000-014000000          1 6EVRIN    6GISTI   
AWY DCT   SA10202590203111+51782223-006563333+53500000-014000000          1 6EVRIN    6OLGON   
AWY DCT   SA10202590202361+51782223-006563333+54000000-014000000          1 6EVRIN    6BEXET   
AWY DCT   SA10202590194831+51782223-006563333+54500000-014000000          1 6EVRIN    6KOKIB   
AWY DCT   SA10202590196141+51782223-006563333+55000000-014000000          1 6EVRIN    6NETKI   
AWY DCT   SA10202590195781+51782223-006563333+55500000-014000000          1 6EVRIN    6MOGLO   
AWY DCT   SA10202590198151+51782223-006563333+56000000-014000000          1 6EVRIN    6SOVED   
AWY DCT   SA10202590188911+51782223-006563333+56500000-014000000          1 6EVRIN    6BEGID   
AWY DCT   SA10202590194661+51782223-006563333+56950001-014000000          1 6EVRIN    6KESIX   
AWY DCT   SA10202330196101+51952778-006239167+49000000-014000000          1 6BANBA    6NERTU   
AWY DCT   SA10202330189131+51952778-006239167+49500000-014000000          1 6BANBA    6BIMGO   
AWY DCT   SA10202330188571+51952778-006239167+50000000-014000000          1 6BANBA    6ATSUR   
AWY DCT   SA10202330190531+51952778-006239167+50500000-014000000          1 6BANBA    6EPUNA   
AWY DCT   SA10202330202531+51952778-006239167+51000000-014000000          1 6BANBA    6ELSOX   
AWY DCT   SA10202330202831+51952778-006239167+51500000-014000000          1 6BANBA    6LEKVA   
AWY DCT   SA10202330203521+51952778-006239167+52000000-014000000          1 6BANBA    6XETBO   
AWY DCT   SA10202330203231+51952778-006239167+52500000-014000000          1 6BANBA    6RILED   
AWY DCT   SA10202330202681+51952778-006239167+53000000-014000000          1 6BANBA    6GISTI   
AWY DCT   SA10202330203111+51952778-006239167+53500000-014000000          1 6BANBA    6OLGON   
AWY DCT   SA10202330202361+51952778-006239167+54000000-014000000          1 6BANBA    6BEXET   
AWY DCT   SA10202330194831+51952778-006239167+54500000-014000000          1 6BANBA    6KOKIB   
AWY DCT   SA10202330196141+51952778-006239167+55000000-014000000          1 6BANBA    6NETKI   
AWY DCT   SA10202330195781+51952778-006239167+55500000-014000000          1 6BANBA    6MOGLO   
AWY DCT   SA10202330198151+51952778-006239167+56000000-014000000          1 6BANBA    6SOVED   
AWY DCT   SA10202330188911+51952778-006239167+56500000-014000000          1 6BANBA    6BEGID   
AWY DCT   SA10202330194661+51952778-006239167+56950001-014000000          1 6BANBA    6KESIX   
AWY DCT   SA10203290196101+52158611-005842222+49000000-014000000          1 6SLANY    6NERTU   
AWY DCT   SA10203290189131+52158611-005842222+49500000-014000000          1 6SLANY    6BIMGO   
AWY DCT   SA10203290188571+52158611-005842222+50000000-014000000          1 6SLANY    6ATSUR   
AWY DCT   SA10203290190531+52158611-005842222+50500000-014000000          1 6SLANY    6EPUNA   
AWY DCT   SA10203290202531+52158611-005842222+51000000-014000000          1 6SLANY    6ELSOX   
AWY DCT   SA10203290202831+52158611-005842222+51500000-014000000          1 6SLANY    6LEKVA   
AWY DCT   SA10203290203521+52158611-005842222+52000000-014000000          1 6SLANY    6XETBO   
AWY DCT   SA10203290203231+52158611-005842222+52500000-014000000          1 6SLANY    6RILED   
AWY DCT   SA10203290202681+52158611-005842222+53000000-014000000          1 6SLANY    6GISTI   
AWY DCT   SA10203290203111+52158611-005842222+53500000-014000000          1 6SLANY    6OLGON   
AWY DCT   SA10203290202361+52158611-005842222+54000000-014000000          1 6SLANY    6BEXET   
AWY DCT   SA10203290194831+52158611-005842222+54500000-014000000          1 6SLANY    6KOKIB   
AWY DCT   SA10203290196141+52158611-005842222+55000000-014000000          1 6SLANY    6NETKI   
AWY DCT   SA10203290195781+52158611-005842222+55500000-014000000          1 6SLANY    6MOGLO   
AWY DCT   SA10203290198151+52158611-005842222+56000000-014000000          1 6SLANY    6SOVED   
AWY DCT   SA10203290188911+52158611-005842222+56500000-014000000          1 6SLANY    6BEGID   
AWY DCT   SA10202300196101+52241669-005680277+49000000-014000000          1 6BAKUR    6NERTU   
AWY DCT   SA10202300189131+52241669-005680277+49500000-014000000          1 6BAKUR    6BIMGO   
AWY DCT   SA10202300188571+52241669-005680277+50000000-014000000          1 6BAKUR    6ATSUR   
AWY DCT   SA10202300190531+52241669-005680277+50500000-014000000          1 6BAKUR    6EPUNA   
AWY DCT   SA10202300202531+52241669-005680277+51000000-014000000          1 6BAKUR    6ELSOX   
AWY DCT   SA10202300202831+52241669-005680277+51500000-014000000          1 6BAKUR    6LEKVA   
AWY DCT   SA10202300203521+52241669-005680277+52000000-014000000          1 6BAKUR    6XETBO   
AWY DCT   SA10202300203231+52241669-005680277+52500000-014000000          1 6BAKUR    6RILED   
AWY DCT   SA10202300202681+52241669-005680277+53000000-014000000          1 6BAKUR    6GISTI   
AWY DCT   SA10202300203111+52241669-005680277+53500000-014000000          1 6BAKUR    6OLGON   
AWY DCT   SA10202300202361+52241669-005680277+54000000-014000000          1 6BAKUR    6BEXET   
AWY DCT   SA10194830202301+54500000-014000000+52241669-005680277          1 6KOKIB    6BAKUR   
AWY DCT   SA10196140202301+55000000-014000000+52241669-005680277          1 6NETKI    6BAKUR   
AWY DCT   SA10195780202301+55500000-014000000+52241669-005680277          1 6MOGLO    6BAKUR   
AWY DCT   SA10198150202301+56000000-014000000+52241669-005680277          1 6SOVED    6BAKUR   
AWY DCT   SA10188910202301+56500000-014000000+52241669-005680277          1 6BEGID    6BAKUR   
AWY DCT   SA10189130195100+49500000-014000000+48598331-009000000          1 6BIMGO    6LASNO   
AWY DCT   SA10189130198400+49500000-014000000+48728611-010497221          1 6BIMGO    6TAMEL   
AWY DCT   SA10188570198400+50000000-014000000+48728611-010497221          1 6ATSUR    6TAMEL   
AWY DCT   SA10190530198400+50500000-014000000+48728611-010497221          1 6EPUNA    6TAMEL   
AWY DCT   SA10202530198400+51000000-014000000+48728611-010497221          1 6ELSOX    6TAMEL   
AWY DCT   SA10202830198400+51500000-014000000+48728611-010497221          1 6LEKVA    6TAMEL   
AWY DCT   SA10203520198400+52000000-014000000+48728611-010497221          1 6XETBO    6TAMEL   
AWY DCT   SA10203230198400+52500000-014000000+48728611-010497221          1 6RILED    6TAMEL   
AWY DCT   SA10202680198400+53000000-014000000+48728611-010497221          1 6GISTI    6TAMEL   
AWY DCT   SA10203110198400+53500000-014000000+48728611-010497221          1 6OLGON    6TAMEL   
AWY DCT   SA10195100198371+48598331-009000000+49000000-008000000          1 6LASNO    6TAKAS   
AWY DCT   SA10198400194810+48728611-010497221+49500000-015000000          1 6TAMEL    6KOGAD   
AWY DCT   SA10444210194810+48576946-008000000+49500000-015000000          1 6TULTA    6KOGAD   
AWY DCT   SA10444210198020+48576946-008000000+50000000-015000000          1 6TULTA    6SOMAX   
AWY DCT   SA10444210197490+48576946-008000000+50500000-015000000          1 6TULTA    6RODEL   
AWY DCT   SA10444210202460+48576946-008000000+51000000-015000000          1 6TULTA    6DINIM   
AWY DCT   SA10444210202190+48576946-008000000+51500000-015000000          1 6TULTA    6ADARA   
AWY DCT   SA10444210202860+48576946-008000000+52000000-015000000          1 6TULTA    6LIMRI   
AWY DCT   SA10444210203400+48576946-008000000+52500000-015000000          1 6TULTA    6TOBOR   
AWY DCT   SA10444210202930+48576946-008000000+53000000-015000000          1 6TULTA    6MALOT   
AWY DCT   SA10444210203010+48576946-008000000+53500000-015000000          1 6TULTA    6NEBIN   
AWY DCT   SA10444210202490+48576946-008000000+54000000-015000000          1 6TULTA    6DOGAL   
AWY DCT   SA10444210199240+48576946-008000000+54500000-015000000          1 6TULTA    6VENER   
AWY DCT   SA10444210197280+48576946-008000000+55000000-015000000          1 6TULTA    6RESNO   
AWY DCT   SA10444210190650+48576946-008000000+55500000-015000000          1 6TULTA    6ETARI   
AWY DCT   SA10444210197020+48576946-008000000+56000000-015000000          1 6TULTA    6PIKIL   
AWY DCT   SA10444210189110+48576946-008000000+56500000-015000000          1 6TULTA    6BILTO   
AWY DCT   SA10444210198260+48576946-008000000+57000000-015000000          1 6TULTA    6SUNOT   
AWY DCT   SA10198370188890+49000000-008000000+49000000-015000000          1 6TAKAS    6BEDRA   
AWY DCT   SA10198370194810+49000000-008000000+49500000-015000000          1 6TAKAS    6KOGAD   
AWY DCT   SA10198370198020+49000000-008000000+50000000-015000000          1 6TAKAS    6SOMAX   
AWY DCT   SA10198370197490+49000000-008000000+50500000-015000000          1 6TAKAS    6RODEL   
AWY DCT   SA10198370202460+49000000-008000000+51000000-015000000          1 6TAKAS    6DINIM   
AWY DCT   SA10198370202190+49000000-008000000+51500000-015000000          1 6TAKAS    6ADARA   
AWY DCT   SA10198370202860+49000000-008000000+52000000-015000000          1 6TAKAS    6LIMRI   
AWY DCT   SA10198370203400+49000000-008000000+52500000-015000000          1 6TAKAS    6TOBOR   
AWY DCT   SA10198370202930+49000000-008000000+53000000-015000000          1 6TAKAS    6MALOT   
AWY DCT   SA10198370203010+49000000-008000000+53500000-015000000          1 6TAKAS    6NEBIN   
AWY DCT   SA10198370202490+49000000-008000000+54000000-015000000          1 6TAKAS    6DOGAL   
AWY DCT   SA10198370199240+49000000-008000000+54500000-015000000          1 6TAKAS    6VENER   
AWY DCT   SA10198370197280+49000000-008000000+55000000-015000000          1 6TAKAS    6RESNO   
AWY DCT   SA10198370190650+49000000-008000000+55500000-015000000          1 6TAKAS    6ETARI   
AWY DCT   SA10198370197020+49000000-008000000+56000000-015000000          1 6TAKAS    6PIKIL   
AWY DCT   SA10198370189110+49000000-008000000+56500000-015000000          1 6TAKAS    6BILTO   
AWY DCT   SA10198370198260+49000000-008000000+57000000-015000000          1 6TAKAS    6SUNOT   
AWY DCT   SA10197190188890+49500000-008000000+49000000-015000000          1 6RATKA    6BEDRA   
AWY DCT   SA10197190194810+49500000-008000000+49500000-015000000          1 6RATKA    6KOGAD   
AWY DCT   SA10197190198020+49500000-008000000+50000000-015000000          1 6RATKA    6SOMAX   
AWY DCT   SA10197190197490+49500000-008000000+50500000-015000000          1 6RATKA    6RODEL   
AWY DCT   SA10197190202460+49500000-008000000+51000000-015000000          1 6RATKA    6DINIM   
AWY DCT   SA10197190202190+49500000-008000000+51500000-015000000          1 6RATKA    6ADARA   
AWY DCT   SA10197190202860+49500000-008000000+52000000-015000000          1 6RATKA    6LIMRI   
AWY DCT   SA10197190203400+49500000-008000000+52500000-015000000          1 6RATKA    6TOBOR   
AWY DCT   SA10197190202930+49500000-008000000+53000000-015000000          1 6RATKA    6MALOT   
AWY DCT   SA10197190203010+49500000-008000000+53500000-015000000          1 6RATKA    6NEBIN   
AWY DCT   SA10197190202490+49500000-008000000+54000000-015000000          1 6RATKA    6DOGAL   
AWY DCT   SA10197190199240+49500000-008000000+54500000-015000000          1 6RATKA    6VENER   
AWY DCT   SA10197190197280+49500000-008000000+55000000-015000000          1 6RATKA    6RESNO   
AWY DCT   SA10197190190650+49500000-008000000+55500000-015000000          1 6RATKA    6ETARI   
AWY DCT   SA10197190197020+49500000-008000000+56000000-015000000          1 6RATKA    6PIKIL   
AWY DCT   SA10197190189110+49500000-008000000+56500000-015000000          1 6RATKA    6BILTO   
AWY DCT   SA10197190198260+49500000-008000000+57000000-015000000          1 6RATKA    6SUNOT   
AWY DCT   SA10190920188890+50000000-008000000+49000000-015000000          1 6GAPLI    6BEDRA   
AWY DCT   SA10190920194810+50000000-008000000+49500000-015000000          1 6GAPLI    6KOGAD   
AWY DCT   SA10190920198020+50000000-008000000+50000000-015000000          1 6GAPLI    6SOMAX   
AWY DCT   SA10190920197490+50000000-008000000+50500000-015000000          1 6GAPLI    6RODEL   
AWY DCT   SA10190920202460+50000000-008000000+51000000-015000000          1 6GAPLI    6DINIM   
AWY DCT   SA10190920202190+50000000-008000000+51500000-015000000          1 6GAPLI    6ADARA   
AWY DCT   SA10190920202860+50000000-008000000+52000000-015000000          1 6GAPLI    6LIMRI   
AWY DCT   SA10190920203400+50000000-008000000+52500000-015000000          1 6GAPLI    6TOBOR   
AWY DCT   SA10190920202930+50000000-008000000+53000000-015000000          1 6GAPLI    6MALOT   
AWY DCT   SA10190920203010+50000000-008000000+53500000-015000000          1 6GAPLI    6NEBIN   
AWY DCT   SA10190920202490+50000000-008000000+54000000-015000000          1 6GAPLI    6DOGAL   
AWY DCT   SA10190920199240+50000000-008000000+54500000-015000000          1 6GAPLI    6VENER   
AWY DCT   SA10190920197280+50000000-008000000+55000000-015000000          1 6GAPLI    6RESNO   
AWY DCT   SA10190920190650+50000000-008000000+55500000-015000000          1 6GAPLI    6ETARI   
AWY DCT   SA10190920197020+50000000-008000000+56000000-015000000          1 6GAPLI    6PIKIL   
AWY DCT   SA10190920189110+50000000-008000000+56500000-015000000          1 6GAPLI    6BILTO   
AWY DCT   SA10190920198260+50000000-008000000+57000000-015000000          1 6GAPLI    6SUNOT   
AWY DCT   SA10195400188890+50366669-008000000+49000000-015000000          1 6LULOX    6BEDRA   
AWY DCT   SA10195400194810+50366669-008000000+49500000-015000000          1 6LULOX    6KOGAD   
AWY DCT   SA10195400198020+50366669-008000000+50000000-015000000          1 6LULOX    6SOMAX   
AWY DCT   SA10195400197490+50366669-008000000+50500000-015000000          1 6LULOX    6RODEL   
AWY DCT   SA10195400202460+50366669-008000000+51000000-015000000          1 6LULOX    6DINIM   
AWY DCT   SA10195400202860+50366669-008000000+52000000-015000000          1 6LULOX    6LIMRI   
AWY DCT   SA10195400202190+50366669-008000000+51500000-015000000          1 6LULOX    6ADARA   
AWY DCT   SA10195400203400+50366669-008000000+52500000-015000000          1 6LULOX    6TOBOR   
AWY DCT   SA10195400202930+50366669-008000000+53000000-015000000          1 6LULOX    6MALOT   
AWY DCT   SA10195400203010+50366669-008000000+53500000-015000000          1 6LULOX    6NEBIN   
AWY DCT   SA10195400202490+50366669-008000000+54000000-015000000          1 6LULOX    6DOGAL   
AWY DCT   SA10195400199240+50366669-008000000+54500000-015000000          1 6LULOX    6VENER   
AWY DCT   SA10195400197280+50366669-008000000+55000000-015000000          1 6LULOX    6RESNO   
AWY DCT   SA10195400190650+50366669-008000000+55500000-015000000          1 6LULOX    6ETARI   
AWY DCT   SA10195400197020+50366669-008000000+56000000-015000000          1 6LULOX    6PIKIL   
AWY DCT   SA10195400189110+50366669-008000000+56500000-015000000          1 6LULOX    6BILTO   
AWY DCT   SA10195400198260+50366669-008000000+57000000-015000000          1 6LULOX    6SUNOT   
AWY DCT   SA10195240188890+51000000-008000000+49000000-015000000          1 6LESLU    6BEDRA   
AWY DCT   SA10195240194810+51000000-008000000+49500000-015000000          1 6LESLU    6KOGAD   
AWY DCT   SA10195240198020+51000000-008000000+50000000-015000000          1 6LESLU    6SOMAX   
AWY DCT   SA10195240197490+51000000-008000000+50500000-015000000          1 6LESLU    6RODEL   
AWY DCT   SA10195240202460+51000000-008000000+51000000-015000000          1 6LESLU    6DINIM   
AWY DCT   SA10195240202190+51000000-008000000+51500000-015000000          1 6LESLU    6ADARA   
AWY DCT   SA10195240202860+51000000-008000000+52000000-015000000          1 6LESLU    6LIMRI   
AWY DCT   SA10195240203400+51000000-008000000+52500000-015000000          1 6LESLU    6TOBOR   
AWY DCT   SA10195240202930+51000000-008000000+53000000-015000000          1 6LESLU    6MALOT   
AWY DCT   SA10195240203010+51000000-008000000+53500000-015000000          1 6LESLU    6NEBIN   
AWY DCT   SA10195240202490+51000000-008000000+54000000-015000000          1 6LESLU    6DOGAL   
AWY DCT   SA10195240199240+51000000-008000000+54500000-015000000          1 6LESLU    6VENER   
AWY DCT   SA10195240197280+51000000-008000000+55000000-015000000          1 6LESLU    6RESNO   
AWY DCT   SA10195240190650+51000000-008000000+55500000-015000000          1 6LESLU    6ETARI   
AWY DCT   SA10195240197020+51000000-008000000+56000000-015000000          1 6LESLU    6PIKIL   
AWY DCT   SA10195240189110+51000000-008000000+56500000-015000000          1 6LESLU    6BILTO   
AWY DCT   SA10195240198260+51000000-008000000+57000000-015000000          1 6LESLU    6SUNOT   
AWY DCT   SA10195220188890+51240002-007568056+49000000-015000000          1 6LEDGO    6BEDRA   
AWY DCT   SA10195220194810+51240002-007568056+49500000-015000000          1 6LEDGO    6KOGAD   
AWY DCT   SA10195220198020+51240002-007568056+50000000-015000000          1 6LEDGO    6SOMAX   
AWY DCT   SA10195220197490+51240002-007568056+50500000-015000000          1 6LEDGO    6RODEL   
AWY DCT   SA10195220202460+51240002-007568056+51000000-015000000          1 6LEDGO    6DINIM   
AWY DCT   SA10195220202190+51240002-007568056+51500000-015000000          1 6LEDGO    6ADARA   
AWY DCT   SA10195220202860+51240002-007568056+52000000-015000000          1 6LEDGO    6LIMRI   
AWY DCT   SA10195220203400+51240002-007568056+52500000-015000000          1 6LEDGO    6TOBOR   
AWY DCT   SA10195220202930+51240002-007568056+53000000-015000000          1 6LEDGO    6MALOT   
AWY DCT   SA10195220203010+51240002-007568056+53500000-015000000          1 6LEDGO    6NEBIN   
AWY DCT   SA10195220202490+51240002-007568056+54000000-015000000          1 6LEDGO    6DOGAL   
AWY DCT   SA10195220199240+51240002-007568056+54500000-015000000          1 6LEDGO    6VENER   
AWY DCT   SA10195220197280+51240002-007568056+55000000-015000000          1 6LEDGO    6RESNO   
AWY DCT   SA10195220190650+51240002-007568056+55500000-015000000          1 6LEDGO    6ETARI   
AWY DCT   SA10195220197020+51240002-007568056+56000000-015000000          1 6LEDGO    6PIKIL   
AWY DCT   SA10195220189110+51240002-007568056+56500000-015000000          1 6LEDGO    6BILTO   
AWY DCT   SA10195220198260+51240002-007568056+57000000-015000000          1 6LEDGO    6SUNOT   
AWY DCT   SA10195830188890+51498611-007093610+49000000-015000000          1 6MOPAT    6BEDRA   
AWY DCT   SA10195830194810+51498611-007093610+49500000-015000000          1 6MOPAT    6KOGAD   
AWY DCT   SA10195830198020+51498611-007093610+50000000-015000000          1 6MOPAT    6SOMAX   
AWY DCT   SA10195830197490+51498611-007093610+50500000-015000000          1 6MOPAT    6RODEL   
AWY DCT   SA10195830202460+51498611-007093610+51000000-015000000          1 6MOPAT    6DINIM   
AWY DCT   SA10195830202190+51498611-007093610+51500000-015000000          1 6MOPAT    6ADARA   
AWY DCT   SA10195830202860+51498611-007093610+52000000-015000000          1 6MOPAT    6LIMRI   
AWY DCT   SA10195830203400+51498611-007093610+52500000-015000000          1 6MOPAT    6TOBOR   
AWY DCT   SA10195830202930+51498611-007093610+53000000-015000000          1 6MOPAT    6MALOT   
AWY DCT   SA10195830203010+51498611-007093610+53500000-015000000          1 6MOPAT    6NEBIN   
AWY DCT   SA10195830202490+51498611-007093610+54000000-015000000          1 6MOPAT    6DOGAL   
AWY DCT   SA10195830199240+51498611-007093610+54500000-015000000          1 6MOPAT    6VENER   
AWY DCT   SA10195830197280+51498611-007093610+55000000-015000000          1 6MOPAT    6RESNO   
AWY DCT   SA10195830190650+51498611-007093610+55500000-015000000          1 6MOPAT    6ETARI   
AWY DCT   SA10195830197020+51498611-007093610+56000000-015000000          1 6MOPAT    6PIKIL   
AWY DCT   SA10195830189110+51498611-007093610+56500000-015000000          1 6MOPAT    6BILTO   
AWY DCT   SA10195830198260+51498611-007093610+57000000-015000000          1 6MOPAT    6SUNOT   
AWY DCT   SA10202590188890+51782223-006563333+49000000-015000000          1 6EVRIN    6BEDRA   
AWY DCT   SA10202590194810+51782223-006563333+49500000-015000000          1 6EVRIN    6KOGAD   
AWY DCT   SA10202590198020+51782223-006563333+50000000-015000000          1 6EVRIN    6SOMAX   
AWY DCT   SA10202590197490+51782223-006563333+50500000-015000000          1 6EVRIN    6RODEL   
AWY DCT   SA10202590202460+51782223-006563333+51000000-015000000          1 6EVRIN    6DINIM   
AWY DCT   SA10202590202190+51782223-006563333+51500000-015000000          1 6EVRIN    6ADARA   
AWY DCT   SA10202590202860+51782223-006563333+52000000-015000000          1 6EVRIN    6LIMRI   
AWY DCT   SA10202590203400+51782223-006563333+52500000-015000000          1 6EVRIN    6TOBOR   
AWY DCT   SA10202590202930+51782223-006563333+53000000-015000000          1 6EVRIN    6MALOT   
AWY DCT   SA10202590203010+51782223-006563333+53500000-015000000          1 6EVRIN    6NEBIN   
AWY DCT   SA10202590202490+51782223-006563333+54000000-015000000          1 6EVRIN    6DOGAL   
AWY DCT   SA10202590199240+51782223-006563333+54500000-015000000          1 6EVRIN    6VENER   
AWY DCT   SA10202590197280+51782223-006563333+55000000-015000000          1 6EVRIN    6RESNO   
AWY DCT   SA10202590190650+51782223-006563333+55500000-015000000          1 6EVRIN    6ETARI   
AWY DCT   SA10202590197020+51782223-006563333+56000000-015000000          1 6EVRIN    6PIKIL   
AWY DCT   SA10202590189110+51782223-006563333+56500000-015000000          1 6EVRIN    6BILTO   
AWY DCT   SA10202590198260+51782223-006563333+57000000-015000000          1 6EVRIN    6SUNOT   
AWY DCT   SA10202330188890+51952778-006239167+49000000-015000000          1 6BANBA    6BEDRA   
AWY DCT   SA10202330194810+51952778-006239167+49500000-015000000          1 6BANBA    6KOGAD   
AWY DCT   SA10202330198020+51952778-006239167+50000000-015000000          1 6BANBA    6SOMAX   
AWY DCT   SA10202330197490+51952778-006239167+50500000-015000000          1 6BANBA    6RODEL   
AWY DCT   SA10202330202460+51952778-006239167+51000000-015000000          1 6BANBA    6DINIM   
AWY DCT   SA10202330202190+51952778-006239167+51500000-015000000          1 6BANBA    6ADARA   
AWY DCT   SA10202330202860+51952778-006239167+52000000-015000000          1 6BANBA    6LIMRI   
AWY DCT   SA10202330203400+51952778-006239167+52500000-015000000          1 6BANBA    6TOBOR   
AWY DCT   SA10202330202930+51952778-006239167+53000000-015000000          1 6BANBA    6MALOT   
AWY DCT   SA10202330203010+51952778-006239167+53500000-015000000          1 6BANBA    6NEBIN   
AWY DCT   SA10202330202490+51952778-006239167+54000000-015000000          1 6BANBA    6DOGAL   
AWY DCT   SA10202330199240+51952778-006239167+54500000-015000000          1 6BANBA    6VENER   
AWY DCT   SA10202330197280+51952778-006239167+55000000-015000000          1 6BANBA    6RESNO   
AWY DCT   SA10202330190650+51952778-006239167+55500000-015000000          1 6BANBA    6ETARI   
AWY DCT   SA10202330197020+51952778-006239167+56000000-015000000          1 6BANBA    6PIKIL   
AWY DCT   SA10202330189110+51952778-006239167+56500000-015000000          1 6BANBA    6BILTO   
AWY DCT   SA10202330198260+51952778-006239167+57000000-015000000          1 6BANBA    6SUNOT   
AWY DCT   SA10203290188890+52158611-005842222+49000000-015000000          1 6SLANY    6BEDRA   
AWY DCT   SA10203290194810+52158611-005842222+49500000-015000000          1 6SLANY    6KOGAD   
AWY DCT   SA10203290198020+52158611-005842222+50000000-015000000          1 6SLANY    6SOMAX   
AWY DCT   SA10203290197490+52158611-005842222+50500000-015000000          1 6SLANY    6RODEL   
AWY DCT   SA10203290202460+52158611-005842222+51000000-015000000          1 6SLANY    6DINIM   
AWY DCT   SA10203290202190+52158611-005842222+51500000-015000000          1 6SLANY    6ADARA   
AWY DCT   SA10203290202860+52158611-005842222+52000000-015000000          1 6SLANY    6LIMRI   
AWY DCT   SA10203290203400+52158611-005842222+52500000-015000000          1 6SLANY    6TOBOR   
AWY DCT   SA10203290202930+52158611-005842222+53000000-015000000          1 6SLANY    6MALOT   
AWY DCT   SA10203290203010+52158611-005842222+53500000-015000000          1 6SLANY    6NEBIN   
AWY DCT   SA10203290202490+52158611-005842222+54000000-015000000          1 6SLANY    6DOGAL   
AWY DCT   SA10203290199240+52158611-005842222+54500000-015000000          1 6SLANY    6VENER   
AWY DCT   SA10203290197280+52158611-005842222+55000000-015000000          1 6SLANY    6RESNO   
AWY DCT   SA10203290190650+52158611-005842222+55500000-015000000          1 6SLANY    6ETARI   
AWY DCT   SA10203290197020+52158611-005842222+56000000-015000000          1 6SLANY    6PIKIL   
AWY DCT   SA10203290189110+52158611-005842222+56500000-015000000          1 6SLANY    6BILTO   
AWY DCT   SA10203290198260+52158611-005842222+57000000-015000000          1 6SLANY    6SUNOT   
AWY DCT   SA10202300188890+52241669-005680277+49000000-015000000          1 6BAKUR    6BEDRA   
AWY DCT   SA10202300194810+52241669-005680277+49500000-015000000          1 6BAKUR    6KOGAD   
AWY DCT   SA10202300198020+52241669-005680277+50000000-015000000          1 6BAKUR    6SOMAX   
AWY DCT   SA10202300197490+52241669-005680277+50500000-015000000          1 6BAKUR    6RODEL   
AWY DCT   SA10202300202460+52241669-005680277+51000000-015000000          1 6BAKUR    6DINIM   
AWY DCT   SA10202300202190+52241669-005680277+51500000-015000000          1 6BAKUR    6ADARA   
AWY DCT   SA10202300202860+52241669-005680277+52000000-015000000          1 6BAKUR    6LIMRI   
AWY DCT   SA10202300203400+52241669-005680277+52500000-015000000          1 6BAKUR    6TOBOR   
AWY DCT   SA10202300202930+52241669-005680277+53000000-015000000          1 6BAKUR    6MALOT   
AWY DCT   SA10202300203010+52241669-005680277+53500000-015000000          1 6BAKUR    6NEBIN   
AWY DCT   SA10202300202490+52241669-005680277+54000000-015000000          1 6BAKUR    6DOGAL   
AWY DCT   SA10202300199240+52241669-005680277+54500000-015000000          1 6BAKUR    6VENER   
AWY DCT   SA10202300197280+52241669-005680277+55000000-015000000          1 6BAKUR    6RESNO   
AWY DCT   SA10202300190650+52241669-005680277+55500000-015000000          1 6BAKUR    6ETARI   
AWY DCT   SA10202300197020+52241669-005680277+56000000-015000000          1 6BAKUR    6PIKIL   
AWY DCT   SA10202300189110+52241669-005680277+56500000-015000000          1 6BAKUR    6BILTO   
AWY DCT   SA10202300198260+52241669-005680277+57000000-015000000          1 6BAKUR    6SUNOT   
AWY DCT   SA10203510188890+52554443-005500000+49000000-015000000          1 6VATRY    6BEDRA   
AWY DCT   SA10203510194810+52554443-005500000+49500000-015000000          1 6VATRY    6KOGAD   
AWY DCT   SA10203510198020+52554443-005500000+50000000-015000000          1 6VATRY    6SOMAX   
AWY DCT   SA10203510197490+52554443-005500000+50500000-015000000          1 6VATRY    6RODEL   
AWY DCT   SA10203510202460+52554443-005500000+51000000-015000000          1 6VATRY    6DINIM   
AWY DCT   SA10203510202190+52554443-005500000+51500000-015000000          1 6VATRY    6ADARA   
AWY DCT   SA10203510202860+52554443-005500000+52000000-015000000          1 6VATRY    6LIMRI   
AWY DCT   SA10203510203400+52554443-005500000+52500000-015000000          1 6VATRY    6TOBOR   
AWY DCT   SA10203510202930+52554443-005500000+53000000-015000000          1 6VATRY    6MALOT   
AWY DCT   SA10203510203010+52554443-005500000+53500000-015000000          1 6VATRY    6NEBIN   
AWY DCT   SA10203510202490+52554443-005500000+54000000-015000000          1 6VATRY    6DOGAL   
AWY DCT   SA10203510199240+52554443-005500000+54500000-015000000          1 6VATRY    6VENER   
AWY DCT   SA10203510197280+52554443-005500000+55000000-015000000          1 6VATRY    6RESNO   
AWY DCT   SA10203510190650+52554443-005500000+55500000-015000000          1 6VATRY    6ETARI   
AWY DCT   SA10203510197020+52554443-005500000+56000000-015000000          1 6VATRY    6PIKIL   
AWY DCT   SA10195300188890+53063915-005500000+49000000-015000000          1 6LIPGO    6BEDRA   
AWY DCT   SA10195300194810+53063915-005500000+49500000-015000000          1 6LIPGO    6KOGAD   
AWY DCT   SA10195300198020+53063915-005500000+50000000-015000000          1 6LIPGO    6SOMAX   
AWY DCT   SA10195300197490+53063915-005500000+50500000-015000000          1 6LIPGO    6RODEL   
AWY DCT   SA10195300202460+53063915-005500000+51000000-015000000          1 6LIPGO    6DINIM   
AWY DCT   SA10195300202190+53063915-005500000+51500000-015000000          1 6LIPGO    6ADARA   
AWY DCT   SA10195300202860+53063915-005500000+52000000-015000000          1 6LIPGO    6LIMRI   
AWY DCT   SA10195300203400+53063915-005500000+52500000-015000000          1 6LIPGO    6TOBOR   
AWY DCT   SA10195300202930+53063915-005500000+53000000-015000000          1 6LIPGO    6MALOT   
AWY DCT   SA10195300203010+53063915-005500000+53500000-015000000          1 6LIPGO    6NEBIN   
AWY DCT   SA10195300202490+53063915-005500000+54000000-015000000          1 6LIPGO    6DOGAL   
AWY DCT   SA10195300199240+53063915-005500000+54500000-015000000          1 6LIPGO    6VENER   
AWY DCT   SA10195300197280+53063915-005500000+55000000-015000000          1 6LIPGO    6RESNO   
AWY DCT   SA10195300190650+53063915-005500000+55500000-015000000          1 6LIPGO    6ETARI   
AWY DCT   SA10195300197020+53063915-005500000+56000000-015000000          1 6LIPGO    6PIKIL   
AWY DCT   SA10202290188890+53680000-005500000+49000000-015000000          1 6BAGSO    6BEDRA   
AWY DCT   SA10202290194810+53680000-005500000+49500000-015000000          1 6BAGSO    6KOGAD   
AWY DCT   SA10202290198020+53680000-005500000+50000000-015000000          1 6BAGSO    6SOMAX   
AWY DCT   SA10202290197490+53680000-005500000+50500000-015000000          1 6BAGSO    6RODEL   
AWY DCT   SA10202290202460+53680000-005500000+51000000-015000000          1 6BAGSO    6DINIM   
AWY DCT   SA10202290202190+53680000-005500000+51500000-015000000          1 6BAGSO    6ADARA   
AWY DCT   SA10202290202860+53680000-005500000+52000000-015000000          1 6BAGSO    6LIMRI   
AWY DCT   SA10202290203400+53680000-005500000+52500000-015000000          1 6BAGSO    6TOBOR   
AWY DCT   SA10202290202930+53680000-005500000+53000000-015000000          1 6BAGSO    6MALOT   
AWY DCT   SA10202290203010+53680000-005500000+53500000-015000000          1 6BAGSO    6NEBIN   
AWY DCT   SA10202290202490+53680000-005500000+54000000-015000000          1 6BAGSO    6DOGAL   
AWY DCT   SA10202290199240+53680000-005500000+54500000-015000000          1 6BAGSO    6VENER   
AWY DCT   SA10202290197280+53680000-005500000+55000000-015000000          1 6BAGSO    6RESNO   
AWY DCT   SA10202290190650+53680000-005500000+55500000-015000000          1 6BAGSO    6ETARI   
AWY DCT   SA10203050188890+53965027-005742138+49000000-015000000          1 6NIMAT    6BEDRA   
AWY DCT   SA10203050194810+53965027-005742138+49500000-015000000          1 6NIMAT    6KOGAD   
AWY DCT   SA10203050198020+53965027-005742138+50000000-015000000          1 6NIMAT    6SOMAX   
AWY DCT   SA10203050197490+53965027-005742138+50500000-015000000          1 6NIMAT    6RODEL   
AWY DCT   SA10203050202460+53965027-005742138+51000000-015000000          1 6NIMAT    6DINIM   
AWY DCT   SA10203050202190+53965027-005742138+51500000-015000000          1 6NIMAT    6ADARA   
AWY DCT   SA10203050202860+53965027-005742138+52000000-015000000          1 6NIMAT    6LIMRI   
AWY DCT   SA10203050203400+53965027-005742138+52500000-015000000          1 6NIMAT    6TOBOR   
AWY DCT   SA10203050202930+53965027-005742138+53000000-015000000          1 6NIMAT    6MALOT   
AWY DCT   SA10203050203010+53965027-005742138+53500000-015000000          1 6NIMAT    6NEBIN   
AWY DCT   SA10203050202490+53965027-005742138+54000000-015000000          1 6NIMAT    6DOGAL   
AWY DCT   SA10202320188890+54141251-006651111+49000000-015000000          1 6BAMLI    6BEDRA   
AWY DCT   SA10202320194810+54141251-006651111+49500000-015000000          1 6BAMLI    6KOGAD   
AWY DCT   SA10202320198020+54141251-006651111+50000000-015000000          1 6BAMLI    6SOMAX   
AWY DCT   SA10202320197490+54141251-006651111+50500000-015000000          1 6BAMLI    6RODEL   
AWY DCT   SA10202320202460+54141251-006651111+51000000-015000000          1 6BAMLI    6DINIM   
AWY DCT   SA10202320202190+54141251-006651111+51500000-015000000          1 6BAMLI    6ADARA   
AWY DCT   SA10202320202860+54141251-006651111+52000000-015000000          1 6BAMLI    6LIMRI   
AWY DCT   SA10202320203400+54141251-006651111+52500000-015000000          1 6BAMLI    6TOBOR   
AWY DCT   SA10202320202930+54141251-006651111+53000000-015000000          1 6BAMLI    6MALOT   
AWY DCT   SA10202320203010+54141251-006651111+53500000-015000000          1 6BAMLI    6NEBIN   
AWY DCT   SA10202320202490+54141251-006651111+54000000-015000000          1 6BAMLI    6DOGAL   
AWY DCT   SA10202400188890+54189167-006906389+49000000-015000000          1 6DEGOS    6BEDRA   
AWY DCT   SA10202400194810+54189167-006906389+49500000-015000000          1 6DEGOS    6KOGAD   
AWY DCT   SA10202400198020+54189167-006906389+50000000-015000000          1 6DEGOS    6SOMAX   
AWY DCT   SA10202400197490+54189167-006906389+50500000-015000000          1 6DEGOS    6RODEL   
AWY DCT   SA10202400202460+54189167-006906389+51000000-015000000          1 6DEGOS    6DINIM   
AWY DCT   SA10202400202190+54189167-006906389+51500000-015000000          1 6DEGOS    6ADARA   
AWY DCT   SA10202400202860+54189167-006906389+52000000-015000000          1 6DEGOS    6LIMRI   
AWY DCT   SA10202400203400+54189167-006906389+52500000-015000000          1 6DEGOS    6TOBOR   
AWY DCT   SA10202400202930+54189167-006906389+53000000-015000000          1 6DEGOS    6MALOT   
AWY DCT   SA10202400203010+54189167-006906389+53500000-015000000          1 6DEGOS    6NEBIN   
AWY DCT   SA10202400202490+54189167-006906389+54000000-015000000          1 6DEGOS    6DOGAL   
AWY DCT   SA10190600188890+54278889-007392777+49000000-015000000          1 6ERNAN    6BEDRA   
AWY DCT   SA10190600194810+54278889-007392777+49500000-015000000          1 6ERNAN    6KOGAD   
AWY DCT   SA10190600198020+54278889-007392777+50000000-015000000          1 6ERNAN    6SOMAX   
AWY DCT   SA10190600197490+54278889-007392777+50500000-015000000          1 6ERNAN    6RODEL   
AWY DCT   SA10190600202460+54278889-007392777+51000000-015000000          1 6ERNAN    6DINIM   
AWY DCT   SA10190600202190+54278889-007392777+51500000-015000000          1 6ERNAN    6ADARA   
AWY DCT   SA10190600202860+54278889-007392777+52000000-015000000          1 6ERNAN    6LIMRI   
AWY DCT   SA10190600203400+54278889-007392777+52500000-015000000          1 6ERNAN    6TOBOR   
AWY DCT   SA10190600202930+54278889-007392777+53000000-015000000          1 6ERNAN    6MALOT   
AWY DCT   SA10190600203010+54278889-007392777+53500000-015000000          1 6ERNAN    6NEBIN   
AWY DCT   SA10190600202490+54278889-007392777+54000000-015000000          1 6ERNAN    6DOGAL   
AWY DCT   SA10203060188890+54452499-008402777+49000000-015000000          1 6NIPIT    6BEDRA   
AWY DCT   SA10203060194810+54452499-008402777+49500000-015000000          1 6NIPIT    6KOGAD   
AWY DCT   SA10203060198020+54452499-008402777+50000000-015000000          1 6NIPIT    6SOMAX   
AWY DCT   SA10203060197490+54452499-008402777+50500000-015000000          1 6NIPIT    6RODEL   
AWY DCT   SA10203060202460+54452499-008402777+51000000-015000000          1 6NIPIT    6DINIM   
AWY DCT   SA10203060202190+54452499-008402777+51500000-015000000          1 6NIPIT    6ADARA   
AWY DCT   SA10203060202860+54452499-008402777+52000000-015000000          1 6NIPIT    6LIMRI   
AWY DCT   SA10203060203400+54452499-008402777+52500000-015000000          1 6NIPIT    6TOBOR   
AWY DCT   SA10203060202930+54452499-008402777+53000000-015000000          1 6NIPIT    6MALOT   
AWY DCT   SA10203060203010+54452499-008402777+53500000-015000000          1 6NIPIT    6NEBIN   
AWY DCT   SA10203060202490+54452499-008402777+54000000-015000000          1 6NIPIT    6DOGAL   
AWY DCT   SA10202950188890+54613609-009506388+49000000-015000000          1 6MOLAK    6BEDRA   
AWY DCT   SA10202950194810+54613609-009506388+49500000-015000000          1 6MOLAK    6KOGAD   
AWY DCT   SA10202950198020+54613609-009506388+50000000-015000000          1 6MOLAK    6SOMAX   
AWY DCT   SA10202950197490+54613609-009506388+50500000-015000000          1 6MOLAK    6RODEL   
AWY DCT   SA10202950202460+54613609-009506388+51000000-015000000          1 6MOLAK    6DINIM   
AWY DCT   SA10202950202190+54613609-009506388+51500000-015000000          1 6MOLAK    6ADARA   
AWY DCT   SA10202950202860+54613609-009506388+52000000-015000000          1 6MOLAK    6LIMRI   
AWY DCT   SA10202950203400+54613609-009506388+52500000-015000000          1 6MOLAK    6TOBOR   
AWY DCT   SA10202950202930+54613609-009506388+53000000-015000000          1 6MOLAK    6MALOT   
AWY DCT   SA10202950203010+54613609-009506388+53500000-015000000          1 6MOLAK    6NEBIN   
AWY DCT   SA10202950202490+54613609-009506388+54000000-015000000          1 6MOLAK    6DOGAL   
AWY DCT   SA10196200188890+55000000-010000000+49000000-015000000          1 6NIBOG    6BEDRA   
AWY DCT   SA10196200194810+55000000-010000000+49500000-015000000          1 6NIBOG    6KOGAD   
AWY DCT   SA10196200198020+55000000-010000000+50000000-015000000          1 6NIBOG    6SOMAX   
AWY DCT   SA10196200197490+55000000-010000000+50500000-015000000          1 6NIBOG    6RODEL   
AWY DCT   SA10196200202460+55000000-010000000+51000000-015000000          1 6NIBOG    6DINIM   
AWY DCT   SA10196200202190+55000000-010000000+51500000-015000000          1 6NIBOG    6ADARA   
AWY DCT   SA10196200202860+55000000-010000000+52000000-015000000          1 6NIBOG    6LIMRI   
AWY DCT   SA10196200203400+55000000-010000000+52500000-015000000          1 6NIBOG    6TOBOR   
AWY DCT   SA10196200202930+55000000-010000000+53000000-015000000          1 6NIBOG    6MALOT   
AWY DCT   SA10196200203010+55000000-010000000+53500000-015000000          1 6NIBOG    6NEBIN   
AWY DCT   SA10196200202490+55000000-010000000+54000000-015000000          1 6NIBOG    6DOGAL   
AWY DCT   SA10196200199240+55000000-010000000+54500000-015000000          1 6NIBOG    6VENER   
AWY DCT   SA10196200197280+55000000-010000000+55000000-015000000          1 6NIBOG    6RESNO   
AWY DCT   SA10196200190650+55000000-010000000+55500000-015000000          1 6NIBOG    6ETARI   
AWY DCT   SA10196200197020+55000000-010000000+56000000-015000000          1 6NIBOG    6PIKIL   
AWY DCT   SA10196200189110+55000000-010000000+56500000-015000000          1 6NIBOG    6BILTO   
AWY DCT   SA10196200198260+55000000-010000000+57000000-015000000          1 6NIBOG    6SUNOT   
AWY DCT   SA10195700188890+56000000-010000000+49000000-015000000          1 6MIMKU    6BEDRA   
AWY DCT   SA10195700194810+56000000-010000000+49500000-015000000          1 6MIMKU    6KOGAD   
AWY DCT   SA10195700198020+56000000-010000000+50000000-015000000          1 6MIMKU    6SOMAX   
AWY DCT   SA10195700197490+56000000-010000000+50500000-015000000          1 6MIMKU    6RODEL   
AWY DCT   SA10195700202460+56000000-010000000+51000000-015000000          1 6MIMKU    6DINIM   
AWY DCT   SA10195700202190+56000000-010000000+51500000-015000000          1 6MIMKU    6ADARA   
AWY DCT   SA10195700202860+56000000-010000000+52000000-015000000          1 6MIMKU    6LIMRI   
AWY DCT   SA10195700203400+56000000-010000000+52500000-015000000          1 6MIMKU    6TOBOR   
AWY DCT   SA10195700202930+56000000-010000000+53000000-015000000          1 6MIMKU    6MALOT   
AWY DCT   SA10195700203010+56000000-010000000+53500000-015000000          1 6MIMKU    6NEBIN   
AWY DCT   SA10195700202490+56000000-010000000+54000000-015000000          1 6MIMKU    6DOGAL   
AWY DCT   SA10195700199240+56000000-010000000+54500000-015000000          1 6MIMKU    6VENER   
AWY DCT   SA10195700197280+56000000-010000000+55000000-015000000          1 6MIMKU    6RESNO   
AWY DCT   SA10195700190650+56000000-010000000+55500000-015000000          1 6MIMKU    6ETARI   
AWY DCT   SA10195700197020+56000000-010000000+56000000-015000000          1 6MIMKU    6PIKIL   
AWY DCT   SA10195700189110+56000000-010000000+56500000-015000000          1 6MIMKU    6BILTO   
AWY DCT   SA10195700198260+56000000-010000000+57000000-015000000          1 6MIMKU    6SUNOT   
AWY DCT   SA10194290188890+56500000-010000000+49000000-015000000          1 6IBROD    6BEDRA   
AWY DCT   SA10194290194810+56500000-010000000+49500000-015000000          1 6IBROD    6KOGAD   
AWY DCT   SA10194290198020+56500000-010000000+50000000-015000000          1 6IBROD    6SOMAX   
AWY DCT   SA10194290197490+56500000-010000000+50500000-015000000          1 6IBROD    6RODEL   
AWY DCT   SA10194290202460+56500000-010000000+51000000-015000000          1 6IBROD    6DINIM   
AWY DCT   SA10194290202190+56500000-010000000+51500000-015000000          1 6IBROD    6ADARA   
AWY DCT   SA10194290202860+56500000-010000000+52000000-015000000          1 6IBROD    6LIMRI   
AWY DCT   SA10194290203400+56500000-010000000+52500000-015000000          1 6IBROD    6TOBOR   
AWY DCT   SA10194290202930+56500000-010000000+53000000-015000000          1 6IBROD    6MALOT   
AWY DCT   SA10194290203010+56500000-010000000+53500000-015000000          1 6IBROD    6NEBIN   
AWY DCT   SA10194290202490+56500000-010000000+54000000-015000000          1 6IBROD    6DOGAL   
AWY DCT   SA10194290199240+56500000-010000000+54500000-015000000          1 6IBROD    6VENER   
AWY DCT   SA10194290197280+56500000-010000000+55000000-015000000          1 6IBROD    6RESNO   
AWY DCT   SA10194290190650+56500000-010000000+55500000-015000000          1 6IBROD    6ETARI   
AWY DCT   SA10194290197020+56500000-010000000+56000000-015000000          1 6IBROD    6PIKIL   
AWY DCT   SA10194290189110+56500000-010000000+56500000-015000000          1 6IBROD    6BILTO   
AWY DCT   SA10194290198260+56500000-010000000+57000000-015000000          1 6IBROD    6SUNOT   
AWY DCT   SA10191250199240+57000000-010000000+54500000-015000000          1 6GOMUP    6VENER   
AWY DCT   SA10191250197280+57000000-010000000+55000000-015000000          1 6GOMUP    6RESNO   
AWY DCT   SA10191250190650+57000000-010000000+55500000-015000000          1 6GOMUP    6ETARI   
AWY DCT   SA10191250197020+57000000-010000000+56000000-015000000          1 6GOMUP    6PIKIL   
AWY DCT   SA10191250189110+57000000-010000000+56500000-015000000          1 6GOMUP    6BILTO   
AWY DCT   SA10194660195221+56950001-014000000+51240002-007568056          1 6KESIX    6LEDGO   
AWY DCT   SA10194660195401+56950001-014000000+50366669-008000000          1 6KESIX    6LULOX   
AWY DCT   SA10194660190921+56950001-014000000+50000000-008000000          1 6KESIX    6GAPLI   
AWY DCT   SA10194660197191+56950001-014000000+49500000-008000000          1 6KESIX    6RATKA   
AWY DCT   SA10194660198371+56950001-014000000+49000000-008000000          1 6KESIX    6TAKAS   
AWY DCT   SA10194660444211+56950001-014000000+48576946-008000000          1 6KESIX    6TULTA   
AWY DCT   SA10188910195221+56500000-014000000+51240002-007568056          1 6BEGID    6LEDGO   
AWY DCT   SA10188910195401+56500000-014000000+50366669-008000000          1 6BEGID    6LULOX   
AWY DCT   SA10188910190921+56500000-014000000+50000000-008000000          1 6BEGID    6GAPLI   
AWY DCT   SA10188910197191+56500000-014000000+49500000-008000000          1 6BEGID    6RATKA   
AWY DCT   SA10188910198371+56500000-014000000+49000000-008000000          1 6BEGID    6TAKAS   
AWY DCT   SA10188910444211+56500000-014000000+48576946-008000000          1 6BEGID    6TULTA   
AWY DCT   SA10198150195221+56000000-014000000+51240002-007568056          1 6SOVED    6LEDGO   
AWY DCT   SA10198150195401+56000000-014000000+50366669-008000000          1 6SOVED    6LULOX   
AWY DCT   SA10198150190921+56000000-014000000+50000000-008000000          1 6SOVED    6GAPLI   
AWY DCT   SA10198150197191+56000000-014000000+49500000-008000000          1 6SOVED    6RATKA   
AWY DCT   SA10198150198371+56000000-014000000+49000000-008000000          1 6SOVED    6TAKAS   
AWY DCT   SA10198150444211+56000000-014000000+48576946-008000000          1 6SOVED    6TULTA   
AWY DCT   SA10195780195221+55500000-014000000+51240002-007568056          1 6MOGLO    6LEDGO   
AWY DCT   SA10195780195401+55500000-014000000+50366669-008000000          1 6MOGLO    6LULOX   
AWY DCT   SA10195780190921+55500000-014000000+50000000-008000000          1 6MOGLO    6GAPLI   
AWY DCT   SA10195780197191+55500000-014000000+49500000-008000000          1 6MOGLO    6RATKA   
AWY DCT   SA10195780198371+55500000-014000000+49000000-008000000          1 6MOGLO    6TAKAS   
AWY DCT   SA10195780444211+55500000-014000000+48576946-008000000          1 6MOGLO    6TULTA   
AWY DCT   SA10196140195301+55000000-014000000+53063915-005500000          1 6NETKI    6LIPGO   
AWY DCT   SA10196140195221+55000000-014000000+51240002-007568056          1 6NETKI    6LEDGO   
AWY DCT   SA10196140195401+55000000-014000000+50366669-008000000          1 6NETKI    6LULOX   
AWY DCT   SA10196140190921+55000000-014000000+50000000-008000000          1 6NETKI    6GAPLI   
AWY DCT   SA10196140197191+55000000-014000000+49500000-008000000          1 6NETKI    6RATKA   
AWY DCT   SA10196140198371+55000000-014000000+49000000-008000000          1 6NETKI    6TAKAS   
AWY DCT   SA10196140444211+55000000-014000000+48576946-008000000          1 6NETKI    6TULTA   
AWY DCT   SA10194830195221+54500000-014000000+51240002-007568056          1 6KOKIB    6LEDGO   
AWY DCT   SA10194830195401+54500000-014000000+50366669-008000000          1 6KOKIB    6LULOX   
AWY DCT   SA10194830190921+54500000-014000000+50000000-008000000          1 6KOKIB    6GAPLI   
AWY DCT   SA10194830197191+54500000-014000000+49500000-008000000          1 6KOKIB    6RATKA   
AWY DCT   SA10194830198371+54500000-014000000+49000000-008000000          1 6KOKIB    6TAKAS   
AWY DCT   SA10194830444211+54500000-014000000+48576946-008000000          1 6KOKIB    6TULTA   
AWY DCT   SA10202360190601+54000000-014000000+54278889-007392777          1 6BEXET    6ERNAN   
AWY DCT   SA10202360202321+54000000-014000000+54141251-006651111          1 6BEXET    6BAMLI   
AWY DCT   SA10202360203030+54000000-014000000+54068333-006269833          1 6BEXET    6NEVRI   
AWY DCT   SA10202360203260+54000000-014000000+54028805-006066222          1 6BEXET    6ROTEV   
AWY DCT   SA10202360195221+54000000-014000000+51240002-007568056          1 6BEXET    6LEDGO   
AWY DCT   SA10202360198371+54000000-014000000+49000000-008000000          1 6BEXET    6TAKAS   
AWY DCT   SA10202360444211+54000000-014000000+48576946-008000000          1 6BEXET    6TULTA   
AWY DCT   SA10203110190601+53500000-014000000+54278889-007392777          1 6OLGON    6ERNAN   
AWY DCT   SA10203110202321+53500000-014000000+54141251-006651111          1 6OLGON    6BAMLI   
AWY DCT   SA10203110203030+53500000-014000000+54068333-006269833          1 6OLGON    6NEVRI   
AWY DCT   SA10203110203260+53500000-014000000+54028805-006066222          1 6OLGON    6ROTEV   
AWY DCT   SA10203110444211+53500000-014000000+48576946-008000000          1 6OLGON    6TULTA   
AWY DCT   SA10202680194291+53000000-014000000+56500000-010000000          1 6GISTI    6IBROD   
AWY DCT   SA10202680190601+53000000-014000000+54278889-007392777          1 6GISTI    6ERNAN   
AWY DCT   SA10202680202321+53000000-014000000+54141251-006651111          1 6GISTI    6BAMLI   
AWY DCT   SA10202680203030+53000000-014000000+54068333-006269833          1 6GISTI    6NEVRI   
AWY DCT   SA10202680203260+53000000-014000000+54028805-006066222          1 6GISTI    6ROTEV   
AWY DCT   SA10203230194291+52500000-014000000+56500000-010000000          1 6RILED    6IBROD   
AWY DCT   SA10203230195701+52500000-014000000+56000000-010000000          1 6RILED    6MIMKU   
AWY DCT   SA10203230190601+52500000-014000000+54278889-007392777          1 6RILED    6ERNAN   
AWY DCT   SA10203230202321+52500000-014000000+54141251-006651111          1 6RILED    6BAMLI   
AWY DCT   SA10203230203030+52500000-014000000+54068333-006269833          1 6RILED    6NEVRI   
AWY DCT   SA10203230203260+52500000-014000000+54028805-006066222          1 6RILED    6ROTEV   
AWY DCT   SA10203520194291+52000000-014000000+56500000-010000000          1 6XETBO    6IBROD   
AWY DCT   SA10203520195701+52000000-014000000+56000000-010000000          1 6XETBO    6MIMKU   
AWY DCT   SA10203520196201+52000000-014000000+55000000-010000000          1 6XETBO    6NIBOG   
AWY DCT   SA10203520190601+52000000-014000000+54278889-007392777          1 6XETBO    6ERNAN   
AWY DCT   SA10203520202321+52000000-014000000+54141251-006651111          1 6XETBO    6BAMLI   
AWY DCT   SA10203520203030+52000000-014000000+54068333-006269833          1 6XETBO    6NEVRI   
AWY DCT   SA10203520203260+52000000-014000000+54028805-006066222          1 6XETBO    6ROTEV   
AWY DCT   SA10202830194291+51500000-014000000+56500000-010000000          1 6LEKVA    6IBROD   
AWY DCT   SA10202830195701+51500000-014000000+56000000-010000000          1 6LEKVA    6MIMKU   
AWY DCT   SA10202830196201+51500000-014000000+55000000-010000000          1 6LEKVA    6NIBOG   
AWY DCT   SA10202830202951+51500000-014000000+54613609-009506388          1 6LEKVA    6MOLAK   
AWY DCT   SA10202830190601+51500000-014000000+54278889-007392777          1 6LEKVA    6ERNAN   
AWY DCT   SA10202830202321+51500000-014000000+54141251-006651111          1 6LEKVA    6BAMLI   
AWY DCT   SA10202830203030+51500000-014000000+54068333-006269833          1 6LEKVA    6NEVRI   
AWY DCT   SA10202830203260+51500000-014000000+54028805-006066222          1 6LEKVA    6ROTEV   
AWY DCT   SA10202530194291+51000000-014000000+56500000-010000000          1 6ELSOX    6IBROD   
AWY DCT   SA10202530195701+51000000-014000000+56000000-010000000          1 6ELSOX    6MIMKU   
AWY DCT   SA10202530196201+51000000-014000000+55000000-010000000          1 6ELSOX    6NIBOG   
AWY DCT   SA10202530202951+51000000-014000000+54613609-009506388          1 6ELSOX    6MOLAK   
AWY DCT   SA10202530190601+51000000-014000000+54278889-007392777          1 6ELSOX    6ERNAN   
AWY DCT   SA10202530202321+51000000-014000000+54141251-006651111          1 6ELSOX    6BAMLI   
AWY DCT   SA10202530203030+51000000-014000000+54068333-006269833          1 6ELSOX    6NEVRI   
AWY DCT   SA10202530203260+51000000-014000000+54028805-006066222          1 6ELSOX    6ROTEV   
AWY DCT   SA10202530195221+51000000-014000000+51240002-007568056          1 6ELSOX    6LEDGO   
AWY DCT   SA10190530194291+50500000-014000000+56500000-010000000          1 6EPUNA    6IBROD   
AWY DCT   SA10190530195701+50500000-014000000+56000000-010000000          1 6EPUNA    6MIMKU   
AWY DCT   SA10190530196201+50500000-014000000+55000000-010000000          1 6EPUNA    6NIBOG   
AWY DCT   SA10190530202951+50500000-014000000+54613609-009506388          1 6EPUNA    6MOLAK   
AWY DCT   SA10190530203061+50500000-014000000+54452499-008402777          1 6EPUNA    6NIPIT   
AWY DCT   SA10190530190601+50500000-014000000+54278889-007392777          1 6EPUNA    6ERNAN   
AWY DCT   SA10190530202321+50500000-014000000+54141251-006651111          1 6EPUNA    6BAMLI   
AWY DCT   SA10190530203030+50500000-014000000+54068333-006269833          1 6EPUNA    6NEVRI   
AWY DCT   SA10190530203260+50500000-014000000+54028805-006066222          1 6EPUNA    6ROTEV   
AWY DCT   SA10190530195221+50500000-014000000+51240002-007568056          1 6EPUNA    6LEDGO   
AWY DCT   SA10188570194291+50000000-014000000+56500000-010000000          1 6ATSUR    6IBROD   
AWY DCT   SA10188570195701+50000000-014000000+56000000-010000000          1 6ATSUR    6MIMKU   
AWY DCT   SA10188570196201+50000000-014000000+55000000-010000000          1 6ATSUR    6NIBOG   
AWY DCT   SA10188570202951+50000000-014000000+54613609-009506388          1 6ATSUR    6MOLAK   
AWY DCT   SA10188570203061+50000000-014000000+54452499-008402777          1 6ATSUR    6NIPIT   
AWY DCT   SA10188570190601+50000000-014000000+54278889-007392777          1 6ATSUR    6ERNAN   
AWY DCT   SA10188570202401+50000000-014000000+54189167-006906389          1 6ATSUR    6DEGOS   
AWY DCT   SA10188570202321+50000000-014000000+54141251-006651111          1 6ATSUR    6BAMLI   
AWY DCT   SA10188570203030+50000000-014000000+54068333-006269833          1 6ATSUR    6NEVRI   
AWY DCT   SA10188570203260+50000000-014000000+54028805-006066222          1 6ATSUR    6ROTEV   
AWY DCT   SA10188570195221+50000000-014000000+51240002-007568056          1 6ATSUR    6LEDGO   
AWY DCT   SA10189130194291+49500000-014000000+56500000-010000000          1 6BIMGO    6IBROD   
AWY DCT   SA10189130195701+49500000-014000000+56000000-010000000          1 6BIMGO    6MIMKU   
AWY DCT   SA10189130196201+49500000-014000000+55000000-010000000          1 6BIMGO    6NIBOG   
AWY DCT   SA10189130202951+49500000-014000000+54613609-009506388          1 6BIMGO    6MOLAK   
AWY DCT   SA10189130203061+49500000-014000000+54452499-008402777          1 6BIMGO    6NIPIT   
AWY DCT   SA10189130190601+49500000-014000000+54278889-007392777          1 6BIMGO    6ERNAN   
AWY DCT   SA10189130202401+49500000-014000000+54189167-006906389          1 6BIMGO    6DEGOS   
AWY DCT   SA10189130202321+49500000-014000000+54141251-006651111          1 6BIMGO    6BAMLI   
AWY DCT   SA10189130203030+49500000-014000000+54068333-006269833          1 6BIMGO    6NEVRI   
AWY DCT   SA10189130203260+49500000-014000000+54028805-006066222          1 6BIMGO    6ROTEV   
AWY DCT   SA10189130202840+49500000-014000000+53480083-005500000          1 6BIMGO    6LIFFY   
AWY DCT   SA10189130195221+49500000-014000000+51240002-007568056          1 6BIMGO    6LEDGO   
AWY DCT   SA10196100194291+49000000-014000000+56500000-010000000          1 6NERTU    6IBROD   
AWY DCT   SA10196100195701+49000000-014000000+56000000-010000000          1 6NERTU    6MIMKU   
AWY DCT   SA10196100196201+49000000-014000000+55000000-010000000          1 6NERTU    6NIBOG   
AWY DCT   SA10196100202951+49000000-014000000+54613609-009506388          1 6NERTU    6MOLAK   
AWY DCT   SA10196100203061+49000000-014000000+54452499-008402777          1 6NERTU    6NIPIT   
AWY DCT   SA10196100190601+49000000-014000000+54278889-007392777          1 6NERTU    6ERNAN   
AWY DCT   SA10196100202401+49000000-014000000+54189167-006906389          1 6NERTU    6DEGOS   
AWY DCT   SA10196100202321+49000000-014000000+54141251-006651111          1 6NERTU    6BAMLI   
AWY DCT   SA10196100203030+49000000-014000000+54068333-006269833          1 6NERTU    6NEVRI   
AWY DCT   SA10196100203260+49000000-014000000+54028805-006066222          1 6NERTU    6ROTEV   
AWY DCT   SA10196100202840+49000000-014000000+53480083-005500000          1 6NERTU    6LIFFY   
AWY DCT   SA10196100202430+49000000-014000000+53280277-005500000          1 6NERTU    6DEXEN   
AWY DCT   SA10196100195221+49000000-014000000+51240002-007568056          1 6NERTU    6LEDGO   
AWY DCT   SA10194660203211+56950001-014000000+54466667-010116666          1 6KESIX    6REVNU   
AWY DCT   SA10188910203211+56500000-014000000+54466667-010116666          1 6BEGID    6REVNU   
AWY DCT   SA10198150203211+56000000-014000000+54466667-010116666          1 6SOVED    6REVNU   
AWY DCT   SA10203210202840+54466667-010116666+53480083-005500000          1 6REVNU    6LIFFY   
AWY DCT   SA10203210202430+54466667-010116666+53280277-005500000          1 6REVNU    6DEXEN   
AWY DCT   SA10203210195301+54466667-010116666+53063915-005500000          1 6REVNU    6LIPGO   
AWY DCT   SA10198260194661+57000000-015000000+56950001-014000000          1 6SUNOT    6KESIX   
AWY DCT   SA10189110188911+56500000-015000000+56500000-014000000          1 6BILTO    6BEGID   
AWY DCT   SA10197020198151+56000000-015000000+56000000-014000000          1 6PIKIL    6SOVED   
AWY DCT   SA10190650195781+55500000-015000000+55500000-014000000          1 6ETARI    6MOGLO   
AWY DCT   SA10197280196141+55000000-015000000+55000000-014000000          1 6RESNO    6NETKI   
AWY DCT   SA10199240194831+54500000-015000000+54500000-014000000          1 6VENER    6KOKIB   
AWY DCT   SA10202490202361+54000000-015000000+54000000-014000000          1 6DOGAL    6BEXET   
AWY DCT   SA10203010203111+53500000-015000000+53500000-014000000          1 6NEBIN    6OLGON   
AWY DCT   SA10202930202681+53000000-015000000+53000000-014000000          1 6MALOT    6GISTI   
AWY DCT   SA10203400203231+52500000-015000000+52500000-014000000          1 6TOBOR    6RILED   
AWY DCT   SA10202860203521+52000000-015000000+52000000-014000000          1 6LIMRI    6XETBO   
AWY DCT   SA10202190202831+51500000-015000000+51500000-014000000          1 6ADARA    6LEKVA   
AWY DCT   SA10202460202531+51000000-015000000+51000000-014000000          1 6DINIM    6ELSOX   
AWY DCT   SA10197490190531+50500000-015000000+50500000-014000000          1 6RODEL    6EPUNA   
AWY DCT   SA10198020188571+50000000-015000000+50000000-014000000          1 6SOMAX    6ATSUR   
AWY DCT   SA10194810189131+49500000-015000000+49500000-014000000          1 6KOGAD    6BIMGO   
AWY DCT   SA10188890196101+49000000-015000000+49000000-014000000          1 6BEDRA    6NERTU   
AWY DCT   SA10203210202301+54466667-010116666+52241669-005680277          1 6REVNU    6BAKUR   
AWY DCT   SA10203510203210+52554443-005500000+54466667-010116666          1 6VATRY    6REVNU   
AWY DCT   SA10203210203291+54466667-010116666+52158611-005842222          1 6REVNU    6SLANY   
AWY DCT   SA10203210202331+54466667-010116666+51952778-006239167          1 6REVNU    6BANBA   
AWY DCT   SA10203210202591+54466667-010116666+51782223-006563333          1 6REVNU    6EVRIN   
AWY DCT   SA10203210203070+54466667-010116666+51619167-006869721          1 6REVNU    6NORLA   
AWY DCT   SA10203210195221+54466667-010116666+51240002-007568056          1 6REVNU    6LEDGO   
